{
	"tema/CrowdFunding.sol": {
		"CrowdFunding": {
			"abi": [
				{
					"inputs": [
						{
							"internalType": "address",
							"name": "_tokenAddress",
							"type": "address"
						},
						{
							"internalType": "uint256",
							"name": "_fundingGoal",
							"type": "uint256"
						}
					],
					"stateMutability": "nonpayable",
					"type": "constructor"
				},
				{
					"anonymous": false,
					"inputs": [
						{
							"indexed": true,
							"internalType": "address",
							"name": "contributor",
							"type": "address"
						},
						{
							"indexed": false,
							"internalType": "uint256",
							"name": "amount",
							"type": "uint256"
						}
					],
					"name": "ContributionMade",
					"type": "event"
				},
				{
					"anonymous": false,
					"inputs": [
						{
							"indexed": true,
							"internalType": "address",
							"name": "contributor",
							"type": "address"
						},
						{
							"indexed": false,
							"internalType": "uint256",
							"name": "amount",
							"type": "uint256"
						}
					],
					"name": "ContributionWithdrawn",
					"type": "event"
				},
				{
					"anonymous": false,
					"inputs": [],
					"name": "FundingFinalized",
					"type": "event"
				},
				{
					"anonymous": false,
					"inputs": [
						{
							"indexed": true,
							"internalType": "address",
							"name": "to",
							"type": "address"
						},
						{
							"indexed": false,
							"internalType": "uint256",
							"name": "amount",
							"type": "uint256"
						}
					],
					"name": "TotalFundsTransferred",
					"type": "event"
				},
				{
					"inputs": [
						{
							"internalType": "uint256",
							"name": "_amount",
							"type": "uint256"
						}
					],
					"name": "contribute",
					"outputs": [],
					"stateMutability": "nonpayable",
					"type": "function"
				},
				{
					"inputs": [
						{
							"internalType": "address",
							"name": "",
							"type": "address"
						}
					],
					"name": "contributions",
					"outputs": [
						{
							"internalType": "uint256",
							"name": "",
							"type": "uint256"
						}
					],
					"stateMutability": "view",
					"type": "function"
				},
				{
					"inputs": [
						{
							"internalType": "address",
							"name": "_sponsorFunding",
							"type": "address"
						}
					],
					"name": "finalizeFunding",
					"outputs": [],
					"stateMutability": "nonpayable",
					"type": "function"
				},
				{
					"inputs": [],
					"name": "fundingGoal",
					"outputs": [
						{
							"internalType": "uint256",
							"name": "",
							"type": "uint256"
						}
					],
					"stateMutability": "view",
					"type": "function"
				},
				{
					"inputs": [],
					"name": "owner",
					"outputs": [
						{
							"internalType": "address",
							"name": "",
							"type": "address"
						}
					],
					"stateMutability": "view",
					"type": "function"
				},
				{
					"inputs": [],
					"name": "state",
					"outputs": [
						{
							"internalType": "enum CrowdFunding.FundingState",
							"name": "",
							"type": "uint8"
						}
					],
					"stateMutability": "view",
					"type": "function"
				},
				{
					"inputs": [],
					"name": "tokenAddress",
					"outputs": [
						{
							"internalType": "address",
							"name": "",
							"type": "address"
						}
					],
					"stateMutability": "view",
					"type": "function"
				},
				{
					"inputs": [],
					"name": "totalFunds",
					"outputs": [
						{
							"internalType": "uint256",
							"name": "",
							"type": "uint256"
						}
					],
					"stateMutability": "view",
					"type": "function"
				},
				{
					"inputs": [
						{
							"internalType": "address",
							"name": "_distributeFunding",
							"type": "address"
						}
					],
					"name": "transferFunds",
					"outputs": [],
					"stateMutability": "nonpayable",
					"type": "function"
				},
				{
					"inputs": [
						{
							"internalType": "uint256",
							"name": "_amount",
							"type": "uint256"
						}
					],
					"name": "withdrawContribution",
					"outputs": [],
					"stateMutability": "nonpayable",
					"type": "function"
				}
			],
			"devdoc": {
				"kind": "dev",
				"methods": {},
				"version": 1
			},
			"evm": {
				"assembly": "    /* \"tema/CrowdFunding.sol\":222:2988  contract CrowdFunding {... */\n  mstore(0x40, 0x80)\n    /* \"tema/CrowdFunding.sol\":785:997  constructor(address _tokenAddress, uint256 _fundingGoal) {... */\n  callvalue\n  dup1\n  iszero\n  tag_1\n  jumpi\n  0x00\n  dup1\n  revert\ntag_1:\n  pop\n  mload(0x40)\n  sub(codesize, bytecodeSize)\n  dup1\n  bytecodeSize\n  dup4\n  codecopy\n  dup2\n  dup2\n  add\n  0x40\n  mstore\n  dup2\n  add\n  swap1\n  tag_2\n  swap2\n  swap1\n  tag_3\n  jump\t// in\ntag_2:\n    /* \"tema/CrowdFunding.sol\":868:881  _tokenAddress */\n  dup2\n    /* \"tema/CrowdFunding.sol\":853:865  tokenAddress */\n  0x00\n  0x01\n    /* \"tema/CrowdFunding.sol\":853:881  tokenAddress = _tokenAddress */\n  0x0100\n  exp\n  dup2\n  sload\n  dup2\n  0xffffffffffffffffffffffffffffffffffffffff\n  mul\n  not\n  and\n  swap1\n  dup4\n  0xffffffffffffffffffffffffffffffffffffffff\n  and\n  mul\n  or\n  swap1\n  sstore\n  pop\n    /* \"tema/CrowdFunding.sol\":900:910  msg.sender */\n  caller\n    /* \"tema/CrowdFunding.sol\":892:897  owner */\n  0x01\n  0x00\n    /* \"tema/CrowdFunding.sol\":892:910  owner = msg.sender */\n  0x0100\n  exp\n  dup2\n  sload\n  dup2\n  0xffffffffffffffffffffffffffffffffffffffff\n  mul\n  not\n  and\n  swap1\n  dup4\n  0xffffffffffffffffffffffffffffffffffffffff\n  and\n  mul\n  or\n  swap1\n  sstore\n  pop\n    /* \"tema/CrowdFunding.sol\":935:947  _fundingGoal */\n  dup1\n    /* \"tema/CrowdFunding.sol\":921:932  fundingGoal */\n  0x02\n    /* \"tema/CrowdFunding.sol\":921:947  fundingGoal = _fundingGoal */\n  dup2\n  swap1\n  sstore\n  pop\n    /* \"tema/CrowdFunding.sol\":966:989  FundingState.Nefinantat */\n  0x00\n    /* \"tema/CrowdFunding.sol\":958:963  state */\n  dup1\n  0x00\n    /* \"tema/CrowdFunding.sol\":958:989  state = FundingState.Nefinantat */\n  0x0100\n  exp\n  dup2\n  sload\n  dup2\n  0xff\n  mul\n  not\n  and\n  swap1\n  dup4\n  0x02\n  dup2\n  gt\n  iszero\n  tag_6\n  jumpi\n  tag_7\n  tag_8\n  jump\t// in\ntag_7:\ntag_6:\n  mul\n  or\n  swap1\n  sstore\n  pop\n    /* \"tema/CrowdFunding.sol\":785:997  constructor(address _tokenAddress, uint256 _fundingGoal) {... */\n  pop\n  pop\n    /* \"tema/CrowdFunding.sol\":222:2988  contract CrowdFunding {... */\n  jump(tag_9)\n    /* \"#utility.yul\":88:205   */\ntag_11:\n    /* \"#utility.yul\":197:198   */\n  0x00\n    /* \"#utility.yul\":194:195   */\n  dup1\n    /* \"#utility.yul\":187:199   */\n  revert\n    /* \"#utility.yul\":334:460   */\ntag_13:\n    /* \"#utility.yul\":371:378   */\n  0x00\n    /* \"#utility.yul\":411:453   */\n  0xffffffffffffffffffffffffffffffffffffffff\n    /* \"#utility.yul\":404:409   */\n  dup3\n    /* \"#utility.yul\":400:454   */\n  and\n    /* \"#utility.yul\":389:454   */\n  swap1\n  pop\n    /* \"#utility.yul\":334:460   */\n  swap2\n  swap1\n  pop\n  jump\t// out\n    /* \"#utility.yul\":466:562   */\ntag_14:\n    /* \"#utility.yul\":503:510   */\n  0x00\n    /* \"#utility.yul\":532:556   */\n  tag_26\n    /* \"#utility.yul\":550:555   */\n  dup3\n    /* \"#utility.yul\":532:556   */\n  tag_13\n  jump\t// in\ntag_26:\n    /* \"#utility.yul\":521:556   */\n  swap1\n  pop\n    /* \"#utility.yul\":466:562   */\n  swap2\n  swap1\n  pop\n  jump\t// out\n    /* \"#utility.yul\":568:690   */\ntag_15:\n    /* \"#utility.yul\":641:665   */\n  tag_28\n    /* \"#utility.yul\":659:664   */\n  dup2\n    /* \"#utility.yul\":641:665   */\n  tag_14\n  jump\t// in\ntag_28:\n    /* \"#utility.yul\":634:639   */\n  dup2\n    /* \"#utility.yul\":631:666   */\n  eq\n    /* \"#utility.yul\":621:684   */\n  tag_29\n  jumpi\n    /* \"#utility.yul\":680:681   */\n  0x00\n    /* \"#utility.yul\":677:678   */\n  dup1\n    /* \"#utility.yul\":670:682   */\n  revert\n    /* \"#utility.yul\":621:684   */\ntag_29:\n    /* \"#utility.yul\":568:690   */\n  pop\n  jump\t// out\n    /* \"#utility.yul\":696:839   */\ntag_16:\n    /* \"#utility.yul\":753:758   */\n  0x00\n    /* \"#utility.yul\":784:790   */\n  dup2\n    /* \"#utility.yul\":778:791   */\n  mload\n    /* \"#utility.yul\":769:791   */\n  swap1\n  pop\n    /* \"#utility.yul\":800:833   */\n  tag_31\n    /* \"#utility.yul\":827:832   */\n  dup2\n    /* \"#utility.yul\":800:833   */\n  tag_15\n  jump\t// in\ntag_31:\n    /* \"#utility.yul\":696:839   */\n  swap3\n  swap2\n  pop\n  pop\n  jump\t// out\n    /* \"#utility.yul\":845:922   */\ntag_17:\n    /* \"#utility.yul\":882:889   */\n  0x00\n    /* \"#utility.yul\":911:916   */\n  dup2\n    /* \"#utility.yul\":900:916   */\n  swap1\n  pop\n    /* \"#utility.yul\":845:922   */\n  swap2\n  swap1\n  pop\n  jump\t// out\n    /* \"#utility.yul\":928:1050   */\ntag_18:\n    /* \"#utility.yul\":1001:1025   */\n  tag_34\n    /* \"#utility.yul\":1019:1024   */\n  dup2\n    /* \"#utility.yul\":1001:1025   */\n  tag_17\n  jump\t// in\ntag_34:\n    /* \"#utility.yul\":994:999   */\n  dup2\n    /* \"#utility.yul\":991:1026   */\n  eq\n    /* \"#utility.yul\":981:1044   */\n  tag_35\n  jumpi\n    /* \"#utility.yul\":1040:1041   */\n  0x00\n    /* \"#utility.yul\":1037:1038   */\n  dup1\n    /* \"#utility.yul\":1030:1042   */\n  revert\n    /* \"#utility.yul\":981:1044   */\ntag_35:\n    /* \"#utility.yul\":928:1050   */\n  pop\n  jump\t// out\n    /* \"#utility.yul\":1056:1199   */\ntag_19:\n    /* \"#utility.yul\":1113:1118   */\n  0x00\n    /* \"#utility.yul\":1144:1150   */\n  dup2\n    /* \"#utility.yul\":1138:1151   */\n  mload\n    /* \"#utility.yul\":1129:1151   */\n  swap1\n  pop\n    /* \"#utility.yul\":1160:1193   */\n  tag_37\n    /* \"#utility.yul\":1187:1192   */\n  dup2\n    /* \"#utility.yul\":1160:1193   */\n  tag_18\n  jump\t// in\ntag_37:\n    /* \"#utility.yul\":1056:1199   */\n  swap3\n  swap2\n  pop\n  pop\n  jump\t// out\n    /* \"#utility.yul\":1205:1712   */\ntag_3:\n    /* \"#utility.yul\":1284:1290   */\n  0x00\n    /* \"#utility.yul\":1292:1298   */\n  dup1\n    /* \"#utility.yul\":1341:1343   */\n  0x40\n    /* \"#utility.yul\":1329:1338   */\n  dup4\n    /* \"#utility.yul\":1320:1327   */\n  dup6\n    /* \"#utility.yul\":1316:1339   */\n  sub\n    /* \"#utility.yul\":1312:1344   */\n  slt\n    /* \"#utility.yul\":1309:1428   */\n  iszero\n  tag_39\n  jumpi\n    /* \"#utility.yul\":1347:1426   */\n  tag_40\n  tag_11\n  jump\t// in\ntag_40:\n    /* \"#utility.yul\":1309:1428   */\ntag_39:\n    /* \"#utility.yul\":1467:1468   */\n  0x00\n    /* \"#utility.yul\":1492:1556   */\n  tag_41\n    /* \"#utility.yul\":1548:1555   */\n  dup6\n    /* \"#utility.yul\":1539:1545   */\n  dup3\n    /* \"#utility.yul\":1528:1537   */\n  dup7\n    /* \"#utility.yul\":1524:1546   */\n  add\n    /* \"#utility.yul\":1492:1556   */\n  tag_16\n  jump\t// in\ntag_41:\n    /* \"#utility.yul\":1482:1556   */\n  swap3\n  pop\n    /* \"#utility.yul\":1438:1566   */\n  pop\n    /* \"#utility.yul\":1605:1607   */\n  0x20\n    /* \"#utility.yul\":1631:1695   */\n  tag_42\n    /* \"#utility.yul\":1687:1694   */\n  dup6\n    /* \"#utility.yul\":1678:1684   */\n  dup3\n    /* \"#utility.yul\":1667:1676   */\n  dup7\n    /* \"#utility.yul\":1663:1685   */\n  add\n    /* \"#utility.yul\":1631:1695   */\n  tag_19\n  jump\t// in\ntag_42:\n    /* \"#utility.yul\":1621:1695   */\n  swap2\n  pop\n    /* \"#utility.yul\":1576:1705   */\n  pop\n    /* \"#utility.yul\":1205:1712   */\n  swap3\n  pop\n  swap3\n  swap1\n  pop\n  jump\t// out\n    /* \"#utility.yul\":1718:1898   */\ntag_8:\n    /* \"#utility.yul\":1766:1843   */\n  0x4e487b7100000000000000000000000000000000000000000000000000000000\n    /* \"#utility.yul\":1763:1764   */\n  0x00\n    /* \"#utility.yul\":1756:1844   */\n  mstore\n    /* \"#utility.yul\":1863:1867   */\n  0x21\n    /* \"#utility.yul\":1860:1861   */\n  0x04\n    /* \"#utility.yul\":1853:1868   */\n  mstore\n    /* \"#utility.yul\":1887:1891   */\n  0x24\n    /* \"#utility.yul\":1884:1885   */\n  0x00\n    /* \"#utility.yul\":1877:1892   */\n  revert\n    /* \"tema/CrowdFunding.sol\":222:2988  contract CrowdFunding {... */\ntag_9:\n  dataSize(sub_0)\n  dup1\n  dataOffset(sub_0)\n  0x00\n  codecopy\n  0x00\n  return\nstop\n\nsub_0: assembly {\n        /* \"tema/CrowdFunding.sol\":222:2988  contract CrowdFunding {... */\n      mstore(0x40, 0x80)\n      callvalue\n      dup1\n      iszero\n      tag_1\n      jumpi\n      0x00\n      dup1\n      revert\n    tag_1:\n      pop\n      jumpi(tag_2, lt(calldatasize, 0x04))\n      shr(0xe0, calldataload(0x00))\n      dup1\n      0xc19d93fb\n      gt\n      tag_13\n      jumpi\n      dup1\n      0xc19d93fb\n      eq\n      tag_8\n      jumpi\n      dup1\n      0xc1ad7925\n      eq\n      tag_9\n      jumpi\n      dup1\n      0xc1cbbca7\n      eq\n      tag_10\n      jumpi\n      dup1\n      0xd25090ff\n      eq\n      tag_11\n      jumpi\n      dup1\n      0xe39ff19f\n      eq\n      tag_12\n      jumpi\n      jump(tag_2)\n    tag_13:\n      dup1\n      0x42e94c90\n      eq\n      tag_3\n      jumpi\n      dup1\n      0x7a3a0e84\n      eq\n      tag_4\n      jumpi\n      dup1\n      0x8da5cb5b\n      eq\n      tag_5\n      jumpi\n      dup1\n      0x968ed600\n      eq\n      tag_6\n      jumpi\n      dup1\n      0x9d76ea58\n      eq\n      tag_7\n      jumpi\n    tag_2:\n      0x00\n      dup1\n      revert\n        /* \"tema/CrowdFunding.sol\":472:520  mapping(address => uint256) public contributions */\n    tag_3:\n      tag_14\n      0x04\n      dup1\n      calldatasize\n      sub\n      dup2\n      add\n      swap1\n      tag_15\n      swap2\n      swap1\n      tag_16\n      jump\t// in\n    tag_15:\n      tag_17\n      jump\t// in\n    tag_14:\n      mload(0x40)\n      tag_18\n      swap2\n      swap1\n      tag_19\n      jump\t// in\n    tag_18:\n      mload(0x40)\n      dup1\n      swap2\n      sub\n      swap1\n      return\n        /* \"tema/CrowdFunding.sol\":407:433  uint256 public fundingGoal */\n    tag_4:\n      tag_20\n      tag_21\n      jump\t// in\n    tag_20:\n      mload(0x40)\n      tag_22\n      swap2\n      swap1\n      tag_19\n      jump\t// in\n    tag_22:\n      mload(0x40)\n      dup1\n      swap2\n      sub\n      swap1\n      return\n        /* \"tema/CrowdFunding.sol\":380:400  address public owner */\n    tag_5:\n      tag_23\n      tag_24\n      jump\t// in\n    tag_23:\n      mload(0x40)\n      tag_25\n      swap2\n      swap1\n      tag_26\n      jump\t// in\n    tag_25:\n      mload(0x40)\n      dup1\n      swap2\n      sub\n      swap1\n      return\n        /* \"tema/CrowdFunding.sol\":440:465  uint256 public totalFunds */\n    tag_6:\n      tag_27\n      tag_28\n      jump\t// in\n    tag_27:\n      mload(0x40)\n      tag_29\n      swap2\n      swap1\n      tag_19\n      jump\t// in\n    tag_29:\n      mload(0x40)\n      dup1\n      swap2\n      sub\n      swap1\n      return\n        /* \"tema/CrowdFunding.sol\":346:373  address public tokenAddress */\n    tag_7:\n      tag_30\n      tag_31\n      jump\t// in\n    tag_30:\n      mload(0x40)\n      tag_32\n      swap2\n      swap1\n      tag_26\n      jump\t// in\n    tag_32:\n      mload(0x40)\n      dup1\n      swap2\n      sub\n      swap1\n      return\n        /* \"tema/CrowdFunding.sol\":312:337  FundingState public state */\n    tag_8:\n      tag_33\n      tag_34\n      jump\t// in\n    tag_33:\n      mload(0x40)\n      tag_35\n      swap2\n      swap1\n      tag_36\n      jump\t// in\n    tag_35:\n      mload(0x40)\n      dup1\n      swap2\n      sub\n      swap1\n      return\n        /* \"tema/CrowdFunding.sol\":2279:2636  function finalizeFunding(address _sponsorFunding) public onlyOwner inState(FundingState.Prefinantat) {... */\n    tag_9:\n      tag_37\n      0x04\n      dup1\n      calldatasize\n      sub\n      dup2\n      add\n      swap1\n      tag_38\n      swap2\n      swap1\n      tag_16\n      jump\t// in\n    tag_38:\n      tag_39\n      jump\t// in\n    tag_37:\n      stop\n        /* \"tema/CrowdFunding.sol\":1264:1792  function contribute(uint256 _amount) public inState(FundingState.Nefinantat) {... */\n    tag_10:\n      tag_40\n      0x04\n      dup1\n      calldatasize\n      sub\n      dup2\n      add\n      swap1\n      tag_41\n      swap2\n      swap1\n      tag_42\n      jump\t// in\n    tag_41:\n      tag_43\n      jump\t// in\n    tag_40:\n      stop\n        /* \"tema/CrowdFunding.sol\":1837:2214  function withdrawContribution(uint256 _amount) public inState(FundingState.Nefinantat) {... */\n    tag_11:\n      tag_44\n      0x04\n      dup1\n      calldatasize\n      sub\n      dup2\n      add\n      swap1\n      tag_45\n      swap2\n      swap1\n      tag_42\n      jump\t// in\n    tag_45:\n      tag_46\n      jump\t// in\n    tag_44:\n      stop\n        /* \"tema/CrowdFunding.sol\":2710:2985  function transferFunds(address _distributeFunding) public onlyOwner inState(FundingState.Finantat) {... */\n    tag_12:\n      tag_47\n      0x04\n      dup1\n      calldatasize\n      sub\n      dup2\n      add\n      swap1\n      tag_48\n      swap2\n      swap1\n      tag_16\n      jump\t// in\n    tag_48:\n      tag_49\n      jump\t// in\n    tag_47:\n      stop\n        /* \"tema/CrowdFunding.sol\":472:520  mapping(address => uint256) public contributions */\n    tag_17:\n      mstore(0x20, 0x04)\n      dup1\n      0x00\n      mstore\n      keccak256(0x00, 0x40)\n      0x00\n      swap2\n      pop\n      swap1\n      pop\n      sload\n      dup2\n      jump\t// out\n        /* \"tema/CrowdFunding.sol\":407:433  uint256 public fundingGoal */\n    tag_21:\n      sload(0x02)\n      dup2\n      jump\t// out\n        /* \"tema/CrowdFunding.sol\":380:400  address public owner */\n    tag_24:\n      0x01\n      0x00\n      swap1\n      sload\n      swap1\n      0x0100\n      exp\n      swap1\n      div\n      0xffffffffffffffffffffffffffffffffffffffff\n      and\n      dup2\n      jump\t// out\n        /* \"tema/CrowdFunding.sol\":440:465  uint256 public totalFunds */\n    tag_28:\n      sload(0x03)\n      dup2\n      jump\t// out\n        /* \"tema/CrowdFunding.sol\":346:373  address public tokenAddress */\n    tag_31:\n      0x00\n      0x01\n      swap1\n      sload\n      swap1\n      0x0100\n      exp\n      swap1\n      div\n      0xffffffffffffffffffffffffffffffffffffffff\n      and\n      dup2\n      jump\t// out\n        /* \"tema/CrowdFunding.sol\":312:337  FundingState public state */\n    tag_34:\n      0x00\n      dup1\n      sload\n      swap1\n      0x0100\n      exp\n      swap1\n      div\n      0xff\n      and\n      dup2\n      jump\t// out\n        /* \"tema/CrowdFunding.sol\":2279:2636  function finalizeFunding(address _sponsorFunding) public onlyOwner inState(FundingState.Prefinantat) {... */\n    tag_39:\n        /* \"tema/CrowdFunding.sol\":1059:1064  owner */\n      0x01\n      0x00\n      swap1\n      sload\n      swap1\n      0x0100\n      exp\n      swap1\n      div\n      0xffffffffffffffffffffffffffffffffffffffff\n      and\n        /* \"tema/CrowdFunding.sol\":1045:1064  msg.sender == owner */\n      0xffffffffffffffffffffffffffffffffffffffff\n      and\n        /* \"tema/CrowdFunding.sol\":1045:1055  msg.sender */\n      caller\n        /* \"tema/CrowdFunding.sol\":1045:1064  msg.sender == owner */\n      0xffffffffffffffffffffffffffffffffffffffff\n      and\n      eq\n        /* \"tema/CrowdFunding.sol\":1037:1082  require(msg.sender == owner, \"Not the owner\") */\n      tag_51\n      jumpi\n      mload(0x40)\n      0x08c379a000000000000000000000000000000000000000000000000000000000\n      dup2\n      mstore\n      0x04\n      add\n      tag_52\n      swap1\n      tag_53\n      jump\t// in\n    tag_52:\n      mload(0x40)\n      dup1\n      swap2\n      sub\n      swap1\n      revert\n    tag_51:\n        /* \"tema/CrowdFunding.sol\":2354:2378  FundingState.Prefinantat */\n      0x01\n        /* \"tema/CrowdFunding.sol\":1176:1182  _state */\n      dup1\n        /* \"tema/CrowdFunding.sol\":1167:1182  state == _state */\n      0x02\n      dup2\n      gt\n      iszero\n      tag_55\n      jumpi\n      tag_56\n      tag_57\n      jump\t// in\n    tag_56:\n    tag_55:\n        /* \"tema/CrowdFunding.sol\":1167:1172  state */\n      0x00\n      dup1\n      sload\n      swap1\n      0x0100\n      exp\n      swap1\n      div\n      0xff\n      and\n        /* \"tema/CrowdFunding.sol\":1167:1182  state == _state */\n      0x02\n      dup2\n      gt\n      iszero\n      tag_58\n      jumpi\n      tag_59\n      tag_57\n      jump\t// in\n    tag_59:\n    tag_58:\n      eq\n        /* \"tema/CrowdFunding.sol\":1159:1200  require(state == _state, \"Invalid state\") */\n      tag_60\n      jumpi\n      mload(0x40)\n      0x08c379a000000000000000000000000000000000000000000000000000000000\n      dup2\n      mstore\n      0x04\n      add\n      tag_61\n      swap1\n      tag_62\n      jump\t// in\n    tag_61:\n      mload(0x40)\n      dup1\n      swap2\n      sub\n      swap1\n      revert\n    tag_60:\n        /* \"tema/CrowdFunding.sol\":2391:2413  SponsorFunding sponsor */\n      0x00\n        /* \"tema/CrowdFunding.sol\":2431:2446  _sponsorFunding */\n      dup3\n        /* \"tema/CrowdFunding.sol\":2391:2447  SponsorFunding sponsor = SponsorFunding(_sponsorFunding) */\n      swap1\n      pop\n        /* \"tema/CrowdFunding.sol\":2464:2471  sponsor */\n      dup1\n        /* \"tema/CrowdFunding.sol\":2464:2479  sponsor.sponsor */\n      0xffffffffffffffffffffffffffffffffffffffff\n      and\n      0x766c4f37\n        /* \"tema/CrowdFunding.sol\":2488:2492  this */\n      address\n        /* \"tema/CrowdFunding.sol\":2464:2494  sponsor.sponsor(address(this)) */\n      mload(0x40)\n      dup3\n      0xffffffff\n      and\n      0xe0\n      shl\n      dup2\n      mstore\n      0x04\n      add\n      tag_64\n      swap2\n      swap1\n      tag_26\n      jump\t// in\n    tag_64:\n      0x20\n      mload(0x40)\n      dup1\n      dup4\n      sub\n      dup2\n      0x00\n      dup8\n      gas\n      call\n      iszero\n      dup1\n      iszero\n      tag_66\n      jumpi\n      returndatasize\n      0x00\n      dup1\n      returndatacopy\n      revert(0x00, returndatasize)\n    tag_66:\n      pop\n      pop\n      pop\n      pop\n      mload(0x40)\n      returndatasize\n      not(0x1f)\n      0x1f\n      dup3\n      add\n      and\n      dup3\n      add\n      dup1\n      0x40\n      mstore\n      pop\n      dup2\n      add\n      swap1\n      tag_67\n      swap2\n      swap1\n      tag_68\n      jump\t// in\n    tag_67:\n        /* \"tema/CrowdFunding.sol\":2460:2629  if (sponsor.sponsor(address(this))) {... */\n      iszero\n      tag_69\n      jumpi\n        /* \"tema/CrowdFunding.sol\":2558:2579  FundingState.Finantat */\n      0x02\n        /* \"tema/CrowdFunding.sol\":2550:2555  state */\n      0x00\n      dup1\n        /* \"tema/CrowdFunding.sol\":2550:2579  state = FundingState.Finantat */\n      0x0100\n      exp\n      dup2\n      sload\n      dup2\n      0xff\n      mul\n      not\n      and\n      swap1\n      dup4\n      0x02\n      dup2\n      gt\n      iszero\n      tag_70\n      jumpi\n      tag_71\n      tag_57\n      jump\t// in\n    tag_71:\n    tag_70:\n      mul\n      or\n      swap1\n      sstore\n      pop\n        /* \"tema/CrowdFunding.sol\":2599:2617  FundingFinalized() */\n      0xdb780f9dea39c8989045a6757dc47c885201e096018f863c1a76233128da6036\n      mload(0x40)\n      mload(0x40)\n      dup1\n      swap2\n      sub\n      swap1\n      log1\n        /* \"tema/CrowdFunding.sol\":2460:2629  if (sponsor.sponsor(address(this))) {... */\n    tag_69:\n        /* \"tema/CrowdFunding.sol\":2380:2636  {... */\n      pop\n        /* \"tema/CrowdFunding.sol\":1093:1094  _ */\n      pop\n        /* \"tema/CrowdFunding.sol\":2279:2636  function finalizeFunding(address _sponsorFunding) public onlyOwner inState(FundingState.Prefinantat) {... */\n      pop\n      jump\t// out\n        /* \"tema/CrowdFunding.sol\":1264:1792  function contribute(uint256 _amount) public inState(FundingState.Nefinantat) {... */\n    tag_43:\n        /* \"tema/CrowdFunding.sol\":1316:1339  FundingState.Nefinantat */\n      0x00\n        /* \"tema/CrowdFunding.sol\":1176:1182  _state */\n      dup1\n        /* \"tema/CrowdFunding.sol\":1167:1182  state == _state */\n      0x02\n      dup2\n      gt\n      iszero\n      tag_73\n      jumpi\n      tag_74\n      tag_57\n      jump\t// in\n    tag_74:\n    tag_73:\n        /* \"tema/CrowdFunding.sol\":1167:1172  state */\n      0x00\n      dup1\n      sload\n      swap1\n      0x0100\n      exp\n      swap1\n      div\n      0xff\n      and\n        /* \"tema/CrowdFunding.sol\":1167:1182  state == _state */\n      0x02\n      dup2\n      gt\n      iszero\n      tag_75\n      jumpi\n      tag_76\n      tag_57\n      jump\t// in\n    tag_76:\n    tag_75:\n      eq\n        /* \"tema/CrowdFunding.sol\":1159:1200  require(state == _state, \"Invalid state\") */\n      tag_77\n      jumpi\n      mload(0x40)\n      0x08c379a000000000000000000000000000000000000000000000000000000000\n      dup2\n      mstore\n      0x04\n      add\n      tag_78\n      swap1\n      tag_62\n      jump\t// in\n    tag_78:\n      mload(0x40)\n      dup1\n      swap2\n      sub\n      swap1\n      revert\n    tag_77:\n        /* \"tema/CrowdFunding.sol\":1370:1371  0 */\n      0x00\n        /* \"tema/CrowdFunding.sol\":1360:1367  _amount */\n      dup3\n        /* \"tema/CrowdFunding.sol\":1360:1371  _amount > 0 */\n      gt\n        /* \"tema/CrowdFunding.sol\":1352:1408  require(_amount > 0, \"Amount must be greater than zero\") */\n      tag_80\n      jumpi\n      mload(0x40)\n      0x08c379a000000000000000000000000000000000000000000000000000000000\n      dup2\n      mstore\n      0x04\n      add\n      tag_81\n      swap1\n      tag_82\n      jump\t// in\n    tag_81:\n      mload(0x40)\n      dup1\n      swap2\n      sub\n      swap1\n      revert\n    tag_80:\n        /* \"tema/CrowdFunding.sol\":1426:1438  tokenAddress */\n      0x00\n      0x01\n      swap1\n      sload\n      swap1\n      0x0100\n      exp\n      swap1\n      div\n      0xffffffffffffffffffffffffffffffffffffffff\n      and\n        /* \"tema/CrowdFunding.sol\":1419:1452  IERC20(tokenAddress).transferFrom */\n      0xffffffffffffffffffffffffffffffffffffffff\n      and\n      0x23b872dd\n        /* \"tema/CrowdFunding.sol\":1453:1463  msg.sender */\n      caller\n        /* \"tema/CrowdFunding.sol\":1473:1477  this */\n      address\n        /* \"tema/CrowdFunding.sol\":1480:1487  _amount */\n      dup6\n        /* \"tema/CrowdFunding.sol\":1419:1488  IERC20(tokenAddress).transferFrom(msg.sender, address(this), _amount) */\n      mload(0x40)\n      dup5\n      0xffffffff\n      and\n      0xe0\n      shl\n      dup2\n      mstore\n      0x04\n      add\n      tag_83\n      swap4\n      swap3\n      swap2\n      swap1\n      tag_84\n      jump\t// in\n    tag_83:\n      0x20\n      mload(0x40)\n      dup1\n      dup4\n      sub\n      dup2\n      0x00\n      dup8\n      gas\n      call\n      iszero\n      dup1\n      iszero\n      tag_86\n      jumpi\n      returndatasize\n      0x00\n      dup1\n      returndatacopy\n      revert(0x00, returndatasize)\n    tag_86:\n      pop\n      pop\n      pop\n      pop\n      mload(0x40)\n      returndatasize\n      not(0x1f)\n      0x1f\n      dup3\n      add\n      and\n      dup3\n      add\n      dup1\n      0x40\n      mstore\n      pop\n      dup2\n      add\n      swap1\n      tag_87\n      swap2\n      swap1\n      tag_68\n      jump\t// in\n    tag_87:\n      pop\n        /* \"tema/CrowdFunding.sol\":1530:1537  _amount */\n      dup2\n        /* \"tema/CrowdFunding.sol\":1501:1514  contributions */\n      0x04\n        /* \"tema/CrowdFunding.sol\":1501:1526  contributions[msg.sender] */\n      0x00\n        /* \"tema/CrowdFunding.sol\":1515:1525  msg.sender */\n      caller\n        /* \"tema/CrowdFunding.sol\":1501:1526  contributions[msg.sender] */\n      0xffffffffffffffffffffffffffffffffffffffff\n      and\n      0xffffffffffffffffffffffffffffffffffffffff\n      and\n      dup2\n      mstore\n      0x20\n      add\n      swap1\n      dup2\n      mstore\n      0x20\n      add\n      0x00\n      keccak256\n      0x00\n        /* \"tema/CrowdFunding.sol\":1501:1537  contributions[msg.sender] += _amount */\n      dup3\n      dup3\n      sload\n      tag_88\n      swap2\n      swap1\n      tag_89\n      jump\t// in\n    tag_88:\n      swap3\n      pop\n      pop\n      dup2\n      swap1\n      sstore\n      pop\n        /* \"tema/CrowdFunding.sol\":1562:1569  _amount */\n      dup2\n        /* \"tema/CrowdFunding.sol\":1548:1558  totalFunds */\n      0x03\n      0x00\n        /* \"tema/CrowdFunding.sol\":1548:1569  totalFunds += _amount */\n      dup3\n      dup3\n      sload\n      tag_90\n      swap2\n      swap1\n      tag_89\n      jump\t// in\n    tag_90:\n      swap3\n      pop\n      pop\n      dup2\n      swap1\n      sstore\n      pop\n        /* \"tema/CrowdFunding.sol\":1604:1614  msg.sender */\n      caller\n        /* \"tema/CrowdFunding.sol\":1587:1624  ContributionMade(msg.sender, _amount) */\n      0xffffffffffffffffffffffffffffffffffffffff\n      and\n      0x6770260ea820d2f539364e7617e021543aaf6d192f2fd2a47c20db6bd99a4eb9\n        /* \"tema/CrowdFunding.sol\":1616:1623  _amount */\n      dup4\n        /* \"tema/CrowdFunding.sol\":1587:1624  ContributionMade(msg.sender, _amount) */\n      mload(0x40)\n      tag_91\n      swap2\n      swap1\n      tag_19\n      jump\t// in\n    tag_91:\n      mload(0x40)\n      dup1\n      swap2\n      sub\n      swap1\n      log2\n        /* \"tema/CrowdFunding.sol\":1713:1724  fundingGoal */\n      sload(0x02)\n        /* \"tema/CrowdFunding.sol\":1699:1709  totalFunds */\n      sload(0x03)\n        /* \"tema/CrowdFunding.sol\":1699:1724  totalFunds >= fundingGoal */\n      lt\n        /* \"tema/CrowdFunding.sol\":1695:1785  if (totalFunds >= fundingGoal) {... */\n      tag_92\n      jumpi\n        /* \"tema/CrowdFunding.sol\":1749:1773  FundingState.Prefinantat */\n      0x01\n        /* \"tema/CrowdFunding.sol\":1741:1746  state */\n      0x00\n      dup1\n        /* \"tema/CrowdFunding.sol\":1741:1773  state = FundingState.Prefinantat */\n      0x0100\n      exp\n      dup2\n      sload\n      dup2\n      0xff\n      mul\n      not\n      and\n      swap1\n      dup4\n      0x02\n      dup2\n      gt\n      iszero\n      tag_93\n      jumpi\n      tag_94\n      tag_57\n      jump\t// in\n    tag_94:\n    tag_93:\n      mul\n      or\n      swap1\n      sstore\n      pop\n        /* \"tema/CrowdFunding.sol\":1695:1785  if (totalFunds >= fundingGoal) {... */\n    tag_92:\n        /* \"tema/CrowdFunding.sol\":1264:1792  function contribute(uint256 _amount) public inState(FundingState.Nefinantat) {... */\n      pop\n      pop\n      jump\t// out\n        /* \"tema/CrowdFunding.sol\":1837:2214  function withdrawContribution(uint256 _amount) public inState(FundingState.Nefinantat) {... */\n    tag_46:\n        /* \"tema/CrowdFunding.sol\":1899:1922  FundingState.Nefinantat */\n      0x00\n        /* \"tema/CrowdFunding.sol\":1176:1182  _state */\n      dup1\n        /* \"tema/CrowdFunding.sol\":1167:1182  state == _state */\n      0x02\n      dup2\n      gt\n      iszero\n      tag_96\n      jumpi\n      tag_97\n      tag_57\n      jump\t// in\n    tag_97:\n    tag_96:\n        /* \"tema/CrowdFunding.sol\":1167:1172  state */\n      0x00\n      dup1\n      sload\n      swap1\n      0x0100\n      exp\n      swap1\n      div\n      0xff\n      and\n        /* \"tema/CrowdFunding.sol\":1167:1182  state == _state */\n      0x02\n      dup2\n      gt\n      iszero\n      tag_98\n      jumpi\n      tag_99\n      tag_57\n      jump\t// in\n    tag_99:\n    tag_98:\n      eq\n        /* \"tema/CrowdFunding.sol\":1159:1200  require(state == _state, \"Invalid state\") */\n      tag_100\n      jumpi\n      mload(0x40)\n      0x08c379a000000000000000000000000000000000000000000000000000000000\n      dup2\n      mstore\n      0x04\n      add\n      tag_101\n      swap1\n      tag_62\n      jump\t// in\n    tag_101:\n      mload(0x40)\n      dup1\n      swap2\n      sub\n      swap1\n      revert\n    tag_100:\n        /* \"tema/CrowdFunding.sol\":1972:1979  _amount */\n      dup2\n        /* \"tema/CrowdFunding.sol\":1943:1956  contributions */\n      0x04\n        /* \"tema/CrowdFunding.sol\":1943:1968  contributions[msg.sender] */\n      0x00\n        /* \"tema/CrowdFunding.sol\":1957:1967  msg.sender */\n      caller\n        /* \"tema/CrowdFunding.sol\":1943:1968  contributions[msg.sender] */\n      0xffffffffffffffffffffffffffffffffffffffff\n      and\n      0xffffffffffffffffffffffffffffffffffffffff\n      and\n      dup2\n      mstore\n      0x20\n      add\n      swap1\n      dup2\n      mstore\n      0x20\n      add\n      0x00\n      keccak256\n      sload\n        /* \"tema/CrowdFunding.sol\":1943:1979  contributions[msg.sender] >= _amount */\n      lt\n      iszero\n        /* \"tema/CrowdFunding.sol\":1935:2004  require(contributions[msg.sender] >= _amount, \"Insufficient balance\") */\n      tag_103\n      jumpi\n      mload(0x40)\n      0x08c379a000000000000000000000000000000000000000000000000000000000\n      dup2\n      mstore\n      0x04\n      add\n      tag_104\n      swap1\n      tag_105\n      jump\t// in\n    tag_104:\n      mload(0x40)\n      dup1\n      swap2\n      sub\n      swap1\n      revert\n    tag_103:\n        /* \"tema/CrowdFunding.sol\":2046:2053  _amount */\n      dup2\n        /* \"tema/CrowdFunding.sol\":2017:2030  contributions */\n      0x04\n        /* \"tema/CrowdFunding.sol\":2017:2042  contributions[msg.sender] */\n      0x00\n        /* \"tema/CrowdFunding.sol\":2031:2041  msg.sender */\n      caller\n        /* \"tema/CrowdFunding.sol\":2017:2042  contributions[msg.sender] */\n      0xffffffffffffffffffffffffffffffffffffffff\n      and\n      0xffffffffffffffffffffffffffffffffffffffff\n      and\n      dup2\n      mstore\n      0x20\n      add\n      swap1\n      dup2\n      mstore\n      0x20\n      add\n      0x00\n      keccak256\n      0x00\n        /* \"tema/CrowdFunding.sol\":2017:2053  contributions[msg.sender] -= _amount */\n      dup3\n      dup3\n      sload\n      tag_106\n      swap2\n      swap1\n      tag_107\n      jump\t// in\n    tag_106:\n      swap3\n      pop\n      pop\n      dup2\n      swap1\n      sstore\n      pop\n        /* \"tema/CrowdFunding.sol\":2078:2085  _amount */\n      dup2\n        /* \"tema/CrowdFunding.sol\":2064:2074  totalFunds */\n      0x03\n      0x00\n        /* \"tema/CrowdFunding.sol\":2064:2085  totalFunds -= _amount */\n      dup3\n      dup3\n      sload\n      tag_108\n      swap2\n      swap1\n      tag_107\n      jump\t// in\n    tag_108:\n      swap3\n      pop\n      pop\n      dup2\n      swap1\n      sstore\n      pop\n        /* \"tema/CrowdFunding.sol\":2105:2117  tokenAddress */\n      0x00\n      0x01\n      swap1\n      sload\n      swap1\n      0x0100\n      exp\n      swap1\n      div\n      0xffffffffffffffffffffffffffffffffffffffff\n      and\n        /* \"tema/CrowdFunding.sol\":2098:2127  IERC20(tokenAddress).transfer */\n      0xffffffffffffffffffffffffffffffffffffffff\n      and\n      0xa9059cbb\n        /* \"tema/CrowdFunding.sol\":2128:2138  msg.sender */\n      caller\n        /* \"tema/CrowdFunding.sol\":2140:2147  _amount */\n      dup5\n        /* \"tema/CrowdFunding.sol\":2098:2148  IERC20(tokenAddress).transfer(msg.sender, _amount) */\n      mload(0x40)\n      dup4\n      0xffffffff\n      and\n      0xe0\n      shl\n      dup2\n      mstore\n      0x04\n      add\n      tag_109\n      swap3\n      swap2\n      swap1\n      tag_110\n      jump\t// in\n    tag_109:\n      0x20\n      mload(0x40)\n      dup1\n      dup4\n      sub\n      dup2\n      0x00\n      dup8\n      gas\n      call\n      iszero\n      dup1\n      iszero\n      tag_112\n      jumpi\n      returndatasize\n      0x00\n      dup1\n      returndatacopy\n      revert(0x00, returndatasize)\n    tag_112:\n      pop\n      pop\n      pop\n      pop\n      mload(0x40)\n      returndatasize\n      not(0x1f)\n      0x1f\n      dup3\n      add\n      and\n      dup3\n      add\n      dup1\n      0x40\n      mstore\n      pop\n      dup2\n      add\n      swap1\n      tag_113\n      swap2\n      swap1\n      tag_68\n      jump\t// in\n    tag_113:\n      pop\n        /* \"tema/CrowdFunding.sol\":2186:2196  msg.sender */\n      caller\n        /* \"tema/CrowdFunding.sol\":2164:2206  ContributionWithdrawn(msg.sender, _amount) */\n      0xffffffffffffffffffffffffffffffffffffffff\n      and\n      0xd6519e08ea229fce51d7ff642029f51927b4f4e0070fed87fdd3b4f12a9028cc\n        /* \"tema/CrowdFunding.sol\":2198:2205  _amount */\n      dup4\n        /* \"tema/CrowdFunding.sol\":2164:2206  ContributionWithdrawn(msg.sender, _amount) */\n      mload(0x40)\n      tag_114\n      swap2\n      swap1\n      tag_19\n      jump\t// in\n    tag_114:\n      mload(0x40)\n      dup1\n      swap2\n      sub\n      swap1\n      log2\n        /* \"tema/CrowdFunding.sol\":1837:2214  function withdrawContribution(uint256 _amount) public inState(FundingState.Nefinantat) {... */\n      pop\n      pop\n      jump\t// out\n        /* \"tema/CrowdFunding.sol\":2710:2985  function transferFunds(address _distributeFunding) public onlyOwner inState(FundingState.Finantat) {... */\n    tag_49:\n        /* \"tema/CrowdFunding.sol\":1059:1064  owner */\n      0x01\n      0x00\n      swap1\n      sload\n      swap1\n      0x0100\n      exp\n      swap1\n      div\n      0xffffffffffffffffffffffffffffffffffffffff\n      and\n        /* \"tema/CrowdFunding.sol\":1045:1064  msg.sender == owner */\n      0xffffffffffffffffffffffffffffffffffffffff\n      and\n        /* \"tema/CrowdFunding.sol\":1045:1055  msg.sender */\n      caller\n        /* \"tema/CrowdFunding.sol\":1045:1064  msg.sender == owner */\n      0xffffffffffffffffffffffffffffffffffffffff\n      and\n      eq\n        /* \"tema/CrowdFunding.sol\":1037:1082  require(msg.sender == owner, \"Not the owner\") */\n      tag_116\n      jumpi\n      mload(0x40)\n      0x08c379a000000000000000000000000000000000000000000000000000000000\n      dup2\n      mstore\n      0x04\n      add\n      tag_117\n      swap1\n      tag_53\n      jump\t// in\n    tag_117:\n      mload(0x40)\n      dup1\n      swap2\n      sub\n      swap1\n      revert\n    tag_116:\n        /* \"tema/CrowdFunding.sol\":2786:2807  FundingState.Finantat */\n      0x02\n        /* \"tema/CrowdFunding.sol\":1176:1182  _state */\n      dup1\n        /* \"tema/CrowdFunding.sol\":1167:1182  state == _state */\n      0x02\n      dup2\n      gt\n      iszero\n      tag_119\n      jumpi\n      tag_120\n      tag_57\n      jump\t// in\n    tag_120:\n    tag_119:\n        /* \"tema/CrowdFunding.sol\":1167:1172  state */\n      0x00\n      dup1\n      sload\n      swap1\n      0x0100\n      exp\n      swap1\n      div\n      0xff\n      and\n        /* \"tema/CrowdFunding.sol\":1167:1182  state == _state */\n      0x02\n      dup2\n      gt\n      iszero\n      tag_121\n      jumpi\n      tag_122\n      tag_57\n      jump\t// in\n    tag_122:\n    tag_121:\n      eq\n        /* \"tema/CrowdFunding.sol\":1159:1200  require(state == _state, \"Invalid state\") */\n      tag_123\n      jumpi\n      mload(0x40)\n      0x08c379a000000000000000000000000000000000000000000000000000000000\n      dup2\n      mstore\n      0x04\n      add\n      tag_124\n      swap1\n      tag_62\n      jump\t// in\n    tag_124:\n      mload(0x40)\n      dup1\n      swap2\n      sub\n      swap1\n      revert\n    tag_123:\n        /* \"tema/CrowdFunding.sol\":2827:2839  tokenAddress */\n      0x00\n      0x01\n      swap1\n      sload\n      swap1\n      0x0100\n      exp\n      swap1\n      div\n      0xffffffffffffffffffffffffffffffffffffffff\n      and\n        /* \"tema/CrowdFunding.sol\":2820:2849  IERC20(tokenAddress).transfer */\n      0xffffffffffffffffffffffffffffffffffffffff\n      and\n      0xa9059cbb\n        /* \"tema/CrowdFunding.sol\":2850:2868  _distributeFunding */\n      dup4\n        /* \"tema/CrowdFunding.sol\":2870:2880  totalFunds */\n      sload(0x03)\n        /* \"tema/CrowdFunding.sol\":2820:2881  IERC20(tokenAddress).transfer(_distributeFunding, totalFunds) */\n      mload(0x40)\n      dup4\n      0xffffffff\n      and\n      0xe0\n      shl\n      dup2\n      mstore\n      0x04\n      add\n      tag_126\n      swap3\n      swap2\n      swap1\n      tag_110\n      jump\t// in\n    tag_126:\n      0x20\n      mload(0x40)\n      dup1\n      dup4\n      sub\n      dup2\n      0x00\n      dup8\n      gas\n      call\n      iszero\n      dup1\n      iszero\n      tag_128\n      jumpi\n      returndatasize\n      0x00\n      dup1\n      returndatacopy\n      revert(0x00, returndatasize)\n    tag_128:\n      pop\n      pop\n      pop\n      pop\n      mload(0x40)\n      returndatasize\n      not(0x1f)\n      0x1f\n      dup3\n      add\n      and\n      dup3\n      add\n      dup1\n      0x40\n      mstore\n      pop\n      dup2\n      add\n      swap1\n      tag_129\n      swap2\n      swap1\n      tag_68\n      jump\t// in\n    tag_129:\n      pop\n        /* \"tema/CrowdFunding.sol\":2919:2937  _distributeFunding */\n      dup2\n        /* \"tema/CrowdFunding.sol\":2897:2950  TotalFundsTransferred(_distributeFunding, totalFunds) */\n      0xffffffffffffffffffffffffffffffffffffffff\n      and\n      0xf801546152f6528d76273ddb1639e7e770862b3a4cb141d66a57acdb40c8f038\n        /* \"tema/CrowdFunding.sol\":2939:2949  totalFunds */\n      sload(0x03)\n        /* \"tema/CrowdFunding.sol\":2897:2950  TotalFundsTransferred(_distributeFunding, totalFunds) */\n      mload(0x40)\n      tag_130\n      swap2\n      swap1\n      tag_19\n      jump\t// in\n    tag_130:\n      mload(0x40)\n      dup1\n      swap2\n      sub\n      swap1\n      log2\n        /* \"tema/CrowdFunding.sol\":2976:2977  0 */\n      0x00\n        /* \"tema/CrowdFunding.sol\":2963:2973  totalFunds */\n      0x03\n        /* \"tema/CrowdFunding.sol\":2963:2977  totalFunds = 0 */\n      dup2\n      swap1\n      sstore\n      pop\n        /* \"tema/CrowdFunding.sol\":1093:1094  _ */\n      pop\n        /* \"tema/CrowdFunding.sol\":2710:2985  function transferFunds(address _distributeFunding) public onlyOwner inState(FundingState.Finantat) {... */\n      pop\n      jump\t// out\n        /* \"#utility.yul\":88:205   */\n    tag_132:\n        /* \"#utility.yul\":197:198   */\n      0x00\n        /* \"#utility.yul\":194:195   */\n      dup1\n        /* \"#utility.yul\":187:199   */\n      revert\n        /* \"#utility.yul\":334:460   */\n    tag_134:\n        /* \"#utility.yul\":371:378   */\n      0x00\n        /* \"#utility.yul\":411:453   */\n      0xffffffffffffffffffffffffffffffffffffffff\n        /* \"#utility.yul\":404:409   */\n      dup3\n        /* \"#utility.yul\":400:454   */\n      and\n        /* \"#utility.yul\":389:454   */\n      swap1\n      pop\n        /* \"#utility.yul\":334:460   */\n      swap2\n      swap1\n      pop\n      jump\t// out\n        /* \"#utility.yul\":466:562   */\n    tag_135:\n        /* \"#utility.yul\":503:510   */\n      0x00\n        /* \"#utility.yul\":532:556   */\n      tag_166\n        /* \"#utility.yul\":550:555   */\n      dup3\n        /* \"#utility.yul\":532:556   */\n      tag_134\n      jump\t// in\n    tag_166:\n        /* \"#utility.yul\":521:556   */\n      swap1\n      pop\n        /* \"#utility.yul\":466:562   */\n      swap2\n      swap1\n      pop\n      jump\t// out\n        /* \"#utility.yul\":568:690   */\n    tag_136:\n        /* \"#utility.yul\":641:665   */\n      tag_168\n        /* \"#utility.yul\":659:664   */\n      dup2\n        /* \"#utility.yul\":641:665   */\n      tag_135\n      jump\t// in\n    tag_168:\n        /* \"#utility.yul\":634:639   */\n      dup2\n        /* \"#utility.yul\":631:666   */\n      eq\n        /* \"#utility.yul\":621:684   */\n      tag_169\n      jumpi\n        /* \"#utility.yul\":680:681   */\n      0x00\n        /* \"#utility.yul\":677:678   */\n      dup1\n        /* \"#utility.yul\":670:682   */\n      revert\n        /* \"#utility.yul\":621:684   */\n    tag_169:\n        /* \"#utility.yul\":568:690   */\n      pop\n      jump\t// out\n        /* \"#utility.yul\":696:835   */\n    tag_137:\n        /* \"#utility.yul\":742:747   */\n      0x00\n        /* \"#utility.yul\":780:786   */\n      dup2\n        /* \"#utility.yul\":767:787   */\n      calldataload\n        /* \"#utility.yul\":758:787   */\n      swap1\n      pop\n        /* \"#utility.yul\":796:829   */\n      tag_171\n        /* \"#utility.yul\":823:828   */\n      dup2\n        /* \"#utility.yul\":796:829   */\n      tag_136\n      jump\t// in\n    tag_171:\n        /* \"#utility.yul\":696:835   */\n      swap3\n      swap2\n      pop\n      pop\n      jump\t// out\n        /* \"#utility.yul\":841:1170   */\n    tag_16:\n        /* \"#utility.yul\":900:906   */\n      0x00\n        /* \"#utility.yul\":949:951   */\n      0x20\n        /* \"#utility.yul\":937:946   */\n      dup3\n        /* \"#utility.yul\":928:935   */\n      dup5\n        /* \"#utility.yul\":924:947   */\n      sub\n        /* \"#utility.yul\":920:952   */\n      slt\n        /* \"#utility.yul\":917:1036   */\n      iszero\n      tag_173\n      jumpi\n        /* \"#utility.yul\":955:1034   */\n      tag_174\n      tag_132\n      jump\t// in\n    tag_174:\n        /* \"#utility.yul\":917:1036   */\n    tag_173:\n        /* \"#utility.yul\":1075:1076   */\n      0x00\n        /* \"#utility.yul\":1100:1153   */\n      tag_175\n        /* \"#utility.yul\":1145:1152   */\n      dup5\n        /* \"#utility.yul\":1136:1142   */\n      dup3\n        /* \"#utility.yul\":1125:1134   */\n      dup6\n        /* \"#utility.yul\":1121:1143   */\n      add\n        /* \"#utility.yul\":1100:1153   */\n      tag_137\n      jump\t// in\n    tag_175:\n        /* \"#utility.yul\":1090:1153   */\n      swap2\n      pop\n        /* \"#utility.yul\":1046:1163   */\n      pop\n        /* \"#utility.yul\":841:1170   */\n      swap3\n      swap2\n      pop\n      pop\n      jump\t// out\n        /* \"#utility.yul\":1176:1253   */\n    tag_138:\n        /* \"#utility.yul\":1213:1220   */\n      0x00\n        /* \"#utility.yul\":1242:1247   */\n      dup2\n        /* \"#utility.yul\":1231:1247   */\n      swap1\n      pop\n        /* \"#utility.yul\":1176:1253   */\n      swap2\n      swap1\n      pop\n      jump\t// out\n        /* \"#utility.yul\":1259:1377   */\n    tag_139:\n        /* \"#utility.yul\":1346:1370   */\n      tag_178\n        /* \"#utility.yul\":1364:1369   */\n      dup2\n        /* \"#utility.yul\":1346:1370   */\n      tag_138\n      jump\t// in\n    tag_178:\n        /* \"#utility.yul\":1341:1344   */\n      dup3\n        /* \"#utility.yul\":1334:1371   */\n      mstore\n        /* \"#utility.yul\":1259:1377   */\n      pop\n      pop\n      jump\t// out\n        /* \"#utility.yul\":1383:1605   */\n    tag_19:\n        /* \"#utility.yul\":1476:1480   */\n      0x00\n        /* \"#utility.yul\":1514:1516   */\n      0x20\n        /* \"#utility.yul\":1503:1512   */\n      dup3\n        /* \"#utility.yul\":1499:1517   */\n      add\n        /* \"#utility.yul\":1491:1517   */\n      swap1\n      pop\n        /* \"#utility.yul\":1527:1598   */\n      tag_180\n        /* \"#utility.yul\":1595:1596   */\n      0x00\n        /* \"#utility.yul\":1584:1593   */\n      dup4\n        /* \"#utility.yul\":1580:1597   */\n      add\n        /* \"#utility.yul\":1571:1577   */\n      dup5\n        /* \"#utility.yul\":1527:1598   */\n      tag_139\n      jump\t// in\n    tag_180:\n        /* \"#utility.yul\":1383:1605   */\n      swap3\n      swap2\n      pop\n      pop\n      jump\t// out\n        /* \"#utility.yul\":1611:1729   */\n    tag_140:\n        /* \"#utility.yul\":1698:1722   */\n      tag_182\n        /* \"#utility.yul\":1716:1721   */\n      dup2\n        /* \"#utility.yul\":1698:1722   */\n      tag_135\n      jump\t// in\n    tag_182:\n        /* \"#utility.yul\":1693:1696   */\n      dup3\n        /* \"#utility.yul\":1686:1723   */\n      mstore\n        /* \"#utility.yul\":1611:1729   */\n      pop\n      pop\n      jump\t// out\n        /* \"#utility.yul\":1735:1957   */\n    tag_26:\n        /* \"#utility.yul\":1828:1832   */\n      0x00\n        /* \"#utility.yul\":1866:1868   */\n      0x20\n        /* \"#utility.yul\":1855:1864   */\n      dup3\n        /* \"#utility.yul\":1851:1869   */\n      add\n        /* \"#utility.yul\":1843:1869   */\n      swap1\n      pop\n        /* \"#utility.yul\":1879:1950   */\n      tag_184\n        /* \"#utility.yul\":1947:1948   */\n      0x00\n        /* \"#utility.yul\":1936:1945   */\n      dup4\n        /* \"#utility.yul\":1932:1949   */\n      add\n        /* \"#utility.yul\":1923:1929   */\n      dup5\n        /* \"#utility.yul\":1879:1950   */\n      tag_140\n      jump\t// in\n    tag_184:\n        /* \"#utility.yul\":1735:1957   */\n      swap3\n      swap2\n      pop\n      pop\n      jump\t// out\n        /* \"#utility.yul\":1963:2143   */\n    tag_57:\n        /* \"#utility.yul\":2011:2088   */\n      0x4e487b7100000000000000000000000000000000000000000000000000000000\n        /* \"#utility.yul\":2008:2009   */\n      0x00\n        /* \"#utility.yul\":2001:2089   */\n      mstore\n        /* \"#utility.yul\":2108:2112   */\n      0x21\n        /* \"#utility.yul\":2105:2106   */\n      0x04\n        /* \"#utility.yul\":2098:2113   */\n      mstore\n        /* \"#utility.yul\":2132:2136   */\n      0x24\n        /* \"#utility.yul\":2129:2130   */\n      0x00\n        /* \"#utility.yul\":2122:2137   */\n      revert\n        /* \"#utility.yul\":2149:2269   */\n    tag_141:\n        /* \"#utility.yul\":2237:2238   */\n      0x03\n        /* \"#utility.yul\":2230:2235   */\n      dup2\n        /* \"#utility.yul\":2227:2239   */\n      lt\n        /* \"#utility.yul\":2217:2263   */\n      tag_187\n      jumpi\n        /* \"#utility.yul\":2243:2261   */\n      tag_188\n      tag_57\n      jump\t// in\n    tag_188:\n        /* \"#utility.yul\":2217:2263   */\n    tag_187:\n        /* \"#utility.yul\":2149:2269   */\n      pop\n      jump\t// out\n        /* \"#utility.yul\":2275:2416   */\n    tag_142:\n        /* \"#utility.yul\":2327:2334   */\n      0x00\n        /* \"#utility.yul\":2356:2361   */\n      dup2\n        /* \"#utility.yul\":2345:2361   */\n      swap1\n      pop\n        /* \"#utility.yul\":2362:2410   */\n      tag_190\n        /* \"#utility.yul\":2404:2409   */\n      dup3\n        /* \"#utility.yul\":2362:2410   */\n      tag_141\n      jump\t// in\n    tag_190:\n        /* \"#utility.yul\":2275:2416   */\n      swap2\n      swap1\n      pop\n      jump\t// out\n        /* \"#utility.yul\":2422:2563   */\n    tag_143:\n        /* \"#utility.yul\":2485:2494   */\n      0x00\n        /* \"#utility.yul\":2518:2557   */\n      tag_192\n        /* \"#utility.yul\":2551:2556   */\n      dup3\n        /* \"#utility.yul\":2518:2557   */\n      tag_142\n      jump\t// in\n    tag_192:\n        /* \"#utility.yul\":2505:2557   */\n      swap1\n      pop\n        /* \"#utility.yul\":2422:2563   */\n      swap2\n      swap1\n      pop\n      jump\t// out\n        /* \"#utility.yul\":2569:2726   */\n    tag_144:\n        /* \"#utility.yul\":2669:2719   */\n      tag_194\n        /* \"#utility.yul\":2713:2718   */\n      dup2\n        /* \"#utility.yul\":2669:2719   */\n      tag_143\n      jump\t// in\n    tag_194:\n        /* \"#utility.yul\":2664:2667   */\n      dup3\n        /* \"#utility.yul\":2657:2720   */\n      mstore\n        /* \"#utility.yul\":2569:2726   */\n      pop\n      pop\n      jump\t// out\n        /* \"#utility.yul\":2732:2980   */\n    tag_36:\n        /* \"#utility.yul\":2838:2842   */\n      0x00\n        /* \"#utility.yul\":2876:2878   */\n      0x20\n        /* \"#utility.yul\":2865:2874   */\n      dup3\n        /* \"#utility.yul\":2861:2879   */\n      add\n        /* \"#utility.yul\":2853:2879   */\n      swap1\n      pop\n        /* \"#utility.yul\":2889:2973   */\n      tag_196\n        /* \"#utility.yul\":2970:2971   */\n      0x00\n        /* \"#utility.yul\":2959:2968   */\n      dup4\n        /* \"#utility.yul\":2955:2972   */\n      add\n        /* \"#utility.yul\":2946:2952   */\n      dup5\n        /* \"#utility.yul\":2889:2973   */\n      tag_144\n      jump\t// in\n    tag_196:\n        /* \"#utility.yul\":2732:2980   */\n      swap3\n      swap2\n      pop\n      pop\n      jump\t// out\n        /* \"#utility.yul\":2986:3108   */\n    tag_145:\n        /* \"#utility.yul\":3059:3083   */\n      tag_198\n        /* \"#utility.yul\":3077:3082   */\n      dup2\n        /* \"#utility.yul\":3059:3083   */\n      tag_138\n      jump\t// in\n    tag_198:\n        /* \"#utility.yul\":3052:3057   */\n      dup2\n        /* \"#utility.yul\":3049:3084   */\n      eq\n        /* \"#utility.yul\":3039:3102   */\n      tag_199\n      jumpi\n        /* \"#utility.yul\":3098:3099   */\n      0x00\n        /* \"#utility.yul\":3095:3096   */\n      dup1\n        /* \"#utility.yul\":3088:3100   */\n      revert\n        /* \"#utility.yul\":3039:3102   */\n    tag_199:\n        /* \"#utility.yul\":2986:3108   */\n      pop\n      jump\t// out\n        /* \"#utility.yul\":3114:3253   */\n    tag_146:\n        /* \"#utility.yul\":3160:3165   */\n      0x00\n        /* \"#utility.yul\":3198:3204   */\n      dup2\n        /* \"#utility.yul\":3185:3205   */\n      calldataload\n        /* \"#utility.yul\":3176:3205   */\n      swap1\n      pop\n        /* \"#utility.yul\":3214:3247   */\n      tag_201\n        /* \"#utility.yul\":3241:3246   */\n      dup2\n        /* \"#utility.yul\":3214:3247   */\n      tag_145\n      jump\t// in\n    tag_201:\n        /* \"#utility.yul\":3114:3253   */\n      swap3\n      swap2\n      pop\n      pop\n      jump\t// out\n        /* \"#utility.yul\":3259:3588   */\n    tag_42:\n        /* \"#utility.yul\":3318:3324   */\n      0x00\n        /* \"#utility.yul\":3367:3369   */\n      0x20\n        /* \"#utility.yul\":3355:3364   */\n      dup3\n        /* \"#utility.yul\":3346:3353   */\n      dup5\n        /* \"#utility.yul\":3342:3365   */\n      sub\n        /* \"#utility.yul\":3338:3370   */\n      slt\n        /* \"#utility.yul\":3335:3454   */\n      iszero\n      tag_203\n      jumpi\n        /* \"#utility.yul\":3373:3452   */\n      tag_204\n      tag_132\n      jump\t// in\n    tag_204:\n        /* \"#utility.yul\":3335:3454   */\n    tag_203:\n        /* \"#utility.yul\":3493:3494   */\n      0x00\n        /* \"#utility.yul\":3518:3571   */\n      tag_205\n        /* \"#utility.yul\":3563:3570   */\n      dup5\n        /* \"#utility.yul\":3554:3560   */\n      dup3\n        /* \"#utility.yul\":3543:3552   */\n      dup6\n        /* \"#utility.yul\":3539:3561   */\n      add\n        /* \"#utility.yul\":3518:3571   */\n      tag_146\n      jump\t// in\n    tag_205:\n        /* \"#utility.yul\":3508:3571   */\n      swap2\n      pop\n        /* \"#utility.yul\":3464:3581   */\n      pop\n        /* \"#utility.yul\":3259:3588   */\n      swap3\n      swap2\n      pop\n      pop\n      jump\t// out\n        /* \"#utility.yul\":3594:3763   */\n    tag_147:\n        /* \"#utility.yul\":3678:3689   */\n      0x00\n        /* \"#utility.yul\":3712:3718   */\n      dup3\n        /* \"#utility.yul\":3707:3710   */\n      dup3\n        /* \"#utility.yul\":3700:3719   */\n      mstore\n        /* \"#utility.yul\":3752:3756   */\n      0x20\n        /* \"#utility.yul\":3747:3750   */\n      dup3\n        /* \"#utility.yul\":3743:3757   */\n      add\n        /* \"#utility.yul\":3728:3757   */\n      swap1\n      pop\n        /* \"#utility.yul\":3594:3763   */\n      swap3\n      swap2\n      pop\n      pop\n      jump\t// out\n        /* \"#utility.yul\":3769:3932   */\n    tag_148:\n        /* \"#utility.yul\":3909:3924   */\n      0x4e6f7420746865206f776e657200000000000000000000000000000000000000\n        /* \"#utility.yul\":3905:3906   */\n      0x00\n        /* \"#utility.yul\":3897:3903   */\n      dup3\n        /* \"#utility.yul\":3893:3907   */\n      add\n        /* \"#utility.yul\":3886:3925   */\n      mstore\n        /* \"#utility.yul\":3769:3932   */\n      pop\n      jump\t// out\n        /* \"#utility.yul\":3938:4304   */\n    tag_149:\n        /* \"#utility.yul\":4080:4083   */\n      0x00\n        /* \"#utility.yul\":4101:4168   */\n      tag_209\n        /* \"#utility.yul\":4165:4167   */\n      0x0d\n        /* \"#utility.yul\":4160:4163   */\n      dup4\n        /* \"#utility.yul\":4101:4168   */\n      tag_147\n      jump\t// in\n    tag_209:\n        /* \"#utility.yul\":4094:4168   */\n      swap2\n      pop\n        /* \"#utility.yul\":4177:4270   */\n      tag_210\n        /* \"#utility.yul\":4266:4269   */\n      dup3\n        /* \"#utility.yul\":4177:4270   */\n      tag_148\n      jump\t// in\n    tag_210:\n        /* \"#utility.yul\":4295:4297   */\n      0x20\n        /* \"#utility.yul\":4290:4293   */\n      dup3\n        /* \"#utility.yul\":4286:4298   */\n      add\n        /* \"#utility.yul\":4279:4298   */\n      swap1\n      pop\n        /* \"#utility.yul\":3938:4304   */\n      swap2\n      swap1\n      pop\n      jump\t// out\n        /* \"#utility.yul\":4310:4729   */\n    tag_53:\n        /* \"#utility.yul\":4476:4480   */\n      0x00\n        /* \"#utility.yul\":4514:4516   */\n      0x20\n        /* \"#utility.yul\":4503:4512   */\n      dup3\n        /* \"#utility.yul\":4499:4517   */\n      add\n        /* \"#utility.yul\":4491:4517   */\n      swap1\n      pop\n        /* \"#utility.yul\":4563:4572   */\n      dup2\n        /* \"#utility.yul\":4557:4561   */\n      dup2\n        /* \"#utility.yul\":4553:4573   */\n      sub\n        /* \"#utility.yul\":4549:4550   */\n      0x00\n        /* \"#utility.yul\":4538:4547   */\n      dup4\n        /* \"#utility.yul\":4534:4551   */\n      add\n        /* \"#utility.yul\":4527:4574   */\n      mstore\n        /* \"#utility.yul\":4591:4722   */\n      tag_212\n        /* \"#utility.yul\":4717:4721   */\n      dup2\n        /* \"#utility.yul\":4591:4722   */\n      tag_149\n      jump\t// in\n    tag_212:\n        /* \"#utility.yul\":4583:4722   */\n      swap1\n      pop\n        /* \"#utility.yul\":4310:4729   */\n      swap2\n      swap1\n      pop\n      jump\t// out\n        /* \"#utility.yul\":4735:4898   */\n    tag_150:\n        /* \"#utility.yul\":4875:4890   */\n      0x496e76616c696420737461746500000000000000000000000000000000000000\n        /* \"#utility.yul\":4871:4872   */\n      0x00\n        /* \"#utility.yul\":4863:4869   */\n      dup3\n        /* \"#utility.yul\":4859:4873   */\n      add\n        /* \"#utility.yul\":4852:4891   */\n      mstore\n        /* \"#utility.yul\":4735:4898   */\n      pop\n      jump\t// out\n        /* \"#utility.yul\":4904:5270   */\n    tag_151:\n        /* \"#utility.yul\":5046:5049   */\n      0x00\n        /* \"#utility.yul\":5067:5134   */\n      tag_215\n        /* \"#utility.yul\":5131:5133   */\n      0x0d\n        /* \"#utility.yul\":5126:5129   */\n      dup4\n        /* \"#utility.yul\":5067:5134   */\n      tag_147\n      jump\t// in\n    tag_215:\n        /* \"#utility.yul\":5060:5134   */\n      swap2\n      pop\n        /* \"#utility.yul\":5143:5236   */\n      tag_216\n        /* \"#utility.yul\":5232:5235   */\n      dup3\n        /* \"#utility.yul\":5143:5236   */\n      tag_150\n      jump\t// in\n    tag_216:\n        /* \"#utility.yul\":5261:5263   */\n      0x20\n        /* \"#utility.yul\":5256:5259   */\n      dup3\n        /* \"#utility.yul\":5252:5264   */\n      add\n        /* \"#utility.yul\":5245:5264   */\n      swap1\n      pop\n        /* \"#utility.yul\":4904:5270   */\n      swap2\n      swap1\n      pop\n      jump\t// out\n        /* \"#utility.yul\":5276:5695   */\n    tag_62:\n        /* \"#utility.yul\":5442:5446   */\n      0x00\n        /* \"#utility.yul\":5480:5482   */\n      0x20\n        /* \"#utility.yul\":5469:5478   */\n      dup3\n        /* \"#utility.yul\":5465:5483   */\n      add\n        /* \"#utility.yul\":5457:5483   */\n      swap1\n      pop\n        /* \"#utility.yul\":5529:5538   */\n      dup2\n        /* \"#utility.yul\":5523:5527   */\n      dup2\n        /* \"#utility.yul\":5519:5539   */\n      sub\n        /* \"#utility.yul\":5515:5516   */\n      0x00\n        /* \"#utility.yul\":5504:5513   */\n      dup4\n        /* \"#utility.yul\":5500:5517   */\n      add\n        /* \"#utility.yul\":5493:5540   */\n      mstore\n        /* \"#utility.yul\":5557:5688   */\n      tag_218\n        /* \"#utility.yul\":5683:5687   */\n      dup2\n        /* \"#utility.yul\":5557:5688   */\n      tag_151\n      jump\t// in\n    tag_218:\n        /* \"#utility.yul\":5549:5688   */\n      swap1\n      pop\n        /* \"#utility.yul\":5276:5695   */\n      swap2\n      swap1\n      pop\n      jump\t// out\n        /* \"#utility.yul\":5701:5791   */\n    tag_152:\n        /* \"#utility.yul\":5735:5742   */\n      0x00\n        /* \"#utility.yul\":5778:5783   */\n      dup2\n        /* \"#utility.yul\":5771:5784   */\n      iszero\n        /* \"#utility.yul\":5764:5785   */\n      iszero\n        /* \"#utility.yul\":5753:5785   */\n      swap1\n      pop\n        /* \"#utility.yul\":5701:5791   */\n      swap2\n      swap1\n      pop\n      jump\t// out\n        /* \"#utility.yul\":5797:5913   */\n    tag_153:\n        /* \"#utility.yul\":5867:5888   */\n      tag_221\n        /* \"#utility.yul\":5882:5887   */\n      dup2\n        /* \"#utility.yul\":5867:5888   */\n      tag_152\n      jump\t// in\n    tag_221:\n        /* \"#utility.yul\":5860:5865   */\n      dup2\n        /* \"#utility.yul\":5857:5889   */\n      eq\n        /* \"#utility.yul\":5847:5907   */\n      tag_222\n      jumpi\n        /* \"#utility.yul\":5903:5904   */\n      0x00\n        /* \"#utility.yul\":5900:5901   */\n      dup1\n        /* \"#utility.yul\":5893:5905   */\n      revert\n        /* \"#utility.yul\":5847:5907   */\n    tag_222:\n        /* \"#utility.yul\":5797:5913   */\n      pop\n      jump\t// out\n        /* \"#utility.yul\":5919:6056   */\n    tag_154:\n        /* \"#utility.yul\":5973:5978   */\n      0x00\n        /* \"#utility.yul\":6004:6010   */\n      dup2\n        /* \"#utility.yul\":5998:6011   */\n      mload\n        /* \"#utility.yul\":5989:6011   */\n      swap1\n      pop\n        /* \"#utility.yul\":6020:6050   */\n      tag_224\n        /* \"#utility.yul\":6044:6049   */\n      dup2\n        /* \"#utility.yul\":6020:6050   */\n      tag_153\n      jump\t// in\n    tag_224:\n        /* \"#utility.yul\":5919:6056   */\n      swap3\n      swap2\n      pop\n      pop\n      jump\t// out\n        /* \"#utility.yul\":6062:6407   */\n    tag_68:\n        /* \"#utility.yul\":6129:6135   */\n      0x00\n        /* \"#utility.yul\":6178:6180   */\n      0x20\n        /* \"#utility.yul\":6166:6175   */\n      dup3\n        /* \"#utility.yul\":6157:6164   */\n      dup5\n        /* \"#utility.yul\":6153:6176   */\n      sub\n        /* \"#utility.yul\":6149:6181   */\n      slt\n        /* \"#utility.yul\":6146:6265   */\n      iszero\n      tag_226\n      jumpi\n        /* \"#utility.yul\":6184:6263   */\n      tag_227\n      tag_132\n      jump\t// in\n    tag_227:\n        /* \"#utility.yul\":6146:6265   */\n    tag_226:\n        /* \"#utility.yul\":6304:6305   */\n      0x00\n        /* \"#utility.yul\":6329:6390   */\n      tag_228\n        /* \"#utility.yul\":6382:6389   */\n      dup5\n        /* \"#utility.yul\":6373:6379   */\n      dup3\n        /* \"#utility.yul\":6362:6371   */\n      dup6\n        /* \"#utility.yul\":6358:6380   */\n      add\n        /* \"#utility.yul\":6329:6390   */\n      tag_154\n      jump\t// in\n    tag_228:\n        /* \"#utility.yul\":6319:6390   */\n      swap2\n      pop\n        /* \"#utility.yul\":6275:6400   */\n      pop\n        /* \"#utility.yul\":6062:6407   */\n      swap3\n      swap2\n      pop\n      pop\n      jump\t// out\n        /* \"#utility.yul\":6413:6595   */\n    tag_155:\n        /* \"#utility.yul\":6553:6587   */\n      0x416d6f756e74206d7573742062652067726561746572207468616e207a65726f\n        /* \"#utility.yul\":6549:6550   */\n      0x00\n        /* \"#utility.yul\":6541:6547   */\n      dup3\n        /* \"#utility.yul\":6537:6551   */\n      add\n        /* \"#utility.yul\":6530:6588   */\n      mstore\n        /* \"#utility.yul\":6413:6595   */\n      pop\n      jump\t// out\n        /* \"#utility.yul\":6601:6967   */\n    tag_156:\n        /* \"#utility.yul\":6743:6746   */\n      0x00\n        /* \"#utility.yul\":6764:6831   */\n      tag_231\n        /* \"#utility.yul\":6828:6830   */\n      0x20\n        /* \"#utility.yul\":6823:6826   */\n      dup4\n        /* \"#utility.yul\":6764:6831   */\n      tag_147\n      jump\t// in\n    tag_231:\n        /* \"#utility.yul\":6757:6831   */\n      swap2\n      pop\n        /* \"#utility.yul\":6840:6933   */\n      tag_232\n        /* \"#utility.yul\":6929:6932   */\n      dup3\n        /* \"#utility.yul\":6840:6933   */\n      tag_155\n      jump\t// in\n    tag_232:\n        /* \"#utility.yul\":6958:6960   */\n      0x20\n        /* \"#utility.yul\":6953:6956   */\n      dup3\n        /* \"#utility.yul\":6949:6961   */\n      add\n        /* \"#utility.yul\":6942:6961   */\n      swap1\n      pop\n        /* \"#utility.yul\":6601:6967   */\n      swap2\n      swap1\n      pop\n      jump\t// out\n        /* \"#utility.yul\":6973:7392   */\n    tag_82:\n        /* \"#utility.yul\":7139:7143   */\n      0x00\n        /* \"#utility.yul\":7177:7179   */\n      0x20\n        /* \"#utility.yul\":7166:7175   */\n      dup3\n        /* \"#utility.yul\":7162:7180   */\n      add\n        /* \"#utility.yul\":7154:7180   */\n      swap1\n      pop\n        /* \"#utility.yul\":7226:7235   */\n      dup2\n        /* \"#utility.yul\":7220:7224   */\n      dup2\n        /* \"#utility.yul\":7216:7236   */\n      sub\n        /* \"#utility.yul\":7212:7213   */\n      0x00\n        /* \"#utility.yul\":7201:7210   */\n      dup4\n        /* \"#utility.yul\":7197:7214   */\n      add\n        /* \"#utility.yul\":7190:7237   */\n      mstore\n        /* \"#utility.yul\":7254:7385   */\n      tag_234\n        /* \"#utility.yul\":7380:7384   */\n      dup2\n        /* \"#utility.yul\":7254:7385   */\n      tag_156\n      jump\t// in\n    tag_234:\n        /* \"#utility.yul\":7246:7385   */\n      swap1\n      pop\n        /* \"#utility.yul\":6973:7392   */\n      swap2\n      swap1\n      pop\n      jump\t// out\n        /* \"#utility.yul\":7398:7840   */\n    tag_84:\n        /* \"#utility.yul\":7547:7551   */\n      0x00\n        /* \"#utility.yul\":7585:7587   */\n      0x60\n        /* \"#utility.yul\":7574:7583   */\n      dup3\n        /* \"#utility.yul\":7570:7588   */\n      add\n        /* \"#utility.yul\":7562:7588   */\n      swap1\n      pop\n        /* \"#utility.yul\":7598:7669   */\n      tag_236\n        /* \"#utility.yul\":7666:7667   */\n      0x00\n        /* \"#utility.yul\":7655:7664   */\n      dup4\n        /* \"#utility.yul\":7651:7668   */\n      add\n        /* \"#utility.yul\":7642:7648   */\n      dup7\n        /* \"#utility.yul\":7598:7669   */\n      tag_140\n      jump\t// in\n    tag_236:\n        /* \"#utility.yul\":7679:7751   */\n      tag_237\n        /* \"#utility.yul\":7747:7749   */\n      0x20\n        /* \"#utility.yul\":7736:7745   */\n      dup4\n        /* \"#utility.yul\":7732:7750   */\n      add\n        /* \"#utility.yul\":7723:7729   */\n      dup6\n        /* \"#utility.yul\":7679:7751   */\n      tag_140\n      jump\t// in\n    tag_237:\n        /* \"#utility.yul\":7761:7833   */\n      tag_238\n        /* \"#utility.yul\":7829:7831   */\n      0x40\n        /* \"#utility.yul\":7818:7827   */\n      dup4\n        /* \"#utility.yul\":7814:7832   */\n      add\n        /* \"#utility.yul\":7805:7811   */\n      dup5\n        /* \"#utility.yul\":7761:7833   */\n      tag_139\n      jump\t// in\n    tag_238:\n        /* \"#utility.yul\":7398:7840   */\n      swap5\n      swap4\n      pop\n      pop\n      pop\n      pop\n      jump\t// out\n        /* \"#utility.yul\":7846:8026   */\n    tag_157:\n        /* \"#utility.yul\":7894:7971   */\n      0x4e487b7100000000000000000000000000000000000000000000000000000000\n        /* \"#utility.yul\":7891:7892   */\n      0x00\n        /* \"#utility.yul\":7884:7972   */\n      mstore\n        /* \"#utility.yul\":7991:7995   */\n      0x11\n        /* \"#utility.yul\":7988:7989   */\n      0x04\n        /* \"#utility.yul\":7981:7996   */\n      mstore\n        /* \"#utility.yul\":8015:8019   */\n      0x24\n        /* \"#utility.yul\":8012:8013   */\n      0x00\n        /* \"#utility.yul\":8005:8020   */\n      revert\n        /* \"#utility.yul\":8032:8223   */\n    tag_89:\n        /* \"#utility.yul\":8072:8075   */\n      0x00\n        /* \"#utility.yul\":8091:8111   */\n      tag_241\n        /* \"#utility.yul\":8109:8110   */\n      dup3\n        /* \"#utility.yul\":8091:8111   */\n      tag_138\n      jump\t// in\n    tag_241:\n        /* \"#utility.yul\":8086:8111   */\n      swap2\n      pop\n        /* \"#utility.yul\":8125:8145   */\n      tag_242\n        /* \"#utility.yul\":8143:8144   */\n      dup4\n        /* \"#utility.yul\":8125:8145   */\n      tag_138\n      jump\t// in\n    tag_242:\n        /* \"#utility.yul\":8120:8145   */\n      swap3\n      pop\n        /* \"#utility.yul\":8168:8169   */\n      dup3\n        /* \"#utility.yul\":8165:8166   */\n      dup3\n        /* \"#utility.yul\":8161:8170   */\n      add\n        /* \"#utility.yul\":8154:8170   */\n      swap1\n      pop\n        /* \"#utility.yul\":8189:8192   */\n      dup1\n        /* \"#utility.yul\":8186:8187   */\n      dup3\n        /* \"#utility.yul\":8183:8193   */\n      gt\n        /* \"#utility.yul\":8180:8216   */\n      iszero\n      tag_243\n      jumpi\n        /* \"#utility.yul\":8196:8214   */\n      tag_244\n      tag_157\n      jump\t// in\n    tag_244:\n        /* \"#utility.yul\":8180:8216   */\n    tag_243:\n        /* \"#utility.yul\":8032:8223   */\n      swap3\n      swap2\n      pop\n      pop\n      jump\t// out\n        /* \"#utility.yul\":8229:8399   */\n    tag_158:\n        /* \"#utility.yul\":8369:8391   */\n      0x496e73756666696369656e742062616c616e6365000000000000000000000000\n        /* \"#utility.yul\":8365:8366   */\n      0x00\n        /* \"#utility.yul\":8357:8363   */\n      dup3\n        /* \"#utility.yul\":8353:8367   */\n      add\n        /* \"#utility.yul\":8346:8392   */\n      mstore\n        /* \"#utility.yul\":8229:8399   */\n      pop\n      jump\t// out\n        /* \"#utility.yul\":8405:8771   */\n    tag_159:\n        /* \"#utility.yul\":8547:8550   */\n      0x00\n        /* \"#utility.yul\":8568:8635   */\n      tag_247\n        /* \"#utility.yul\":8632:8634   */\n      0x14\n        /* \"#utility.yul\":8627:8630   */\n      dup4\n        /* \"#utility.yul\":8568:8635   */\n      tag_147\n      jump\t// in\n    tag_247:\n        /* \"#utility.yul\":8561:8635   */\n      swap2\n      pop\n        /* \"#utility.yul\":8644:8737   */\n      tag_248\n        /* \"#utility.yul\":8733:8736   */\n      dup3\n        /* \"#utility.yul\":8644:8737   */\n      tag_158\n      jump\t// in\n    tag_248:\n        /* \"#utility.yul\":8762:8764   */\n      0x20\n        /* \"#utility.yul\":8757:8760   */\n      dup3\n        /* \"#utility.yul\":8753:8765   */\n      add\n        /* \"#utility.yul\":8746:8765   */\n      swap1\n      pop\n        /* \"#utility.yul\":8405:8771   */\n      swap2\n      swap1\n      pop\n      jump\t// out\n        /* \"#utility.yul\":8777:9196   */\n    tag_105:\n        /* \"#utility.yul\":8943:8947   */\n      0x00\n        /* \"#utility.yul\":8981:8983   */\n      0x20\n        /* \"#utility.yul\":8970:8979   */\n      dup3\n        /* \"#utility.yul\":8966:8984   */\n      add\n        /* \"#utility.yul\":8958:8984   */\n      swap1\n      pop\n        /* \"#utility.yul\":9030:9039   */\n      dup2\n        /* \"#utility.yul\":9024:9028   */\n      dup2\n        /* \"#utility.yul\":9020:9040   */\n      sub\n        /* \"#utility.yul\":9016:9017   */\n      0x00\n        /* \"#utility.yul\":9005:9014   */\n      dup4\n        /* \"#utility.yul\":9001:9018   */\n      add\n        /* \"#utility.yul\":8994:9041   */\n      mstore\n        /* \"#utility.yul\":9058:9189   */\n      tag_250\n        /* \"#utility.yul\":9184:9188   */\n      dup2\n        /* \"#utility.yul\":9058:9189   */\n      tag_159\n      jump\t// in\n    tag_250:\n        /* \"#utility.yul\":9050:9189   */\n      swap1\n      pop\n        /* \"#utility.yul\":8777:9196   */\n      swap2\n      swap1\n      pop\n      jump\t// out\n        /* \"#utility.yul\":9202:9396   */\n    tag_107:\n        /* \"#utility.yul\":9242:9246   */\n      0x00\n        /* \"#utility.yul\":9262:9282   */\n      tag_252\n        /* \"#utility.yul\":9280:9281   */\n      dup3\n        /* \"#utility.yul\":9262:9282   */\n      tag_138\n      jump\t// in\n    tag_252:\n        /* \"#utility.yul\":9257:9282   */\n      swap2\n      pop\n        /* \"#utility.yul\":9296:9316   */\n      tag_253\n        /* \"#utility.yul\":9314:9315   */\n      dup4\n        /* \"#utility.yul\":9296:9316   */\n      tag_138\n      jump\t// in\n    tag_253:\n        /* \"#utility.yul\":9291:9316   */\n      swap3\n      pop\n        /* \"#utility.yul\":9340:9341   */\n      dup3\n        /* \"#utility.yul\":9337:9338   */\n      dup3\n        /* \"#utility.yul\":9333:9342   */\n      sub\n        /* \"#utility.yul\":9325:9342   */\n      swap1\n      pop\n        /* \"#utility.yul\":9364:9365   */\n      dup2\n        /* \"#utility.yul\":9358:9362   */\n      dup2\n        /* \"#utility.yul\":9355:9366   */\n      gt\n        /* \"#utility.yul\":9352:9389   */\n      iszero\n      tag_254\n      jumpi\n        /* \"#utility.yul\":9369:9387   */\n      tag_255\n      tag_157\n      jump\t// in\n    tag_255:\n        /* \"#utility.yul\":9352:9389   */\n    tag_254:\n        /* \"#utility.yul\":9202:9396   */\n      swap3\n      swap2\n      pop\n      pop\n      jump\t// out\n        /* \"#utility.yul\":9402:9734   */\n    tag_110:\n        /* \"#utility.yul\":9523:9527   */\n      0x00\n        /* \"#utility.yul\":9561:9563   */\n      0x40\n        /* \"#utility.yul\":9550:9559   */\n      dup3\n        /* \"#utility.yul\":9546:9564   */\n      add\n        /* \"#utility.yul\":9538:9564   */\n      swap1\n      pop\n        /* \"#utility.yul\":9574:9645   */\n      tag_257\n        /* \"#utility.yul\":9642:9643   */\n      0x00\n        /* \"#utility.yul\":9631:9640   */\n      dup4\n        /* \"#utility.yul\":9627:9644   */\n      add\n        /* \"#utility.yul\":9618:9624   */\n      dup6\n        /* \"#utility.yul\":9574:9645   */\n      tag_140\n      jump\t// in\n    tag_257:\n        /* \"#utility.yul\":9655:9727   */\n      tag_258\n        /* \"#utility.yul\":9723:9725   */\n      0x20\n        /* \"#utility.yul\":9712:9721   */\n      dup4\n        /* \"#utility.yul\":9708:9726   */\n      add\n        /* \"#utility.yul\":9699:9705   */\n      dup5\n        /* \"#utility.yul\":9655:9727   */\n      tag_139\n      jump\t// in\n    tag_258:\n        /* \"#utility.yul\":9402:9734   */\n      swap4\n      swap3\n      pop\n      pop\n      pop\n      jump\t// out\n\n    auxdata: 0xa26469706673582212200f829d76a15123f21156329ae42978e42e195ab584b24f57a50db6075b84149464736f6c634300081a0033\n}\n",
				"bytecode": {
					"linkReferences": {},
					"object": "608060405234801561000f575f80fd5b506040516111a93803806111a983398181016040528101906100319190610178565b815f60016101000a81548173ffffffffffffffffffffffffffffffffffffffff021916908373ffffffffffffffffffffffffffffffffffffffff1602179055503360015f6101000a81548173ffffffffffffffffffffffffffffffffffffffff021916908373ffffffffffffffffffffffffffffffffffffffff160217905550806002819055505f805f6101000a81548160ff021916908360028111156100db576100da6101b6565b5b021790555050506101e3565b5f80fd5b5f73ffffffffffffffffffffffffffffffffffffffff82169050919050565b5f610114826100eb565b9050919050565b6101248161010a565b811461012e575f80fd5b50565b5f8151905061013f8161011b565b92915050565b5f819050919050565b61015781610145565b8114610161575f80fd5b50565b5f815190506101728161014e565b92915050565b5f806040838503121561018e5761018d6100e7565b5b5f61019b85828601610131565b92505060206101ac85828601610164565b9150509250929050565b7f4e487b71000000000000000000000000000000000000000000000000000000005f52602160045260245ffd5b610fb9806101f05f395ff3fe608060405234801561000f575f80fd5b506004361061009c575f3560e01c8063c19d93fb11610064578063c19d93fb14610148578063c1ad792514610166578063c1cbbca714610182578063d25090ff1461019e578063e39ff19f146101ba5761009c565b806342e94c90146100a05780637a3a0e84146100d05780638da5cb5b146100ee578063968ed6001461010c5780639d76ea581461012a575b5f80fd5b6100ba60048036038101906100b59190610b1f565b6101d6565b6040516100c79190610b62565b60405180910390f35b6100d86101eb565b6040516100e59190610b62565b60405180910390f35b6100f66101f1565b6040516101039190610b8a565b60405180910390f35b610114610216565b6040516101219190610b62565b60405180910390f35b61013261021c565b60405161013f9190610b8a565b60405180910390f35b610150610241565b60405161015d9190610c16565b60405180910390f35b610180600480360381019061017b9190610b1f565b610251565b005b61019c60048036038101906101979190610c59565b610431565b005b6101b860048036038101906101b39190610c59565b610677565b005b6101d460048036038101906101cf9190610b1f565b6108c4565b005b6004602052805f5260405f205f915090505481565b60025481565b60015f9054906101000a900473ffffffffffffffffffffffffffffffffffffffff1681565b60035481565b5f60019054906101000a900473ffffffffffffffffffffffffffffffffffffffff1681565b5f8054906101000a900460ff1681565b60015f9054906101000a900473ffffffffffffffffffffffffffffffffffffffff1673ffffffffffffffffffffffffffffffffffffffff163373ffffffffffffffffffffffffffffffffffffffff16146102e0576040517f08c379a00000000000000000000000000000000000000000000000000000000081526004016102d790610cde565b60405180910390fd5b60018060028111156102f5576102f4610ba3565b5b5f8054906101000a900460ff16600281111561031457610313610ba3565b5b14610354576040517f08c379a000000000000000000000000000000000000000000000000000000000815260040161034b90610d46565b60405180910390fd5b5f8290508073ffffffffffffffffffffffffffffffffffffffff1663766c4f37306040518263ffffffff1660e01b81526004016103919190610b8a565b6020604051808303815f875af11580156103ad573d5f803e3d5ffd5b505050506040513d601f19601f820116820180604052508101906103d19190610d99565b1561042c5760025f806101000a81548160ff021916908360028111156103fa576103f9610ba3565b5b02179055507fdb780f9dea39c8989045a6757dc47c885201e096018f863c1a76233128da603660405160405180910390a15b505050565b5f80600281111561044557610444610ba3565b5b5f8054906101000a900460ff16600281111561046457610463610ba3565b5b146104a4576040517f08c379a000000000000000000000000000000000000000000000000000000000815260040161049b90610d46565b60405180910390fd5b5f82116104e6576040517f08c379a00000000000000000000000000000000000000000000000000000000081526004016104dd90610e0e565b60405180910390fd5b5f60019054906101000a900473ffffffffffffffffffffffffffffffffffffffff1673ffffffffffffffffffffffffffffffffffffffff166323b872dd3330856040518463ffffffff1660e01b815260040161054493929190610e2c565b6020604051808303815f875af1158015610560573d5f803e3d5ffd5b505050506040513d601f19601f820116820180604052508101906105849190610d99565b508160045f3373ffffffffffffffffffffffffffffffffffffffff1673ffffffffffffffffffffffffffffffffffffffff1681526020019081526020015f205f8282546105d19190610e8e565b925050819055508160035f8282546105e99190610e8e565b925050819055503373ffffffffffffffffffffffffffffffffffffffff167f6770260ea820d2f539364e7617e021543aaf6d192f2fd2a47c20db6bd99a4eb9836040516106369190610b62565b60405180910390a2600254600354106106735760015f806101000a81548160ff0219169083600281111561066d5761066c610ba3565b5b02179055505b5050565b5f80600281111561068b5761068a610ba3565b5b5f8054906101000a900460ff1660028111156106aa576106a9610ba3565b5b146106ea576040517f08c379a00000000000000000000000000000000000000000000000000000000081526004016106e190610d46565b60405180910390fd5b8160045f3373ffffffffffffffffffffffffffffffffffffffff1673ffffffffffffffffffffffffffffffffffffffff1681526020019081526020015f2054101561076a576040517f08c379a000000000000000000000000000000000000000000000000000000000815260040161076190610f0b565b60405180910390fd5b8160045f3373ffffffffffffffffffffffffffffffffffffffff1673ffffffffffffffffffffffffffffffffffffffff1681526020019081526020015f205f8282546107b69190610f29565b925050819055508160035f8282546107ce9190610f29565b925050819055505f60019054906101000a900473ffffffffffffffffffffffffffffffffffffffff1673ffffffffffffffffffffffffffffffffffffffff1663a9059cbb33846040518363ffffffff1660e01b8152600401610831929190610f5c565b6020604051808303815f875af115801561084d573d5f803e3d5ffd5b505050506040513d601f19601f820116820180604052508101906108719190610d99565b503373ffffffffffffffffffffffffffffffffffffffff167fd6519e08ea229fce51d7ff642029f51927b4f4e0070fed87fdd3b4f12a9028cc836040516108b89190610b62565b60405180910390a25050565b60015f9054906101000a900473ffffffffffffffffffffffffffffffffffffffff1673ffffffffffffffffffffffffffffffffffffffff163373ffffffffffffffffffffffffffffffffffffffff1614610953576040517f08c379a000000000000000000000000000000000000000000000000000000000815260040161094a90610cde565b60405180910390fd5b600280600281111561096857610967610ba3565b5b5f8054906101000a900460ff16600281111561098757610986610ba3565b5b146109c7576040517f08c379a00000000000000000000000000000000000000000000000000000000081526004016109be90610d46565b60405180910390fd5b5f60019054906101000a900473ffffffffffffffffffffffffffffffffffffffff1673ffffffffffffffffffffffffffffffffffffffff1663a9059cbb836003546040518363ffffffff1660e01b8152600401610a25929190610f5c565b6020604051808303815f875af1158015610a41573d5f803e3d5ffd5b505050506040513d601f19601f82011682018060405250810190610a659190610d99565b508173ffffffffffffffffffffffffffffffffffffffff167ff801546152f6528d76273ddb1639e7e770862b3a4cb141d66a57acdb40c8f038600354604051610aae9190610b62565b60405180910390a25f6003819055505050565b5f80fd5b5f73ffffffffffffffffffffffffffffffffffffffff82169050919050565b5f610aee82610ac5565b9050919050565b610afe81610ae4565b8114610b08575f80fd5b50565b5f81359050610b1981610af5565b92915050565b5f60208284031215610b3457610b33610ac1565b5b5f610b4184828501610b0b565b91505092915050565b5f819050919050565b610b5c81610b4a565b82525050565b5f602082019050610b755f830184610b53565b92915050565b610b8481610ae4565b82525050565b5f602082019050610b9d5f830184610b7b565b92915050565b7f4e487b71000000000000000000000000000000000000000000000000000000005f52602160045260245ffd5b60038110610be157610be0610ba3565b5b50565b5f819050610bf182610bd0565b919050565b5f610c0082610be4565b9050919050565b610c1081610bf6565b82525050565b5f602082019050610c295f830184610c07565b92915050565b610c3881610b4a565b8114610c42575f80fd5b50565b5f81359050610c5381610c2f565b92915050565b5f60208284031215610c6e57610c6d610ac1565b5b5f610c7b84828501610c45565b91505092915050565b5f82825260208201905092915050565b7f4e6f7420746865206f776e6572000000000000000000000000000000000000005f82015250565b5f610cc8600d83610c84565b9150610cd382610c94565b602082019050919050565b5f6020820190508181035f830152610cf581610cbc565b9050919050565b7f496e76616c6964207374617465000000000000000000000000000000000000005f82015250565b5f610d30600d83610c84565b9150610d3b82610cfc565b602082019050919050565b5f6020820190508181035f830152610d5d81610d24565b9050919050565b5f8115159050919050565b610d7881610d64565b8114610d82575f80fd5b50565b5f81519050610d9381610d6f565b92915050565b5f60208284031215610dae57610dad610ac1565b5b5f610dbb84828501610d85565b91505092915050565b7f416d6f756e74206d7573742062652067726561746572207468616e207a65726f5f82015250565b5f610df8602083610c84565b9150610e0382610dc4565b602082019050919050565b5f6020820190508181035f830152610e2581610dec565b9050919050565b5f606082019050610e3f5f830186610b7b565b610e4c6020830185610b7b565b610e596040830184610b53565b949350505050565b7f4e487b71000000000000000000000000000000000000000000000000000000005f52601160045260245ffd5b5f610e9882610b4a565b9150610ea383610b4a565b9250828201905080821115610ebb57610eba610e61565b5b92915050565b7f496e73756666696369656e742062616c616e63650000000000000000000000005f82015250565b5f610ef5601483610c84565b9150610f0082610ec1565b602082019050919050565b5f6020820190508181035f830152610f2281610ee9565b9050919050565b5f610f3382610b4a565b9150610f3e83610b4a565b9250828203905081811115610f5657610f55610e61565b5b92915050565b5f604082019050610f6f5f830185610b7b565b610f7c6020830184610b53565b939250505056fea26469706673582212200f829d76a15123f21156329ae42978e42e195ab584b24f57a50db6075b84149464736f6c634300081a0033",
					"opcodes": "PUSH1 0x80 PUSH1 0x40 MSTORE CALLVALUE DUP1 ISZERO PUSH2 0xF JUMPI PUSH0 DUP1 REVERT JUMPDEST POP PUSH1 0x40 MLOAD PUSH2 0x11A9 CODESIZE SUB DUP1 PUSH2 0x11A9 DUP4 CODECOPY DUP2 DUP2 ADD PUSH1 0x40 MSTORE DUP2 ADD SWAP1 PUSH2 0x31 SWAP2 SWAP1 PUSH2 0x178 JUMP JUMPDEST DUP2 PUSH0 PUSH1 0x1 PUSH2 0x100 EXP DUP2 SLOAD DUP2 PUSH20 0xFFFFFFFFFFFFFFFFFFFFFFFFFFFFFFFFFFFFFFFF MUL NOT AND SWAP1 DUP4 PUSH20 0xFFFFFFFFFFFFFFFFFFFFFFFFFFFFFFFFFFFFFFFF AND MUL OR SWAP1 SSTORE POP CALLER PUSH1 0x1 PUSH0 PUSH2 0x100 EXP DUP2 SLOAD DUP2 PUSH20 0xFFFFFFFFFFFFFFFFFFFFFFFFFFFFFFFFFFFFFFFF MUL NOT AND SWAP1 DUP4 PUSH20 0xFFFFFFFFFFFFFFFFFFFFFFFFFFFFFFFFFFFFFFFF AND MUL OR SWAP1 SSTORE POP DUP1 PUSH1 0x2 DUP2 SWAP1 SSTORE POP PUSH0 DUP1 PUSH0 PUSH2 0x100 EXP DUP2 SLOAD DUP2 PUSH1 0xFF MUL NOT AND SWAP1 DUP4 PUSH1 0x2 DUP2 GT ISZERO PUSH2 0xDB JUMPI PUSH2 0xDA PUSH2 0x1B6 JUMP JUMPDEST JUMPDEST MUL OR SWAP1 SSTORE POP POP POP PUSH2 0x1E3 JUMP JUMPDEST PUSH0 DUP1 REVERT JUMPDEST PUSH0 PUSH20 0xFFFFFFFFFFFFFFFFFFFFFFFFFFFFFFFFFFFFFFFF DUP3 AND SWAP1 POP SWAP2 SWAP1 POP JUMP JUMPDEST PUSH0 PUSH2 0x114 DUP3 PUSH2 0xEB JUMP JUMPDEST SWAP1 POP SWAP2 SWAP1 POP JUMP JUMPDEST PUSH2 0x124 DUP2 PUSH2 0x10A JUMP JUMPDEST DUP2 EQ PUSH2 0x12E JUMPI PUSH0 DUP1 REVERT JUMPDEST POP JUMP JUMPDEST PUSH0 DUP2 MLOAD SWAP1 POP PUSH2 0x13F DUP2 PUSH2 0x11B JUMP JUMPDEST SWAP3 SWAP2 POP POP JUMP JUMPDEST PUSH0 DUP2 SWAP1 POP SWAP2 SWAP1 POP JUMP JUMPDEST PUSH2 0x157 DUP2 PUSH2 0x145 JUMP JUMPDEST DUP2 EQ PUSH2 0x161 JUMPI PUSH0 DUP1 REVERT JUMPDEST POP JUMP JUMPDEST PUSH0 DUP2 MLOAD SWAP1 POP PUSH2 0x172 DUP2 PUSH2 0x14E JUMP JUMPDEST SWAP3 SWAP2 POP POP JUMP JUMPDEST PUSH0 DUP1 PUSH1 0x40 DUP4 DUP6 SUB SLT ISZERO PUSH2 0x18E JUMPI PUSH2 0x18D PUSH2 0xE7 JUMP JUMPDEST JUMPDEST PUSH0 PUSH2 0x19B DUP6 DUP3 DUP7 ADD PUSH2 0x131 JUMP JUMPDEST SWAP3 POP POP PUSH1 0x20 PUSH2 0x1AC DUP6 DUP3 DUP7 ADD PUSH2 0x164 JUMP JUMPDEST SWAP2 POP POP SWAP3 POP SWAP3 SWAP1 POP JUMP JUMPDEST PUSH32 0x4E487B7100000000000000000000000000000000000000000000000000000000 PUSH0 MSTORE PUSH1 0x21 PUSH1 0x4 MSTORE PUSH1 0x24 PUSH0 REVERT JUMPDEST PUSH2 0xFB9 DUP1 PUSH2 0x1F0 PUSH0 CODECOPY PUSH0 RETURN INVALID PUSH1 0x80 PUSH1 0x40 MSTORE CALLVALUE DUP1 ISZERO PUSH2 0xF JUMPI PUSH0 DUP1 REVERT JUMPDEST POP PUSH1 0x4 CALLDATASIZE LT PUSH2 0x9C JUMPI PUSH0 CALLDATALOAD PUSH1 0xE0 SHR DUP1 PUSH4 0xC19D93FB GT PUSH2 0x64 JUMPI DUP1 PUSH4 0xC19D93FB EQ PUSH2 0x148 JUMPI DUP1 PUSH4 0xC1AD7925 EQ PUSH2 0x166 JUMPI DUP1 PUSH4 0xC1CBBCA7 EQ PUSH2 0x182 JUMPI DUP1 PUSH4 0xD25090FF EQ PUSH2 0x19E JUMPI DUP1 PUSH4 0xE39FF19F EQ PUSH2 0x1BA JUMPI PUSH2 0x9C JUMP JUMPDEST DUP1 PUSH4 0x42E94C90 EQ PUSH2 0xA0 JUMPI DUP1 PUSH4 0x7A3A0E84 EQ PUSH2 0xD0 JUMPI DUP1 PUSH4 0x8DA5CB5B EQ PUSH2 0xEE JUMPI DUP1 PUSH4 0x968ED600 EQ PUSH2 0x10C JUMPI DUP1 PUSH4 0x9D76EA58 EQ PUSH2 0x12A JUMPI JUMPDEST PUSH0 DUP1 REVERT JUMPDEST PUSH2 0xBA PUSH1 0x4 DUP1 CALLDATASIZE SUB DUP2 ADD SWAP1 PUSH2 0xB5 SWAP2 SWAP1 PUSH2 0xB1F JUMP JUMPDEST PUSH2 0x1D6 JUMP JUMPDEST PUSH1 0x40 MLOAD PUSH2 0xC7 SWAP2 SWAP1 PUSH2 0xB62 JUMP JUMPDEST PUSH1 0x40 MLOAD DUP1 SWAP2 SUB SWAP1 RETURN JUMPDEST PUSH2 0xD8 PUSH2 0x1EB JUMP JUMPDEST PUSH1 0x40 MLOAD PUSH2 0xE5 SWAP2 SWAP1 PUSH2 0xB62 JUMP JUMPDEST PUSH1 0x40 MLOAD DUP1 SWAP2 SUB SWAP1 RETURN JUMPDEST PUSH2 0xF6 PUSH2 0x1F1 JUMP JUMPDEST PUSH1 0x40 MLOAD PUSH2 0x103 SWAP2 SWAP1 PUSH2 0xB8A JUMP JUMPDEST PUSH1 0x40 MLOAD DUP1 SWAP2 SUB SWAP1 RETURN JUMPDEST PUSH2 0x114 PUSH2 0x216 JUMP JUMPDEST PUSH1 0x40 MLOAD PUSH2 0x121 SWAP2 SWAP1 PUSH2 0xB62 JUMP JUMPDEST PUSH1 0x40 MLOAD DUP1 SWAP2 SUB SWAP1 RETURN JUMPDEST PUSH2 0x132 PUSH2 0x21C JUMP JUMPDEST PUSH1 0x40 MLOAD PUSH2 0x13F SWAP2 SWAP1 PUSH2 0xB8A JUMP JUMPDEST PUSH1 0x40 MLOAD DUP1 SWAP2 SUB SWAP1 RETURN JUMPDEST PUSH2 0x150 PUSH2 0x241 JUMP JUMPDEST PUSH1 0x40 MLOAD PUSH2 0x15D SWAP2 SWAP1 PUSH2 0xC16 JUMP JUMPDEST PUSH1 0x40 MLOAD DUP1 SWAP2 SUB SWAP1 RETURN JUMPDEST PUSH2 0x180 PUSH1 0x4 DUP1 CALLDATASIZE SUB DUP2 ADD SWAP1 PUSH2 0x17B SWAP2 SWAP1 PUSH2 0xB1F JUMP JUMPDEST PUSH2 0x251 JUMP JUMPDEST STOP JUMPDEST PUSH2 0x19C PUSH1 0x4 DUP1 CALLDATASIZE SUB DUP2 ADD SWAP1 PUSH2 0x197 SWAP2 SWAP1 PUSH2 0xC59 JUMP JUMPDEST PUSH2 0x431 JUMP JUMPDEST STOP JUMPDEST PUSH2 0x1B8 PUSH1 0x4 DUP1 CALLDATASIZE SUB DUP2 ADD SWAP1 PUSH2 0x1B3 SWAP2 SWAP1 PUSH2 0xC59 JUMP JUMPDEST PUSH2 0x677 JUMP JUMPDEST STOP JUMPDEST PUSH2 0x1D4 PUSH1 0x4 DUP1 CALLDATASIZE SUB DUP2 ADD SWAP1 PUSH2 0x1CF SWAP2 SWAP1 PUSH2 0xB1F JUMP JUMPDEST PUSH2 0x8C4 JUMP JUMPDEST STOP JUMPDEST PUSH1 0x4 PUSH1 0x20 MSTORE DUP1 PUSH0 MSTORE PUSH1 0x40 PUSH0 KECCAK256 PUSH0 SWAP2 POP SWAP1 POP SLOAD DUP2 JUMP JUMPDEST PUSH1 0x2 SLOAD DUP2 JUMP JUMPDEST PUSH1 0x1 PUSH0 SWAP1 SLOAD SWAP1 PUSH2 0x100 EXP SWAP1 DIV PUSH20 0xFFFFFFFFFFFFFFFFFFFFFFFFFFFFFFFFFFFFFFFF AND DUP2 JUMP JUMPDEST PUSH1 0x3 SLOAD DUP2 JUMP JUMPDEST PUSH0 PUSH1 0x1 SWAP1 SLOAD SWAP1 PUSH2 0x100 EXP SWAP1 DIV PUSH20 0xFFFFFFFFFFFFFFFFFFFFFFFFFFFFFFFFFFFFFFFF AND DUP2 JUMP JUMPDEST PUSH0 DUP1 SLOAD SWAP1 PUSH2 0x100 EXP SWAP1 DIV PUSH1 0xFF AND DUP2 JUMP JUMPDEST PUSH1 0x1 PUSH0 SWAP1 SLOAD SWAP1 PUSH2 0x100 EXP SWAP1 DIV PUSH20 0xFFFFFFFFFFFFFFFFFFFFFFFFFFFFFFFFFFFFFFFF AND PUSH20 0xFFFFFFFFFFFFFFFFFFFFFFFFFFFFFFFFFFFFFFFF AND CALLER PUSH20 0xFFFFFFFFFFFFFFFFFFFFFFFFFFFFFFFFFFFFFFFF AND EQ PUSH2 0x2E0 JUMPI PUSH1 0x40 MLOAD PUSH32 0x8C379A000000000000000000000000000000000000000000000000000000000 DUP2 MSTORE PUSH1 0x4 ADD PUSH2 0x2D7 SWAP1 PUSH2 0xCDE JUMP JUMPDEST PUSH1 0x40 MLOAD DUP1 SWAP2 SUB SWAP1 REVERT JUMPDEST PUSH1 0x1 DUP1 PUSH1 0x2 DUP2 GT ISZERO PUSH2 0x2F5 JUMPI PUSH2 0x2F4 PUSH2 0xBA3 JUMP JUMPDEST JUMPDEST PUSH0 DUP1 SLOAD SWAP1 PUSH2 0x100 EXP SWAP1 DIV PUSH1 0xFF AND PUSH1 0x2 DUP2 GT ISZERO PUSH2 0x314 JUMPI PUSH2 0x313 PUSH2 0xBA3 JUMP JUMPDEST JUMPDEST EQ PUSH2 0x354 JUMPI PUSH1 0x40 MLOAD PUSH32 0x8C379A000000000000000000000000000000000000000000000000000000000 DUP2 MSTORE PUSH1 0x4 ADD PUSH2 0x34B SWAP1 PUSH2 0xD46 JUMP JUMPDEST PUSH1 0x40 MLOAD DUP1 SWAP2 SUB SWAP1 REVERT JUMPDEST PUSH0 DUP3 SWAP1 POP DUP1 PUSH20 0xFFFFFFFFFFFFFFFFFFFFFFFFFFFFFFFFFFFFFFFF AND PUSH4 0x766C4F37 ADDRESS PUSH1 0x40 MLOAD DUP3 PUSH4 0xFFFFFFFF AND PUSH1 0xE0 SHL DUP2 MSTORE PUSH1 0x4 ADD PUSH2 0x391 SWAP2 SWAP1 PUSH2 0xB8A JUMP JUMPDEST PUSH1 0x20 PUSH1 0x40 MLOAD DUP1 DUP4 SUB DUP2 PUSH0 DUP8 GAS CALL ISZERO DUP1 ISZERO PUSH2 0x3AD JUMPI RETURNDATASIZE PUSH0 DUP1 RETURNDATACOPY RETURNDATASIZE PUSH0 REVERT JUMPDEST POP POP POP POP PUSH1 0x40 MLOAD RETURNDATASIZE PUSH1 0x1F NOT PUSH1 0x1F DUP3 ADD AND DUP3 ADD DUP1 PUSH1 0x40 MSTORE POP DUP2 ADD SWAP1 PUSH2 0x3D1 SWAP2 SWAP1 PUSH2 0xD99 JUMP JUMPDEST ISZERO PUSH2 0x42C JUMPI PUSH1 0x2 PUSH0 DUP1 PUSH2 0x100 EXP DUP2 SLOAD DUP2 PUSH1 0xFF MUL NOT AND SWAP1 DUP4 PUSH1 0x2 DUP2 GT ISZERO PUSH2 0x3FA JUMPI PUSH2 0x3F9 PUSH2 0xBA3 JUMP JUMPDEST JUMPDEST MUL OR SWAP1 SSTORE POP PUSH32 0xDB780F9DEA39C8989045A6757DC47C885201E096018F863C1A76233128DA6036 PUSH1 0x40 MLOAD PUSH1 0x40 MLOAD DUP1 SWAP2 SUB SWAP1 LOG1 JUMPDEST POP POP POP JUMP JUMPDEST PUSH0 DUP1 PUSH1 0x2 DUP2 GT ISZERO PUSH2 0x445 JUMPI PUSH2 0x444 PUSH2 0xBA3 JUMP JUMPDEST JUMPDEST PUSH0 DUP1 SLOAD SWAP1 PUSH2 0x100 EXP SWAP1 DIV PUSH1 0xFF AND PUSH1 0x2 DUP2 GT ISZERO PUSH2 0x464 JUMPI PUSH2 0x463 PUSH2 0xBA3 JUMP JUMPDEST JUMPDEST EQ PUSH2 0x4A4 JUMPI PUSH1 0x40 MLOAD PUSH32 0x8C379A000000000000000000000000000000000000000000000000000000000 DUP2 MSTORE PUSH1 0x4 ADD PUSH2 0x49B SWAP1 PUSH2 0xD46 JUMP JUMPDEST PUSH1 0x40 MLOAD DUP1 SWAP2 SUB SWAP1 REVERT JUMPDEST PUSH0 DUP3 GT PUSH2 0x4E6 JUMPI PUSH1 0x40 MLOAD PUSH32 0x8C379A000000000000000000000000000000000000000000000000000000000 DUP2 MSTORE PUSH1 0x4 ADD PUSH2 0x4DD SWAP1 PUSH2 0xE0E JUMP JUMPDEST PUSH1 0x40 MLOAD DUP1 SWAP2 SUB SWAP1 REVERT JUMPDEST PUSH0 PUSH1 0x1 SWAP1 SLOAD SWAP1 PUSH2 0x100 EXP SWAP1 DIV PUSH20 0xFFFFFFFFFFFFFFFFFFFFFFFFFFFFFFFFFFFFFFFF AND PUSH20 0xFFFFFFFFFFFFFFFFFFFFFFFFFFFFFFFFFFFFFFFF AND PUSH4 0x23B872DD CALLER ADDRESS DUP6 PUSH1 0x40 MLOAD DUP5 PUSH4 0xFFFFFFFF AND PUSH1 0xE0 SHL DUP2 MSTORE PUSH1 0x4 ADD PUSH2 0x544 SWAP4 SWAP3 SWAP2 SWAP1 PUSH2 0xE2C JUMP JUMPDEST PUSH1 0x20 PUSH1 0x40 MLOAD DUP1 DUP4 SUB DUP2 PUSH0 DUP8 GAS CALL ISZERO DUP1 ISZERO PUSH2 0x560 JUMPI RETURNDATASIZE PUSH0 DUP1 RETURNDATACOPY RETURNDATASIZE PUSH0 REVERT JUMPDEST POP POP POP POP PUSH1 0x40 MLOAD RETURNDATASIZE PUSH1 0x1F NOT PUSH1 0x1F DUP3 ADD AND DUP3 ADD DUP1 PUSH1 0x40 MSTORE POP DUP2 ADD SWAP1 PUSH2 0x584 SWAP2 SWAP1 PUSH2 0xD99 JUMP JUMPDEST POP DUP2 PUSH1 0x4 PUSH0 CALLER PUSH20 0xFFFFFFFFFFFFFFFFFFFFFFFFFFFFFFFFFFFFFFFF AND PUSH20 0xFFFFFFFFFFFFFFFFFFFFFFFFFFFFFFFFFFFFFFFF AND DUP2 MSTORE PUSH1 0x20 ADD SWAP1 DUP2 MSTORE PUSH1 0x20 ADD PUSH0 KECCAK256 PUSH0 DUP3 DUP3 SLOAD PUSH2 0x5D1 SWAP2 SWAP1 PUSH2 0xE8E JUMP JUMPDEST SWAP3 POP POP DUP2 SWAP1 SSTORE POP DUP2 PUSH1 0x3 PUSH0 DUP3 DUP3 SLOAD PUSH2 0x5E9 SWAP2 SWAP1 PUSH2 0xE8E JUMP JUMPDEST SWAP3 POP POP DUP2 SWAP1 SSTORE POP CALLER PUSH20 0xFFFFFFFFFFFFFFFFFFFFFFFFFFFFFFFFFFFFFFFF AND PUSH32 0x6770260EA820D2F539364E7617E021543AAF6D192F2FD2A47C20DB6BD99A4EB9 DUP4 PUSH1 0x40 MLOAD PUSH2 0x636 SWAP2 SWAP1 PUSH2 0xB62 JUMP JUMPDEST PUSH1 0x40 MLOAD DUP1 SWAP2 SUB SWAP1 LOG2 PUSH1 0x2 SLOAD PUSH1 0x3 SLOAD LT PUSH2 0x673 JUMPI PUSH1 0x1 PUSH0 DUP1 PUSH2 0x100 EXP DUP2 SLOAD DUP2 PUSH1 0xFF MUL NOT AND SWAP1 DUP4 PUSH1 0x2 DUP2 GT ISZERO PUSH2 0x66D JUMPI PUSH2 0x66C PUSH2 0xBA3 JUMP JUMPDEST JUMPDEST MUL OR SWAP1 SSTORE POP JUMPDEST POP POP JUMP JUMPDEST PUSH0 DUP1 PUSH1 0x2 DUP2 GT ISZERO PUSH2 0x68B JUMPI PUSH2 0x68A PUSH2 0xBA3 JUMP JUMPDEST JUMPDEST PUSH0 DUP1 SLOAD SWAP1 PUSH2 0x100 EXP SWAP1 DIV PUSH1 0xFF AND PUSH1 0x2 DUP2 GT ISZERO PUSH2 0x6AA JUMPI PUSH2 0x6A9 PUSH2 0xBA3 JUMP JUMPDEST JUMPDEST EQ PUSH2 0x6EA JUMPI PUSH1 0x40 MLOAD PUSH32 0x8C379A000000000000000000000000000000000000000000000000000000000 DUP2 MSTORE PUSH1 0x4 ADD PUSH2 0x6E1 SWAP1 PUSH2 0xD46 JUMP JUMPDEST PUSH1 0x40 MLOAD DUP1 SWAP2 SUB SWAP1 REVERT JUMPDEST DUP2 PUSH1 0x4 PUSH0 CALLER PUSH20 0xFFFFFFFFFFFFFFFFFFFFFFFFFFFFFFFFFFFFFFFF AND PUSH20 0xFFFFFFFFFFFFFFFFFFFFFFFFFFFFFFFFFFFFFFFF AND DUP2 MSTORE PUSH1 0x20 ADD SWAP1 DUP2 MSTORE PUSH1 0x20 ADD PUSH0 KECCAK256 SLOAD LT ISZERO PUSH2 0x76A JUMPI PUSH1 0x40 MLOAD PUSH32 0x8C379A000000000000000000000000000000000000000000000000000000000 DUP2 MSTORE PUSH1 0x4 ADD PUSH2 0x761 SWAP1 PUSH2 0xF0B JUMP JUMPDEST PUSH1 0x40 MLOAD DUP1 SWAP2 SUB SWAP1 REVERT JUMPDEST DUP2 PUSH1 0x4 PUSH0 CALLER PUSH20 0xFFFFFFFFFFFFFFFFFFFFFFFFFFFFFFFFFFFFFFFF AND PUSH20 0xFFFFFFFFFFFFFFFFFFFFFFFFFFFFFFFFFFFFFFFF AND DUP2 MSTORE PUSH1 0x20 ADD SWAP1 DUP2 MSTORE PUSH1 0x20 ADD PUSH0 KECCAK256 PUSH0 DUP3 DUP3 SLOAD PUSH2 0x7B6 SWAP2 SWAP1 PUSH2 0xF29 JUMP JUMPDEST SWAP3 POP POP DUP2 SWAP1 SSTORE POP DUP2 PUSH1 0x3 PUSH0 DUP3 DUP3 SLOAD PUSH2 0x7CE SWAP2 SWAP1 PUSH2 0xF29 JUMP JUMPDEST SWAP3 POP POP DUP2 SWAP1 SSTORE POP PUSH0 PUSH1 0x1 SWAP1 SLOAD SWAP1 PUSH2 0x100 EXP SWAP1 DIV PUSH20 0xFFFFFFFFFFFFFFFFFFFFFFFFFFFFFFFFFFFFFFFF AND PUSH20 0xFFFFFFFFFFFFFFFFFFFFFFFFFFFFFFFFFFFFFFFF AND PUSH4 0xA9059CBB CALLER DUP5 PUSH1 0x40 MLOAD DUP4 PUSH4 0xFFFFFFFF AND PUSH1 0xE0 SHL DUP2 MSTORE PUSH1 0x4 ADD PUSH2 0x831 SWAP3 SWAP2 SWAP1 PUSH2 0xF5C JUMP JUMPDEST PUSH1 0x20 PUSH1 0x40 MLOAD DUP1 DUP4 SUB DUP2 PUSH0 DUP8 GAS CALL ISZERO DUP1 ISZERO PUSH2 0x84D JUMPI RETURNDATASIZE PUSH0 DUP1 RETURNDATACOPY RETURNDATASIZE PUSH0 REVERT JUMPDEST POP POP POP POP PUSH1 0x40 MLOAD RETURNDATASIZE PUSH1 0x1F NOT PUSH1 0x1F DUP3 ADD AND DUP3 ADD DUP1 PUSH1 0x40 MSTORE POP DUP2 ADD SWAP1 PUSH2 0x871 SWAP2 SWAP1 PUSH2 0xD99 JUMP JUMPDEST POP CALLER PUSH20 0xFFFFFFFFFFFFFFFFFFFFFFFFFFFFFFFFFFFFFFFF AND PUSH32 0xD6519E08EA229FCE51D7FF642029F51927B4F4E0070FED87FDD3B4F12A9028CC DUP4 PUSH1 0x40 MLOAD PUSH2 0x8B8 SWAP2 SWAP1 PUSH2 0xB62 JUMP JUMPDEST PUSH1 0x40 MLOAD DUP1 SWAP2 SUB SWAP1 LOG2 POP POP JUMP JUMPDEST PUSH1 0x1 PUSH0 SWAP1 SLOAD SWAP1 PUSH2 0x100 EXP SWAP1 DIV PUSH20 0xFFFFFFFFFFFFFFFFFFFFFFFFFFFFFFFFFFFFFFFF AND PUSH20 0xFFFFFFFFFFFFFFFFFFFFFFFFFFFFFFFFFFFFFFFF AND CALLER PUSH20 0xFFFFFFFFFFFFFFFFFFFFFFFFFFFFFFFFFFFFFFFF AND EQ PUSH2 0x953 JUMPI PUSH1 0x40 MLOAD PUSH32 0x8C379A000000000000000000000000000000000000000000000000000000000 DUP2 MSTORE PUSH1 0x4 ADD PUSH2 0x94A SWAP1 PUSH2 0xCDE JUMP JUMPDEST PUSH1 0x40 MLOAD DUP1 SWAP2 SUB SWAP1 REVERT JUMPDEST PUSH1 0x2 DUP1 PUSH1 0x2 DUP2 GT ISZERO PUSH2 0x968 JUMPI PUSH2 0x967 PUSH2 0xBA3 JUMP JUMPDEST JUMPDEST PUSH0 DUP1 SLOAD SWAP1 PUSH2 0x100 EXP SWAP1 DIV PUSH1 0xFF AND PUSH1 0x2 DUP2 GT ISZERO PUSH2 0x987 JUMPI PUSH2 0x986 PUSH2 0xBA3 JUMP JUMPDEST JUMPDEST EQ PUSH2 0x9C7 JUMPI PUSH1 0x40 MLOAD PUSH32 0x8C379A000000000000000000000000000000000000000000000000000000000 DUP2 MSTORE PUSH1 0x4 ADD PUSH2 0x9BE SWAP1 PUSH2 0xD46 JUMP JUMPDEST PUSH1 0x40 MLOAD DUP1 SWAP2 SUB SWAP1 REVERT JUMPDEST PUSH0 PUSH1 0x1 SWAP1 SLOAD SWAP1 PUSH2 0x100 EXP SWAP1 DIV PUSH20 0xFFFFFFFFFFFFFFFFFFFFFFFFFFFFFFFFFFFFFFFF AND PUSH20 0xFFFFFFFFFFFFFFFFFFFFFFFFFFFFFFFFFFFFFFFF AND PUSH4 0xA9059CBB DUP4 PUSH1 0x3 SLOAD PUSH1 0x40 MLOAD DUP4 PUSH4 0xFFFFFFFF AND PUSH1 0xE0 SHL DUP2 MSTORE PUSH1 0x4 ADD PUSH2 0xA25 SWAP3 SWAP2 SWAP1 PUSH2 0xF5C JUMP JUMPDEST PUSH1 0x20 PUSH1 0x40 MLOAD DUP1 DUP4 SUB DUP2 PUSH0 DUP8 GAS CALL ISZERO DUP1 ISZERO PUSH2 0xA41 JUMPI RETURNDATASIZE PUSH0 DUP1 RETURNDATACOPY RETURNDATASIZE PUSH0 REVERT JUMPDEST POP POP POP POP PUSH1 0x40 MLOAD RETURNDATASIZE PUSH1 0x1F NOT PUSH1 0x1F DUP3 ADD AND DUP3 ADD DUP1 PUSH1 0x40 MSTORE POP DUP2 ADD SWAP1 PUSH2 0xA65 SWAP2 SWAP1 PUSH2 0xD99 JUMP JUMPDEST POP DUP2 PUSH20 0xFFFFFFFFFFFFFFFFFFFFFFFFFFFFFFFFFFFFFFFF AND PUSH32 0xF801546152F6528D76273DDB1639E7E770862B3A4CB141D66A57ACDB40C8F038 PUSH1 0x3 SLOAD PUSH1 0x40 MLOAD PUSH2 0xAAE SWAP2 SWAP1 PUSH2 0xB62 JUMP JUMPDEST PUSH1 0x40 MLOAD DUP1 SWAP2 SUB SWAP1 LOG2 PUSH0 PUSH1 0x3 DUP2 SWAP1 SSTORE POP POP POP JUMP JUMPDEST PUSH0 DUP1 REVERT JUMPDEST PUSH0 PUSH20 0xFFFFFFFFFFFFFFFFFFFFFFFFFFFFFFFFFFFFFFFF DUP3 AND SWAP1 POP SWAP2 SWAP1 POP JUMP JUMPDEST PUSH0 PUSH2 0xAEE DUP3 PUSH2 0xAC5 JUMP JUMPDEST SWAP1 POP SWAP2 SWAP1 POP JUMP JUMPDEST PUSH2 0xAFE DUP2 PUSH2 0xAE4 JUMP JUMPDEST DUP2 EQ PUSH2 0xB08 JUMPI PUSH0 DUP1 REVERT JUMPDEST POP JUMP JUMPDEST PUSH0 DUP2 CALLDATALOAD SWAP1 POP PUSH2 0xB19 DUP2 PUSH2 0xAF5 JUMP JUMPDEST SWAP3 SWAP2 POP POP JUMP JUMPDEST PUSH0 PUSH1 0x20 DUP3 DUP5 SUB SLT ISZERO PUSH2 0xB34 JUMPI PUSH2 0xB33 PUSH2 0xAC1 JUMP JUMPDEST JUMPDEST PUSH0 PUSH2 0xB41 DUP5 DUP3 DUP6 ADD PUSH2 0xB0B JUMP JUMPDEST SWAP2 POP POP SWAP3 SWAP2 POP POP JUMP JUMPDEST PUSH0 DUP2 SWAP1 POP SWAP2 SWAP1 POP JUMP JUMPDEST PUSH2 0xB5C DUP2 PUSH2 0xB4A JUMP JUMPDEST DUP3 MSTORE POP POP JUMP JUMPDEST PUSH0 PUSH1 0x20 DUP3 ADD SWAP1 POP PUSH2 0xB75 PUSH0 DUP4 ADD DUP5 PUSH2 0xB53 JUMP JUMPDEST SWAP3 SWAP2 POP POP JUMP JUMPDEST PUSH2 0xB84 DUP2 PUSH2 0xAE4 JUMP JUMPDEST DUP3 MSTORE POP POP JUMP JUMPDEST PUSH0 PUSH1 0x20 DUP3 ADD SWAP1 POP PUSH2 0xB9D PUSH0 DUP4 ADD DUP5 PUSH2 0xB7B JUMP JUMPDEST SWAP3 SWAP2 POP POP JUMP JUMPDEST PUSH32 0x4E487B7100000000000000000000000000000000000000000000000000000000 PUSH0 MSTORE PUSH1 0x21 PUSH1 0x4 MSTORE PUSH1 0x24 PUSH0 REVERT JUMPDEST PUSH1 0x3 DUP2 LT PUSH2 0xBE1 JUMPI PUSH2 0xBE0 PUSH2 0xBA3 JUMP JUMPDEST JUMPDEST POP JUMP JUMPDEST PUSH0 DUP2 SWAP1 POP PUSH2 0xBF1 DUP3 PUSH2 0xBD0 JUMP JUMPDEST SWAP2 SWAP1 POP JUMP JUMPDEST PUSH0 PUSH2 0xC00 DUP3 PUSH2 0xBE4 JUMP JUMPDEST SWAP1 POP SWAP2 SWAP1 POP JUMP JUMPDEST PUSH2 0xC10 DUP2 PUSH2 0xBF6 JUMP JUMPDEST DUP3 MSTORE POP POP JUMP JUMPDEST PUSH0 PUSH1 0x20 DUP3 ADD SWAP1 POP PUSH2 0xC29 PUSH0 DUP4 ADD DUP5 PUSH2 0xC07 JUMP JUMPDEST SWAP3 SWAP2 POP POP JUMP JUMPDEST PUSH2 0xC38 DUP2 PUSH2 0xB4A JUMP JUMPDEST DUP2 EQ PUSH2 0xC42 JUMPI PUSH0 DUP1 REVERT JUMPDEST POP JUMP JUMPDEST PUSH0 DUP2 CALLDATALOAD SWAP1 POP PUSH2 0xC53 DUP2 PUSH2 0xC2F JUMP JUMPDEST SWAP3 SWAP2 POP POP JUMP JUMPDEST PUSH0 PUSH1 0x20 DUP3 DUP5 SUB SLT ISZERO PUSH2 0xC6E JUMPI PUSH2 0xC6D PUSH2 0xAC1 JUMP JUMPDEST JUMPDEST PUSH0 PUSH2 0xC7B DUP5 DUP3 DUP6 ADD PUSH2 0xC45 JUMP JUMPDEST SWAP2 POP POP SWAP3 SWAP2 POP POP JUMP JUMPDEST PUSH0 DUP3 DUP3 MSTORE PUSH1 0x20 DUP3 ADD SWAP1 POP SWAP3 SWAP2 POP POP JUMP JUMPDEST PUSH32 0x4E6F7420746865206F776E657200000000000000000000000000000000000000 PUSH0 DUP3 ADD MSTORE POP JUMP JUMPDEST PUSH0 PUSH2 0xCC8 PUSH1 0xD DUP4 PUSH2 0xC84 JUMP JUMPDEST SWAP2 POP PUSH2 0xCD3 DUP3 PUSH2 0xC94 JUMP JUMPDEST PUSH1 0x20 DUP3 ADD SWAP1 POP SWAP2 SWAP1 POP JUMP JUMPDEST PUSH0 PUSH1 0x20 DUP3 ADD SWAP1 POP DUP2 DUP2 SUB PUSH0 DUP4 ADD MSTORE PUSH2 0xCF5 DUP2 PUSH2 0xCBC JUMP JUMPDEST SWAP1 POP SWAP2 SWAP1 POP JUMP JUMPDEST PUSH32 0x496E76616C696420737461746500000000000000000000000000000000000000 PUSH0 DUP3 ADD MSTORE POP JUMP JUMPDEST PUSH0 PUSH2 0xD30 PUSH1 0xD DUP4 PUSH2 0xC84 JUMP JUMPDEST SWAP2 POP PUSH2 0xD3B DUP3 PUSH2 0xCFC JUMP JUMPDEST PUSH1 0x20 DUP3 ADD SWAP1 POP SWAP2 SWAP1 POP JUMP JUMPDEST PUSH0 PUSH1 0x20 DUP3 ADD SWAP1 POP DUP2 DUP2 SUB PUSH0 DUP4 ADD MSTORE PUSH2 0xD5D DUP2 PUSH2 0xD24 JUMP JUMPDEST SWAP1 POP SWAP2 SWAP1 POP JUMP JUMPDEST PUSH0 DUP2 ISZERO ISZERO SWAP1 POP SWAP2 SWAP1 POP JUMP JUMPDEST PUSH2 0xD78 DUP2 PUSH2 0xD64 JUMP JUMPDEST DUP2 EQ PUSH2 0xD82 JUMPI PUSH0 DUP1 REVERT JUMPDEST POP JUMP JUMPDEST PUSH0 DUP2 MLOAD SWAP1 POP PUSH2 0xD93 DUP2 PUSH2 0xD6F JUMP JUMPDEST SWAP3 SWAP2 POP POP JUMP JUMPDEST PUSH0 PUSH1 0x20 DUP3 DUP5 SUB SLT ISZERO PUSH2 0xDAE JUMPI PUSH2 0xDAD PUSH2 0xAC1 JUMP JUMPDEST JUMPDEST PUSH0 PUSH2 0xDBB DUP5 DUP3 DUP6 ADD PUSH2 0xD85 JUMP JUMPDEST SWAP2 POP POP SWAP3 SWAP2 POP POP JUMP JUMPDEST PUSH32 0x416D6F756E74206D7573742062652067726561746572207468616E207A65726F PUSH0 DUP3 ADD MSTORE POP JUMP JUMPDEST PUSH0 PUSH2 0xDF8 PUSH1 0x20 DUP4 PUSH2 0xC84 JUMP JUMPDEST SWAP2 POP PUSH2 0xE03 DUP3 PUSH2 0xDC4 JUMP JUMPDEST PUSH1 0x20 DUP3 ADD SWAP1 POP SWAP2 SWAP1 POP JUMP JUMPDEST PUSH0 PUSH1 0x20 DUP3 ADD SWAP1 POP DUP2 DUP2 SUB PUSH0 DUP4 ADD MSTORE PUSH2 0xE25 DUP2 PUSH2 0xDEC JUMP JUMPDEST SWAP1 POP SWAP2 SWAP1 POP JUMP JUMPDEST PUSH0 PUSH1 0x60 DUP3 ADD SWAP1 POP PUSH2 0xE3F PUSH0 DUP4 ADD DUP7 PUSH2 0xB7B JUMP JUMPDEST PUSH2 0xE4C PUSH1 0x20 DUP4 ADD DUP6 PUSH2 0xB7B JUMP JUMPDEST PUSH2 0xE59 PUSH1 0x40 DUP4 ADD DUP5 PUSH2 0xB53 JUMP JUMPDEST SWAP5 SWAP4 POP POP POP POP JUMP JUMPDEST PUSH32 0x4E487B7100000000000000000000000000000000000000000000000000000000 PUSH0 MSTORE PUSH1 0x11 PUSH1 0x4 MSTORE PUSH1 0x24 PUSH0 REVERT JUMPDEST PUSH0 PUSH2 0xE98 DUP3 PUSH2 0xB4A JUMP JUMPDEST SWAP2 POP PUSH2 0xEA3 DUP4 PUSH2 0xB4A JUMP JUMPDEST SWAP3 POP DUP3 DUP3 ADD SWAP1 POP DUP1 DUP3 GT ISZERO PUSH2 0xEBB JUMPI PUSH2 0xEBA PUSH2 0xE61 JUMP JUMPDEST JUMPDEST SWAP3 SWAP2 POP POP JUMP JUMPDEST PUSH32 0x496E73756666696369656E742062616C616E6365000000000000000000000000 PUSH0 DUP3 ADD MSTORE POP JUMP JUMPDEST PUSH0 PUSH2 0xEF5 PUSH1 0x14 DUP4 PUSH2 0xC84 JUMP JUMPDEST SWAP2 POP PUSH2 0xF00 DUP3 PUSH2 0xEC1 JUMP JUMPDEST PUSH1 0x20 DUP3 ADD SWAP1 POP SWAP2 SWAP1 POP JUMP JUMPDEST PUSH0 PUSH1 0x20 DUP3 ADD SWAP1 POP DUP2 DUP2 SUB PUSH0 DUP4 ADD MSTORE PUSH2 0xF22 DUP2 PUSH2 0xEE9 JUMP JUMPDEST SWAP1 POP SWAP2 SWAP1 POP JUMP JUMPDEST PUSH0 PUSH2 0xF33 DUP3 PUSH2 0xB4A JUMP JUMPDEST SWAP2 POP PUSH2 0xF3E DUP4 PUSH2 0xB4A JUMP JUMPDEST SWAP3 POP DUP3 DUP3 SUB SWAP1 POP DUP2 DUP2 GT ISZERO PUSH2 0xF56 JUMPI PUSH2 0xF55 PUSH2 0xE61 JUMP JUMPDEST JUMPDEST SWAP3 SWAP2 POP POP JUMP JUMPDEST PUSH0 PUSH1 0x40 DUP3 ADD SWAP1 POP PUSH2 0xF6F PUSH0 DUP4 ADD DUP6 PUSH2 0xB7B JUMP JUMPDEST PUSH2 0xF7C PUSH1 0x20 DUP4 ADD DUP5 PUSH2 0xB53 JUMP JUMPDEST SWAP4 SWAP3 POP POP POP JUMP INVALID LOG2 PUSH5 0x6970667358 0x22 SLT KECCAK256 0xF DUP3 SWAP14 PUSH23 0xA15123F21156329AE42978E42E195AB584B24F57A50DB6 SMOD JUMPDEST DUP5 EQ SWAP5 PUSH5 0x736F6C6343 STOP ADDMOD BYTE STOP CALLER "
				},
				"gasEstimates": {
					"creation": {
						"codeDepositCost": "805000",
						"executionCost": "infinite",
						"totalCost": "infinite"
					},
					"external": {
						"contribute(uint256)": "infinite",
						"contributions(address)": "2803",
						"finalizeFunding(address)": "infinite",
						"fundingGoal()": "2448",
						"owner()": "2553",
						"state()": "2551",
						"tokenAddress()": "2647",
						"totalFunds()": "2492",
						"transferFunds(address)": "infinite",
						"withdrawContribution(uint256)": "infinite"
					}
				},
				"methodIdentifiers": {
					"contribute(uint256)": "c1cbbca7",
					"contributions(address)": "42e94c90",
					"finalizeFunding(address)": "c1ad7925",
					"fundingGoal()": "7a3a0e84",
					"owner()": "8da5cb5b",
					"state()": "c19d93fb",
					"tokenAddress()": "9d76ea58",
					"totalFunds()": "968ed600",
					"transferFunds(address)": "e39ff19f",
					"withdrawContribution(uint256)": "d25090ff"
				}
			},
			"storageLayout": {
				"storage": [
					{
						"astId": 88,
						"contract": "tema/CrowdFunding.sol:CrowdFunding",
						"label": "state",
						"offset": 0,
						"slot": "0",
						"type": "t_enum(FundingState)85"
					},
					{
						"astId": 90,
						"contract": "tema/CrowdFunding.sol:CrowdFunding",
						"label": "tokenAddress",
						"offset": 1,
						"slot": "0",
						"type": "t_address"
					},
					{
						"astId": 92,
						"contract": "tema/CrowdFunding.sol:CrowdFunding",
						"label": "owner",
						"offset": 0,
						"slot": "1",
						"type": "t_address"
					},
					{
						"astId": 94,
						"contract": "tema/CrowdFunding.sol:CrowdFunding",
						"label": "fundingGoal",
						"offset": 0,
						"slot": "2",
						"type": "t_uint256"
					},
					{
						"astId": 96,
						"contract": "tema/CrowdFunding.sol:CrowdFunding",
						"label": "totalFunds",
						"offset": 0,
						"slot": "3",
						"type": "t_uint256"
					},
					{
						"astId": 100,
						"contract": "tema/CrowdFunding.sol:CrowdFunding",
						"label": "contributions",
						"offset": 0,
						"slot": "4",
						"type": "t_mapping(t_address,t_uint256)"
					}
				],
				"types": {
					"t_address": {
						"encoding": "inplace",
						"label": "address",
						"numberOfBytes": "20"
					},
					"t_enum(FundingState)85": {
						"encoding": "inplace",
						"label": "enum CrowdFunding.FundingState",
						"numberOfBytes": "1"
					},
					"t_mapping(t_address,t_uint256)": {
						"encoding": "mapping",
						"key": "t_address",
						"label": "mapping(address => uint256)",
						"numberOfBytes": "32",
						"value": "t_uint256"
					},
					"t_uint256": {
						"encoding": "inplace",
						"label": "uint256",
						"numberOfBytes": "32"
					}
				}
			},
			"userdoc": {
				"kind": "user",
				"methods": {},
				"version": 1
			}
		}
	}
}