{
	"tema/SponsorFunding.sol": {
		"SponsorFunding": {
			"abi": [
				{
					"inputs": [
						{
							"internalType": "address",
							"name": "_tokenAddress",
							"type": "address"
						},
						{
							"internalType": "uint256",
							"name": "_sponsorAmount",
							"type": "uint256"
						}
					],
					"stateMutability": "nonpayable",
					"type": "constructor"
				},
				{
					"anonymous": false,
					"inputs": [
						{
							"indexed": true,
							"internalType": "address",
							"name": "to",
							"type": "address"
						},
						{
							"indexed": false,
							"internalType": "uint256",
							"name": "amount",
							"type": "uint256"
						}
					],
					"name": "SponsorshipSent",
					"type": "event"
				},
				{
					"inputs": [
						{
							"internalType": "uint256",
							"name": "_amount",
							"type": "uint256"
						}
					],
					"name": "buyTokens",
					"outputs": [],
					"stateMutability": "nonpayable",
					"type": "function"
				},
				{
					"inputs": [],
					"name": "owner",
					"outputs": [
						{
							"internalType": "address",
							"name": "",
							"type": "address"
						}
					],
					"stateMutability": "view",
					"type": "function"
				},
				{
					"inputs": [
						{
							"internalType": "uint256",
							"name": "_newAmount",
							"type": "uint256"
						}
					],
					"name": "setSponsorAmount",
					"outputs": [],
					"stateMutability": "nonpayable",
					"type": "function"
				},
				{
					"inputs": [
						{
							"internalType": "address",
							"name": "_crowdFunding",
							"type": "address"
						}
					],
					"name": "sponsor",
					"outputs": [
						{
							"internalType": "bool",
							"name": "",
							"type": "bool"
						}
					],
					"stateMutability": "nonpayable",
					"type": "function"
				},
				{
					"inputs": [],
					"name": "sponsorAmount",
					"outputs": [
						{
							"internalType": "uint256",
							"name": "",
							"type": "uint256"
						}
					],
					"stateMutability": "view",
					"type": "function"
				},
				{
					"inputs": [],
					"name": "tokenAddress",
					"outputs": [
						{
							"internalType": "address",
							"name": "",
							"type": "address"
						}
					],
					"stateMutability": "view",
					"type": "function"
				}
			],
			"devdoc": {
				"kind": "dev",
				"methods": {},
				"version": 1
			},
			"evm": {
				"assembly": "    /* \"tema/SponsorFunding.sol\":120:1355  contract SponsorFunding {... */\n  mstore(0x40, 0x80)\n    /* \"tema/SponsorFunding.sol\":315:491  constructor(address _tokenAddress, uint256 _sponsorAmount) {... */\n  callvalue\n  dup1\n  iszero\n  tag_1\n  jumpi\n  0x00\n  dup1\n  revert\ntag_1:\n  pop\n  mload(0x40)\n  sub(codesize, bytecodeSize)\n  dup1\n  bytecodeSize\n  dup4\n  codecopy\n  dup2\n  dup2\n  add\n  0x40\n  mstore\n  dup2\n  add\n  swap1\n  tag_2\n  swap2\n  swap1\n  tag_3\n  jump\t// in\ntag_2:\n    /* \"tema/SponsorFunding.sol\":400:413  _tokenAddress */\n  dup2\n    /* \"tema/SponsorFunding.sol\":385:397  tokenAddress */\n  0x00\n  dup1\n    /* \"tema/SponsorFunding.sol\":385:413  tokenAddress = _tokenAddress */\n  0x0100\n  exp\n  dup2\n  sload\n  dup2\n  0xffffffffffffffffffffffffffffffffffffffff\n  mul\n  not\n  and\n  swap1\n  dup4\n  0xffffffffffffffffffffffffffffffffffffffff\n  and\n  mul\n  or\n  swap1\n  sstore\n  pop\n    /* \"tema/SponsorFunding.sol\":432:442  msg.sender */\n  caller\n    /* \"tema/SponsorFunding.sol\":424:429  owner */\n  0x01\n  0x00\n    /* \"tema/SponsorFunding.sol\":424:442  owner = msg.sender */\n  0x0100\n  exp\n  dup2\n  sload\n  dup2\n  0xffffffffffffffffffffffffffffffffffffffff\n  mul\n  not\n  and\n  swap1\n  dup4\n  0xffffffffffffffffffffffffffffffffffffffff\n  and\n  mul\n  or\n  swap1\n  sstore\n  pop\n    /* \"tema/SponsorFunding.sol\":469:483  _sponsorAmount */\n  dup1\n    /* \"tema/SponsorFunding.sol\":453:466  sponsorAmount */\n  0x02\n    /* \"tema/SponsorFunding.sol\":453:483  sponsorAmount = _sponsorAmount */\n  dup2\n  swap1\n  sstore\n  pop\n    /* \"tema/SponsorFunding.sol\":315:491  constructor(address _tokenAddress, uint256 _sponsorAmount) {... */\n  pop\n  pop\n    /* \"tema/SponsorFunding.sol\":120:1355  contract SponsorFunding {... */\n  jump(tag_6)\n    /* \"#utility.yul\":88:205   */\ntag_8:\n    /* \"#utility.yul\":197:198   */\n  0x00\n    /* \"#utility.yul\":194:195   */\n  dup1\n    /* \"#utility.yul\":187:199   */\n  revert\n    /* \"#utility.yul\":334:460   */\ntag_10:\n    /* \"#utility.yul\":371:378   */\n  0x00\n    /* \"#utility.yul\":411:453   */\n  0xffffffffffffffffffffffffffffffffffffffff\n    /* \"#utility.yul\":404:409   */\n  dup3\n    /* \"#utility.yul\":400:454   */\n  and\n    /* \"#utility.yul\":389:454   */\n  swap1\n  pop\n    /* \"#utility.yul\":334:460   */\n  swap2\n  swap1\n  pop\n  jump\t// out\n    /* \"#utility.yul\":466:562   */\ntag_11:\n    /* \"#utility.yul\":503:510   */\n  0x00\n    /* \"#utility.yul\":532:556   */\n  tag_23\n    /* \"#utility.yul\":550:555   */\n  dup3\n    /* \"#utility.yul\":532:556   */\n  tag_10\n  jump\t// in\ntag_23:\n    /* \"#utility.yul\":521:556   */\n  swap1\n  pop\n    /* \"#utility.yul\":466:562   */\n  swap2\n  swap1\n  pop\n  jump\t// out\n    /* \"#utility.yul\":568:690   */\ntag_12:\n    /* \"#utility.yul\":641:665   */\n  tag_25\n    /* \"#utility.yul\":659:664   */\n  dup2\n    /* \"#utility.yul\":641:665   */\n  tag_11\n  jump\t// in\ntag_25:\n    /* \"#utility.yul\":634:639   */\n  dup2\n    /* \"#utility.yul\":631:666   */\n  eq\n    /* \"#utility.yul\":621:684   */\n  tag_26\n  jumpi\n    /* \"#utility.yul\":680:681   */\n  0x00\n    /* \"#utility.yul\":677:678   */\n  dup1\n    /* \"#utility.yul\":670:682   */\n  revert\n    /* \"#utility.yul\":621:684   */\ntag_26:\n    /* \"#utility.yul\":568:690   */\n  pop\n  jump\t// out\n    /* \"#utility.yul\":696:839   */\ntag_13:\n    /* \"#utility.yul\":753:758   */\n  0x00\n    /* \"#utility.yul\":784:790   */\n  dup2\n    /* \"#utility.yul\":778:791   */\n  mload\n    /* \"#utility.yul\":769:791   */\n  swap1\n  pop\n    /* \"#utility.yul\":800:833   */\n  tag_28\n    /* \"#utility.yul\":827:832   */\n  dup2\n    /* \"#utility.yul\":800:833   */\n  tag_12\n  jump\t// in\ntag_28:\n    /* \"#utility.yul\":696:839   */\n  swap3\n  swap2\n  pop\n  pop\n  jump\t// out\n    /* \"#utility.yul\":845:922   */\ntag_14:\n    /* \"#utility.yul\":882:889   */\n  0x00\n    /* \"#utility.yul\":911:916   */\n  dup2\n    /* \"#utility.yul\":900:916   */\n  swap1\n  pop\n    /* \"#utility.yul\":845:922   */\n  swap2\n  swap1\n  pop\n  jump\t// out\n    /* \"#utility.yul\":928:1050   */\ntag_15:\n    /* \"#utility.yul\":1001:1025   */\n  tag_31\n    /* \"#utility.yul\":1019:1024   */\n  dup2\n    /* \"#utility.yul\":1001:1025   */\n  tag_14\n  jump\t// in\ntag_31:\n    /* \"#utility.yul\":994:999   */\n  dup2\n    /* \"#utility.yul\":991:1026   */\n  eq\n    /* \"#utility.yul\":981:1044   */\n  tag_32\n  jumpi\n    /* \"#utility.yul\":1040:1041   */\n  0x00\n    /* \"#utility.yul\":1037:1038   */\n  dup1\n    /* \"#utility.yul\":1030:1042   */\n  revert\n    /* \"#utility.yul\":981:1044   */\ntag_32:\n    /* \"#utility.yul\":928:1050   */\n  pop\n  jump\t// out\n    /* \"#utility.yul\":1056:1199   */\ntag_16:\n    /* \"#utility.yul\":1113:1118   */\n  0x00\n    /* \"#utility.yul\":1144:1150   */\n  dup2\n    /* \"#utility.yul\":1138:1151   */\n  mload\n    /* \"#utility.yul\":1129:1151   */\n  swap1\n  pop\n    /* \"#utility.yul\":1160:1193   */\n  tag_34\n    /* \"#utility.yul\":1187:1192   */\n  dup2\n    /* \"#utility.yul\":1160:1193   */\n  tag_15\n  jump\t// in\ntag_34:\n    /* \"#utility.yul\":1056:1199   */\n  swap3\n  swap2\n  pop\n  pop\n  jump\t// out\n    /* \"#utility.yul\":1205:1712   */\ntag_3:\n    /* \"#utility.yul\":1284:1290   */\n  0x00\n    /* \"#utility.yul\":1292:1298   */\n  dup1\n    /* \"#utility.yul\":1341:1343   */\n  0x40\n    /* \"#utility.yul\":1329:1338   */\n  dup4\n    /* \"#utility.yul\":1320:1327   */\n  dup6\n    /* \"#utility.yul\":1316:1339   */\n  sub\n    /* \"#utility.yul\":1312:1344   */\n  slt\n    /* \"#utility.yul\":1309:1428   */\n  iszero\n  tag_36\n  jumpi\n    /* \"#utility.yul\":1347:1426   */\n  tag_37\n  tag_8\n  jump\t// in\ntag_37:\n    /* \"#utility.yul\":1309:1428   */\ntag_36:\n    /* \"#utility.yul\":1467:1468   */\n  0x00\n    /* \"#utility.yul\":1492:1556   */\n  tag_38\n    /* \"#utility.yul\":1548:1555   */\n  dup6\n    /* \"#utility.yul\":1539:1545   */\n  dup3\n    /* \"#utility.yul\":1528:1537   */\n  dup7\n    /* \"#utility.yul\":1524:1546   */\n  add\n    /* \"#utility.yul\":1492:1556   */\n  tag_13\n  jump\t// in\ntag_38:\n    /* \"#utility.yul\":1482:1556   */\n  swap3\n  pop\n    /* \"#utility.yul\":1438:1566   */\n  pop\n    /* \"#utility.yul\":1605:1607   */\n  0x20\n    /* \"#utility.yul\":1631:1695   */\n  tag_39\n    /* \"#utility.yul\":1687:1694   */\n  dup6\n    /* \"#utility.yul\":1678:1684   */\n  dup3\n    /* \"#utility.yul\":1667:1676   */\n  dup7\n    /* \"#utility.yul\":1663:1685   */\n  add\n    /* \"#utility.yul\":1631:1695   */\n  tag_16\n  jump\t// in\ntag_39:\n    /* \"#utility.yul\":1621:1695   */\n  swap2\n  pop\n    /* \"#utility.yul\":1576:1705   */\n  pop\n    /* \"#utility.yul\":1205:1712   */\n  swap3\n  pop\n  swap3\n  swap1\n  pop\n  jump\t// out\n    /* \"tema/SponsorFunding.sol\":120:1355  contract SponsorFunding {... */\ntag_6:\n  dataSize(sub_0)\n  dup1\n  dataOffset(sub_0)\n  0x00\n  codecopy\n  0x00\n  return\nstop\n\nsub_0: assembly {\n        /* \"tema/SponsorFunding.sol\":120:1355  contract SponsorFunding {... */\n      mstore(0x40, 0x80)\n      callvalue\n      dup1\n      iszero\n      tag_1\n      jumpi\n      0x00\n      dup1\n      revert\n    tag_1:\n      pop\n      jumpi(tag_2, lt(calldatasize, 0x04))\n      shr(0xe0, calldataload(0x00))\n      dup1\n      0x216ff7da\n      eq\n      tag_3\n      jumpi\n      dup1\n      0x3610724e\n      eq\n      tag_4\n      jumpi\n      dup1\n      0x6a9d2920\n      eq\n      tag_5\n      jumpi\n      dup1\n      0x766c4f37\n      eq\n      tag_6\n      jumpi\n      dup1\n      0x8da5cb5b\n      eq\n      tag_7\n      jumpi\n      dup1\n      0x9d76ea58\n      eq\n      tag_8\n      jumpi\n    tag_2:\n      0x00\n      dup1\n      revert\n        /* \"tema/SponsorFunding.sol\":212:240  uint256 public sponsorAmount */\n    tag_3:\n      tag_9\n      tag_10\n      jump\t// in\n    tag_9:\n      mload(0x40)\n      tag_11\n      swap2\n      swap1\n      tag_12\n      jump\t// in\n    tag_11:\n      mload(0x40)\n      dup1\n      swap2\n      sub\n      swap1\n      return\n        /* \"tema/SponsorFunding.sol\":1031:1236  function buyTokens(uint256 _amount) public onlyOwner {... */\n    tag_4:\n      tag_13\n      0x04\n      dup1\n      calldatasize\n      sub\n      dup2\n      add\n      swap1\n      tag_14\n      swap2\n      swap1\n      tag_15\n      jump\t// in\n    tag_14:\n      tag_16\n      jump\t// in\n    tag_13:\n      stop\n        /* \"tema/SponsorFunding.sol\":1244:1352  function setSponsorAmount(uint256 _newAmount) public onlyOwner {... */\n    tag_5:\n      tag_17\n      0x04\n      dup1\n      calldatasize\n      sub\n      dup2\n      add\n      swap1\n      tag_18\n      swap2\n      swap1\n      tag_15\n      jump\t// in\n    tag_18:\n      tag_19\n      jump\t// in\n    tag_17:\n      stop\n        /* \"tema/SponsorFunding.sol\":604:1023  function sponsor(address _crowdFunding) public onlyOwner returns (bool) {... */\n    tag_6:\n      tag_20\n      0x04\n      dup1\n      calldatasize\n      sub\n      dup2\n      add\n      swap1\n      tag_21\n      swap2\n      swap1\n      tag_22\n      jump\t// in\n    tag_21:\n      tag_23\n      jump\t// in\n    tag_20:\n      mload(0x40)\n      tag_24\n      swap2\n      swap1\n      tag_25\n      jump\t// in\n    tag_24:\n      mload(0x40)\n      dup1\n      swap2\n      sub\n      swap1\n      return\n        /* \"tema/SponsorFunding.sol\":185:205  address public owner */\n    tag_7:\n      tag_26\n      tag_27\n      jump\t// in\n    tag_26:\n      mload(0x40)\n      tag_28\n      swap2\n      swap1\n      tag_29\n      jump\t// in\n    tag_28:\n      mload(0x40)\n      dup1\n      swap2\n      sub\n      swap1\n      return\n        /* \"tema/SponsorFunding.sol\":151:178  address public tokenAddress */\n    tag_8:\n      tag_30\n      tag_31\n      jump\t// in\n    tag_30:\n      mload(0x40)\n      tag_32\n      swap2\n      swap1\n      tag_29\n      jump\t// in\n    tag_32:\n      mload(0x40)\n      dup1\n      swap2\n      sub\n      swap1\n      return\n        /* \"tema/SponsorFunding.sol\":212:240  uint256 public sponsorAmount */\n    tag_10:\n      sload(0x02)\n      dup2\n      jump\t// out\n        /* \"tema/SponsorFunding.sol\":1031:1236  function buyTokens(uint256 _amount) public onlyOwner {... */\n    tag_16:\n        /* \"tema/SponsorFunding.sol\":553:558  owner */\n      0x01\n      0x00\n      swap1\n      sload\n      swap1\n      0x0100\n      exp\n      swap1\n      div\n      0xffffffffffffffffffffffffffffffffffffffff\n      and\n        /* \"tema/SponsorFunding.sol\":539:558  msg.sender == owner */\n      0xffffffffffffffffffffffffffffffffffffffff\n      and\n        /* \"tema/SponsorFunding.sol\":539:549  msg.sender */\n      caller\n        /* \"tema/SponsorFunding.sol\":539:558  msg.sender == owner */\n      0xffffffffffffffffffffffffffffffffffffffff\n      and\n      eq\n        /* \"tema/SponsorFunding.sol\":531:576  require(msg.sender == owner, \"Not the owner\") */\n      tag_34\n      jumpi\n      mload(0x40)\n      0x08c379a000000000000000000000000000000000000000000000000000000000\n      dup2\n      mstore\n      0x04\n      add\n      tag_35\n      swap1\n      tag_36\n      jump\t// in\n    tag_35:\n      mload(0x40)\n      dup1\n      swap2\n      sub\n      swap1\n      revert\n    tag_34:\n        /* \"tema/SponsorFunding.sol\":1113:1114  0 */\n      0x00\n        /* \"tema/SponsorFunding.sol\":1103:1110  _amount */\n      dup2\n        /* \"tema/SponsorFunding.sol\":1103:1114  _amount > 0 */\n      gt\n        /* \"tema/SponsorFunding.sol\":1095:1151  require(_amount > 0, \"Amount must be greater than zero\") */\n      tag_38\n      jumpi\n      mload(0x40)\n      0x08c379a000000000000000000000000000000000000000000000000000000000\n      dup2\n      mstore\n      0x04\n      add\n      tag_39\n      swap1\n      tag_40\n      jump\t// in\n    tag_39:\n      mload(0x40)\n      dup1\n      swap2\n      sub\n      swap1\n      revert\n    tag_38:\n        /* \"tema/SponsorFunding.sol\":1171:1183  tokenAddress */\n      0x00\n      dup1\n      sload\n      swap1\n      0x0100\n      exp\n      swap1\n      div\n      0xffffffffffffffffffffffffffffffffffffffff\n      and\n        /* \"tema/SponsorFunding.sol\":1164:1197  IERC20(tokenAddress).transferFrom */\n      0xffffffffffffffffffffffffffffffffffffffff\n      and\n      0x23b872dd\n        /* \"tema/SponsorFunding.sol\":1198:1203  owner */\n      0x01\n      0x00\n      swap1\n      sload\n      swap1\n      0x0100\n      exp\n      swap1\n      div\n      0xffffffffffffffffffffffffffffffffffffffff\n      and\n        /* \"tema/SponsorFunding.sol\":1213:1217  this */\n      address\n        /* \"tema/SponsorFunding.sol\":1220:1227  _amount */\n      dup5\n        /* \"tema/SponsorFunding.sol\":1164:1228  IERC20(tokenAddress).transferFrom(owner, address(this), _amount) */\n      mload(0x40)\n      dup5\n      0xffffffff\n      and\n      0xe0\n      shl\n      dup2\n      mstore\n      0x04\n      add\n      tag_41\n      swap4\n      swap3\n      swap2\n      swap1\n      tag_42\n      jump\t// in\n    tag_41:\n      0x20\n      mload(0x40)\n      dup1\n      dup4\n      sub\n      dup2\n      0x00\n      dup8\n      gas\n      call\n      iszero\n      dup1\n      iszero\n      tag_44\n      jumpi\n      returndatasize\n      0x00\n      dup1\n      returndatacopy\n      revert(0x00, returndatasize)\n    tag_44:\n      pop\n      pop\n      pop\n      pop\n      mload(0x40)\n      returndatasize\n      not(0x1f)\n      0x1f\n      dup3\n      add\n      and\n      dup3\n      add\n      dup1\n      0x40\n      mstore\n      pop\n      dup2\n      add\n      swap1\n      tag_45\n      swap2\n      swap1\n      tag_46\n      jump\t// in\n    tag_45:\n      pop\n        /* \"tema/SponsorFunding.sol\":1031:1236  function buyTokens(uint256 _amount) public onlyOwner {... */\n      pop\n      jump\t// out\n        /* \"tema/SponsorFunding.sol\":1244:1352  function setSponsorAmount(uint256 _newAmount) public onlyOwner {... */\n    tag_19:\n        /* \"tema/SponsorFunding.sol\":553:558  owner */\n      0x01\n      0x00\n      swap1\n      sload\n      swap1\n      0x0100\n      exp\n      swap1\n      div\n      0xffffffffffffffffffffffffffffffffffffffff\n      and\n        /* \"tema/SponsorFunding.sol\":539:558  msg.sender == owner */\n      0xffffffffffffffffffffffffffffffffffffffff\n      and\n        /* \"tema/SponsorFunding.sol\":539:549  msg.sender */\n      caller\n        /* \"tema/SponsorFunding.sol\":539:558  msg.sender == owner */\n      0xffffffffffffffffffffffffffffffffffffffff\n      and\n      eq\n        /* \"tema/SponsorFunding.sol\":531:576  require(msg.sender == owner, \"Not the owner\") */\n      tag_48\n      jumpi\n      mload(0x40)\n      0x08c379a000000000000000000000000000000000000000000000000000000000\n      dup2\n      mstore\n      0x04\n      add\n      tag_49\n      swap1\n      tag_36\n      jump\t// in\n    tag_49:\n      mload(0x40)\n      dup1\n      swap2\n      sub\n      swap1\n      revert\n    tag_48:\n        /* \"tema/SponsorFunding.sol\":1334:1344  _newAmount */\n      dup1\n        /* \"tema/SponsorFunding.sol\":1318:1331  sponsorAmount */\n      0x02\n        /* \"tema/SponsorFunding.sol\":1318:1344  sponsorAmount = _newAmount */\n      dup2\n      swap1\n      sstore\n      pop\n        /* \"tema/SponsorFunding.sol\":1244:1352  function setSponsorAmount(uint256 _newAmount) public onlyOwner {... */\n      pop\n      jump\t// out\n        /* \"tema/SponsorFunding.sol\":604:1023  function sponsor(address _crowdFunding) public onlyOwner returns (bool) {... */\n    tag_23:\n        /* \"tema/SponsorFunding.sol\":670:674  bool */\n      0x00\n        /* \"tema/SponsorFunding.sol\":553:558  owner */\n      0x01\n      0x00\n      swap1\n      sload\n      swap1\n      0x0100\n      exp\n      swap1\n      div\n      0xffffffffffffffffffffffffffffffffffffffff\n      and\n        /* \"tema/SponsorFunding.sol\":539:558  msg.sender == owner */\n      0xffffffffffffffffffffffffffffffffffffffff\n      and\n        /* \"tema/SponsorFunding.sol\":539:549  msg.sender */\n      caller\n        /* \"tema/SponsorFunding.sol\":539:558  msg.sender == owner */\n      0xffffffffffffffffffffffffffffffffffffffff\n      and\n      eq\n        /* \"tema/SponsorFunding.sol\":531:576  require(msg.sender == owner, \"Not the owner\") */\n      tag_52\n      jumpi\n      mload(0x40)\n      0x08c379a000000000000000000000000000000000000000000000000000000000\n      dup2\n      mstore\n      0x04\n      add\n      tag_53\n      swap1\n      tag_36\n      jump\t// in\n    tag_53:\n      mload(0x40)\n      dup1\n      swap2\n      sub\n      swap1\n      revert\n    tag_52:\n        /* \"tema/SponsorFunding.sol\":687:702  uint256 balance */\n      0x00\n        /* \"tema/SponsorFunding.sol\":712:724  tokenAddress */\n      dup1\n      0x00\n      swap1\n      sload\n      swap1\n      0x0100\n      exp\n      swap1\n      div\n      0xffffffffffffffffffffffffffffffffffffffff\n      and\n        /* \"tema/SponsorFunding.sol\":705:735  IERC20(tokenAddress).balanceOf */\n      0xffffffffffffffffffffffffffffffffffffffff\n      and\n      0x70a08231\n        /* \"tema/SponsorFunding.sol\":744:748  this */\n      address\n        /* \"tema/SponsorFunding.sol\":705:750  IERC20(tokenAddress).balanceOf(address(this)) */\n      mload(0x40)\n      dup3\n      0xffffffff\n      and\n      0xe0\n      shl\n      dup2\n      mstore\n      0x04\n      add\n      tag_55\n      swap2\n      swap1\n      tag_29\n      jump\t// in\n    tag_55:\n      0x20\n      mload(0x40)\n      dup1\n      dup4\n      sub\n      dup2\n      dup7\n      gas\n      staticcall\n      iszero\n      dup1\n      iszero\n      tag_57\n      jumpi\n      returndatasize\n      0x00\n      dup1\n      returndatacopy\n      revert(0x00, returndatasize)\n    tag_57:\n      pop\n      pop\n      pop\n      pop\n      mload(0x40)\n      returndatasize\n      not(0x1f)\n      0x1f\n      dup3\n      add\n      and\n      dup3\n      add\n      dup1\n      0x40\n      mstore\n      pop\n      dup2\n      add\n      swap1\n      tag_58\n      swap2\n      swap1\n      tag_59\n      jump\t// in\n    tag_58:\n        /* \"tema/SponsorFunding.sol\":687:750  uint256 balance = IERC20(tokenAddress).balanceOf(address(this)) */\n      swap1\n      pop\n        /* \"tema/SponsorFunding.sol\":776:789  sponsorAmount */\n      sload(0x02)\n        /* \"tema/SponsorFunding.sol\":765:772  balance */\n      dup2\n        /* \"tema/SponsorFunding.sol\":765:789  balance >= sponsorAmount */\n      lt\n        /* \"tema/SponsorFunding.sol\":761:968  if (balance >= sponsorAmount) {... */\n      tag_60\n      jumpi\n        /* \"tema/SponsorFunding.sol\":813:825  tokenAddress */\n      0x00\n      dup1\n      sload\n      swap1\n      0x0100\n      exp\n      swap1\n      div\n      0xffffffffffffffffffffffffffffffffffffffff\n      and\n        /* \"tema/SponsorFunding.sol\":806:835  IERC20(tokenAddress).transfer */\n      0xffffffffffffffffffffffffffffffffffffffff\n      and\n      0xa9059cbb\n        /* \"tema/SponsorFunding.sol\":836:849  _crowdFunding */\n      dup5\n        /* \"tema/SponsorFunding.sol\":851:864  sponsorAmount */\n      sload(0x02)\n        /* \"tema/SponsorFunding.sol\":806:865  IERC20(tokenAddress).transfer(_crowdFunding, sponsorAmount) */\n      mload(0x40)\n      dup4\n      0xffffffff\n      and\n      0xe0\n      shl\n      dup2\n      mstore\n      0x04\n      add\n      tag_61\n      swap3\n      swap2\n      swap1\n      tag_62\n      jump\t// in\n    tag_61:\n      0x20\n      mload(0x40)\n      dup1\n      dup4\n      sub\n      dup2\n      0x00\n      dup8\n      gas\n      call\n      iszero\n      dup1\n      iszero\n      tag_64\n      jumpi\n      returndatasize\n      0x00\n      dup1\n      returndatacopy\n      revert(0x00, returndatasize)\n    tag_64:\n      pop\n      pop\n      pop\n      pop\n      mload(0x40)\n      returndatasize\n      not(0x1f)\n      0x1f\n      dup3\n      add\n      and\n      dup3\n      add\n      dup1\n      0x40\n      mstore\n      pop\n      dup2\n      add\n      swap1\n      tag_65\n      swap2\n      swap1\n      tag_46\n      jump\t// in\n    tag_65:\n      pop\n        /* \"tema/SponsorFunding.sol\":901:914  _crowdFunding */\n      dup3\n        /* \"tema/SponsorFunding.sol\":885:930  SponsorshipSent(_crowdFunding, sponsorAmount) */\n      0xffffffffffffffffffffffffffffffffffffffff\n      and\n      0x461da2c41b74cabf7ea936912773bebb0fe72116fb9261471fc3b372c3b7f4d2\n        /* \"tema/SponsorFunding.sol\":916:929  sponsorAmount */\n      sload(0x02)\n        /* \"tema/SponsorFunding.sol\":885:930  SponsorshipSent(_crowdFunding, sponsorAmount) */\n      mload(0x40)\n      tag_66\n      swap2\n      swap1\n      tag_12\n      jump\t// in\n    tag_66:\n      mload(0x40)\n      dup1\n      swap2\n      sub\n      swap1\n      log2\n        /* \"tema/SponsorFunding.sol\":952:956  true */\n      0x01\n        /* \"tema/SponsorFunding.sol\":945:956  return true */\n      swap2\n      pop\n      pop\n      jump(tag_54)\n        /* \"tema/SponsorFunding.sol\":761:968  if (balance >= sponsorAmount) {... */\n    tag_60:\n        /* \"tema/SponsorFunding.sol\":985:990  false */\n      0x00\n        /* \"tema/SponsorFunding.sol\":978:990  return false */\n      swap2\n      pop\n      pop\n        /* \"tema/SponsorFunding.sol\":587:588  _ */\n    tag_54:\n        /* \"tema/SponsorFunding.sol\":604:1023  function sponsor(address _crowdFunding) public onlyOwner returns (bool) {... */\n      swap2\n      swap1\n      pop\n      jump\t// out\n        /* \"tema/SponsorFunding.sol\":185:205  address public owner */\n    tag_27:\n      0x01\n      0x00\n      swap1\n      sload\n      swap1\n      0x0100\n      exp\n      swap1\n      div\n      0xffffffffffffffffffffffffffffffffffffffff\n      and\n      dup2\n      jump\t// out\n        /* \"tema/SponsorFunding.sol\":151:178  address public tokenAddress */\n    tag_31:\n      0x00\n      dup1\n      sload\n      swap1\n      0x0100\n      exp\n      swap1\n      div\n      0xffffffffffffffffffffffffffffffffffffffff\n      and\n      dup2\n      jump\t// out\n        /* \"#utility.yul\":7:84   */\n    tag_67:\n        /* \"#utility.yul\":44:51   */\n      0x00\n        /* \"#utility.yul\":73:78   */\n      dup2\n        /* \"#utility.yul\":62:78   */\n      swap1\n      pop\n        /* \"#utility.yul\":7:84   */\n      swap2\n      swap1\n      pop\n      jump\t// out\n        /* \"#utility.yul\":90:208   */\n    tag_68:\n        /* \"#utility.yul\":177:201   */\n      tag_92\n        /* \"#utility.yul\":195:200   */\n      dup2\n        /* \"#utility.yul\":177:201   */\n      tag_67\n      jump\t// in\n    tag_92:\n        /* \"#utility.yul\":172:175   */\n      dup3\n        /* \"#utility.yul\":165:202   */\n      mstore\n        /* \"#utility.yul\":90:208   */\n      pop\n      pop\n      jump\t// out\n        /* \"#utility.yul\":214:436   */\n    tag_12:\n        /* \"#utility.yul\":307:311   */\n      0x00\n        /* \"#utility.yul\":345:347   */\n      0x20\n        /* \"#utility.yul\":334:343   */\n      dup3\n        /* \"#utility.yul\":330:348   */\n      add\n        /* \"#utility.yul\":322:348   */\n      swap1\n      pop\n        /* \"#utility.yul\":358:429   */\n      tag_94\n        /* \"#utility.yul\":426:427   */\n      0x00\n        /* \"#utility.yul\":415:424   */\n      dup4\n        /* \"#utility.yul\":411:428   */\n      add\n        /* \"#utility.yul\":402:408   */\n      dup5\n        /* \"#utility.yul\":358:429   */\n      tag_68\n      jump\t// in\n    tag_94:\n        /* \"#utility.yul\":214:436   */\n      swap3\n      swap2\n      pop\n      pop\n      jump\t// out\n        /* \"#utility.yul\":523:640   */\n    tag_70:\n        /* \"#utility.yul\":632:633   */\n      0x00\n        /* \"#utility.yul\":629:630   */\n      dup1\n        /* \"#utility.yul\":622:634   */\n      revert\n        /* \"#utility.yul\":769:891   */\n    tag_72:\n        /* \"#utility.yul\":842:866   */\n      tag_99\n        /* \"#utility.yul\":860:865   */\n      dup2\n        /* \"#utility.yul\":842:866   */\n      tag_67\n      jump\t// in\n    tag_99:\n        /* \"#utility.yul\":835:840   */\n      dup2\n        /* \"#utility.yul\":832:867   */\n      eq\n        /* \"#utility.yul\":822:885   */\n      tag_100\n      jumpi\n        /* \"#utility.yul\":881:882   */\n      0x00\n        /* \"#utility.yul\":878:879   */\n      dup1\n        /* \"#utility.yul\":871:883   */\n      revert\n        /* \"#utility.yul\":822:885   */\n    tag_100:\n        /* \"#utility.yul\":769:891   */\n      pop\n      jump\t// out\n        /* \"#utility.yul\":897:1036   */\n    tag_73:\n        /* \"#utility.yul\":943:948   */\n      0x00\n        /* \"#utility.yul\":981:987   */\n      dup2\n        /* \"#utility.yul\":968:988   */\n      calldataload\n        /* \"#utility.yul\":959:988   */\n      swap1\n      pop\n        /* \"#utility.yul\":997:1030   */\n      tag_102\n        /* \"#utility.yul\":1024:1029   */\n      dup2\n        /* \"#utility.yul\":997:1030   */\n      tag_72\n      jump\t// in\n    tag_102:\n        /* \"#utility.yul\":897:1036   */\n      swap3\n      swap2\n      pop\n      pop\n      jump\t// out\n        /* \"#utility.yul\":1042:1371   */\n    tag_15:\n        /* \"#utility.yul\":1101:1107   */\n      0x00\n        /* \"#utility.yul\":1150:1152   */\n      0x20\n        /* \"#utility.yul\":1138:1147   */\n      dup3\n        /* \"#utility.yul\":1129:1136   */\n      dup5\n        /* \"#utility.yul\":1125:1148   */\n      sub\n        /* \"#utility.yul\":1121:1153   */\n      slt\n        /* \"#utility.yul\":1118:1237   */\n      iszero\n      tag_104\n      jumpi\n        /* \"#utility.yul\":1156:1235   */\n      tag_105\n      tag_70\n      jump\t// in\n    tag_105:\n        /* \"#utility.yul\":1118:1237   */\n    tag_104:\n        /* \"#utility.yul\":1276:1277   */\n      0x00\n        /* \"#utility.yul\":1301:1354   */\n      tag_106\n        /* \"#utility.yul\":1346:1353   */\n      dup5\n        /* \"#utility.yul\":1337:1343   */\n      dup3\n        /* \"#utility.yul\":1326:1335   */\n      dup6\n        /* \"#utility.yul\":1322:1344   */\n      add\n        /* \"#utility.yul\":1301:1354   */\n      tag_73\n      jump\t// in\n    tag_106:\n        /* \"#utility.yul\":1291:1354   */\n      swap2\n      pop\n        /* \"#utility.yul\":1247:1364   */\n      pop\n        /* \"#utility.yul\":1042:1371   */\n      swap3\n      swap2\n      pop\n      pop\n      jump\t// out\n        /* \"#utility.yul\":1377:1503   */\n    tag_74:\n        /* \"#utility.yul\":1414:1421   */\n      0x00\n        /* \"#utility.yul\":1454:1496   */\n      0xffffffffffffffffffffffffffffffffffffffff\n        /* \"#utility.yul\":1447:1452   */\n      dup3\n        /* \"#utility.yul\":1443:1497   */\n      and\n        /* \"#utility.yul\":1432:1497   */\n      swap1\n      pop\n        /* \"#utility.yul\":1377:1503   */\n      swap2\n      swap1\n      pop\n      jump\t// out\n        /* \"#utility.yul\":1509:1605   */\n    tag_75:\n        /* \"#utility.yul\":1546:1553   */\n      0x00\n        /* \"#utility.yul\":1575:1599   */\n      tag_109\n        /* \"#utility.yul\":1593:1598   */\n      dup3\n        /* \"#utility.yul\":1575:1599   */\n      tag_74\n      jump\t// in\n    tag_109:\n        /* \"#utility.yul\":1564:1599   */\n      swap1\n      pop\n        /* \"#utility.yul\":1509:1605   */\n      swap2\n      swap1\n      pop\n      jump\t// out\n        /* \"#utility.yul\":1611:1733   */\n    tag_76:\n        /* \"#utility.yul\":1684:1708   */\n      tag_111\n        /* \"#utility.yul\":1702:1707   */\n      dup2\n        /* \"#utility.yul\":1684:1708   */\n      tag_75\n      jump\t// in\n    tag_111:\n        /* \"#utility.yul\":1677:1682   */\n      dup2\n        /* \"#utility.yul\":1674:1709   */\n      eq\n        /* \"#utility.yul\":1664:1727   */\n      tag_112\n      jumpi\n        /* \"#utility.yul\":1723:1724   */\n      0x00\n        /* \"#utility.yul\":1720:1721   */\n      dup1\n        /* \"#utility.yul\":1713:1725   */\n      revert\n        /* \"#utility.yul\":1664:1727   */\n    tag_112:\n        /* \"#utility.yul\":1611:1733   */\n      pop\n      jump\t// out\n        /* \"#utility.yul\":1739:1878   */\n    tag_77:\n        /* \"#utility.yul\":1785:1790   */\n      0x00\n        /* \"#utility.yul\":1823:1829   */\n      dup2\n        /* \"#utility.yul\":1810:1830   */\n      calldataload\n        /* \"#utility.yul\":1801:1830   */\n      swap1\n      pop\n        /* \"#utility.yul\":1839:1872   */\n      tag_114\n        /* \"#utility.yul\":1866:1871   */\n      dup2\n        /* \"#utility.yul\":1839:1872   */\n      tag_76\n      jump\t// in\n    tag_114:\n        /* \"#utility.yul\":1739:1878   */\n      swap3\n      swap2\n      pop\n      pop\n      jump\t// out\n        /* \"#utility.yul\":1884:2213   */\n    tag_22:\n        /* \"#utility.yul\":1943:1949   */\n      0x00\n        /* \"#utility.yul\":1992:1994   */\n      0x20\n        /* \"#utility.yul\":1980:1989   */\n      dup3\n        /* \"#utility.yul\":1971:1978   */\n      dup5\n        /* \"#utility.yul\":1967:1990   */\n      sub\n        /* \"#utility.yul\":1963:1995   */\n      slt\n        /* \"#utility.yul\":1960:2079   */\n      iszero\n      tag_116\n      jumpi\n        /* \"#utility.yul\":1998:2077   */\n      tag_117\n      tag_70\n      jump\t// in\n    tag_117:\n        /* \"#utility.yul\":1960:2079   */\n    tag_116:\n        /* \"#utility.yul\":2118:2119   */\n      0x00\n        /* \"#utility.yul\":2143:2196   */\n      tag_118\n        /* \"#utility.yul\":2188:2195   */\n      dup5\n        /* \"#utility.yul\":2179:2185   */\n      dup3\n        /* \"#utility.yul\":2168:2177   */\n      dup6\n        /* \"#utility.yul\":2164:2186   */\n      add\n        /* \"#utility.yul\":2143:2196   */\n      tag_77\n      jump\t// in\n    tag_118:\n        /* \"#utility.yul\":2133:2196   */\n      swap2\n      pop\n        /* \"#utility.yul\":2089:2206   */\n      pop\n        /* \"#utility.yul\":1884:2213   */\n      swap3\n      swap2\n      pop\n      pop\n      jump\t// out\n        /* \"#utility.yul\":2219:2309   */\n    tag_78:\n        /* \"#utility.yul\":2253:2260   */\n      0x00\n        /* \"#utility.yul\":2296:2301   */\n      dup2\n        /* \"#utility.yul\":2289:2302   */\n      iszero\n        /* \"#utility.yul\":2282:2303   */\n      iszero\n        /* \"#utility.yul\":2271:2303   */\n      swap1\n      pop\n        /* \"#utility.yul\":2219:2309   */\n      swap2\n      swap1\n      pop\n      jump\t// out\n        /* \"#utility.yul\":2315:2424   */\n    tag_79:\n        /* \"#utility.yul\":2396:2417   */\n      tag_121\n        /* \"#utility.yul\":2411:2416   */\n      dup2\n        /* \"#utility.yul\":2396:2417   */\n      tag_78\n      jump\t// in\n    tag_121:\n        /* \"#utility.yul\":2391:2394   */\n      dup3\n        /* \"#utility.yul\":2384:2418   */\n      mstore\n        /* \"#utility.yul\":2315:2424   */\n      pop\n      pop\n      jump\t// out\n        /* \"#utility.yul\":2430:2640   */\n    tag_25:\n        /* \"#utility.yul\":2517:2521   */\n      0x00\n        /* \"#utility.yul\":2555:2557   */\n      0x20\n        /* \"#utility.yul\":2544:2553   */\n      dup3\n        /* \"#utility.yul\":2540:2558   */\n      add\n        /* \"#utility.yul\":2532:2558   */\n      swap1\n      pop\n        /* \"#utility.yul\":2568:2633   */\n      tag_123\n        /* \"#utility.yul\":2630:2631   */\n      0x00\n        /* \"#utility.yul\":2619:2628   */\n      dup4\n        /* \"#utility.yul\":2615:2632   */\n      add\n        /* \"#utility.yul\":2606:2612   */\n      dup5\n        /* \"#utility.yul\":2568:2633   */\n      tag_79\n      jump\t// in\n    tag_123:\n        /* \"#utility.yul\":2430:2640   */\n      swap3\n      swap2\n      pop\n      pop\n      jump\t// out\n        /* \"#utility.yul\":2646:2764   */\n    tag_80:\n        /* \"#utility.yul\":2733:2757   */\n      tag_125\n        /* \"#utility.yul\":2751:2756   */\n      dup2\n        /* \"#utility.yul\":2733:2757   */\n      tag_75\n      jump\t// in\n    tag_125:\n        /* \"#utility.yul\":2728:2731   */\n      dup3\n        /* \"#utility.yul\":2721:2758   */\n      mstore\n        /* \"#utility.yul\":2646:2764   */\n      pop\n      pop\n      jump\t// out\n        /* \"#utility.yul\":2770:2992   */\n    tag_29:\n        /* \"#utility.yul\":2863:2867   */\n      0x00\n        /* \"#utility.yul\":2901:2903   */\n      0x20\n        /* \"#utility.yul\":2890:2899   */\n      dup3\n        /* \"#utility.yul\":2886:2904   */\n      add\n        /* \"#utility.yul\":2878:2904   */\n      swap1\n      pop\n        /* \"#utility.yul\":2914:2985   */\n      tag_127\n        /* \"#utility.yul\":2982:2983   */\n      0x00\n        /* \"#utility.yul\":2971:2980   */\n      dup4\n        /* \"#utility.yul\":2967:2984   */\n      add\n        /* \"#utility.yul\":2958:2964   */\n      dup5\n        /* \"#utility.yul\":2914:2985   */\n      tag_80\n      jump\t// in\n    tag_127:\n        /* \"#utility.yul\":2770:2992   */\n      swap3\n      swap2\n      pop\n      pop\n      jump\t// out\n        /* \"#utility.yul\":2998:3167   */\n    tag_81:\n        /* \"#utility.yul\":3082:3093   */\n      0x00\n        /* \"#utility.yul\":3116:3122   */\n      dup3\n        /* \"#utility.yul\":3111:3114   */\n      dup3\n        /* \"#utility.yul\":3104:3123   */\n      mstore\n        /* \"#utility.yul\":3156:3160   */\n      0x20\n        /* \"#utility.yul\":3151:3154   */\n      dup3\n        /* \"#utility.yul\":3147:3161   */\n      add\n        /* \"#utility.yul\":3132:3161   */\n      swap1\n      pop\n        /* \"#utility.yul\":2998:3167   */\n      swap3\n      swap2\n      pop\n      pop\n      jump\t// out\n        /* \"#utility.yul\":3173:3336   */\n    tag_82:\n        /* \"#utility.yul\":3313:3328   */\n      0x4e6f7420746865206f776e657200000000000000000000000000000000000000\n        /* \"#utility.yul\":3309:3310   */\n      0x00\n        /* \"#utility.yul\":3301:3307   */\n      dup3\n        /* \"#utility.yul\":3297:3311   */\n      add\n        /* \"#utility.yul\":3290:3329   */\n      mstore\n        /* \"#utility.yul\":3173:3336   */\n      pop\n      jump\t// out\n        /* \"#utility.yul\":3342:3708   */\n    tag_83:\n        /* \"#utility.yul\":3484:3487   */\n      0x00\n        /* \"#utility.yul\":3505:3572   */\n      tag_131\n        /* \"#utility.yul\":3569:3571   */\n      0x0d\n        /* \"#utility.yul\":3564:3567   */\n      dup4\n        /* \"#utility.yul\":3505:3572   */\n      tag_81\n      jump\t// in\n    tag_131:\n        /* \"#utility.yul\":3498:3572   */\n      swap2\n      pop\n        /* \"#utility.yul\":3581:3674   */\n      tag_132\n        /* \"#utility.yul\":3670:3673   */\n      dup3\n        /* \"#utility.yul\":3581:3674   */\n      tag_82\n      jump\t// in\n    tag_132:\n        /* \"#utility.yul\":3699:3701   */\n      0x20\n        /* \"#utility.yul\":3694:3697   */\n      dup3\n        /* \"#utility.yul\":3690:3702   */\n      add\n        /* \"#utility.yul\":3683:3702   */\n      swap1\n      pop\n        /* \"#utility.yul\":3342:3708   */\n      swap2\n      swap1\n      pop\n      jump\t// out\n        /* \"#utility.yul\":3714:4133   */\n    tag_36:\n        /* \"#utility.yul\":3880:3884   */\n      0x00\n        /* \"#utility.yul\":3918:3920   */\n      0x20\n        /* \"#utility.yul\":3907:3916   */\n      dup3\n        /* \"#utility.yul\":3903:3921   */\n      add\n        /* \"#utility.yul\":3895:3921   */\n      swap1\n      pop\n        /* \"#utility.yul\":3967:3976   */\n      dup2\n        /* \"#utility.yul\":3961:3965   */\n      dup2\n        /* \"#utility.yul\":3957:3977   */\n      sub\n        /* \"#utility.yul\":3953:3954   */\n      0x00\n        /* \"#utility.yul\":3942:3951   */\n      dup4\n        /* \"#utility.yul\":3938:3955   */\n      add\n        /* \"#utility.yul\":3931:3978   */\n      mstore\n        /* \"#utility.yul\":3995:4126   */\n      tag_134\n        /* \"#utility.yul\":4121:4125   */\n      dup2\n        /* \"#utility.yul\":3995:4126   */\n      tag_83\n      jump\t// in\n    tag_134:\n        /* \"#utility.yul\":3987:4126   */\n      swap1\n      pop\n        /* \"#utility.yul\":3714:4133   */\n      swap2\n      swap1\n      pop\n      jump\t// out\n        /* \"#utility.yul\":4139:4321   */\n    tag_84:\n        /* \"#utility.yul\":4279:4313   */\n      0x416d6f756e74206d7573742062652067726561746572207468616e207a65726f\n        /* \"#utility.yul\":4275:4276   */\n      0x00\n        /* \"#utility.yul\":4267:4273   */\n      dup3\n        /* \"#utility.yul\":4263:4277   */\n      add\n        /* \"#utility.yul\":4256:4314   */\n      mstore\n        /* \"#utility.yul\":4139:4321   */\n      pop\n      jump\t// out\n        /* \"#utility.yul\":4327:4693   */\n    tag_85:\n        /* \"#utility.yul\":4469:4472   */\n      0x00\n        /* \"#utility.yul\":4490:4557   */\n      tag_137\n        /* \"#utility.yul\":4554:4556   */\n      0x20\n        /* \"#utility.yul\":4549:4552   */\n      dup4\n        /* \"#utility.yul\":4490:4557   */\n      tag_81\n      jump\t// in\n    tag_137:\n        /* \"#utility.yul\":4483:4557   */\n      swap2\n      pop\n        /* \"#utility.yul\":4566:4659   */\n      tag_138\n        /* \"#utility.yul\":4655:4658   */\n      dup3\n        /* \"#utility.yul\":4566:4659   */\n      tag_84\n      jump\t// in\n    tag_138:\n        /* \"#utility.yul\":4684:4686   */\n      0x20\n        /* \"#utility.yul\":4679:4682   */\n      dup3\n        /* \"#utility.yul\":4675:4687   */\n      add\n        /* \"#utility.yul\":4668:4687   */\n      swap1\n      pop\n        /* \"#utility.yul\":4327:4693   */\n      swap2\n      swap1\n      pop\n      jump\t// out\n        /* \"#utility.yul\":4699:5118   */\n    tag_40:\n        /* \"#utility.yul\":4865:4869   */\n      0x00\n        /* \"#utility.yul\":4903:4905   */\n      0x20\n        /* \"#utility.yul\":4892:4901   */\n      dup3\n        /* \"#utility.yul\":4888:4906   */\n      add\n        /* \"#utility.yul\":4880:4906   */\n      swap1\n      pop\n        /* \"#utility.yul\":4952:4961   */\n      dup2\n        /* \"#utility.yul\":4946:4950   */\n      dup2\n        /* \"#utility.yul\":4942:4962   */\n      sub\n        /* \"#utility.yul\":4938:4939   */\n      0x00\n        /* \"#utility.yul\":4927:4936   */\n      dup4\n        /* \"#utility.yul\":4923:4940   */\n      add\n        /* \"#utility.yul\":4916:4963   */\n      mstore\n        /* \"#utility.yul\":4980:5111   */\n      tag_140\n        /* \"#utility.yul\":5106:5110   */\n      dup2\n        /* \"#utility.yul\":4980:5111   */\n      tag_85\n      jump\t// in\n    tag_140:\n        /* \"#utility.yul\":4972:5111   */\n      swap1\n      pop\n        /* \"#utility.yul\":4699:5118   */\n      swap2\n      swap1\n      pop\n      jump\t// out\n        /* \"#utility.yul\":5124:5566   */\n    tag_42:\n        /* \"#utility.yul\":5273:5277   */\n      0x00\n        /* \"#utility.yul\":5311:5313   */\n      0x60\n        /* \"#utility.yul\":5300:5309   */\n      dup3\n        /* \"#utility.yul\":5296:5314   */\n      add\n        /* \"#utility.yul\":5288:5314   */\n      swap1\n      pop\n        /* \"#utility.yul\":5324:5395   */\n      tag_142\n        /* \"#utility.yul\":5392:5393   */\n      0x00\n        /* \"#utility.yul\":5381:5390   */\n      dup4\n        /* \"#utility.yul\":5377:5394   */\n      add\n        /* \"#utility.yul\":5368:5374   */\n      dup7\n        /* \"#utility.yul\":5324:5395   */\n      tag_80\n      jump\t// in\n    tag_142:\n        /* \"#utility.yul\":5405:5477   */\n      tag_143\n        /* \"#utility.yul\":5473:5475   */\n      0x20\n        /* \"#utility.yul\":5462:5471   */\n      dup4\n        /* \"#utility.yul\":5458:5476   */\n      add\n        /* \"#utility.yul\":5449:5455   */\n      dup6\n        /* \"#utility.yul\":5405:5477   */\n      tag_80\n      jump\t// in\n    tag_143:\n        /* \"#utility.yul\":5487:5559   */\n      tag_144\n        /* \"#utility.yul\":5555:5557   */\n      0x40\n        /* \"#utility.yul\":5544:5553   */\n      dup4\n        /* \"#utility.yul\":5540:5558   */\n      add\n        /* \"#utility.yul\":5531:5537   */\n      dup5\n        /* \"#utility.yul\":5487:5559   */\n      tag_68\n      jump\t// in\n    tag_144:\n        /* \"#utility.yul\":5124:5566   */\n      swap5\n      swap4\n      pop\n      pop\n      pop\n      pop\n      jump\t// out\n        /* \"#utility.yul\":5572:5688   */\n    tag_86:\n        /* \"#utility.yul\":5642:5663   */\n      tag_146\n        /* \"#utility.yul\":5657:5662   */\n      dup2\n        /* \"#utility.yul\":5642:5663   */\n      tag_78\n      jump\t// in\n    tag_146:\n        /* \"#utility.yul\":5635:5640   */\n      dup2\n        /* \"#utility.yul\":5632:5664   */\n      eq\n        /* \"#utility.yul\":5622:5682   */\n      tag_147\n      jumpi\n        /* \"#utility.yul\":5678:5679   */\n      0x00\n        /* \"#utility.yul\":5675:5676   */\n      dup1\n        /* \"#utility.yul\":5668:5680   */\n      revert\n        /* \"#utility.yul\":5622:5682   */\n    tag_147:\n        /* \"#utility.yul\":5572:5688   */\n      pop\n      jump\t// out\n        /* \"#utility.yul\":5694:5831   */\n    tag_87:\n        /* \"#utility.yul\":5748:5753   */\n      0x00\n        /* \"#utility.yul\":5779:5785   */\n      dup2\n        /* \"#utility.yul\":5773:5786   */\n      mload\n        /* \"#utility.yul\":5764:5786   */\n      swap1\n      pop\n        /* \"#utility.yul\":5795:5825   */\n      tag_149\n        /* \"#utility.yul\":5819:5824   */\n      dup2\n        /* \"#utility.yul\":5795:5825   */\n      tag_86\n      jump\t// in\n    tag_149:\n        /* \"#utility.yul\":5694:5831   */\n      swap3\n      swap2\n      pop\n      pop\n      jump\t// out\n        /* \"#utility.yul\":5837:6182   */\n    tag_46:\n        /* \"#utility.yul\":5904:5910   */\n      0x00\n        /* \"#utility.yul\":5953:5955   */\n      0x20\n        /* \"#utility.yul\":5941:5950   */\n      dup3\n        /* \"#utility.yul\":5932:5939   */\n      dup5\n        /* \"#utility.yul\":5928:5951   */\n      sub\n        /* \"#utility.yul\":5924:5956   */\n      slt\n        /* \"#utility.yul\":5921:6040   */\n      iszero\n      tag_151\n      jumpi\n        /* \"#utility.yul\":5959:6038   */\n      tag_152\n      tag_70\n      jump\t// in\n    tag_152:\n        /* \"#utility.yul\":5921:6040   */\n    tag_151:\n        /* \"#utility.yul\":6079:6080   */\n      0x00\n        /* \"#utility.yul\":6104:6165   */\n      tag_153\n        /* \"#utility.yul\":6157:6164   */\n      dup5\n        /* \"#utility.yul\":6148:6154   */\n      dup3\n        /* \"#utility.yul\":6137:6146   */\n      dup6\n        /* \"#utility.yul\":6133:6155   */\n      add\n        /* \"#utility.yul\":6104:6165   */\n      tag_87\n      jump\t// in\n    tag_153:\n        /* \"#utility.yul\":6094:6165   */\n      swap2\n      pop\n        /* \"#utility.yul\":6050:6175   */\n      pop\n        /* \"#utility.yul\":5837:6182   */\n      swap3\n      swap2\n      pop\n      pop\n      jump\t// out\n        /* \"#utility.yul\":6188:6331   */\n    tag_88:\n        /* \"#utility.yul\":6245:6250   */\n      0x00\n        /* \"#utility.yul\":6276:6282   */\n      dup2\n        /* \"#utility.yul\":6270:6283   */\n      mload\n        /* \"#utility.yul\":6261:6283   */\n      swap1\n      pop\n        /* \"#utility.yul\":6292:6325   */\n      tag_155\n        /* \"#utility.yul\":6319:6324   */\n      dup2\n        /* \"#utility.yul\":6292:6325   */\n      tag_72\n      jump\t// in\n    tag_155:\n        /* \"#utility.yul\":6188:6331   */\n      swap3\n      swap2\n      pop\n      pop\n      jump\t// out\n        /* \"#utility.yul\":6337:6688   */\n    tag_59:\n        /* \"#utility.yul\":6407:6413   */\n      0x00\n        /* \"#utility.yul\":6456:6458   */\n      0x20\n        /* \"#utility.yul\":6444:6453   */\n      dup3\n        /* \"#utility.yul\":6435:6442   */\n      dup5\n        /* \"#utility.yul\":6431:6454   */\n      sub\n        /* \"#utility.yul\":6427:6459   */\n      slt\n        /* \"#utility.yul\":6424:6543   */\n      iszero\n      tag_157\n      jumpi\n        /* \"#utility.yul\":6462:6541   */\n      tag_158\n      tag_70\n      jump\t// in\n    tag_158:\n        /* \"#utility.yul\":6424:6543   */\n    tag_157:\n        /* \"#utility.yul\":6582:6583   */\n      0x00\n        /* \"#utility.yul\":6607:6671   */\n      tag_159\n        /* \"#utility.yul\":6663:6670   */\n      dup5\n        /* \"#utility.yul\":6654:6660   */\n      dup3\n        /* \"#utility.yul\":6643:6652   */\n      dup6\n        /* \"#utility.yul\":6639:6661   */\n      add\n        /* \"#utility.yul\":6607:6671   */\n      tag_88\n      jump\t// in\n    tag_159:\n        /* \"#utility.yul\":6597:6671   */\n      swap2\n      pop\n        /* \"#utility.yul\":6553:6681   */\n      pop\n        /* \"#utility.yul\":6337:6688   */\n      swap3\n      swap2\n      pop\n      pop\n      jump\t// out\n        /* \"#utility.yul\":6694:7026   */\n    tag_62:\n        /* \"#utility.yul\":6815:6819   */\n      0x00\n        /* \"#utility.yul\":6853:6855   */\n      0x40\n        /* \"#utility.yul\":6842:6851   */\n      dup3\n        /* \"#utility.yul\":6838:6856   */\n      add\n        /* \"#utility.yul\":6830:6856   */\n      swap1\n      pop\n        /* \"#utility.yul\":6866:6937   */\n      tag_161\n        /* \"#utility.yul\":6934:6935   */\n      0x00\n        /* \"#utility.yul\":6923:6932   */\n      dup4\n        /* \"#utility.yul\":6919:6936   */\n      add\n        /* \"#utility.yul\":6910:6916   */\n      dup6\n        /* \"#utility.yul\":6866:6937   */\n      tag_80\n      jump\t// in\n    tag_161:\n        /* \"#utility.yul\":6947:7019   */\n      tag_162\n        /* \"#utility.yul\":7015:7017   */\n      0x20\n        /* \"#utility.yul\":7004:7013   */\n      dup4\n        /* \"#utility.yul\":7000:7018   */\n      add\n        /* \"#utility.yul\":6991:6997   */\n      dup5\n        /* \"#utility.yul\":6947:7019   */\n      tag_68\n      jump\t// in\n    tag_162:\n        /* \"#utility.yul\":6694:7026   */\n      swap4\n      swap3\n      pop\n      pop\n      pop\n      jump\t// out\n\n    auxdata: 0xa2646970667358221220833cc74c62e2a9ac17653c34aac4bcaa705c2e39d84648ccc9d91e0b3766f55464736f6c634300081a0033\n}\n",
				"bytecode": {
					"linkReferences": {},
					"object": "608060405234801561000f575f80fd5b50604051610ade380380610ade8339818101604052810190610031919061014f565b815f806101000a81548173ffffffffffffffffffffffffffffffffffffffff021916908373ffffffffffffffffffffffffffffffffffffffff1602179055503360015f6101000a81548173ffffffffffffffffffffffffffffffffffffffff021916908373ffffffffffffffffffffffffffffffffffffffff16021790555080600281905550505061018d565b5f80fd5b5f73ffffffffffffffffffffffffffffffffffffffff82169050919050565b5f6100eb826100c2565b9050919050565b6100fb816100e1565b8114610105575f80fd5b50565b5f81519050610116816100f2565b92915050565b5f819050919050565b61012e8161011c565b8114610138575f80fd5b50565b5f8151905061014981610125565b92915050565b5f8060408385031215610165576101646100be565b5b5f61017285828601610108565b92505060206101838582860161013b565b9150509250929050565b6109448061019a5f395ff3fe608060405234801561000f575f80fd5b5060043610610060575f3560e01c8063216ff7da146100645780633610724e146100825780636a9d29201461009e578063766c4f37146100ba5780638da5cb5b146100ea5780639d76ea5814610108575b5f80fd5b61006c610126565b60405161007991906105ec565b60405180910390f35b61009c60048036038101906100979190610633565b61012c565b005b6100b860048036038101906100b39190610633565b6102be565b005b6100d460048036038101906100cf91906106b8565b610357565b6040516100e191906106fd565b60405180910390f35b6100f261058c565b6040516100ff9190610725565b60405180910390f35b6101106105b1565b60405161011d9190610725565b60405180910390f35b60025481565b60015f9054906101000a900473ffffffffffffffffffffffffffffffffffffffff1673ffffffffffffffffffffffffffffffffffffffff163373ffffffffffffffffffffffffffffffffffffffff16146101bb576040517f08c379a00000000000000000000000000000000000000000000000000000000081526004016101b290610798565b60405180910390fd5b5f81116101fd576040517f08c379a00000000000000000000000000000000000000000000000000000000081526004016101f490610800565b60405180910390fd5b5f8054906101000a900473ffffffffffffffffffffffffffffffffffffffff1673ffffffffffffffffffffffffffffffffffffffff166323b872dd60015f9054906101000a900473ffffffffffffffffffffffffffffffffffffffff1630846040518463ffffffff1660e01b815260040161027a9392919061081e565b6020604051808303815f875af1158015610296573d5f803e3d5ffd5b505050506040513d601f19601f820116820180604052508101906102ba919061087d565b5050565b60015f9054906101000a900473ffffffffffffffffffffffffffffffffffffffff1673ffffffffffffffffffffffffffffffffffffffff163373ffffffffffffffffffffffffffffffffffffffff161461034d576040517f08c379a000000000000000000000000000000000000000000000000000000000815260040161034490610798565b60405180910390fd5b8060028190555050565b5f60015f9054906101000a900473ffffffffffffffffffffffffffffffffffffffff1673ffffffffffffffffffffffffffffffffffffffff163373ffffffffffffffffffffffffffffffffffffffff16146103e7576040517f08c379a00000000000000000000000000000000000000000000000000000000081526004016103de90610798565b60405180910390fd5b5f805f9054906101000a900473ffffffffffffffffffffffffffffffffffffffff1673ffffffffffffffffffffffffffffffffffffffff166370a08231306040518263ffffffff1660e01b81526004016104419190610725565b602060405180830381865afa15801561045c573d5f803e3d5ffd5b505050506040513d601f19601f8201168201806040525081019061048091906108bc565b90506002548110610582575f8054906101000a900473ffffffffffffffffffffffffffffffffffffffff1673ffffffffffffffffffffffffffffffffffffffff1663a9059cbb846002546040518363ffffffff1660e01b81526004016104e79291906108e7565b6020604051808303815f875af1158015610503573d5f803e3d5ffd5b505050506040513d601f19601f82011682018060405250810190610527919061087d565b508273ffffffffffffffffffffffffffffffffffffffff167f461da2c41b74cabf7ea936912773bebb0fe72116fb9261471fc3b372c3b7f4d260025460405161057091906105ec565b60405180910390a26001915050610587565b5f9150505b919050565b60015f9054906101000a900473ffffffffffffffffffffffffffffffffffffffff1681565b5f8054906101000a900473ffffffffffffffffffffffffffffffffffffffff1681565b5f819050919050565b6105e6816105d4565b82525050565b5f6020820190506105ff5f8301846105dd565b92915050565b5f80fd5b610612816105d4565b811461061c575f80fd5b50565b5f8135905061062d81610609565b92915050565b5f6020828403121561064857610647610605565b5b5f6106558482850161061f565b91505092915050565b5f73ffffffffffffffffffffffffffffffffffffffff82169050919050565b5f6106878261065e565b9050919050565b6106978161067d565b81146106a1575f80fd5b50565b5f813590506106b28161068e565b92915050565b5f602082840312156106cd576106cc610605565b5b5f6106da848285016106a4565b91505092915050565b5f8115159050919050565b6106f7816106e3565b82525050565b5f6020820190506107105f8301846106ee565b92915050565b61071f8161067d565b82525050565b5f6020820190506107385f830184610716565b92915050565b5f82825260208201905092915050565b7f4e6f7420746865206f776e6572000000000000000000000000000000000000005f82015250565b5f610782600d8361073e565b915061078d8261074e565b602082019050919050565b5f6020820190508181035f8301526107af81610776565b9050919050565b7f416d6f756e74206d7573742062652067726561746572207468616e207a65726f5f82015250565b5f6107ea60208361073e565b91506107f5826107b6565b602082019050919050565b5f6020820190508181035f830152610817816107de565b9050919050565b5f6060820190506108315f830186610716565b61083e6020830185610716565b61084b60408301846105dd565b949350505050565b61085c816106e3565b8114610866575f80fd5b50565b5f8151905061087781610853565b92915050565b5f6020828403121561089257610891610605565b5b5f61089f84828501610869565b91505092915050565b5f815190506108b681610609565b92915050565b5f602082840312156108d1576108d0610605565b5b5f6108de848285016108a8565b91505092915050565b5f6040820190506108fa5f830185610716565b61090760208301846105dd565b939250505056fea2646970667358221220833cc74c62e2a9ac17653c34aac4bcaa705c2e39d84648ccc9d91e0b3766f55464736f6c634300081a0033",
					"opcodes": "PUSH1 0x80 PUSH1 0x40 MSTORE CALLVALUE DUP1 ISZERO PUSH2 0xF JUMPI PUSH0 DUP1 REVERT JUMPDEST POP PUSH1 0x40 MLOAD PUSH2 0xADE CODESIZE SUB DUP1 PUSH2 0xADE DUP4 CODECOPY DUP2 DUP2 ADD PUSH1 0x40 MSTORE DUP2 ADD SWAP1 PUSH2 0x31 SWAP2 SWAP1 PUSH2 0x14F JUMP JUMPDEST DUP2 PUSH0 DUP1 PUSH2 0x100 EXP DUP2 SLOAD DUP2 PUSH20 0xFFFFFFFFFFFFFFFFFFFFFFFFFFFFFFFFFFFFFFFF MUL NOT AND SWAP1 DUP4 PUSH20 0xFFFFFFFFFFFFFFFFFFFFFFFFFFFFFFFFFFFFFFFF AND MUL OR SWAP1 SSTORE POP CALLER PUSH1 0x1 PUSH0 PUSH2 0x100 EXP DUP2 SLOAD DUP2 PUSH20 0xFFFFFFFFFFFFFFFFFFFFFFFFFFFFFFFFFFFFFFFF MUL NOT AND SWAP1 DUP4 PUSH20 0xFFFFFFFFFFFFFFFFFFFFFFFFFFFFFFFFFFFFFFFF AND MUL OR SWAP1 SSTORE POP DUP1 PUSH1 0x2 DUP2 SWAP1 SSTORE POP POP POP PUSH2 0x18D JUMP JUMPDEST PUSH0 DUP1 REVERT JUMPDEST PUSH0 PUSH20 0xFFFFFFFFFFFFFFFFFFFFFFFFFFFFFFFFFFFFFFFF DUP3 AND SWAP1 POP SWAP2 SWAP1 POP JUMP JUMPDEST PUSH0 PUSH2 0xEB DUP3 PUSH2 0xC2 JUMP JUMPDEST SWAP1 POP SWAP2 SWAP1 POP JUMP JUMPDEST PUSH2 0xFB DUP2 PUSH2 0xE1 JUMP JUMPDEST DUP2 EQ PUSH2 0x105 JUMPI PUSH0 DUP1 REVERT JUMPDEST POP JUMP JUMPDEST PUSH0 DUP2 MLOAD SWAP1 POP PUSH2 0x116 DUP2 PUSH2 0xF2 JUMP JUMPDEST SWAP3 SWAP2 POP POP JUMP JUMPDEST PUSH0 DUP2 SWAP1 POP SWAP2 SWAP1 POP JUMP JUMPDEST PUSH2 0x12E DUP2 PUSH2 0x11C JUMP JUMPDEST DUP2 EQ PUSH2 0x138 JUMPI PUSH0 DUP1 REVERT JUMPDEST POP JUMP JUMPDEST PUSH0 DUP2 MLOAD SWAP1 POP PUSH2 0x149 DUP2 PUSH2 0x125 JUMP JUMPDEST SWAP3 SWAP2 POP POP JUMP JUMPDEST PUSH0 DUP1 PUSH1 0x40 DUP4 DUP6 SUB SLT ISZERO PUSH2 0x165 JUMPI PUSH2 0x164 PUSH2 0xBE JUMP JUMPDEST JUMPDEST PUSH0 PUSH2 0x172 DUP6 DUP3 DUP7 ADD PUSH2 0x108 JUMP JUMPDEST SWAP3 POP POP PUSH1 0x20 PUSH2 0x183 DUP6 DUP3 DUP7 ADD PUSH2 0x13B JUMP JUMPDEST SWAP2 POP POP SWAP3 POP SWAP3 SWAP1 POP JUMP JUMPDEST PUSH2 0x944 DUP1 PUSH2 0x19A PUSH0 CODECOPY PUSH0 RETURN INVALID PUSH1 0x80 PUSH1 0x40 MSTORE CALLVALUE DUP1 ISZERO PUSH2 0xF JUMPI PUSH0 DUP1 REVERT JUMPDEST POP PUSH1 0x4 CALLDATASIZE LT PUSH2 0x60 JUMPI PUSH0 CALLDATALOAD PUSH1 0xE0 SHR DUP1 PUSH4 0x216FF7DA EQ PUSH2 0x64 JUMPI DUP1 PUSH4 0x3610724E EQ PUSH2 0x82 JUMPI DUP1 PUSH4 0x6A9D2920 EQ PUSH2 0x9E JUMPI DUP1 PUSH4 0x766C4F37 EQ PUSH2 0xBA JUMPI DUP1 PUSH4 0x8DA5CB5B EQ PUSH2 0xEA JUMPI DUP1 PUSH4 0x9D76EA58 EQ PUSH2 0x108 JUMPI JUMPDEST PUSH0 DUP1 REVERT JUMPDEST PUSH2 0x6C PUSH2 0x126 JUMP JUMPDEST PUSH1 0x40 MLOAD PUSH2 0x79 SWAP2 SWAP1 PUSH2 0x5EC JUMP JUMPDEST PUSH1 0x40 MLOAD DUP1 SWAP2 SUB SWAP1 RETURN JUMPDEST PUSH2 0x9C PUSH1 0x4 DUP1 CALLDATASIZE SUB DUP2 ADD SWAP1 PUSH2 0x97 SWAP2 SWAP1 PUSH2 0x633 JUMP JUMPDEST PUSH2 0x12C JUMP JUMPDEST STOP JUMPDEST PUSH2 0xB8 PUSH1 0x4 DUP1 CALLDATASIZE SUB DUP2 ADD SWAP1 PUSH2 0xB3 SWAP2 SWAP1 PUSH2 0x633 JUMP JUMPDEST PUSH2 0x2BE JUMP JUMPDEST STOP JUMPDEST PUSH2 0xD4 PUSH1 0x4 DUP1 CALLDATASIZE SUB DUP2 ADD SWAP1 PUSH2 0xCF SWAP2 SWAP1 PUSH2 0x6B8 JUMP JUMPDEST PUSH2 0x357 JUMP JUMPDEST PUSH1 0x40 MLOAD PUSH2 0xE1 SWAP2 SWAP1 PUSH2 0x6FD JUMP JUMPDEST PUSH1 0x40 MLOAD DUP1 SWAP2 SUB SWAP1 RETURN JUMPDEST PUSH2 0xF2 PUSH2 0x58C JUMP JUMPDEST PUSH1 0x40 MLOAD PUSH2 0xFF SWAP2 SWAP1 PUSH2 0x725 JUMP JUMPDEST PUSH1 0x40 MLOAD DUP1 SWAP2 SUB SWAP1 RETURN JUMPDEST PUSH2 0x110 PUSH2 0x5B1 JUMP JUMPDEST PUSH1 0x40 MLOAD PUSH2 0x11D SWAP2 SWAP1 PUSH2 0x725 JUMP JUMPDEST PUSH1 0x40 MLOAD DUP1 SWAP2 SUB SWAP1 RETURN JUMPDEST PUSH1 0x2 SLOAD DUP2 JUMP JUMPDEST PUSH1 0x1 PUSH0 SWAP1 SLOAD SWAP1 PUSH2 0x100 EXP SWAP1 DIV PUSH20 0xFFFFFFFFFFFFFFFFFFFFFFFFFFFFFFFFFFFFFFFF AND PUSH20 0xFFFFFFFFFFFFFFFFFFFFFFFFFFFFFFFFFFFFFFFF AND CALLER PUSH20 0xFFFFFFFFFFFFFFFFFFFFFFFFFFFFFFFFFFFFFFFF AND EQ PUSH2 0x1BB JUMPI PUSH1 0x40 MLOAD PUSH32 0x8C379A000000000000000000000000000000000000000000000000000000000 DUP2 MSTORE PUSH1 0x4 ADD PUSH2 0x1B2 SWAP1 PUSH2 0x798 JUMP JUMPDEST PUSH1 0x40 MLOAD DUP1 SWAP2 SUB SWAP1 REVERT JUMPDEST PUSH0 DUP2 GT PUSH2 0x1FD JUMPI PUSH1 0x40 MLOAD PUSH32 0x8C379A000000000000000000000000000000000000000000000000000000000 DUP2 MSTORE PUSH1 0x4 ADD PUSH2 0x1F4 SWAP1 PUSH2 0x800 JUMP JUMPDEST PUSH1 0x40 MLOAD DUP1 SWAP2 SUB SWAP1 REVERT JUMPDEST PUSH0 DUP1 SLOAD SWAP1 PUSH2 0x100 EXP SWAP1 DIV PUSH20 0xFFFFFFFFFFFFFFFFFFFFFFFFFFFFFFFFFFFFFFFF AND PUSH20 0xFFFFFFFFFFFFFFFFFFFFFFFFFFFFFFFFFFFFFFFF AND PUSH4 0x23B872DD PUSH1 0x1 PUSH0 SWAP1 SLOAD SWAP1 PUSH2 0x100 EXP SWAP1 DIV PUSH20 0xFFFFFFFFFFFFFFFFFFFFFFFFFFFFFFFFFFFFFFFF AND ADDRESS DUP5 PUSH1 0x40 MLOAD DUP5 PUSH4 0xFFFFFFFF AND PUSH1 0xE0 SHL DUP2 MSTORE PUSH1 0x4 ADD PUSH2 0x27A SWAP4 SWAP3 SWAP2 SWAP1 PUSH2 0x81E JUMP JUMPDEST PUSH1 0x20 PUSH1 0x40 MLOAD DUP1 DUP4 SUB DUP2 PUSH0 DUP8 GAS CALL ISZERO DUP1 ISZERO PUSH2 0x296 JUMPI RETURNDATASIZE PUSH0 DUP1 RETURNDATACOPY RETURNDATASIZE PUSH0 REVERT JUMPDEST POP POP POP POP PUSH1 0x40 MLOAD RETURNDATASIZE PUSH1 0x1F NOT PUSH1 0x1F DUP3 ADD AND DUP3 ADD DUP1 PUSH1 0x40 MSTORE POP DUP2 ADD SWAP1 PUSH2 0x2BA SWAP2 SWAP1 PUSH2 0x87D JUMP JUMPDEST POP POP JUMP JUMPDEST PUSH1 0x1 PUSH0 SWAP1 SLOAD SWAP1 PUSH2 0x100 EXP SWAP1 DIV PUSH20 0xFFFFFFFFFFFFFFFFFFFFFFFFFFFFFFFFFFFFFFFF AND PUSH20 0xFFFFFFFFFFFFFFFFFFFFFFFFFFFFFFFFFFFFFFFF AND CALLER PUSH20 0xFFFFFFFFFFFFFFFFFFFFFFFFFFFFFFFFFFFFFFFF AND EQ PUSH2 0x34D JUMPI PUSH1 0x40 MLOAD PUSH32 0x8C379A000000000000000000000000000000000000000000000000000000000 DUP2 MSTORE PUSH1 0x4 ADD PUSH2 0x344 SWAP1 PUSH2 0x798 JUMP JUMPDEST PUSH1 0x40 MLOAD DUP1 SWAP2 SUB SWAP1 REVERT JUMPDEST DUP1 PUSH1 0x2 DUP2 SWAP1 SSTORE POP POP JUMP JUMPDEST PUSH0 PUSH1 0x1 PUSH0 SWAP1 SLOAD SWAP1 PUSH2 0x100 EXP SWAP1 DIV PUSH20 0xFFFFFFFFFFFFFFFFFFFFFFFFFFFFFFFFFFFFFFFF AND PUSH20 0xFFFFFFFFFFFFFFFFFFFFFFFFFFFFFFFFFFFFFFFF AND CALLER PUSH20 0xFFFFFFFFFFFFFFFFFFFFFFFFFFFFFFFFFFFFFFFF AND EQ PUSH2 0x3E7 JUMPI PUSH1 0x40 MLOAD PUSH32 0x8C379A000000000000000000000000000000000000000000000000000000000 DUP2 MSTORE PUSH1 0x4 ADD PUSH2 0x3DE SWAP1 PUSH2 0x798 JUMP JUMPDEST PUSH1 0x40 MLOAD DUP1 SWAP2 SUB SWAP1 REVERT JUMPDEST PUSH0 DUP1 PUSH0 SWAP1 SLOAD SWAP1 PUSH2 0x100 EXP SWAP1 DIV PUSH20 0xFFFFFFFFFFFFFFFFFFFFFFFFFFFFFFFFFFFFFFFF AND PUSH20 0xFFFFFFFFFFFFFFFFFFFFFFFFFFFFFFFFFFFFFFFF AND PUSH4 0x70A08231 ADDRESS PUSH1 0x40 MLOAD DUP3 PUSH4 0xFFFFFFFF AND PUSH1 0xE0 SHL DUP2 MSTORE PUSH1 0x4 ADD PUSH2 0x441 SWAP2 SWAP1 PUSH2 0x725 JUMP JUMPDEST PUSH1 0x20 PUSH1 0x40 MLOAD DUP1 DUP4 SUB DUP2 DUP7 GAS STATICCALL ISZERO DUP1 ISZERO PUSH2 0x45C JUMPI RETURNDATASIZE PUSH0 DUP1 RETURNDATACOPY RETURNDATASIZE PUSH0 REVERT JUMPDEST POP POP POP POP PUSH1 0x40 MLOAD RETURNDATASIZE PUSH1 0x1F NOT PUSH1 0x1F DUP3 ADD AND DUP3 ADD DUP1 PUSH1 0x40 MSTORE POP DUP2 ADD SWAP1 PUSH2 0x480 SWAP2 SWAP1 PUSH2 0x8BC JUMP JUMPDEST SWAP1 POP PUSH1 0x2 SLOAD DUP2 LT PUSH2 0x582 JUMPI PUSH0 DUP1 SLOAD SWAP1 PUSH2 0x100 EXP SWAP1 DIV PUSH20 0xFFFFFFFFFFFFFFFFFFFFFFFFFFFFFFFFFFFFFFFF AND PUSH20 0xFFFFFFFFFFFFFFFFFFFFFFFFFFFFFFFFFFFFFFFF AND PUSH4 0xA9059CBB DUP5 PUSH1 0x2 SLOAD PUSH1 0x40 MLOAD DUP4 PUSH4 0xFFFFFFFF AND PUSH1 0xE0 SHL DUP2 MSTORE PUSH1 0x4 ADD PUSH2 0x4E7 SWAP3 SWAP2 SWAP1 PUSH2 0x8E7 JUMP JUMPDEST PUSH1 0x20 PUSH1 0x40 MLOAD DUP1 DUP4 SUB DUP2 PUSH0 DUP8 GAS CALL ISZERO DUP1 ISZERO PUSH2 0x503 JUMPI RETURNDATASIZE PUSH0 DUP1 RETURNDATACOPY RETURNDATASIZE PUSH0 REVERT JUMPDEST POP POP POP POP PUSH1 0x40 MLOAD RETURNDATASIZE PUSH1 0x1F NOT PUSH1 0x1F DUP3 ADD AND DUP3 ADD DUP1 PUSH1 0x40 MSTORE POP DUP2 ADD SWAP1 PUSH2 0x527 SWAP2 SWAP1 PUSH2 0x87D JUMP JUMPDEST POP DUP3 PUSH20 0xFFFFFFFFFFFFFFFFFFFFFFFFFFFFFFFFFFFFFFFF AND PUSH32 0x461DA2C41B74CABF7EA936912773BEBB0FE72116FB9261471FC3B372C3B7F4D2 PUSH1 0x2 SLOAD PUSH1 0x40 MLOAD PUSH2 0x570 SWAP2 SWAP1 PUSH2 0x5EC JUMP JUMPDEST PUSH1 0x40 MLOAD DUP1 SWAP2 SUB SWAP1 LOG2 PUSH1 0x1 SWAP2 POP POP PUSH2 0x587 JUMP JUMPDEST PUSH0 SWAP2 POP POP JUMPDEST SWAP2 SWAP1 POP JUMP JUMPDEST PUSH1 0x1 PUSH0 SWAP1 SLOAD SWAP1 PUSH2 0x100 EXP SWAP1 DIV PUSH20 0xFFFFFFFFFFFFFFFFFFFFFFFFFFFFFFFFFFFFFFFF AND DUP2 JUMP JUMPDEST PUSH0 DUP1 SLOAD SWAP1 PUSH2 0x100 EXP SWAP1 DIV PUSH20 0xFFFFFFFFFFFFFFFFFFFFFFFFFFFFFFFFFFFFFFFF AND DUP2 JUMP JUMPDEST PUSH0 DUP2 SWAP1 POP SWAP2 SWAP1 POP JUMP JUMPDEST PUSH2 0x5E6 DUP2 PUSH2 0x5D4 JUMP JUMPDEST DUP3 MSTORE POP POP JUMP JUMPDEST PUSH0 PUSH1 0x20 DUP3 ADD SWAP1 POP PUSH2 0x5FF PUSH0 DUP4 ADD DUP5 PUSH2 0x5DD JUMP JUMPDEST SWAP3 SWAP2 POP POP JUMP JUMPDEST PUSH0 DUP1 REVERT JUMPDEST PUSH2 0x612 DUP2 PUSH2 0x5D4 JUMP JUMPDEST DUP2 EQ PUSH2 0x61C JUMPI PUSH0 DUP1 REVERT JUMPDEST POP JUMP JUMPDEST PUSH0 DUP2 CALLDATALOAD SWAP1 POP PUSH2 0x62D DUP2 PUSH2 0x609 JUMP JUMPDEST SWAP3 SWAP2 POP POP JUMP JUMPDEST PUSH0 PUSH1 0x20 DUP3 DUP5 SUB SLT ISZERO PUSH2 0x648 JUMPI PUSH2 0x647 PUSH2 0x605 JUMP JUMPDEST JUMPDEST PUSH0 PUSH2 0x655 DUP5 DUP3 DUP6 ADD PUSH2 0x61F JUMP JUMPDEST SWAP2 POP POP SWAP3 SWAP2 POP POP JUMP JUMPDEST PUSH0 PUSH20 0xFFFFFFFFFFFFFFFFFFFFFFFFFFFFFFFFFFFFFFFF DUP3 AND SWAP1 POP SWAP2 SWAP1 POP JUMP JUMPDEST PUSH0 PUSH2 0x687 DUP3 PUSH2 0x65E JUMP JUMPDEST SWAP1 POP SWAP2 SWAP1 POP JUMP JUMPDEST PUSH2 0x697 DUP2 PUSH2 0x67D JUMP JUMPDEST DUP2 EQ PUSH2 0x6A1 JUMPI PUSH0 DUP1 REVERT JUMPDEST POP JUMP JUMPDEST PUSH0 DUP2 CALLDATALOAD SWAP1 POP PUSH2 0x6B2 DUP2 PUSH2 0x68E JUMP JUMPDEST SWAP3 SWAP2 POP POP JUMP JUMPDEST PUSH0 PUSH1 0x20 DUP3 DUP5 SUB SLT ISZERO PUSH2 0x6CD JUMPI PUSH2 0x6CC PUSH2 0x605 JUMP JUMPDEST JUMPDEST PUSH0 PUSH2 0x6DA DUP5 DUP3 DUP6 ADD PUSH2 0x6A4 JUMP JUMPDEST SWAP2 POP POP SWAP3 SWAP2 POP POP JUMP JUMPDEST PUSH0 DUP2 ISZERO ISZERO SWAP1 POP SWAP2 SWAP1 POP JUMP JUMPDEST PUSH2 0x6F7 DUP2 PUSH2 0x6E3 JUMP JUMPDEST DUP3 MSTORE POP POP JUMP JUMPDEST PUSH0 PUSH1 0x20 DUP3 ADD SWAP1 POP PUSH2 0x710 PUSH0 DUP4 ADD DUP5 PUSH2 0x6EE JUMP JUMPDEST SWAP3 SWAP2 POP POP JUMP JUMPDEST PUSH2 0x71F DUP2 PUSH2 0x67D JUMP JUMPDEST DUP3 MSTORE POP POP JUMP JUMPDEST PUSH0 PUSH1 0x20 DUP3 ADD SWAP1 POP PUSH2 0x738 PUSH0 DUP4 ADD DUP5 PUSH2 0x716 JUMP JUMPDEST SWAP3 SWAP2 POP POP JUMP JUMPDEST PUSH0 DUP3 DUP3 MSTORE PUSH1 0x20 DUP3 ADD SWAP1 POP SWAP3 SWAP2 POP POP JUMP JUMPDEST PUSH32 0x4E6F7420746865206F776E657200000000000000000000000000000000000000 PUSH0 DUP3 ADD MSTORE POP JUMP JUMPDEST PUSH0 PUSH2 0x782 PUSH1 0xD DUP4 PUSH2 0x73E JUMP JUMPDEST SWAP2 POP PUSH2 0x78D DUP3 PUSH2 0x74E JUMP JUMPDEST PUSH1 0x20 DUP3 ADD SWAP1 POP SWAP2 SWAP1 POP JUMP JUMPDEST PUSH0 PUSH1 0x20 DUP3 ADD SWAP1 POP DUP2 DUP2 SUB PUSH0 DUP4 ADD MSTORE PUSH2 0x7AF DUP2 PUSH2 0x776 JUMP JUMPDEST SWAP1 POP SWAP2 SWAP1 POP JUMP JUMPDEST PUSH32 0x416D6F756E74206D7573742062652067726561746572207468616E207A65726F PUSH0 DUP3 ADD MSTORE POP JUMP JUMPDEST PUSH0 PUSH2 0x7EA PUSH1 0x20 DUP4 PUSH2 0x73E JUMP JUMPDEST SWAP2 POP PUSH2 0x7F5 DUP3 PUSH2 0x7B6 JUMP JUMPDEST PUSH1 0x20 DUP3 ADD SWAP1 POP SWAP2 SWAP1 POP JUMP JUMPDEST PUSH0 PUSH1 0x20 DUP3 ADD SWAP1 POP DUP2 DUP2 SUB PUSH0 DUP4 ADD MSTORE PUSH2 0x817 DUP2 PUSH2 0x7DE JUMP JUMPDEST SWAP1 POP SWAP2 SWAP1 POP JUMP JUMPDEST PUSH0 PUSH1 0x60 DUP3 ADD SWAP1 POP PUSH2 0x831 PUSH0 DUP4 ADD DUP7 PUSH2 0x716 JUMP JUMPDEST PUSH2 0x83E PUSH1 0x20 DUP4 ADD DUP6 PUSH2 0x716 JUMP JUMPDEST PUSH2 0x84B PUSH1 0x40 DUP4 ADD DUP5 PUSH2 0x5DD JUMP JUMPDEST SWAP5 SWAP4 POP POP POP POP JUMP JUMPDEST PUSH2 0x85C DUP2 PUSH2 0x6E3 JUMP JUMPDEST DUP2 EQ PUSH2 0x866 JUMPI PUSH0 DUP1 REVERT JUMPDEST POP JUMP JUMPDEST PUSH0 DUP2 MLOAD SWAP1 POP PUSH2 0x877 DUP2 PUSH2 0x853 JUMP JUMPDEST SWAP3 SWAP2 POP POP JUMP JUMPDEST PUSH0 PUSH1 0x20 DUP3 DUP5 SUB SLT ISZERO PUSH2 0x892 JUMPI PUSH2 0x891 PUSH2 0x605 JUMP JUMPDEST JUMPDEST PUSH0 PUSH2 0x89F DUP5 DUP3 DUP6 ADD PUSH2 0x869 JUMP JUMPDEST SWAP2 POP POP SWAP3 SWAP2 POP POP JUMP JUMPDEST PUSH0 DUP2 MLOAD SWAP1 POP PUSH2 0x8B6 DUP2 PUSH2 0x609 JUMP JUMPDEST SWAP3 SWAP2 POP POP JUMP JUMPDEST PUSH0 PUSH1 0x20 DUP3 DUP5 SUB SLT ISZERO PUSH2 0x8D1 JUMPI PUSH2 0x8D0 PUSH2 0x605 JUMP JUMPDEST JUMPDEST PUSH0 PUSH2 0x8DE DUP5 DUP3 DUP6 ADD PUSH2 0x8A8 JUMP JUMPDEST SWAP2 POP POP SWAP3 SWAP2 POP POP JUMP JUMPDEST PUSH0 PUSH1 0x40 DUP3 ADD SWAP1 POP PUSH2 0x8FA PUSH0 DUP4 ADD DUP6 PUSH2 0x716 JUMP JUMPDEST PUSH2 0x907 PUSH1 0x20 DUP4 ADD DUP5 PUSH2 0x5DD JUMP JUMPDEST SWAP4 SWAP3 POP POP POP JUMP INVALID LOG2 PUSH5 0x6970667358 0x22 SLT KECCAK256 DUP4 EXTCODECOPY 0xC7 0x4C PUSH3 0xE2A9AC OR PUSH6 0x3C34AAC4BCAA PUSH17 0x5C2E39D84648CCC9D91E0B3766F5546473 PUSH16 0x6C634300081A00330000000000000000 "
				},
				"gasEstimates": {
					"creation": {
						"codeDepositCost": "474400",
						"executionCost": "infinite",
						"totalCost": "infinite"
					},
					"external": {
						"buyTokens(uint256)": "infinite",
						"owner()": "2574",
						"setSponsorAmount(uint256)": "24706",
						"sponsor(address)": "infinite",
						"sponsorAmount()": "2403",
						"tokenAddress()": "2593"
					}
				},
				"methodIdentifiers": {
					"buyTokens(uint256)": "3610724e",
					"owner()": "8da5cb5b",
					"setSponsorAmount(uint256)": "6a9d2920",
					"sponsor(address)": "766c4f37",
					"sponsorAmount()": "216ff7da",
					"tokenAddress()": "9d76ea58"
				}
			},
			"storageLayout": {
				"storage": [
					{
						"astId": 346,
						"contract": "tema/SponsorFunding.sol:SponsorFunding",
						"label": "tokenAddress",
						"offset": 0,
						"slot": "0",
						"type": "t_address"
					},
					{
						"astId": 348,
						"contract": "tema/SponsorFunding.sol:SponsorFunding",
						"label": "owner",
						"offset": 0,
						"slot": "1",
						"type": "t_address"
					},
					{
						"astId": 350,
						"contract": "tema/SponsorFunding.sol:SponsorFunding",
						"label": "sponsorAmount",
						"offset": 0,
						"slot": "2",
						"type": "t_uint256"
					}
				],
				"types": {
					"t_address": {
						"encoding": "inplace",
						"label": "address",
						"numberOfBytes": "20"
					},
					"t_uint256": {
						"encoding": "inplace",
						"label": "uint256",
						"numberOfBytes": "32"
					}
				}
			},
			"userdoc": {
				"kind": "user",
				"methods": {},
				"version": 1
			}
		}
	}
}