{
	"tema/SponsorFunding.sol": {
		"SponsorFunding": {
			"abi": [
				{
					"inputs": [
						{
							"internalType": "address",
							"name": "_tokenAddress",
							"type": "address"
						},
						{
							"internalType": "uint256",
							"name": "_initialSponsorshipAmount",
							"type": "uint256"
						}
					],
					"stateMutability": "nonpayable",
					"type": "constructor"
				},
				{
					"anonymous": false,
					"inputs": [
						{
							"indexed": false,
							"internalType": "uint256",
							"name": "oldAmount",
							"type": "uint256"
						},
						{
							"indexed": false,
							"internalType": "uint256",
							"name": "newAmount",
							"type": "uint256"
						}
					],
					"name": "SponsorshipAmountUpdated",
					"type": "event"
				},
				{
					"anonymous": false,
					"inputs": [
						{
							"indexed": true,
							"internalType": "address",
							"name": "recipient",
							"type": "address"
						},
						{
							"indexed": false,
							"internalType": "uint256",
							"name": "amount",
							"type": "uint256"
						}
					],
					"name": "SponsorshipProvided",
					"type": "event"
				},
				{
					"anonymous": false,
					"inputs": [
						{
							"indexed": false,
							"internalType": "uint256",
							"name": "amount",
							"type": "uint256"
						},
						{
							"indexed": false,
							"internalType": "uint256",
							"name": "cost",
							"type": "uint256"
						}
					],
					"name": "TokensPurchased",
					"type": "event"
				},
				{
					"inputs": [],
					"name": "owner",
					"outputs": [
						{
							"internalType": "address",
							"name": "",
							"type": "address"
						}
					],
					"stateMutability": "view",
					"type": "function"
				},
				{
					"inputs": [
						{
							"internalType": "address",
							"name": "recipient",
							"type": "address"
						}
					],
					"name": "provideSponsorship",
					"outputs": [],
					"stateMutability": "nonpayable",
					"type": "function"
				},
				{
					"inputs": [
						{
							"internalType": "uint256",
							"name": "amount",
							"type": "uint256"
						}
					],
					"name": "purchaseTokens",
					"outputs": [],
					"stateMutability": "payable",
					"type": "function"
				},
				{
					"inputs": [],
					"name": "sponsorshipAmount",
					"outputs": [
						{
							"internalType": "uint256",
							"name": "",
							"type": "uint256"
						}
					],
					"stateMutability": "view",
					"type": "function"
				},
				{
					"inputs": [],
					"name": "tokenAddress",
					"outputs": [
						{
							"internalType": "address",
							"name": "",
							"type": "address"
						}
					],
					"stateMutability": "view",
					"type": "function"
				},
				{
					"inputs": [
						{
							"internalType": "uint256",
							"name": "newAmount",
							"type": "uint256"
						}
					],
					"name": "updateSponsorshipAmount",
					"outputs": [],
					"stateMutability": "nonpayable",
					"type": "function"
				}
			],
			"devdoc": {
				"kind": "dev",
				"methods": {},
				"version": 1
			},
			"evm": {
				"assembly": "    /* \"tema/SponsorFunding.sol\":90:1867  contract SponsorFunding {... */\n  mstore(0x40, 0x80)\n    /* \"tema/SponsorFunding.sol\":539:741  constructor(address _tokenAddress, uint256 _initialSponsorshipAmount) {... */\n  callvalue\n  dup1\n  iszero\n  tag_1\n  jumpi\n  0x00\n  dup1\n  revert\ntag_1:\n  pop\n  mload(0x40)\n  sub(codesize, bytecodeSize)\n  dup1\n  bytecodeSize\n  dup4\n  codecopy\n  dup2\n  dup2\n  add\n  0x40\n  mstore\n  dup2\n  add\n  swap1\n  tag_2\n  swap2\n  swap1\n  tag_3\n  jump\t// in\ntag_2:\n    /* \"tema/SponsorFunding.sol\":628:638  msg.sender */\n  caller\n    /* \"tema/SponsorFunding.sol\":620:625  owner */\n  0x00\n  dup1\n    /* \"tema/SponsorFunding.sol\":620:638  owner = msg.sender */\n  0x0100\n  exp\n  dup2\n  sload\n  dup2\n  0xffffffffffffffffffffffffffffffffffffffff\n  mul\n  not\n  and\n  swap1\n  dup4\n  0xffffffffffffffffffffffffffffffffffffffff\n  and\n  mul\n  or\n  swap1\n  sstore\n  pop\n    /* \"tema/SponsorFunding.sol\":664:677  _tokenAddress */\n  dup2\n    /* \"tema/SponsorFunding.sol\":649:661  tokenAddress */\n  0x01\n  0x00\n    /* \"tema/SponsorFunding.sol\":649:677  tokenAddress = _tokenAddress */\n  0x0100\n  exp\n  dup2\n  sload\n  dup2\n  0xffffffffffffffffffffffffffffffffffffffff\n  mul\n  not\n  and\n  swap1\n  dup4\n  0xffffffffffffffffffffffffffffffffffffffff\n  and\n  mul\n  or\n  swap1\n  sstore\n  pop\n    /* \"tema/SponsorFunding.sol\":708:733  _initialSponsorshipAmount */\n  dup1\n    /* \"tema/SponsorFunding.sol\":688:705  sponsorshipAmount */\n  0x02\n    /* \"tema/SponsorFunding.sol\":688:733  sponsorshipAmount = _initialSponsorshipAmount */\n  dup2\n  swap1\n  sstore\n  pop\n    /* \"tema/SponsorFunding.sol\":539:741  constructor(address _tokenAddress, uint256 _initialSponsorshipAmount) {... */\n  pop\n  pop\n    /* \"tema/SponsorFunding.sol\":90:1867  contract SponsorFunding {... */\n  jump(tag_6)\n    /* \"#utility.yul\":88:205   */\ntag_8:\n    /* \"#utility.yul\":197:198   */\n  0x00\n    /* \"#utility.yul\":194:195   */\n  dup1\n    /* \"#utility.yul\":187:199   */\n  revert\n    /* \"#utility.yul\":334:460   */\ntag_10:\n    /* \"#utility.yul\":371:378   */\n  0x00\n    /* \"#utility.yul\":411:453   */\n  0xffffffffffffffffffffffffffffffffffffffff\n    /* \"#utility.yul\":404:409   */\n  dup3\n    /* \"#utility.yul\":400:454   */\n  and\n    /* \"#utility.yul\":389:454   */\n  swap1\n  pop\n    /* \"#utility.yul\":334:460   */\n  swap2\n  swap1\n  pop\n  jump\t// out\n    /* \"#utility.yul\":466:562   */\ntag_11:\n    /* \"#utility.yul\":503:510   */\n  0x00\n    /* \"#utility.yul\":532:556   */\n  tag_23\n    /* \"#utility.yul\":550:555   */\n  dup3\n    /* \"#utility.yul\":532:556   */\n  tag_10\n  jump\t// in\ntag_23:\n    /* \"#utility.yul\":521:556   */\n  swap1\n  pop\n    /* \"#utility.yul\":466:562   */\n  swap2\n  swap1\n  pop\n  jump\t// out\n    /* \"#utility.yul\":568:690   */\ntag_12:\n    /* \"#utility.yul\":641:665   */\n  tag_25\n    /* \"#utility.yul\":659:664   */\n  dup2\n    /* \"#utility.yul\":641:665   */\n  tag_11\n  jump\t// in\ntag_25:\n    /* \"#utility.yul\":634:639   */\n  dup2\n    /* \"#utility.yul\":631:666   */\n  eq\n    /* \"#utility.yul\":621:684   */\n  tag_26\n  jumpi\n    /* \"#utility.yul\":680:681   */\n  0x00\n    /* \"#utility.yul\":677:678   */\n  dup1\n    /* \"#utility.yul\":670:682   */\n  revert\n    /* \"#utility.yul\":621:684   */\ntag_26:\n    /* \"#utility.yul\":568:690   */\n  pop\n  jump\t// out\n    /* \"#utility.yul\":696:839   */\ntag_13:\n    /* \"#utility.yul\":753:758   */\n  0x00\n    /* \"#utility.yul\":784:790   */\n  dup2\n    /* \"#utility.yul\":778:791   */\n  mload\n    /* \"#utility.yul\":769:791   */\n  swap1\n  pop\n    /* \"#utility.yul\":800:833   */\n  tag_28\n    /* \"#utility.yul\":827:832   */\n  dup2\n    /* \"#utility.yul\":800:833   */\n  tag_12\n  jump\t// in\ntag_28:\n    /* \"#utility.yul\":696:839   */\n  swap3\n  swap2\n  pop\n  pop\n  jump\t// out\n    /* \"#utility.yul\":845:922   */\ntag_14:\n    /* \"#utility.yul\":882:889   */\n  0x00\n    /* \"#utility.yul\":911:916   */\n  dup2\n    /* \"#utility.yul\":900:916   */\n  swap1\n  pop\n    /* \"#utility.yul\":845:922   */\n  swap2\n  swap1\n  pop\n  jump\t// out\n    /* \"#utility.yul\":928:1050   */\ntag_15:\n    /* \"#utility.yul\":1001:1025   */\n  tag_31\n    /* \"#utility.yul\":1019:1024   */\n  dup2\n    /* \"#utility.yul\":1001:1025   */\n  tag_14\n  jump\t// in\ntag_31:\n    /* \"#utility.yul\":994:999   */\n  dup2\n    /* \"#utility.yul\":991:1026   */\n  eq\n    /* \"#utility.yul\":981:1044   */\n  tag_32\n  jumpi\n    /* \"#utility.yul\":1040:1041   */\n  0x00\n    /* \"#utility.yul\":1037:1038   */\n  dup1\n    /* \"#utility.yul\":1030:1042   */\n  revert\n    /* \"#utility.yul\":981:1044   */\ntag_32:\n    /* \"#utility.yul\":928:1050   */\n  pop\n  jump\t// out\n    /* \"#utility.yul\":1056:1199   */\ntag_16:\n    /* \"#utility.yul\":1113:1118   */\n  0x00\n    /* \"#utility.yul\":1144:1150   */\n  dup2\n    /* \"#utility.yul\":1138:1151   */\n  mload\n    /* \"#utility.yul\":1129:1151   */\n  swap1\n  pop\n    /* \"#utility.yul\":1160:1193   */\n  tag_34\n    /* \"#utility.yul\":1187:1192   */\n  dup2\n    /* \"#utility.yul\":1160:1193   */\n  tag_15\n  jump\t// in\ntag_34:\n    /* \"#utility.yul\":1056:1199   */\n  swap3\n  swap2\n  pop\n  pop\n  jump\t// out\n    /* \"#utility.yul\":1205:1712   */\ntag_3:\n    /* \"#utility.yul\":1284:1290   */\n  0x00\n    /* \"#utility.yul\":1292:1298   */\n  dup1\n    /* \"#utility.yul\":1341:1343   */\n  0x40\n    /* \"#utility.yul\":1329:1338   */\n  dup4\n    /* \"#utility.yul\":1320:1327   */\n  dup6\n    /* \"#utility.yul\":1316:1339   */\n  sub\n    /* \"#utility.yul\":1312:1344   */\n  slt\n    /* \"#utility.yul\":1309:1428   */\n  iszero\n  tag_36\n  jumpi\n    /* \"#utility.yul\":1347:1426   */\n  tag_37\n  tag_8\n  jump\t// in\ntag_37:\n    /* \"#utility.yul\":1309:1428   */\ntag_36:\n    /* \"#utility.yul\":1467:1468   */\n  0x00\n    /* \"#utility.yul\":1492:1556   */\n  tag_38\n    /* \"#utility.yul\":1548:1555   */\n  dup6\n    /* \"#utility.yul\":1539:1545   */\n  dup3\n    /* \"#utility.yul\":1528:1537   */\n  dup7\n    /* \"#utility.yul\":1524:1546   */\n  add\n    /* \"#utility.yul\":1492:1556   */\n  tag_13\n  jump\t// in\ntag_38:\n    /* \"#utility.yul\":1482:1556   */\n  swap3\n  pop\n    /* \"#utility.yul\":1438:1566   */\n  pop\n    /* \"#utility.yul\":1605:1607   */\n  0x20\n    /* \"#utility.yul\":1631:1695   */\n  tag_39\n    /* \"#utility.yul\":1687:1694   */\n  dup6\n    /* \"#utility.yul\":1678:1684   */\n  dup3\n    /* \"#utility.yul\":1667:1676   */\n  dup7\n    /* \"#utility.yul\":1663:1685   */\n  add\n    /* \"#utility.yul\":1631:1695   */\n  tag_16\n  jump\t// in\ntag_39:\n    /* \"#utility.yul\":1621:1695   */\n  swap2\n  pop\n    /* \"#utility.yul\":1576:1705   */\n  pop\n    /* \"#utility.yul\":1205:1712   */\n  swap3\n  pop\n  swap3\n  swap1\n  pop\n  jump\t// out\n    /* \"tema/SponsorFunding.sol\":90:1867  contract SponsorFunding {... */\ntag_6:\n  dataSize(sub_0)\n  dup1\n  dataOffset(sub_0)\n  0x00\n  codecopy\n  0x00\n  return\nstop\n\nsub_0: assembly {\n        /* \"tema/SponsorFunding.sol\":90:1867  contract SponsorFunding {... */\n      mstore(0x40, 0x80)\n      jumpi(tag_1, lt(calldatasize, 0x04))\n      shr(0xe0, calldataload(0x00))\n      dup1\n      0x1fe3a088\n      eq\n      tag_2\n      jumpi\n      dup1\n      0x7b97008d\n      eq\n      tag_3\n      jumpi\n      dup1\n      0x8da5cb5b\n      eq\n      tag_4\n      jumpi\n      dup1\n      0x9d76ea58\n      eq\n      tag_5\n      jumpi\n      dup1\n      0xcb7d134f\n      eq\n      tag_6\n      jumpi\n      dup1\n      0xd0b4a6ee\n      eq\n      tag_7\n      jumpi\n    tag_1:\n      0x00\n      dup1\n      revert\n        /* \"tema/SponsorFunding.sol\":1437:1864  function provideSponsorship(address recipient) public {... */\n    tag_2:\n      callvalue\n      dup1\n      iszero\n      tag_8\n      jumpi\n      0x00\n      dup1\n      revert\n    tag_8:\n      pop\n      tag_9\n      0x04\n      dup1\n      calldatasize\n      sub\n      dup2\n      add\n      swap1\n      tag_10\n      swap2\n      swap1\n      tag_11\n      jump\t// in\n    tag_10:\n      tag_12\n      jump\t// in\n    tag_9:\n      stop\n        /* \"tema/SponsorFunding.sol\":984:1429  function purchaseTokens(uint256 amount) public onlyOwner payable {... */\n    tag_3:\n      tag_13\n      0x04\n      dup1\n      calldatasize\n      sub\n      dup2\n      add\n      swap1\n      tag_14\n      swap2\n      swap1\n      tag_15\n      jump\t// in\n    tag_14:\n      tag_16\n      jump\t// in\n    tag_13:\n      stop\n        /* \"tema/SponsorFunding.sol\":121:141  address public owner */\n    tag_4:\n      callvalue\n      dup1\n      iszero\n      tag_17\n      jumpi\n      0x00\n      dup1\n      revert\n    tag_17:\n      pop\n      tag_18\n      tag_19\n      jump\t// in\n    tag_18:\n      mload(0x40)\n      tag_20\n      swap2\n      swap1\n      tag_21\n      jump\t// in\n    tag_20:\n      mload(0x40)\n      dup1\n      swap2\n      sub\n      swap1\n      return\n        /* \"tema/SponsorFunding.sol\":148:175  address public tokenAddress */\n    tag_5:\n      callvalue\n      dup1\n      iszero\n      tag_22\n      jumpi\n      0x00\n      dup1\n      revert\n    tag_22:\n      pop\n      tag_23\n      tag_24\n      jump\t// in\n    tag_23:\n      mload(0x40)\n      tag_25\n      swap2\n      swap1\n      tag_21\n      jump\t// in\n    tag_25:\n      mload(0x40)\n      dup1\n      swap2\n      sub\n      swap1\n      return\n        /* \"tema/SponsorFunding.sol\":182:214  uint256 public sponsorshipAmount */\n    tag_6:\n      callvalue\n      dup1\n      iszero\n      tag_26\n      jumpi\n      0x00\n      dup1\n      revert\n    tag_26:\n      pop\n      tag_27\n      tag_28\n      jump\t// in\n    tag_27:\n      mload(0x40)\n      tag_29\n      swap2\n      swap1\n      tag_30\n      jump\t// in\n    tag_29:\n      mload(0x40)\n      dup1\n      swap2\n      sub\n      swap1\n      return\n        /* \"tema/SponsorFunding.sol\":749:976  function updateSponsorshipAmount(uint256 newAmount) public onlyOwner {... */\n    tag_7:\n      callvalue\n      dup1\n      iszero\n      tag_31\n      jumpi\n      0x00\n      dup1\n      revert\n    tag_31:\n      pop\n      tag_32\n      0x04\n      dup1\n      calldatasize\n      sub\n      dup2\n      add\n      swap1\n      tag_33\n      swap2\n      swap1\n      tag_15\n      jump\t// in\n    tag_33:\n      tag_34\n      jump\t// in\n    tag_32:\n      stop\n        /* \"tema/SponsorFunding.sol\":1437:1864  function provideSponsorship(address recipient) public {... */\n    tag_12:\n        /* \"tema/SponsorFunding.sol\":1502:1518  EIP20Token token */\n      0x00\n        /* \"tema/SponsorFunding.sol\":1532:1544  tokenAddress */\n      0x01\n      0x00\n      swap1\n      sload\n      swap1\n      0x0100\n      exp\n      swap1\n      div\n      0xffffffffffffffffffffffffffffffffffffffff\n      and\n        /* \"tema/SponsorFunding.sol\":1502:1545  EIP20Token token = EIP20Token(tokenAddress) */\n      swap1\n      pop\n        /* \"tema/SponsorFunding.sol\":1556:1571  uint256 balance */\n      0x00\n        /* \"tema/SponsorFunding.sol\":1574:1579  token */\n      dup2\n        /* \"tema/SponsorFunding.sol\":1574:1589  token.balanceOf */\n      0xffffffffffffffffffffffffffffffffffffffff\n      and\n      0x70a08231\n        /* \"tema/SponsorFunding.sol\":1598:1602  this */\n      address\n        /* \"tema/SponsorFunding.sol\":1574:1604  token.balanceOf(address(this)) */\n      mload(0x40)\n      dup3\n      0xffffffff\n      and\n      0xe0\n      shl\n      dup2\n      mstore\n      0x04\n      add\n      tag_36\n      swap2\n      swap1\n      tag_21\n      jump\t// in\n    tag_36:\n      0x20\n      mload(0x40)\n      dup1\n      dup4\n      sub\n      dup2\n      dup7\n      gas\n      staticcall\n      iszero\n      dup1\n      iszero\n      tag_38\n      jumpi\n      returndatasize\n      0x00\n      dup1\n      returndatacopy\n      revert(0x00, returndatasize)\n    tag_38:\n      pop\n      pop\n      pop\n      pop\n      mload(0x40)\n      returndatasize\n      not(0x1f)\n      0x1f\n      dup3\n      add\n      and\n      dup3\n      add\n      dup1\n      0x40\n      mstore\n      pop\n      dup2\n      add\n      swap1\n      tag_39\n      swap2\n      swap1\n      tag_40\n      jump\t// in\n    tag_39:\n        /* \"tema/SponsorFunding.sol\":1556:1604  uint256 balance = token.balanceOf(address(this)) */\n      swap1\n      pop\n        /* \"tema/SponsorFunding.sol\":1636:1653  sponsorshipAmount */\n      sload(0x02)\n        /* \"tema/SponsorFunding.sol\":1625:1632  balance */\n      dup2\n        /* \"tema/SponsorFunding.sol\":1625:1653  balance >= sponsorshipAmount */\n      lt\n      iszero\n        /* \"tema/SponsorFunding.sol\":1617:1700  require(balance >= sponsorshipAmount, \"Insufficient token balance for sponsorship\") */\n      tag_41\n      jumpi\n      mload(0x40)\n      0x08c379a000000000000000000000000000000000000000000000000000000000\n      dup2\n      mstore\n      0x04\n      add\n      tag_42\n      swap1\n      tag_43\n      jump\t// in\n    tag_42:\n      mload(0x40)\n      dup1\n      swap2\n      sub\n      swap1\n      revert\n    tag_41:\n        /* \"tema/SponsorFunding.sol\":1721:1726  token */\n      dup2\n        /* \"tema/SponsorFunding.sol\":1721:1735  token.transfer */\n      0xffffffffffffffffffffffffffffffffffffffff\n      and\n      0xa9059cbb\n        /* \"tema/SponsorFunding.sol\":1736:1745  recipient */\n      dup5\n        /* \"tema/SponsorFunding.sol\":1747:1764  sponsorshipAmount */\n      sload(0x02)\n        /* \"tema/SponsorFunding.sol\":1721:1765  token.transfer(recipient, sponsorshipAmount) */\n      mload(0x40)\n      dup4\n      0xffffffff\n      and\n      0xe0\n      shl\n      dup2\n      mstore\n      0x04\n      add\n      tag_44\n      swap3\n      swap2\n      swap1\n      tag_45\n      jump\t// in\n    tag_44:\n      0x20\n      mload(0x40)\n      dup1\n      dup4\n      sub\n      dup2\n      0x00\n      dup8\n      gas\n      call\n      iszero\n      dup1\n      iszero\n      tag_47\n      jumpi\n      returndatasize\n      0x00\n      dup1\n      returndatacopy\n      revert(0x00, returndatasize)\n    tag_47:\n      pop\n      pop\n      pop\n      pop\n      mload(0x40)\n      returndatasize\n      not(0x1f)\n      0x1f\n      dup3\n      add\n      and\n      dup3\n      add\n      dup1\n      0x40\n      mstore\n      pop\n      dup2\n      add\n      swap1\n      tag_48\n      swap2\n      swap1\n      tag_49\n      jump\t// in\n    tag_48:\n        /* \"tema/SponsorFunding.sol\":1713:1791  require(token.transfer(recipient, sponsorshipAmount), \"Token transfer failed\") */\n      tag_50\n      jumpi\n      mload(0x40)\n      0x08c379a000000000000000000000000000000000000000000000000000000000\n      dup2\n      mstore\n      0x04\n      add\n      tag_51\n      swap1\n      tag_52\n      jump\t// in\n    tag_51:\n      mload(0x40)\n      dup1\n      swap2\n      sub\n      swap1\n      revert\n    tag_50:\n        /* \"tema/SponsorFunding.sol\":1827:1836  recipient */\n      dup3\n        /* \"tema/SponsorFunding.sol\":1807:1856  SponsorshipProvided(recipient, sponsorshipAmount) */\n      0xffffffffffffffffffffffffffffffffffffffff\n      and\n      0x7661ea217478035e90bae67523e9e3cfc45cb3ffb77fe110fcfff561a7bdea69\n        /* \"tema/SponsorFunding.sol\":1838:1855  sponsorshipAmount */\n      sload(0x02)\n        /* \"tema/SponsorFunding.sol\":1807:1856  SponsorshipProvided(recipient, sponsorshipAmount) */\n      mload(0x40)\n      tag_53\n      swap2\n      swap1\n      tag_30\n      jump\t// in\n    tag_53:\n      mload(0x40)\n      dup1\n      swap2\n      sub\n      swap1\n      log2\n        /* \"tema/SponsorFunding.sol\":1491:1864  {... */\n      pop\n      pop\n        /* \"tema/SponsorFunding.sol\":1437:1864  function provideSponsorship(address recipient) public {... */\n      pop\n      jump\t// out\n        /* \"tema/SponsorFunding.sol\":984:1429  function purchaseTokens(uint256 amount) public onlyOwner payable {... */\n    tag_16:\n        /* \"tema/SponsorFunding.sol\":487:492  owner */\n      0x00\n      dup1\n      sload\n      swap1\n      0x0100\n      exp\n      swap1\n      div\n      0xffffffffffffffffffffffffffffffffffffffff\n      and\n        /* \"tema/SponsorFunding.sol\":473:492  msg.sender == owner */\n      0xffffffffffffffffffffffffffffffffffffffff\n      and\n        /* \"tema/SponsorFunding.sol\":473:483  msg.sender */\n      caller\n        /* \"tema/SponsorFunding.sol\":473:492  msg.sender == owner */\n      0xffffffffffffffffffffffffffffffffffffffff\n      and\n      eq\n        /* \"tema/SponsorFunding.sol\":465:511  require(msg.sender == owner, \"Not authorized\") */\n      tag_55\n      jumpi\n      mload(0x40)\n      0x08c379a000000000000000000000000000000000000000000000000000000000\n      dup2\n      mstore\n      0x04\n      add\n      tag_56\n      swap1\n      tag_57\n      jump\t// in\n    tag_56:\n      mload(0x40)\n      dup1\n      swap2\n      sub\n      swap1\n      revert\n    tag_55:\n        /* \"tema/SponsorFunding.sol\":1060:1076  EIP20Token token */\n      0x00\n        /* \"tema/SponsorFunding.sol\":1090:1102  tokenAddress */\n      0x01\n      0x00\n      swap1\n      sload\n      swap1\n      0x0100\n      exp\n      swap1\n      div\n      0xffffffffffffffffffffffffffffffffffffffff\n      and\n        /* \"tema/SponsorFunding.sol\":1060:1103  EIP20Token token = EIP20Token(tokenAddress) */\n      swap1\n      pop\n        /* \"tema/SponsorFunding.sol\":1114:1126  uint256 cost */\n      0x00\n        /* \"tema/SponsorFunding.sol\":1138:1143  token */\n      dup2\n        /* \"tema/SponsorFunding.sol\":1138:1154  token.tokenPrice */\n      0xffffffffffffffffffffffffffffffffffffffff\n      and\n      0x7ff9b596\n        /* \"tema/SponsorFunding.sol\":1138:1156  token.tokenPrice() */\n      mload(0x40)\n      dup2\n      0xffffffff\n      and\n      0xe0\n      shl\n      dup2\n      mstore\n      0x04\n      add\n      0x20\n      mload(0x40)\n      dup1\n      dup4\n      sub\n      dup2\n      dup7\n      gas\n      staticcall\n      iszero\n      dup1\n      iszero\n      tag_60\n      jumpi\n      returndatasize\n      0x00\n      dup1\n      returndatacopy\n      revert(0x00, returndatasize)\n    tag_60:\n      pop\n      pop\n      pop\n      pop\n      mload(0x40)\n      returndatasize\n      not(0x1f)\n      0x1f\n      dup3\n      add\n      and\n      dup3\n      add\n      dup1\n      0x40\n      mstore\n      pop\n      dup2\n      add\n      swap1\n      tag_61\n      swap2\n      swap1\n      tag_40\n      jump\t// in\n    tag_61:\n        /* \"tema/SponsorFunding.sol\":1129:1135  amount */\n      dup4\n        /* \"tema/SponsorFunding.sol\":1129:1156  amount * token.tokenPrice() */\n      tag_62\n      swap2\n      swap1\n      tag_63\n      jump\t// in\n    tag_62:\n        /* \"tema/SponsorFunding.sol\":1114:1156  uint256 cost = amount * token.tokenPrice() */\n      swap1\n      pop\n        /* \"tema/SponsorFunding.sol\":1251:1255  cost */\n      dup1\n        /* \"tema/SponsorFunding.sol\":1238:1247  msg.value */\n      callvalue\n        /* \"tema/SponsorFunding.sol\":1238:1255  msg.value >= cost */\n      lt\n      iszero\n        /* \"tema/SponsorFunding.sol\":1230:1283  require(msg.value >= cost, \"Insufficient Ether sent\") */\n      tag_64\n      jumpi\n      mload(0x40)\n      0x08c379a000000000000000000000000000000000000000000000000000000000\n      dup2\n      mstore\n      0x04\n      add\n      tag_65\n      swap1\n      tag_66\n      jump\t// in\n    tag_65:\n      mload(0x40)\n      dup1\n      swap2\n      sub\n      swap1\n      revert\n    tag_64:\n        /* \"tema/SponsorFunding.sol\":1302:1307  token */\n      dup2\n        /* \"tema/SponsorFunding.sol\":1302:1322  token.purchaseTokens */\n      0xffffffffffffffffffffffffffffffffffffffff\n      and\n      0x7b97008d\n        /* \"tema/SponsorFunding.sol\":1330:1339  msg.value */\n      callvalue\n        /* \"tema/SponsorFunding.sol\":1341:1347  amount */\n      dup6\n        /* \"tema/SponsorFunding.sol\":1302:1348  token.purchaseTokens{value: msg.value}(amount) */\n      mload(0x40)\n      dup4\n      0xffffffff\n      and\n      0xe0\n      shl\n      dup2\n      mstore\n      0x04\n      add\n      tag_67\n      swap2\n      swap1\n      tag_30\n      jump\t// in\n    tag_67:\n      0x20\n      mload(0x40)\n      dup1\n      dup4\n      sub\n      dup2\n      dup6\n      dup9\n      gas\n      call\n      iszero\n      dup1\n      iszero\n      tag_69\n      jumpi\n      returndatasize\n      0x00\n      dup1\n      returndatacopy\n      revert(0x00, returndatasize)\n    tag_69:\n      pop\n      pop\n      pop\n      pop\n      pop\n      mload(0x40)\n      returndatasize\n      not(0x1f)\n      0x1f\n      dup3\n      add\n      and\n      dup3\n      add\n      dup1\n      0x40\n      mstore\n      pop\n      dup2\n      add\n      swap1\n      tag_70\n      swap2\n      swap1\n      tag_49\n      jump\t// in\n    tag_70:\n        /* \"tema/SponsorFunding.sol\":1294:1374  require(token.purchaseTokens{value: msg.value}(amount), \"Token purchase failed\") */\n      tag_71\n      jumpi\n      mload(0x40)\n      0x08c379a000000000000000000000000000000000000000000000000000000000\n      dup2\n      mstore\n      0x04\n      add\n      tag_72\n      swap1\n      tag_73\n      jump\t// in\n    tag_72:\n      mload(0x40)\n      dup1\n      swap2\n      sub\n      swap1\n      revert\n    tag_71:\n        /* \"tema/SponsorFunding.sol\":1392:1421  TokensPurchased(amount, cost) */\n      0x2a03ce910939b5a6fe6bfa3c4099f7af3dedb45b7078e6e7173c2216032ac054\n        /* \"tema/SponsorFunding.sol\":1408:1414  amount */\n      dup4\n        /* \"tema/SponsorFunding.sol\":1416:1420  cost */\n      dup3\n        /* \"tema/SponsorFunding.sol\":1392:1421  TokensPurchased(amount, cost) */\n      mload(0x40)\n      tag_74\n      swap3\n      swap2\n      swap1\n      tag_75\n      jump\t// in\n    tag_74:\n      mload(0x40)\n      dup1\n      swap2\n      sub\n      swap1\n      log1\n        /* \"tema/SponsorFunding.sol\":1049:1429  {... */\n      pop\n      pop\n        /* \"tema/SponsorFunding.sol\":984:1429  function purchaseTokens(uint256 amount) public onlyOwner payable {... */\n      pop\n      jump\t// out\n        /* \"tema/SponsorFunding.sol\":121:141  address public owner */\n    tag_19:\n      0x00\n      dup1\n      sload\n      swap1\n      0x0100\n      exp\n      swap1\n      div\n      0xffffffffffffffffffffffffffffffffffffffff\n      and\n      dup2\n      jump\t// out\n        /* \"tema/SponsorFunding.sol\":148:175  address public tokenAddress */\n    tag_24:\n      0x01\n      0x00\n      swap1\n      sload\n      swap1\n      0x0100\n      exp\n      swap1\n      div\n      0xffffffffffffffffffffffffffffffffffffffff\n      and\n      dup2\n      jump\t// out\n        /* \"tema/SponsorFunding.sol\":182:214  uint256 public sponsorshipAmount */\n    tag_28:\n      sload(0x02)\n      dup2\n      jump\t// out\n        /* \"tema/SponsorFunding.sol\":749:976  function updateSponsorshipAmount(uint256 newAmount) public onlyOwner {... */\n    tag_34:\n        /* \"tema/SponsorFunding.sol\":487:492  owner */\n      0x00\n      dup1\n      sload\n      swap1\n      0x0100\n      exp\n      swap1\n      div\n      0xffffffffffffffffffffffffffffffffffffffff\n      and\n        /* \"tema/SponsorFunding.sol\":473:492  msg.sender == owner */\n      0xffffffffffffffffffffffffffffffffffffffff\n      and\n        /* \"tema/SponsorFunding.sol\":473:483  msg.sender */\n      caller\n        /* \"tema/SponsorFunding.sol\":473:492  msg.sender == owner */\n      0xffffffffffffffffffffffffffffffffffffffff\n      and\n      eq\n        /* \"tema/SponsorFunding.sol\":465:511  require(msg.sender == owner, \"Not authorized\") */\n      tag_77\n      jumpi\n      mload(0x40)\n      0x08c379a000000000000000000000000000000000000000000000000000000000\n      dup2\n      mstore\n      0x04\n      add\n      tag_78\n      swap1\n      tag_57\n      jump\t// in\n    tag_78:\n      mload(0x40)\n      dup1\n      swap2\n      sub\n      swap1\n      revert\n    tag_77:\n        /* \"tema/SponsorFunding.sol\":829:846  uint256 oldAmount */\n      0x00\n        /* \"tema/SponsorFunding.sol\":849:866  sponsorshipAmount */\n      sload(0x02)\n        /* \"tema/SponsorFunding.sol\":829:866  uint256 oldAmount = sponsorshipAmount */\n      swap1\n      pop\n        /* \"tema/SponsorFunding.sol\":897:906  newAmount */\n      dup2\n        /* \"tema/SponsorFunding.sol\":877:894  sponsorshipAmount */\n      0x02\n        /* \"tema/SponsorFunding.sol\":877:906  sponsorshipAmount = newAmount */\n      dup2\n      swap1\n      sstore\n      pop\n        /* \"tema/SponsorFunding.sol\":922:968  SponsorshipAmountUpdated(oldAmount, newAmount) */\n      0x5d55d62272b0a188900f193a1623f201f415a53fb390307f94bb8e2cdf7863f9\n        /* \"tema/SponsorFunding.sol\":947:956  oldAmount */\n      dup2\n        /* \"tema/SponsorFunding.sol\":958:967  newAmount */\n      dup4\n        /* \"tema/SponsorFunding.sol\":922:968  SponsorshipAmountUpdated(oldAmount, newAmount) */\n      mload(0x40)\n      tag_80\n      swap3\n      swap2\n      swap1\n      tag_75\n      jump\t// in\n    tag_80:\n      mload(0x40)\n      dup1\n      swap2\n      sub\n      swap1\n      log1\n        /* \"tema/SponsorFunding.sol\":818:976  {... */\n      pop\n        /* \"tema/SponsorFunding.sol\":749:976  function updateSponsorshipAmount(uint256 newAmount) public onlyOwner {... */\n      pop\n      jump\t// out\n        /* \"#utility.yul\":88:205   */\n    tag_82:\n        /* \"#utility.yul\":197:198   */\n      0x00\n        /* \"#utility.yul\":194:195   */\n      dup1\n        /* \"#utility.yul\":187:199   */\n      revert\n        /* \"#utility.yul\":334:460   */\n    tag_84:\n        /* \"#utility.yul\":371:378   */\n      0x00\n        /* \"#utility.yul\":411:453   */\n      0xffffffffffffffffffffffffffffffffffffffff\n        /* \"#utility.yul\":404:409   */\n      dup3\n        /* \"#utility.yul\":400:454   */\n      and\n        /* \"#utility.yul\":389:454   */\n      swap1\n      pop\n        /* \"#utility.yul\":334:460   */\n      swap2\n      swap1\n      pop\n      jump\t// out\n        /* \"#utility.yul\":466:562   */\n    tag_85:\n        /* \"#utility.yul\":503:510   */\n      0x00\n        /* \"#utility.yul\":532:556   */\n      tag_115\n        /* \"#utility.yul\":550:555   */\n      dup3\n        /* \"#utility.yul\":532:556   */\n      tag_84\n      jump\t// in\n    tag_115:\n        /* \"#utility.yul\":521:556   */\n      swap1\n      pop\n        /* \"#utility.yul\":466:562   */\n      swap2\n      swap1\n      pop\n      jump\t// out\n        /* \"#utility.yul\":568:690   */\n    tag_86:\n        /* \"#utility.yul\":641:665   */\n      tag_117\n        /* \"#utility.yul\":659:664   */\n      dup2\n        /* \"#utility.yul\":641:665   */\n      tag_85\n      jump\t// in\n    tag_117:\n        /* \"#utility.yul\":634:639   */\n      dup2\n        /* \"#utility.yul\":631:666   */\n      eq\n        /* \"#utility.yul\":621:684   */\n      tag_118\n      jumpi\n        /* \"#utility.yul\":680:681   */\n      0x00\n        /* \"#utility.yul\":677:678   */\n      dup1\n        /* \"#utility.yul\":670:682   */\n      revert\n        /* \"#utility.yul\":621:684   */\n    tag_118:\n        /* \"#utility.yul\":568:690   */\n      pop\n      jump\t// out\n        /* \"#utility.yul\":696:835   */\n    tag_87:\n        /* \"#utility.yul\":742:747   */\n      0x00\n        /* \"#utility.yul\":780:786   */\n      dup2\n        /* \"#utility.yul\":767:787   */\n      calldataload\n        /* \"#utility.yul\":758:787   */\n      swap1\n      pop\n        /* \"#utility.yul\":796:829   */\n      tag_120\n        /* \"#utility.yul\":823:828   */\n      dup2\n        /* \"#utility.yul\":796:829   */\n      tag_86\n      jump\t// in\n    tag_120:\n        /* \"#utility.yul\":696:835   */\n      swap3\n      swap2\n      pop\n      pop\n      jump\t// out\n        /* \"#utility.yul\":841:1170   */\n    tag_11:\n        /* \"#utility.yul\":900:906   */\n      0x00\n        /* \"#utility.yul\":949:951   */\n      0x20\n        /* \"#utility.yul\":937:946   */\n      dup3\n        /* \"#utility.yul\":928:935   */\n      dup5\n        /* \"#utility.yul\":924:947   */\n      sub\n        /* \"#utility.yul\":920:952   */\n      slt\n        /* \"#utility.yul\":917:1036   */\n      iszero\n      tag_122\n      jumpi\n        /* \"#utility.yul\":955:1034   */\n      tag_123\n      tag_82\n      jump\t// in\n    tag_123:\n        /* \"#utility.yul\":917:1036   */\n    tag_122:\n        /* \"#utility.yul\":1075:1076   */\n      0x00\n        /* \"#utility.yul\":1100:1153   */\n      tag_124\n        /* \"#utility.yul\":1145:1152   */\n      dup5\n        /* \"#utility.yul\":1136:1142   */\n      dup3\n        /* \"#utility.yul\":1125:1134   */\n      dup6\n        /* \"#utility.yul\":1121:1143   */\n      add\n        /* \"#utility.yul\":1100:1153   */\n      tag_87\n      jump\t// in\n    tag_124:\n        /* \"#utility.yul\":1090:1153   */\n      swap2\n      pop\n        /* \"#utility.yul\":1046:1163   */\n      pop\n        /* \"#utility.yul\":841:1170   */\n      swap3\n      swap2\n      pop\n      pop\n      jump\t// out\n        /* \"#utility.yul\":1176:1253   */\n    tag_88:\n        /* \"#utility.yul\":1213:1220   */\n      0x00\n        /* \"#utility.yul\":1242:1247   */\n      dup2\n        /* \"#utility.yul\":1231:1247   */\n      swap1\n      pop\n        /* \"#utility.yul\":1176:1253   */\n      swap2\n      swap1\n      pop\n      jump\t// out\n        /* \"#utility.yul\":1259:1381   */\n    tag_89:\n        /* \"#utility.yul\":1332:1356   */\n      tag_127\n        /* \"#utility.yul\":1350:1355   */\n      dup2\n        /* \"#utility.yul\":1332:1356   */\n      tag_88\n      jump\t// in\n    tag_127:\n        /* \"#utility.yul\":1325:1330   */\n      dup2\n        /* \"#utility.yul\":1322:1357   */\n      eq\n        /* \"#utility.yul\":1312:1375   */\n      tag_128\n      jumpi\n        /* \"#utility.yul\":1371:1372   */\n      0x00\n        /* \"#utility.yul\":1368:1369   */\n      dup1\n        /* \"#utility.yul\":1361:1373   */\n      revert\n        /* \"#utility.yul\":1312:1375   */\n    tag_128:\n        /* \"#utility.yul\":1259:1381   */\n      pop\n      jump\t// out\n        /* \"#utility.yul\":1387:1526   */\n    tag_90:\n        /* \"#utility.yul\":1433:1438   */\n      0x00\n        /* \"#utility.yul\":1471:1477   */\n      dup2\n        /* \"#utility.yul\":1458:1478   */\n      calldataload\n        /* \"#utility.yul\":1449:1478   */\n      swap1\n      pop\n        /* \"#utility.yul\":1487:1520   */\n      tag_130\n        /* \"#utility.yul\":1514:1519   */\n      dup2\n        /* \"#utility.yul\":1487:1520   */\n      tag_89\n      jump\t// in\n    tag_130:\n        /* \"#utility.yul\":1387:1526   */\n      swap3\n      swap2\n      pop\n      pop\n      jump\t// out\n        /* \"#utility.yul\":1532:1861   */\n    tag_15:\n        /* \"#utility.yul\":1591:1597   */\n      0x00\n        /* \"#utility.yul\":1640:1642   */\n      0x20\n        /* \"#utility.yul\":1628:1637   */\n      dup3\n        /* \"#utility.yul\":1619:1626   */\n      dup5\n        /* \"#utility.yul\":1615:1638   */\n      sub\n        /* \"#utility.yul\":1611:1643   */\n      slt\n        /* \"#utility.yul\":1608:1727   */\n      iszero\n      tag_132\n      jumpi\n        /* \"#utility.yul\":1646:1725   */\n      tag_133\n      tag_82\n      jump\t// in\n    tag_133:\n        /* \"#utility.yul\":1608:1727   */\n    tag_132:\n        /* \"#utility.yul\":1766:1767   */\n      0x00\n        /* \"#utility.yul\":1791:1844   */\n      tag_134\n        /* \"#utility.yul\":1836:1843   */\n      dup5\n        /* \"#utility.yul\":1827:1833   */\n      dup3\n        /* \"#utility.yul\":1816:1825   */\n      dup6\n        /* \"#utility.yul\":1812:1834   */\n      add\n        /* \"#utility.yul\":1791:1844   */\n      tag_90\n      jump\t// in\n    tag_134:\n        /* \"#utility.yul\":1781:1844   */\n      swap2\n      pop\n        /* \"#utility.yul\":1737:1854   */\n      pop\n        /* \"#utility.yul\":1532:1861   */\n      swap3\n      swap2\n      pop\n      pop\n      jump\t// out\n        /* \"#utility.yul\":1867:1985   */\n    tag_91:\n        /* \"#utility.yul\":1954:1978   */\n      tag_136\n        /* \"#utility.yul\":1972:1977   */\n      dup2\n        /* \"#utility.yul\":1954:1978   */\n      tag_85\n      jump\t// in\n    tag_136:\n        /* \"#utility.yul\":1949:1952   */\n      dup3\n        /* \"#utility.yul\":1942:1979   */\n      mstore\n        /* \"#utility.yul\":1867:1985   */\n      pop\n      pop\n      jump\t// out\n        /* \"#utility.yul\":1991:2213   */\n    tag_21:\n        /* \"#utility.yul\":2084:2088   */\n      0x00\n        /* \"#utility.yul\":2122:2124   */\n      0x20\n        /* \"#utility.yul\":2111:2120   */\n      dup3\n        /* \"#utility.yul\":2107:2125   */\n      add\n        /* \"#utility.yul\":2099:2125   */\n      swap1\n      pop\n        /* \"#utility.yul\":2135:2206   */\n      tag_138\n        /* \"#utility.yul\":2203:2204   */\n      0x00\n        /* \"#utility.yul\":2192:2201   */\n      dup4\n        /* \"#utility.yul\":2188:2205   */\n      add\n        /* \"#utility.yul\":2179:2185   */\n      dup5\n        /* \"#utility.yul\":2135:2206   */\n      tag_91\n      jump\t// in\n    tag_138:\n        /* \"#utility.yul\":1991:2213   */\n      swap3\n      swap2\n      pop\n      pop\n      jump\t// out\n        /* \"#utility.yul\":2219:2337   */\n    tag_92:\n        /* \"#utility.yul\":2306:2330   */\n      tag_140\n        /* \"#utility.yul\":2324:2329   */\n      dup2\n        /* \"#utility.yul\":2306:2330   */\n      tag_88\n      jump\t// in\n    tag_140:\n        /* \"#utility.yul\":2301:2304   */\n      dup3\n        /* \"#utility.yul\":2294:2331   */\n      mstore\n        /* \"#utility.yul\":2219:2337   */\n      pop\n      pop\n      jump\t// out\n        /* \"#utility.yul\":2343:2565   */\n    tag_30:\n        /* \"#utility.yul\":2436:2440   */\n      0x00\n        /* \"#utility.yul\":2474:2476   */\n      0x20\n        /* \"#utility.yul\":2463:2472   */\n      dup3\n        /* \"#utility.yul\":2459:2477   */\n      add\n        /* \"#utility.yul\":2451:2477   */\n      swap1\n      pop\n        /* \"#utility.yul\":2487:2558   */\n      tag_142\n        /* \"#utility.yul\":2555:2556   */\n      0x00\n        /* \"#utility.yul\":2544:2553   */\n      dup4\n        /* \"#utility.yul\":2540:2557   */\n      add\n        /* \"#utility.yul\":2531:2537   */\n      dup5\n        /* \"#utility.yul\":2487:2558   */\n      tag_92\n      jump\t// in\n    tag_142:\n        /* \"#utility.yul\":2343:2565   */\n      swap3\n      swap2\n      pop\n      pop\n      jump\t// out\n        /* \"#utility.yul\":2571:2714   */\n    tag_93:\n        /* \"#utility.yul\":2628:2633   */\n      0x00\n        /* \"#utility.yul\":2659:2665   */\n      dup2\n        /* \"#utility.yul\":2653:2666   */\n      mload\n        /* \"#utility.yul\":2644:2666   */\n      swap1\n      pop\n        /* \"#utility.yul\":2675:2708   */\n      tag_144\n        /* \"#utility.yul\":2702:2707   */\n      dup2\n        /* \"#utility.yul\":2675:2708   */\n      tag_89\n      jump\t// in\n    tag_144:\n        /* \"#utility.yul\":2571:2714   */\n      swap3\n      swap2\n      pop\n      pop\n      jump\t// out\n        /* \"#utility.yul\":2720:3071   */\n    tag_40:\n        /* \"#utility.yul\":2790:2796   */\n      0x00\n        /* \"#utility.yul\":2839:2841   */\n      0x20\n        /* \"#utility.yul\":2827:2836   */\n      dup3\n        /* \"#utility.yul\":2818:2825   */\n      dup5\n        /* \"#utility.yul\":2814:2837   */\n      sub\n        /* \"#utility.yul\":2810:2842   */\n      slt\n        /* \"#utility.yul\":2807:2926   */\n      iszero\n      tag_146\n      jumpi\n        /* \"#utility.yul\":2845:2924   */\n      tag_147\n      tag_82\n      jump\t// in\n    tag_147:\n        /* \"#utility.yul\":2807:2926   */\n    tag_146:\n        /* \"#utility.yul\":2965:2966   */\n      0x00\n        /* \"#utility.yul\":2990:3054   */\n      tag_148\n        /* \"#utility.yul\":3046:3053   */\n      dup5\n        /* \"#utility.yul\":3037:3043   */\n      dup3\n        /* \"#utility.yul\":3026:3035   */\n      dup6\n        /* \"#utility.yul\":3022:3044   */\n      add\n        /* \"#utility.yul\":2990:3054   */\n      tag_93\n      jump\t// in\n    tag_148:\n        /* \"#utility.yul\":2980:3054   */\n      swap2\n      pop\n        /* \"#utility.yul\":2936:3064   */\n      pop\n        /* \"#utility.yul\":2720:3071   */\n      swap3\n      swap2\n      pop\n      pop\n      jump\t// out\n        /* \"#utility.yul\":3077:3246   */\n    tag_94:\n        /* \"#utility.yul\":3161:3172   */\n      0x00\n        /* \"#utility.yul\":3195:3201   */\n      dup3\n        /* \"#utility.yul\":3190:3193   */\n      dup3\n        /* \"#utility.yul\":3183:3202   */\n      mstore\n        /* \"#utility.yul\":3235:3239   */\n      0x20\n        /* \"#utility.yul\":3230:3233   */\n      dup3\n        /* \"#utility.yul\":3226:3240   */\n      add\n        /* \"#utility.yul\":3211:3240   */\n      swap1\n      pop\n        /* \"#utility.yul\":3077:3246   */\n      swap3\n      swap2\n      pop\n      pop\n      jump\t// out\n        /* \"#utility.yul\":3252:3481   */\n    tag_95:\n        /* \"#utility.yul\":3392:3426   */\n      0x496e73756666696369656e7420746f6b656e2062616c616e636520666f722073\n        /* \"#utility.yul\":3388:3389   */\n      0x00\n        /* \"#utility.yul\":3380:3386   */\n      dup3\n        /* \"#utility.yul\":3376:3390   */\n      add\n        /* \"#utility.yul\":3369:3427   */\n      mstore\n        /* \"#utility.yul\":3461:3473   */\n      0x706f6e736f727368697000000000000000000000000000000000000000000000\n        /* \"#utility.yul\":3456:3458   */\n      0x20\n        /* \"#utility.yul\":3448:3454   */\n      dup3\n        /* \"#utility.yul\":3444:3459   */\n      add\n        /* \"#utility.yul\":3437:3474   */\n      mstore\n        /* \"#utility.yul\":3252:3481   */\n      pop\n      jump\t// out\n        /* \"#utility.yul\":3487:3853   */\n    tag_96:\n        /* \"#utility.yul\":3629:3632   */\n      0x00\n        /* \"#utility.yul\":3650:3717   */\n      tag_152\n        /* \"#utility.yul\":3714:3716   */\n      0x2a\n        /* \"#utility.yul\":3709:3712   */\n      dup4\n        /* \"#utility.yul\":3650:3717   */\n      tag_94\n      jump\t// in\n    tag_152:\n        /* \"#utility.yul\":3643:3717   */\n      swap2\n      pop\n        /* \"#utility.yul\":3726:3819   */\n      tag_153\n        /* \"#utility.yul\":3815:3818   */\n      dup3\n        /* \"#utility.yul\":3726:3819   */\n      tag_95\n      jump\t// in\n    tag_153:\n        /* \"#utility.yul\":3844:3846   */\n      0x40\n        /* \"#utility.yul\":3839:3842   */\n      dup3\n        /* \"#utility.yul\":3835:3847   */\n      add\n        /* \"#utility.yul\":3828:3847   */\n      swap1\n      pop\n        /* \"#utility.yul\":3487:3853   */\n      swap2\n      swap1\n      pop\n      jump\t// out\n        /* \"#utility.yul\":3859:4278   */\n    tag_43:\n        /* \"#utility.yul\":4025:4029   */\n      0x00\n        /* \"#utility.yul\":4063:4065   */\n      0x20\n        /* \"#utility.yul\":4052:4061   */\n      dup3\n        /* \"#utility.yul\":4048:4066   */\n      add\n        /* \"#utility.yul\":4040:4066   */\n      swap1\n      pop\n        /* \"#utility.yul\":4112:4121   */\n      dup2\n        /* \"#utility.yul\":4106:4110   */\n      dup2\n        /* \"#utility.yul\":4102:4122   */\n      sub\n        /* \"#utility.yul\":4098:4099   */\n      0x00\n        /* \"#utility.yul\":4087:4096   */\n      dup4\n        /* \"#utility.yul\":4083:4100   */\n      add\n        /* \"#utility.yul\":4076:4123   */\n      mstore\n        /* \"#utility.yul\":4140:4271   */\n      tag_155\n        /* \"#utility.yul\":4266:4270   */\n      dup2\n        /* \"#utility.yul\":4140:4271   */\n      tag_96\n      jump\t// in\n    tag_155:\n        /* \"#utility.yul\":4132:4271   */\n      swap1\n      pop\n        /* \"#utility.yul\":3859:4278   */\n      swap2\n      swap1\n      pop\n      jump\t// out\n        /* \"#utility.yul\":4284:4616   */\n    tag_45:\n        /* \"#utility.yul\":4405:4409   */\n      0x00\n        /* \"#utility.yul\":4443:4445   */\n      0x40\n        /* \"#utility.yul\":4432:4441   */\n      dup3\n        /* \"#utility.yul\":4428:4446   */\n      add\n        /* \"#utility.yul\":4420:4446   */\n      swap1\n      pop\n        /* \"#utility.yul\":4456:4527   */\n      tag_157\n        /* \"#utility.yul\":4524:4525   */\n      0x00\n        /* \"#utility.yul\":4513:4522   */\n      dup4\n        /* \"#utility.yul\":4509:4526   */\n      add\n        /* \"#utility.yul\":4500:4506   */\n      dup6\n        /* \"#utility.yul\":4456:4527   */\n      tag_91\n      jump\t// in\n    tag_157:\n        /* \"#utility.yul\":4537:4609   */\n      tag_158\n        /* \"#utility.yul\":4605:4607   */\n      0x20\n        /* \"#utility.yul\":4594:4603   */\n      dup4\n        /* \"#utility.yul\":4590:4608   */\n      add\n        /* \"#utility.yul\":4581:4587   */\n      dup5\n        /* \"#utility.yul\":4537:4609   */\n      tag_92\n      jump\t// in\n    tag_158:\n        /* \"#utility.yul\":4284:4616   */\n      swap4\n      swap3\n      pop\n      pop\n      pop\n      jump\t// out\n        /* \"#utility.yul\":4622:4712   */\n    tag_97:\n        /* \"#utility.yul\":4656:4663   */\n      0x00\n        /* \"#utility.yul\":4699:4704   */\n      dup2\n        /* \"#utility.yul\":4692:4705   */\n      iszero\n        /* \"#utility.yul\":4685:4706   */\n      iszero\n        /* \"#utility.yul\":4674:4706   */\n      swap1\n      pop\n        /* \"#utility.yul\":4622:4712   */\n      swap2\n      swap1\n      pop\n      jump\t// out\n        /* \"#utility.yul\":4718:4834   */\n    tag_98:\n        /* \"#utility.yul\":4788:4809   */\n      tag_161\n        /* \"#utility.yul\":4803:4808   */\n      dup2\n        /* \"#utility.yul\":4788:4809   */\n      tag_97\n      jump\t// in\n    tag_161:\n        /* \"#utility.yul\":4781:4786   */\n      dup2\n        /* \"#utility.yul\":4778:4810   */\n      eq\n        /* \"#utility.yul\":4768:4828   */\n      tag_162\n      jumpi\n        /* \"#utility.yul\":4824:4825   */\n      0x00\n        /* \"#utility.yul\":4821:4822   */\n      dup1\n        /* \"#utility.yul\":4814:4826   */\n      revert\n        /* \"#utility.yul\":4768:4828   */\n    tag_162:\n        /* \"#utility.yul\":4718:4834   */\n      pop\n      jump\t// out\n        /* \"#utility.yul\":4840:4977   */\n    tag_99:\n        /* \"#utility.yul\":4894:4899   */\n      0x00\n        /* \"#utility.yul\":4925:4931   */\n      dup2\n        /* \"#utility.yul\":4919:4932   */\n      mload\n        /* \"#utility.yul\":4910:4932   */\n      swap1\n      pop\n        /* \"#utility.yul\":4941:4971   */\n      tag_164\n        /* \"#utility.yul\":4965:4970   */\n      dup2\n        /* \"#utility.yul\":4941:4971   */\n      tag_98\n      jump\t// in\n    tag_164:\n        /* \"#utility.yul\":4840:4977   */\n      swap3\n      swap2\n      pop\n      pop\n      jump\t// out\n        /* \"#utility.yul\":4983:5328   */\n    tag_49:\n        /* \"#utility.yul\":5050:5056   */\n      0x00\n        /* \"#utility.yul\":5099:5101   */\n      0x20\n        /* \"#utility.yul\":5087:5096   */\n      dup3\n        /* \"#utility.yul\":5078:5085   */\n      dup5\n        /* \"#utility.yul\":5074:5097   */\n      sub\n        /* \"#utility.yul\":5070:5102   */\n      slt\n        /* \"#utility.yul\":5067:5186   */\n      iszero\n      tag_166\n      jumpi\n        /* \"#utility.yul\":5105:5184   */\n      tag_167\n      tag_82\n      jump\t// in\n    tag_167:\n        /* \"#utility.yul\":5067:5186   */\n    tag_166:\n        /* \"#utility.yul\":5225:5226   */\n      0x00\n        /* \"#utility.yul\":5250:5311   */\n      tag_168\n        /* \"#utility.yul\":5303:5310   */\n      dup5\n        /* \"#utility.yul\":5294:5300   */\n      dup3\n        /* \"#utility.yul\":5283:5292   */\n      dup6\n        /* \"#utility.yul\":5279:5301   */\n      add\n        /* \"#utility.yul\":5250:5311   */\n      tag_99\n      jump\t// in\n    tag_168:\n        /* \"#utility.yul\":5240:5311   */\n      swap2\n      pop\n        /* \"#utility.yul\":5196:5321   */\n      pop\n        /* \"#utility.yul\":4983:5328   */\n      swap3\n      swap2\n      pop\n      pop\n      jump\t// out\n        /* \"#utility.yul\":5334:5505   */\n    tag_100:\n        /* \"#utility.yul\":5474:5497   */\n      0x546f6b656e207472616e73666572206661696c65640000000000000000000000\n        /* \"#utility.yul\":5470:5471   */\n      0x00\n        /* \"#utility.yul\":5462:5468   */\n      dup3\n        /* \"#utility.yul\":5458:5472   */\n      add\n        /* \"#utility.yul\":5451:5498   */\n      mstore\n        /* \"#utility.yul\":5334:5505   */\n      pop\n      jump\t// out\n        /* \"#utility.yul\":5511:5877   */\n    tag_101:\n        /* \"#utility.yul\":5653:5656   */\n      0x00\n        /* \"#utility.yul\":5674:5741   */\n      tag_171\n        /* \"#utility.yul\":5738:5740   */\n      0x15\n        /* \"#utility.yul\":5733:5736   */\n      dup4\n        /* \"#utility.yul\":5674:5741   */\n      tag_94\n      jump\t// in\n    tag_171:\n        /* \"#utility.yul\":5667:5741   */\n      swap2\n      pop\n        /* \"#utility.yul\":5750:5843   */\n      tag_172\n        /* \"#utility.yul\":5839:5842   */\n      dup3\n        /* \"#utility.yul\":5750:5843   */\n      tag_100\n      jump\t// in\n    tag_172:\n        /* \"#utility.yul\":5868:5870   */\n      0x20\n        /* \"#utility.yul\":5863:5866   */\n      dup3\n        /* \"#utility.yul\":5859:5871   */\n      add\n        /* \"#utility.yul\":5852:5871   */\n      swap1\n      pop\n        /* \"#utility.yul\":5511:5877   */\n      swap2\n      swap1\n      pop\n      jump\t// out\n        /* \"#utility.yul\":5883:6302   */\n    tag_52:\n        /* \"#utility.yul\":6049:6053   */\n      0x00\n        /* \"#utility.yul\":6087:6089   */\n      0x20\n        /* \"#utility.yul\":6076:6085   */\n      dup3\n        /* \"#utility.yul\":6072:6090   */\n      add\n        /* \"#utility.yul\":6064:6090   */\n      swap1\n      pop\n        /* \"#utility.yul\":6136:6145   */\n      dup2\n        /* \"#utility.yul\":6130:6134   */\n      dup2\n        /* \"#utility.yul\":6126:6146   */\n      sub\n        /* \"#utility.yul\":6122:6123   */\n      0x00\n        /* \"#utility.yul\":6111:6120   */\n      dup4\n        /* \"#utility.yul\":6107:6124   */\n      add\n        /* \"#utility.yul\":6100:6147   */\n      mstore\n        /* \"#utility.yul\":6164:6295   */\n      tag_174\n        /* \"#utility.yul\":6290:6294   */\n      dup2\n        /* \"#utility.yul\":6164:6295   */\n      tag_101\n      jump\t// in\n    tag_174:\n        /* \"#utility.yul\":6156:6295   */\n      swap1\n      pop\n        /* \"#utility.yul\":5883:6302   */\n      swap2\n      swap1\n      pop\n      jump\t// out\n        /* \"#utility.yul\":6308:6472   */\n    tag_102:\n        /* \"#utility.yul\":6448:6464   */\n      0x4e6f7420617574686f72697a6564000000000000000000000000000000000000\n        /* \"#utility.yul\":6444:6445   */\n      0x00\n        /* \"#utility.yul\":6436:6442   */\n      dup3\n        /* \"#utility.yul\":6432:6446   */\n      add\n        /* \"#utility.yul\":6425:6465   */\n      mstore\n        /* \"#utility.yul\":6308:6472   */\n      pop\n      jump\t// out\n        /* \"#utility.yul\":6478:6844   */\n    tag_103:\n        /* \"#utility.yul\":6620:6623   */\n      0x00\n        /* \"#utility.yul\":6641:6708   */\n      tag_177\n        /* \"#utility.yul\":6705:6707   */\n      0x0e\n        /* \"#utility.yul\":6700:6703   */\n      dup4\n        /* \"#utility.yul\":6641:6708   */\n      tag_94\n      jump\t// in\n    tag_177:\n        /* \"#utility.yul\":6634:6708   */\n      swap2\n      pop\n        /* \"#utility.yul\":6717:6810   */\n      tag_178\n        /* \"#utility.yul\":6806:6809   */\n      dup3\n        /* \"#utility.yul\":6717:6810   */\n      tag_102\n      jump\t// in\n    tag_178:\n        /* \"#utility.yul\":6835:6837   */\n      0x20\n        /* \"#utility.yul\":6830:6833   */\n      dup3\n        /* \"#utility.yul\":6826:6838   */\n      add\n        /* \"#utility.yul\":6819:6838   */\n      swap1\n      pop\n        /* \"#utility.yul\":6478:6844   */\n      swap2\n      swap1\n      pop\n      jump\t// out\n        /* \"#utility.yul\":6850:7269   */\n    tag_57:\n        /* \"#utility.yul\":7016:7020   */\n      0x00\n        /* \"#utility.yul\":7054:7056   */\n      0x20\n        /* \"#utility.yul\":7043:7052   */\n      dup3\n        /* \"#utility.yul\":7039:7057   */\n      add\n        /* \"#utility.yul\":7031:7057   */\n      swap1\n      pop\n        /* \"#utility.yul\":7103:7112   */\n      dup2\n        /* \"#utility.yul\":7097:7101   */\n      dup2\n        /* \"#utility.yul\":7093:7113   */\n      sub\n        /* \"#utility.yul\":7089:7090   */\n      0x00\n        /* \"#utility.yul\":7078:7087   */\n      dup4\n        /* \"#utility.yul\":7074:7091   */\n      add\n        /* \"#utility.yul\":7067:7114   */\n      mstore\n        /* \"#utility.yul\":7131:7262   */\n      tag_180\n        /* \"#utility.yul\":7257:7261   */\n      dup2\n        /* \"#utility.yul\":7131:7262   */\n      tag_103\n      jump\t// in\n    tag_180:\n        /* \"#utility.yul\":7123:7262   */\n      swap1\n      pop\n        /* \"#utility.yul\":6850:7269   */\n      swap2\n      swap1\n      pop\n      jump\t// out\n        /* \"#utility.yul\":7275:7455   */\n    tag_104:\n        /* \"#utility.yul\":7323:7400   */\n      0x4e487b7100000000000000000000000000000000000000000000000000000000\n        /* \"#utility.yul\":7320:7321   */\n      0x00\n        /* \"#utility.yul\":7313:7401   */\n      mstore\n        /* \"#utility.yul\":7420:7424   */\n      0x11\n        /* \"#utility.yul\":7417:7418   */\n      0x04\n        /* \"#utility.yul\":7410:7425   */\n      mstore\n        /* \"#utility.yul\":7444:7448   */\n      0x24\n        /* \"#utility.yul\":7441:7442   */\n      0x00\n        /* \"#utility.yul\":7434:7449   */\n      revert\n        /* \"#utility.yul\":7461:7871   */\n    tag_63:\n        /* \"#utility.yul\":7501:7508   */\n      0x00\n        /* \"#utility.yul\":7524:7544   */\n      tag_183\n        /* \"#utility.yul\":7542:7543   */\n      dup3\n        /* \"#utility.yul\":7524:7544   */\n      tag_88\n      jump\t// in\n    tag_183:\n        /* \"#utility.yul\":7519:7544   */\n      swap2\n      pop\n        /* \"#utility.yul\":7558:7578   */\n      tag_184\n        /* \"#utility.yul\":7576:7577   */\n      dup4\n        /* \"#utility.yul\":7558:7578   */\n      tag_88\n      jump\t// in\n    tag_184:\n        /* \"#utility.yul\":7553:7578   */\n      swap3\n      pop\n        /* \"#utility.yul\":7613:7614   */\n      dup3\n        /* \"#utility.yul\":7610:7611   */\n      dup3\n        /* \"#utility.yul\":7606:7615   */\n      mul\n        /* \"#utility.yul\":7635:7665   */\n      tag_185\n        /* \"#utility.yul\":7653:7664   */\n      dup2\n        /* \"#utility.yul\":7635:7665   */\n      tag_88\n      jump\t// in\n    tag_185:\n        /* \"#utility.yul\":7624:7665   */\n      swap2\n      pop\n        /* \"#utility.yul\":7814:7815   */\n      dup3\n        /* \"#utility.yul\":7805:7812   */\n      dup3\n        /* \"#utility.yul\":7801:7816   */\n      div\n        /* \"#utility.yul\":7798:7799   */\n      dup5\n        /* \"#utility.yul\":7795:7817   */\n      eq\n        /* \"#utility.yul\":7775:7776   */\n      dup4\n        /* \"#utility.yul\":7768:7777   */\n      iszero\n        /* \"#utility.yul\":7748:7831   */\n      or\n        /* \"#utility.yul\":7725:7864   */\n      tag_186\n      jumpi\n        /* \"#utility.yul\":7844:7862   */\n      tag_187\n      tag_104\n      jump\t// in\n    tag_187:\n        /* \"#utility.yul\":7725:7864   */\n    tag_186:\n        /* \"#utility.yul\":7509:7871   */\n      pop\n        /* \"#utility.yul\":7461:7871   */\n      swap3\n      swap2\n      pop\n      pop\n      jump\t// out\n        /* \"#utility.yul\":7877:8050   */\n    tag_105:\n        /* \"#utility.yul\":8017:8042   */\n      0x496e73756666696369656e742045746865722073656e74000000000000000000\n        /* \"#utility.yul\":8013:8014   */\n      0x00\n        /* \"#utility.yul\":8005:8011   */\n      dup3\n        /* \"#utility.yul\":8001:8015   */\n      add\n        /* \"#utility.yul\":7994:8043   */\n      mstore\n        /* \"#utility.yul\":7877:8050   */\n      pop\n      jump\t// out\n        /* \"#utility.yul\":8056:8422   */\n    tag_106:\n        /* \"#utility.yul\":8198:8201   */\n      0x00\n        /* \"#utility.yul\":8219:8286   */\n      tag_190\n        /* \"#utility.yul\":8283:8285   */\n      0x17\n        /* \"#utility.yul\":8278:8281   */\n      dup4\n        /* \"#utility.yul\":8219:8286   */\n      tag_94\n      jump\t// in\n    tag_190:\n        /* \"#utility.yul\":8212:8286   */\n      swap2\n      pop\n        /* \"#utility.yul\":8295:8388   */\n      tag_191\n        /* \"#utility.yul\":8384:8387   */\n      dup3\n        /* \"#utility.yul\":8295:8388   */\n      tag_105\n      jump\t// in\n    tag_191:\n        /* \"#utility.yul\":8413:8415   */\n      0x20\n        /* \"#utility.yul\":8408:8411   */\n      dup3\n        /* \"#utility.yul\":8404:8416   */\n      add\n        /* \"#utility.yul\":8397:8416   */\n      swap1\n      pop\n        /* \"#utility.yul\":8056:8422   */\n      swap2\n      swap1\n      pop\n      jump\t// out\n        /* \"#utility.yul\":8428:8847   */\n    tag_66:\n        /* \"#utility.yul\":8594:8598   */\n      0x00\n        /* \"#utility.yul\":8632:8634   */\n      0x20\n        /* \"#utility.yul\":8621:8630   */\n      dup3\n        /* \"#utility.yul\":8617:8635   */\n      add\n        /* \"#utility.yul\":8609:8635   */\n      swap1\n      pop\n        /* \"#utility.yul\":8681:8690   */\n      dup2\n        /* \"#utility.yul\":8675:8679   */\n      dup2\n        /* \"#utility.yul\":8671:8691   */\n      sub\n        /* \"#utility.yul\":8667:8668   */\n      0x00\n        /* \"#utility.yul\":8656:8665   */\n      dup4\n        /* \"#utility.yul\":8652:8669   */\n      add\n        /* \"#utility.yul\":8645:8692   */\n      mstore\n        /* \"#utility.yul\":8709:8840   */\n      tag_193\n        /* \"#utility.yul\":8835:8839   */\n      dup2\n        /* \"#utility.yul\":8709:8840   */\n      tag_106\n      jump\t// in\n    tag_193:\n        /* \"#utility.yul\":8701:8840   */\n      swap1\n      pop\n        /* \"#utility.yul\":8428:8847   */\n      swap2\n      swap1\n      pop\n      jump\t// out\n        /* \"#utility.yul\":8853:9024   */\n    tag_107:\n        /* \"#utility.yul\":8993:9016   */\n      0x546f6b656e207075726368617365206661696c65640000000000000000000000\n        /* \"#utility.yul\":8989:8990   */\n      0x00\n        /* \"#utility.yul\":8981:8987   */\n      dup3\n        /* \"#utility.yul\":8977:8991   */\n      add\n        /* \"#utility.yul\":8970:9017   */\n      mstore\n        /* \"#utility.yul\":8853:9024   */\n      pop\n      jump\t// out\n        /* \"#utility.yul\":9030:9396   */\n    tag_108:\n        /* \"#utility.yul\":9172:9175   */\n      0x00\n        /* \"#utility.yul\":9193:9260   */\n      tag_196\n        /* \"#utility.yul\":9257:9259   */\n      0x15\n        /* \"#utility.yul\":9252:9255   */\n      dup4\n        /* \"#utility.yul\":9193:9260   */\n      tag_94\n      jump\t// in\n    tag_196:\n        /* \"#utility.yul\":9186:9260   */\n      swap2\n      pop\n        /* \"#utility.yul\":9269:9362   */\n      tag_197\n        /* \"#utility.yul\":9358:9361   */\n      dup3\n        /* \"#utility.yul\":9269:9362   */\n      tag_107\n      jump\t// in\n    tag_197:\n        /* \"#utility.yul\":9387:9389   */\n      0x20\n        /* \"#utility.yul\":9382:9385   */\n      dup3\n        /* \"#utility.yul\":9378:9390   */\n      add\n        /* \"#utility.yul\":9371:9390   */\n      swap1\n      pop\n        /* \"#utility.yul\":9030:9396   */\n      swap2\n      swap1\n      pop\n      jump\t// out\n        /* \"#utility.yul\":9402:9821   */\n    tag_73:\n        /* \"#utility.yul\":9568:9572   */\n      0x00\n        /* \"#utility.yul\":9606:9608   */\n      0x20\n        /* \"#utility.yul\":9595:9604   */\n      dup3\n        /* \"#utility.yul\":9591:9609   */\n      add\n        /* \"#utility.yul\":9583:9609   */\n      swap1\n      pop\n        /* \"#utility.yul\":9655:9664   */\n      dup2\n        /* \"#utility.yul\":9649:9653   */\n      dup2\n        /* \"#utility.yul\":9645:9665   */\n      sub\n        /* \"#utility.yul\":9641:9642   */\n      0x00\n        /* \"#utility.yul\":9630:9639   */\n      dup4\n        /* \"#utility.yul\":9626:9643   */\n      add\n        /* \"#utility.yul\":9619:9666   */\n      mstore\n        /* \"#utility.yul\":9683:9814   */\n      tag_199\n        /* \"#utility.yul\":9809:9813   */\n      dup2\n        /* \"#utility.yul\":9683:9814   */\n      tag_108\n      jump\t// in\n    tag_199:\n        /* \"#utility.yul\":9675:9814   */\n      swap1\n      pop\n        /* \"#utility.yul\":9402:9821   */\n      swap2\n      swap1\n      pop\n      jump\t// out\n        /* \"#utility.yul\":9827:10159   */\n    tag_75:\n        /* \"#utility.yul\":9948:9952   */\n      0x00\n        /* \"#utility.yul\":9986:9988   */\n      0x40\n        /* \"#utility.yul\":9975:9984   */\n      dup3\n        /* \"#utility.yul\":9971:9989   */\n      add\n        /* \"#utility.yul\":9963:9989   */\n      swap1\n      pop\n        /* \"#utility.yul\":9999:10070   */\n      tag_201\n        /* \"#utility.yul\":10067:10068   */\n      0x00\n        /* \"#utility.yul\":10056:10065   */\n      dup4\n        /* \"#utility.yul\":10052:10069   */\n      add\n        /* \"#utility.yul\":10043:10049   */\n      dup6\n        /* \"#utility.yul\":9999:10070   */\n      tag_92\n      jump\t// in\n    tag_201:\n        /* \"#utility.yul\":10080:10152   */\n      tag_202\n        /* \"#utility.yul\":10148:10150   */\n      0x20\n        /* \"#utility.yul\":10137:10146   */\n      dup4\n        /* \"#utility.yul\":10133:10151   */\n      add\n        /* \"#utility.yul\":10124:10130   */\n      dup5\n        /* \"#utility.yul\":10080:10152   */\n      tag_92\n      jump\t// in\n    tag_202:\n        /* \"#utility.yul\":9827:10159   */\n      swap4\n      swap3\n      pop\n      pop\n      pop\n      jump\t// out\n\n    auxdata: 0xa2646970667358221220baebb9e35ced4bf0b772589266e0968f998ba07a66d9c7c5786840d2cdb0da8364736f6c634300081a0033\n}\n",
				"bytecode": {
					"linkReferences": {},
					"object": "608060405234801561000f575f80fd5b50604051610d65380380610d658339818101604052810190610031919061014f565b335f806101000a81548173ffffffffffffffffffffffffffffffffffffffff021916908373ffffffffffffffffffffffffffffffffffffffff1602179055508160015f6101000a81548173ffffffffffffffffffffffffffffffffffffffff021916908373ffffffffffffffffffffffffffffffffffffffff16021790555080600281905550505061018d565b5f80fd5b5f73ffffffffffffffffffffffffffffffffffffffff82169050919050565b5f6100eb826100c2565b9050919050565b6100fb816100e1565b8114610105575f80fd5b50565b5f81519050610116816100f2565b92915050565b5f819050919050565b61012e8161011c565b8114610138575f80fd5b50565b5f8151905061014981610125565b92915050565b5f8060408385031215610165576101646100be565b5b5f61017285828601610108565b92505060206101838582860161013b565b9150509250929050565b610bcb8061019a5f395ff3fe608060405260043610610054575f3560e01c80631fe3a088146100585780637b97008d146100805780638da5cb5b1461009c5780639d76ea58146100c6578063cb7d134f146100f0578063d0b4a6ee1461011a575b5f80fd5b348015610063575f80fd5b5061007e60048036038101906100799190610723565b610142565b005b61009a60048036038101906100959190610781565b610338565b005b3480156100a7575f80fd5b506100b06105a0565b6040516100bd91906107bb565b60405180910390f35b3480156100d1575f80fd5b506100da6105c3565b6040516100e791906107bb565b60405180910390f35b3480156100fb575f80fd5b506101046105e8565b60405161011191906107e3565b60405180910390f35b348015610125575f80fd5b50610140600480360381019061013b9190610781565b6105ee565b005b5f60015f9054906101000a900473ffffffffffffffffffffffffffffffffffffffff1690505f8173ffffffffffffffffffffffffffffffffffffffff166370a08231306040518263ffffffff1660e01b81526004016101a191906107bb565b602060405180830381865afa1580156101bc573d5f803e3d5ffd5b505050506040513d601f19601f820116820180604052508101906101e09190610810565b9050600254811015610227576040517f08c379a000000000000000000000000000000000000000000000000000000000815260040161021e906108bb565b60405180910390fd5b8173ffffffffffffffffffffffffffffffffffffffff1663a9059cbb846002546040518363ffffffff1660e01b81526004016102649291906108d9565b6020604051808303815f875af1158015610280573d5f803e3d5ffd5b505050506040513d601f19601f820116820180604052508101906102a49190610935565b6102e3576040517f08c379a00000000000000000000000000000000000000000000000000000000081526004016102da906109aa565b60405180910390fd5b8273ffffffffffffffffffffffffffffffffffffffff167f7661ea217478035e90bae67523e9e3cfc45cb3ffb77fe110fcfff561a7bdea6960025460405161032b91906107e3565b60405180910390a2505050565b5f8054906101000a900473ffffffffffffffffffffffffffffffffffffffff1673ffffffffffffffffffffffffffffffffffffffff163373ffffffffffffffffffffffffffffffffffffffff16146103c5576040517f08c379a00000000000000000000000000000000000000000000000000000000081526004016103bc90610a12565b60405180910390fd5b5f60015f9054906101000a900473ffffffffffffffffffffffffffffffffffffffff1690505f8173ffffffffffffffffffffffffffffffffffffffff16637ff9b5966040518163ffffffff1660e01b8152600401602060405180830381865afa158015610434573d5f803e3d5ffd5b505050506040513d601f19601f820116820180604052508101906104589190610810565b836104639190610a5d565b9050803410156104a8576040517f08c379a000000000000000000000000000000000000000000000000000000000815260040161049f90610ae8565b60405180910390fd5b8173ffffffffffffffffffffffffffffffffffffffff16637b97008d34856040518363ffffffff1660e01b81526004016104e291906107e3565b60206040518083038185885af11580156104fe573d5f803e3d5ffd5b50505050506040513d601f19601f820116820180604052508101906105239190610935565b610562576040517f08c379a000000000000000000000000000000000000000000000000000000000815260040161055990610b50565b60405180910390fd5b7f2a03ce910939b5a6fe6bfa3c4099f7af3dedb45b7078e6e7173c2216032ac0548382604051610593929190610b6e565b60405180910390a1505050565b5f8054906101000a900473ffffffffffffffffffffffffffffffffffffffff1681565b60015f9054906101000a900473ffffffffffffffffffffffffffffffffffffffff1681565b60025481565b5f8054906101000a900473ffffffffffffffffffffffffffffffffffffffff1673ffffffffffffffffffffffffffffffffffffffff163373ffffffffffffffffffffffffffffffffffffffff161461067b576040517f08c379a000000000000000000000000000000000000000000000000000000000815260040161067290610a12565b60405180910390fd5b5f6002549050816002819055507f5d55d62272b0a188900f193a1623f201f415a53fb390307f94bb8e2cdf7863f981836040516106b9929190610b6e565b60405180910390a15050565b5f80fd5b5f73ffffffffffffffffffffffffffffffffffffffff82169050919050565b5f6106f2826106c9565b9050919050565b610702816106e8565b811461070c575f80fd5b50565b5f8135905061071d816106f9565b92915050565b5f60208284031215610738576107376106c5565b5b5f6107458482850161070f565b91505092915050565b5f819050919050565b6107608161074e565b811461076a575f80fd5b50565b5f8135905061077b81610757565b92915050565b5f60208284031215610796576107956106c5565b5b5f6107a38482850161076d565b91505092915050565b6107b5816106e8565b82525050565b5f6020820190506107ce5f8301846107ac565b92915050565b6107dd8161074e565b82525050565b5f6020820190506107f65f8301846107d4565b92915050565b5f8151905061080a81610757565b92915050565b5f60208284031215610825576108246106c5565b5b5f610832848285016107fc565b91505092915050565b5f82825260208201905092915050565b7f496e73756666696369656e7420746f6b656e2062616c616e636520666f7220735f8201527f706f6e736f727368697000000000000000000000000000000000000000000000602082015250565b5f6108a5602a8361083b565b91506108b08261084b565b604082019050919050565b5f6020820190508181035f8301526108d281610899565b9050919050565b5f6040820190506108ec5f8301856107ac565b6108f960208301846107d4565b9392505050565b5f8115159050919050565b61091481610900565b811461091e575f80fd5b50565b5f8151905061092f8161090b565b92915050565b5f6020828403121561094a576109496106c5565b5b5f61095784828501610921565b91505092915050565b7f546f6b656e207472616e73666572206661696c656400000000000000000000005f82015250565b5f61099460158361083b565b915061099f82610960565b602082019050919050565b5f6020820190508181035f8301526109c181610988565b9050919050565b7f4e6f7420617574686f72697a65640000000000000000000000000000000000005f82015250565b5f6109fc600e8361083b565b9150610a07826109c8565b602082019050919050565b5f6020820190508181035f830152610a29816109f0565b9050919050565b7f4e487b71000000000000000000000000000000000000000000000000000000005f52601160045260245ffd5b5f610a678261074e565b9150610a728361074e565b9250828202610a808161074e565b91508282048414831517610a9757610a96610a30565b5b5092915050565b7f496e73756666696369656e742045746865722073656e740000000000000000005f82015250565b5f610ad260178361083b565b9150610add82610a9e565b602082019050919050565b5f6020820190508181035f830152610aff81610ac6565b9050919050565b7f546f6b656e207075726368617365206661696c656400000000000000000000005f82015250565b5f610b3a60158361083b565b9150610b4582610b06565b602082019050919050565b5f6020820190508181035f830152610b6781610b2e565b9050919050565b5f604082019050610b815f8301856107d4565b610b8e60208301846107d4565b939250505056fea2646970667358221220baebb9e35ced4bf0b772589266e0968f998ba07a66d9c7c5786840d2cdb0da8364736f6c634300081a0033",
					"opcodes": "PUSH1 0x80 PUSH1 0x40 MSTORE CALLVALUE DUP1 ISZERO PUSH2 0xF JUMPI PUSH0 DUP1 REVERT JUMPDEST POP PUSH1 0x40 MLOAD PUSH2 0xD65 CODESIZE SUB DUP1 PUSH2 0xD65 DUP4 CODECOPY DUP2 DUP2 ADD PUSH1 0x40 MSTORE DUP2 ADD SWAP1 PUSH2 0x31 SWAP2 SWAP1 PUSH2 0x14F JUMP JUMPDEST CALLER PUSH0 DUP1 PUSH2 0x100 EXP DUP2 SLOAD DUP2 PUSH20 0xFFFFFFFFFFFFFFFFFFFFFFFFFFFFFFFFFFFFFFFF MUL NOT AND SWAP1 DUP4 PUSH20 0xFFFFFFFFFFFFFFFFFFFFFFFFFFFFFFFFFFFFFFFF AND MUL OR SWAP1 SSTORE POP DUP2 PUSH1 0x1 PUSH0 PUSH2 0x100 EXP DUP2 SLOAD DUP2 PUSH20 0xFFFFFFFFFFFFFFFFFFFFFFFFFFFFFFFFFFFFFFFF MUL NOT AND SWAP1 DUP4 PUSH20 0xFFFFFFFFFFFFFFFFFFFFFFFFFFFFFFFFFFFFFFFF AND MUL OR SWAP1 SSTORE POP DUP1 PUSH1 0x2 DUP2 SWAP1 SSTORE POP POP POP PUSH2 0x18D JUMP JUMPDEST PUSH0 DUP1 REVERT JUMPDEST PUSH0 PUSH20 0xFFFFFFFFFFFFFFFFFFFFFFFFFFFFFFFFFFFFFFFF DUP3 AND SWAP1 POP SWAP2 SWAP1 POP JUMP JUMPDEST PUSH0 PUSH2 0xEB DUP3 PUSH2 0xC2 JUMP JUMPDEST SWAP1 POP SWAP2 SWAP1 POP JUMP JUMPDEST PUSH2 0xFB DUP2 PUSH2 0xE1 JUMP JUMPDEST DUP2 EQ PUSH2 0x105 JUMPI PUSH0 DUP1 REVERT JUMPDEST POP JUMP JUMPDEST PUSH0 DUP2 MLOAD SWAP1 POP PUSH2 0x116 DUP2 PUSH2 0xF2 JUMP JUMPDEST SWAP3 SWAP2 POP POP JUMP JUMPDEST PUSH0 DUP2 SWAP1 POP SWAP2 SWAP1 POP JUMP JUMPDEST PUSH2 0x12E DUP2 PUSH2 0x11C JUMP JUMPDEST DUP2 EQ PUSH2 0x138 JUMPI PUSH0 DUP1 REVERT JUMPDEST POP JUMP JUMPDEST PUSH0 DUP2 MLOAD SWAP1 POP PUSH2 0x149 DUP2 PUSH2 0x125 JUMP JUMPDEST SWAP3 SWAP2 POP POP JUMP JUMPDEST PUSH0 DUP1 PUSH1 0x40 DUP4 DUP6 SUB SLT ISZERO PUSH2 0x165 JUMPI PUSH2 0x164 PUSH2 0xBE JUMP JUMPDEST JUMPDEST PUSH0 PUSH2 0x172 DUP6 DUP3 DUP7 ADD PUSH2 0x108 JUMP JUMPDEST SWAP3 POP POP PUSH1 0x20 PUSH2 0x183 DUP6 DUP3 DUP7 ADD PUSH2 0x13B JUMP JUMPDEST SWAP2 POP POP SWAP3 POP SWAP3 SWAP1 POP JUMP JUMPDEST PUSH2 0xBCB DUP1 PUSH2 0x19A PUSH0 CODECOPY PUSH0 RETURN INVALID PUSH1 0x80 PUSH1 0x40 MSTORE PUSH1 0x4 CALLDATASIZE LT PUSH2 0x54 JUMPI PUSH0 CALLDATALOAD PUSH1 0xE0 SHR DUP1 PUSH4 0x1FE3A088 EQ PUSH2 0x58 JUMPI DUP1 PUSH4 0x7B97008D EQ PUSH2 0x80 JUMPI DUP1 PUSH4 0x8DA5CB5B EQ PUSH2 0x9C JUMPI DUP1 PUSH4 0x9D76EA58 EQ PUSH2 0xC6 JUMPI DUP1 PUSH4 0xCB7D134F EQ PUSH2 0xF0 JUMPI DUP1 PUSH4 0xD0B4A6EE EQ PUSH2 0x11A JUMPI JUMPDEST PUSH0 DUP1 REVERT JUMPDEST CALLVALUE DUP1 ISZERO PUSH2 0x63 JUMPI PUSH0 DUP1 REVERT JUMPDEST POP PUSH2 0x7E PUSH1 0x4 DUP1 CALLDATASIZE SUB DUP2 ADD SWAP1 PUSH2 0x79 SWAP2 SWAP1 PUSH2 0x723 JUMP JUMPDEST PUSH2 0x142 JUMP JUMPDEST STOP JUMPDEST PUSH2 0x9A PUSH1 0x4 DUP1 CALLDATASIZE SUB DUP2 ADD SWAP1 PUSH2 0x95 SWAP2 SWAP1 PUSH2 0x781 JUMP JUMPDEST PUSH2 0x338 JUMP JUMPDEST STOP JUMPDEST CALLVALUE DUP1 ISZERO PUSH2 0xA7 JUMPI PUSH0 DUP1 REVERT JUMPDEST POP PUSH2 0xB0 PUSH2 0x5A0 JUMP JUMPDEST PUSH1 0x40 MLOAD PUSH2 0xBD SWAP2 SWAP1 PUSH2 0x7BB JUMP JUMPDEST PUSH1 0x40 MLOAD DUP1 SWAP2 SUB SWAP1 RETURN JUMPDEST CALLVALUE DUP1 ISZERO PUSH2 0xD1 JUMPI PUSH0 DUP1 REVERT JUMPDEST POP PUSH2 0xDA PUSH2 0x5C3 JUMP JUMPDEST PUSH1 0x40 MLOAD PUSH2 0xE7 SWAP2 SWAP1 PUSH2 0x7BB JUMP JUMPDEST PUSH1 0x40 MLOAD DUP1 SWAP2 SUB SWAP1 RETURN JUMPDEST CALLVALUE DUP1 ISZERO PUSH2 0xFB JUMPI PUSH0 DUP1 REVERT JUMPDEST POP PUSH2 0x104 PUSH2 0x5E8 JUMP JUMPDEST PUSH1 0x40 MLOAD PUSH2 0x111 SWAP2 SWAP1 PUSH2 0x7E3 JUMP JUMPDEST PUSH1 0x40 MLOAD DUP1 SWAP2 SUB SWAP1 RETURN JUMPDEST CALLVALUE DUP1 ISZERO PUSH2 0x125 JUMPI PUSH0 DUP1 REVERT JUMPDEST POP PUSH2 0x140 PUSH1 0x4 DUP1 CALLDATASIZE SUB DUP2 ADD SWAP1 PUSH2 0x13B SWAP2 SWAP1 PUSH2 0x781 JUMP JUMPDEST PUSH2 0x5EE JUMP JUMPDEST STOP JUMPDEST PUSH0 PUSH1 0x1 PUSH0 SWAP1 SLOAD SWAP1 PUSH2 0x100 EXP SWAP1 DIV PUSH20 0xFFFFFFFFFFFFFFFFFFFFFFFFFFFFFFFFFFFFFFFF AND SWAP1 POP PUSH0 DUP2 PUSH20 0xFFFFFFFFFFFFFFFFFFFFFFFFFFFFFFFFFFFFFFFF AND PUSH4 0x70A08231 ADDRESS PUSH1 0x40 MLOAD DUP3 PUSH4 0xFFFFFFFF AND PUSH1 0xE0 SHL DUP2 MSTORE PUSH1 0x4 ADD PUSH2 0x1A1 SWAP2 SWAP1 PUSH2 0x7BB JUMP JUMPDEST PUSH1 0x20 PUSH1 0x40 MLOAD DUP1 DUP4 SUB DUP2 DUP7 GAS STATICCALL ISZERO DUP1 ISZERO PUSH2 0x1BC JUMPI RETURNDATASIZE PUSH0 DUP1 RETURNDATACOPY RETURNDATASIZE PUSH0 REVERT JUMPDEST POP POP POP POP PUSH1 0x40 MLOAD RETURNDATASIZE PUSH1 0x1F NOT PUSH1 0x1F DUP3 ADD AND DUP3 ADD DUP1 PUSH1 0x40 MSTORE POP DUP2 ADD SWAP1 PUSH2 0x1E0 SWAP2 SWAP1 PUSH2 0x810 JUMP JUMPDEST SWAP1 POP PUSH1 0x2 SLOAD DUP2 LT ISZERO PUSH2 0x227 JUMPI PUSH1 0x40 MLOAD PUSH32 0x8C379A000000000000000000000000000000000000000000000000000000000 DUP2 MSTORE PUSH1 0x4 ADD PUSH2 0x21E SWAP1 PUSH2 0x8BB JUMP JUMPDEST PUSH1 0x40 MLOAD DUP1 SWAP2 SUB SWAP1 REVERT JUMPDEST DUP2 PUSH20 0xFFFFFFFFFFFFFFFFFFFFFFFFFFFFFFFFFFFFFFFF AND PUSH4 0xA9059CBB DUP5 PUSH1 0x2 SLOAD PUSH1 0x40 MLOAD DUP4 PUSH4 0xFFFFFFFF AND PUSH1 0xE0 SHL DUP2 MSTORE PUSH1 0x4 ADD PUSH2 0x264 SWAP3 SWAP2 SWAP1 PUSH2 0x8D9 JUMP JUMPDEST PUSH1 0x20 PUSH1 0x40 MLOAD DUP1 DUP4 SUB DUP2 PUSH0 DUP8 GAS CALL ISZERO DUP1 ISZERO PUSH2 0x280 JUMPI RETURNDATASIZE PUSH0 DUP1 RETURNDATACOPY RETURNDATASIZE PUSH0 REVERT JUMPDEST POP POP POP POP PUSH1 0x40 MLOAD RETURNDATASIZE PUSH1 0x1F NOT PUSH1 0x1F DUP3 ADD AND DUP3 ADD DUP1 PUSH1 0x40 MSTORE POP DUP2 ADD SWAP1 PUSH2 0x2A4 SWAP2 SWAP1 PUSH2 0x935 JUMP JUMPDEST PUSH2 0x2E3 JUMPI PUSH1 0x40 MLOAD PUSH32 0x8C379A000000000000000000000000000000000000000000000000000000000 DUP2 MSTORE PUSH1 0x4 ADD PUSH2 0x2DA SWAP1 PUSH2 0x9AA JUMP JUMPDEST PUSH1 0x40 MLOAD DUP1 SWAP2 SUB SWAP1 REVERT JUMPDEST DUP3 PUSH20 0xFFFFFFFFFFFFFFFFFFFFFFFFFFFFFFFFFFFFFFFF AND PUSH32 0x7661EA217478035E90BAE67523E9E3CFC45CB3FFB77FE110FCFFF561A7BDEA69 PUSH1 0x2 SLOAD PUSH1 0x40 MLOAD PUSH2 0x32B SWAP2 SWAP1 PUSH2 0x7E3 JUMP JUMPDEST PUSH1 0x40 MLOAD DUP1 SWAP2 SUB SWAP1 LOG2 POP POP POP JUMP JUMPDEST PUSH0 DUP1 SLOAD SWAP1 PUSH2 0x100 EXP SWAP1 DIV PUSH20 0xFFFFFFFFFFFFFFFFFFFFFFFFFFFFFFFFFFFFFFFF AND PUSH20 0xFFFFFFFFFFFFFFFFFFFFFFFFFFFFFFFFFFFFFFFF AND CALLER PUSH20 0xFFFFFFFFFFFFFFFFFFFFFFFFFFFFFFFFFFFFFFFF AND EQ PUSH2 0x3C5 JUMPI PUSH1 0x40 MLOAD PUSH32 0x8C379A000000000000000000000000000000000000000000000000000000000 DUP2 MSTORE PUSH1 0x4 ADD PUSH2 0x3BC SWAP1 PUSH2 0xA12 JUMP JUMPDEST PUSH1 0x40 MLOAD DUP1 SWAP2 SUB SWAP1 REVERT JUMPDEST PUSH0 PUSH1 0x1 PUSH0 SWAP1 SLOAD SWAP1 PUSH2 0x100 EXP SWAP1 DIV PUSH20 0xFFFFFFFFFFFFFFFFFFFFFFFFFFFFFFFFFFFFFFFF AND SWAP1 POP PUSH0 DUP2 PUSH20 0xFFFFFFFFFFFFFFFFFFFFFFFFFFFFFFFFFFFFFFFF AND PUSH4 0x7FF9B596 PUSH1 0x40 MLOAD DUP2 PUSH4 0xFFFFFFFF AND PUSH1 0xE0 SHL DUP2 MSTORE PUSH1 0x4 ADD PUSH1 0x20 PUSH1 0x40 MLOAD DUP1 DUP4 SUB DUP2 DUP7 GAS STATICCALL ISZERO DUP1 ISZERO PUSH2 0x434 JUMPI RETURNDATASIZE PUSH0 DUP1 RETURNDATACOPY RETURNDATASIZE PUSH0 REVERT JUMPDEST POP POP POP POP PUSH1 0x40 MLOAD RETURNDATASIZE PUSH1 0x1F NOT PUSH1 0x1F DUP3 ADD AND DUP3 ADD DUP1 PUSH1 0x40 MSTORE POP DUP2 ADD SWAP1 PUSH2 0x458 SWAP2 SWAP1 PUSH2 0x810 JUMP JUMPDEST DUP4 PUSH2 0x463 SWAP2 SWAP1 PUSH2 0xA5D JUMP JUMPDEST SWAP1 POP DUP1 CALLVALUE LT ISZERO PUSH2 0x4A8 JUMPI PUSH1 0x40 MLOAD PUSH32 0x8C379A000000000000000000000000000000000000000000000000000000000 DUP2 MSTORE PUSH1 0x4 ADD PUSH2 0x49F SWAP1 PUSH2 0xAE8 JUMP JUMPDEST PUSH1 0x40 MLOAD DUP1 SWAP2 SUB SWAP1 REVERT JUMPDEST DUP2 PUSH20 0xFFFFFFFFFFFFFFFFFFFFFFFFFFFFFFFFFFFFFFFF AND PUSH4 0x7B97008D CALLVALUE DUP6 PUSH1 0x40 MLOAD DUP4 PUSH4 0xFFFFFFFF AND PUSH1 0xE0 SHL DUP2 MSTORE PUSH1 0x4 ADD PUSH2 0x4E2 SWAP2 SWAP1 PUSH2 0x7E3 JUMP JUMPDEST PUSH1 0x20 PUSH1 0x40 MLOAD DUP1 DUP4 SUB DUP2 DUP6 DUP9 GAS CALL ISZERO DUP1 ISZERO PUSH2 0x4FE JUMPI RETURNDATASIZE PUSH0 DUP1 RETURNDATACOPY RETURNDATASIZE PUSH0 REVERT JUMPDEST POP POP POP POP POP PUSH1 0x40 MLOAD RETURNDATASIZE PUSH1 0x1F NOT PUSH1 0x1F DUP3 ADD AND DUP3 ADD DUP1 PUSH1 0x40 MSTORE POP DUP2 ADD SWAP1 PUSH2 0x523 SWAP2 SWAP1 PUSH2 0x935 JUMP JUMPDEST PUSH2 0x562 JUMPI PUSH1 0x40 MLOAD PUSH32 0x8C379A000000000000000000000000000000000000000000000000000000000 DUP2 MSTORE PUSH1 0x4 ADD PUSH2 0x559 SWAP1 PUSH2 0xB50 JUMP JUMPDEST PUSH1 0x40 MLOAD DUP1 SWAP2 SUB SWAP1 REVERT JUMPDEST PUSH32 0x2A03CE910939B5A6FE6BFA3C4099F7AF3DEDB45B7078E6E7173C2216032AC054 DUP4 DUP3 PUSH1 0x40 MLOAD PUSH2 0x593 SWAP3 SWAP2 SWAP1 PUSH2 0xB6E JUMP JUMPDEST PUSH1 0x40 MLOAD DUP1 SWAP2 SUB SWAP1 LOG1 POP POP POP JUMP JUMPDEST PUSH0 DUP1 SLOAD SWAP1 PUSH2 0x100 EXP SWAP1 DIV PUSH20 0xFFFFFFFFFFFFFFFFFFFFFFFFFFFFFFFFFFFFFFFF AND DUP2 JUMP JUMPDEST PUSH1 0x1 PUSH0 SWAP1 SLOAD SWAP1 PUSH2 0x100 EXP SWAP1 DIV PUSH20 0xFFFFFFFFFFFFFFFFFFFFFFFFFFFFFFFFFFFFFFFF AND DUP2 JUMP JUMPDEST PUSH1 0x2 SLOAD DUP2 JUMP JUMPDEST PUSH0 DUP1 SLOAD SWAP1 PUSH2 0x100 EXP SWAP1 DIV PUSH20 0xFFFFFFFFFFFFFFFFFFFFFFFFFFFFFFFFFFFFFFFF AND PUSH20 0xFFFFFFFFFFFFFFFFFFFFFFFFFFFFFFFFFFFFFFFF AND CALLER PUSH20 0xFFFFFFFFFFFFFFFFFFFFFFFFFFFFFFFFFFFFFFFF AND EQ PUSH2 0x67B JUMPI PUSH1 0x40 MLOAD PUSH32 0x8C379A000000000000000000000000000000000000000000000000000000000 DUP2 MSTORE PUSH1 0x4 ADD PUSH2 0x672 SWAP1 PUSH2 0xA12 JUMP JUMPDEST PUSH1 0x40 MLOAD DUP1 SWAP2 SUB SWAP1 REVERT JUMPDEST PUSH0 PUSH1 0x2 SLOAD SWAP1 POP DUP2 PUSH1 0x2 DUP2 SWAP1 SSTORE POP PUSH32 0x5D55D62272B0A188900F193A1623F201F415A53FB390307F94BB8E2CDF7863F9 DUP2 DUP4 PUSH1 0x40 MLOAD PUSH2 0x6B9 SWAP3 SWAP2 SWAP1 PUSH2 0xB6E JUMP JUMPDEST PUSH1 0x40 MLOAD DUP1 SWAP2 SUB SWAP1 LOG1 POP POP JUMP JUMPDEST PUSH0 DUP1 REVERT JUMPDEST PUSH0 PUSH20 0xFFFFFFFFFFFFFFFFFFFFFFFFFFFFFFFFFFFFFFFF DUP3 AND SWAP1 POP SWAP2 SWAP1 POP JUMP JUMPDEST PUSH0 PUSH2 0x6F2 DUP3 PUSH2 0x6C9 JUMP JUMPDEST SWAP1 POP SWAP2 SWAP1 POP JUMP JUMPDEST PUSH2 0x702 DUP2 PUSH2 0x6E8 JUMP JUMPDEST DUP2 EQ PUSH2 0x70C JUMPI PUSH0 DUP1 REVERT JUMPDEST POP JUMP JUMPDEST PUSH0 DUP2 CALLDATALOAD SWAP1 POP PUSH2 0x71D DUP2 PUSH2 0x6F9 JUMP JUMPDEST SWAP3 SWAP2 POP POP JUMP JUMPDEST PUSH0 PUSH1 0x20 DUP3 DUP5 SUB SLT ISZERO PUSH2 0x738 JUMPI PUSH2 0x737 PUSH2 0x6C5 JUMP JUMPDEST JUMPDEST PUSH0 PUSH2 0x745 DUP5 DUP3 DUP6 ADD PUSH2 0x70F JUMP JUMPDEST SWAP2 POP POP SWAP3 SWAP2 POP POP JUMP JUMPDEST PUSH0 DUP2 SWAP1 POP SWAP2 SWAP1 POP JUMP JUMPDEST PUSH2 0x760 DUP2 PUSH2 0x74E JUMP JUMPDEST DUP2 EQ PUSH2 0x76A JUMPI PUSH0 DUP1 REVERT JUMPDEST POP JUMP JUMPDEST PUSH0 DUP2 CALLDATALOAD SWAP1 POP PUSH2 0x77B DUP2 PUSH2 0x757 JUMP JUMPDEST SWAP3 SWAP2 POP POP JUMP JUMPDEST PUSH0 PUSH1 0x20 DUP3 DUP5 SUB SLT ISZERO PUSH2 0x796 JUMPI PUSH2 0x795 PUSH2 0x6C5 JUMP JUMPDEST JUMPDEST PUSH0 PUSH2 0x7A3 DUP5 DUP3 DUP6 ADD PUSH2 0x76D JUMP JUMPDEST SWAP2 POP POP SWAP3 SWAP2 POP POP JUMP JUMPDEST PUSH2 0x7B5 DUP2 PUSH2 0x6E8 JUMP JUMPDEST DUP3 MSTORE POP POP JUMP JUMPDEST PUSH0 PUSH1 0x20 DUP3 ADD SWAP1 POP PUSH2 0x7CE PUSH0 DUP4 ADD DUP5 PUSH2 0x7AC JUMP JUMPDEST SWAP3 SWAP2 POP POP JUMP JUMPDEST PUSH2 0x7DD DUP2 PUSH2 0x74E JUMP JUMPDEST DUP3 MSTORE POP POP JUMP JUMPDEST PUSH0 PUSH1 0x20 DUP3 ADD SWAP1 POP PUSH2 0x7F6 PUSH0 DUP4 ADD DUP5 PUSH2 0x7D4 JUMP JUMPDEST SWAP3 SWAP2 POP POP JUMP JUMPDEST PUSH0 DUP2 MLOAD SWAP1 POP PUSH2 0x80A DUP2 PUSH2 0x757 JUMP JUMPDEST SWAP3 SWAP2 POP POP JUMP JUMPDEST PUSH0 PUSH1 0x20 DUP3 DUP5 SUB SLT ISZERO PUSH2 0x825 JUMPI PUSH2 0x824 PUSH2 0x6C5 JUMP JUMPDEST JUMPDEST PUSH0 PUSH2 0x832 DUP5 DUP3 DUP6 ADD PUSH2 0x7FC JUMP JUMPDEST SWAP2 POP POP SWAP3 SWAP2 POP POP JUMP JUMPDEST PUSH0 DUP3 DUP3 MSTORE PUSH1 0x20 DUP3 ADD SWAP1 POP SWAP3 SWAP2 POP POP JUMP JUMPDEST PUSH32 0x496E73756666696369656E7420746F6B656E2062616C616E636520666F722073 PUSH0 DUP3 ADD MSTORE PUSH32 0x706F6E736F727368697000000000000000000000000000000000000000000000 PUSH1 0x20 DUP3 ADD MSTORE POP JUMP JUMPDEST PUSH0 PUSH2 0x8A5 PUSH1 0x2A DUP4 PUSH2 0x83B JUMP JUMPDEST SWAP2 POP PUSH2 0x8B0 DUP3 PUSH2 0x84B JUMP JUMPDEST PUSH1 0x40 DUP3 ADD SWAP1 POP SWAP2 SWAP1 POP JUMP JUMPDEST PUSH0 PUSH1 0x20 DUP3 ADD SWAP1 POP DUP2 DUP2 SUB PUSH0 DUP4 ADD MSTORE PUSH2 0x8D2 DUP2 PUSH2 0x899 JUMP JUMPDEST SWAP1 POP SWAP2 SWAP1 POP JUMP JUMPDEST PUSH0 PUSH1 0x40 DUP3 ADD SWAP1 POP PUSH2 0x8EC PUSH0 DUP4 ADD DUP6 PUSH2 0x7AC JUMP JUMPDEST PUSH2 0x8F9 PUSH1 0x20 DUP4 ADD DUP5 PUSH2 0x7D4 JUMP JUMPDEST SWAP4 SWAP3 POP POP POP JUMP JUMPDEST PUSH0 DUP2 ISZERO ISZERO SWAP1 POP SWAP2 SWAP1 POP JUMP JUMPDEST PUSH2 0x914 DUP2 PUSH2 0x900 JUMP JUMPDEST DUP2 EQ PUSH2 0x91E JUMPI PUSH0 DUP1 REVERT JUMPDEST POP JUMP JUMPDEST PUSH0 DUP2 MLOAD SWAP1 POP PUSH2 0x92F DUP2 PUSH2 0x90B JUMP JUMPDEST SWAP3 SWAP2 POP POP JUMP JUMPDEST PUSH0 PUSH1 0x20 DUP3 DUP5 SUB SLT ISZERO PUSH2 0x94A JUMPI PUSH2 0x949 PUSH2 0x6C5 JUMP JUMPDEST JUMPDEST PUSH0 PUSH2 0x957 DUP5 DUP3 DUP6 ADD PUSH2 0x921 JUMP JUMPDEST SWAP2 POP POP SWAP3 SWAP2 POP POP JUMP JUMPDEST PUSH32 0x546F6B656E207472616E73666572206661696C65640000000000000000000000 PUSH0 DUP3 ADD MSTORE POP JUMP JUMPDEST PUSH0 PUSH2 0x994 PUSH1 0x15 DUP4 PUSH2 0x83B JUMP JUMPDEST SWAP2 POP PUSH2 0x99F DUP3 PUSH2 0x960 JUMP JUMPDEST PUSH1 0x20 DUP3 ADD SWAP1 POP SWAP2 SWAP1 POP JUMP JUMPDEST PUSH0 PUSH1 0x20 DUP3 ADD SWAP1 POP DUP2 DUP2 SUB PUSH0 DUP4 ADD MSTORE PUSH2 0x9C1 DUP2 PUSH2 0x988 JUMP JUMPDEST SWAP1 POP SWAP2 SWAP1 POP JUMP JUMPDEST PUSH32 0x4E6F7420617574686F72697A6564000000000000000000000000000000000000 PUSH0 DUP3 ADD MSTORE POP JUMP JUMPDEST PUSH0 PUSH2 0x9FC PUSH1 0xE DUP4 PUSH2 0x83B JUMP JUMPDEST SWAP2 POP PUSH2 0xA07 DUP3 PUSH2 0x9C8 JUMP JUMPDEST PUSH1 0x20 DUP3 ADD SWAP1 POP SWAP2 SWAP1 POP JUMP JUMPDEST PUSH0 PUSH1 0x20 DUP3 ADD SWAP1 POP DUP2 DUP2 SUB PUSH0 DUP4 ADD MSTORE PUSH2 0xA29 DUP2 PUSH2 0x9F0 JUMP JUMPDEST SWAP1 POP SWAP2 SWAP1 POP JUMP JUMPDEST PUSH32 0x4E487B7100000000000000000000000000000000000000000000000000000000 PUSH0 MSTORE PUSH1 0x11 PUSH1 0x4 MSTORE PUSH1 0x24 PUSH0 REVERT JUMPDEST PUSH0 PUSH2 0xA67 DUP3 PUSH2 0x74E JUMP JUMPDEST SWAP2 POP PUSH2 0xA72 DUP4 PUSH2 0x74E JUMP JUMPDEST SWAP3 POP DUP3 DUP3 MUL PUSH2 0xA80 DUP2 PUSH2 0x74E JUMP JUMPDEST SWAP2 POP DUP3 DUP3 DIV DUP5 EQ DUP4 ISZERO OR PUSH2 0xA97 JUMPI PUSH2 0xA96 PUSH2 0xA30 JUMP JUMPDEST JUMPDEST POP SWAP3 SWAP2 POP POP JUMP JUMPDEST PUSH32 0x496E73756666696369656E742045746865722073656E74000000000000000000 PUSH0 DUP3 ADD MSTORE POP JUMP JUMPDEST PUSH0 PUSH2 0xAD2 PUSH1 0x17 DUP4 PUSH2 0x83B JUMP JUMPDEST SWAP2 POP PUSH2 0xADD DUP3 PUSH2 0xA9E JUMP JUMPDEST PUSH1 0x20 DUP3 ADD SWAP1 POP SWAP2 SWAP1 POP JUMP JUMPDEST PUSH0 PUSH1 0x20 DUP3 ADD SWAP1 POP DUP2 DUP2 SUB PUSH0 DUP4 ADD MSTORE PUSH2 0xAFF DUP2 PUSH2 0xAC6 JUMP JUMPDEST SWAP1 POP SWAP2 SWAP1 POP JUMP JUMPDEST PUSH32 0x546F6B656E207075726368617365206661696C65640000000000000000000000 PUSH0 DUP3 ADD MSTORE POP JUMP JUMPDEST PUSH0 PUSH2 0xB3A PUSH1 0x15 DUP4 PUSH2 0x83B JUMP JUMPDEST SWAP2 POP PUSH2 0xB45 DUP3 PUSH2 0xB06 JUMP JUMPDEST PUSH1 0x20 DUP3 ADD SWAP1 POP SWAP2 SWAP1 POP JUMP JUMPDEST PUSH0 PUSH1 0x20 DUP3 ADD SWAP1 POP DUP2 DUP2 SUB PUSH0 DUP4 ADD MSTORE PUSH2 0xB67 DUP2 PUSH2 0xB2E JUMP JUMPDEST SWAP1 POP SWAP2 SWAP1 POP JUMP JUMPDEST PUSH0 PUSH1 0x40 DUP3 ADD SWAP1 POP PUSH2 0xB81 PUSH0 DUP4 ADD DUP6 PUSH2 0x7D4 JUMP JUMPDEST PUSH2 0xB8E PUSH1 0x20 DUP4 ADD DUP5 PUSH2 0x7D4 JUMP JUMPDEST SWAP4 SWAP3 POP POP POP JUMP INVALID LOG2 PUSH5 0x6970667358 0x22 SLT KECCAK256 0xBA 0xEB 0xB9 0xE3 TLOAD 0xED 0x4B CREATE 0xB7 PUSH19 0x589266E0968F998BA07A66D9C7C5786840D2CD 0xB0 0xDA DUP4 PUSH5 0x736F6C6343 STOP ADDMOD BYTE STOP CALLER "
				},
				"gasEstimates": {
					"creation": {
						"codeDepositCost": "603800",
						"executionCost": "infinite",
						"totalCost": "infinite"
					},
					"external": {
						"owner()": "2527",
						"provideSponsorship(address)": "infinite",
						"purchaseTokens(uint256)": "infinite",
						"sponsorshipAmount()": "2491",
						"tokenAddress()": "2552",
						"updateSponsorshipAmount(uint256)": "infinite"
					}
				},
				"methodIdentifiers": {
					"owner()": "8da5cb5b",
					"provideSponsorship(address)": "1fe3a088",
					"purchaseTokens(uint256)": "7b97008d",
					"sponsorshipAmount()": "cb7d134f",
					"tokenAddress()": "9d76ea58",
					"updateSponsorshipAmount(uint256)": "d0b4a6ee"
				}
			},
			"storageLayout": {
				"storage": [
					{
						"astId": 361,
						"contract": "tema/SponsorFunding.sol:SponsorFunding",
						"label": "owner",
						"offset": 0,
						"slot": "0",
						"type": "t_address"
					},
					{
						"astId": 363,
						"contract": "tema/SponsorFunding.sol:SponsorFunding",
						"label": "tokenAddress",
						"offset": 0,
						"slot": "1",
						"type": "t_address"
					},
					{
						"astId": 365,
						"contract": "tema/SponsorFunding.sol:SponsorFunding",
						"label": "sponsorshipAmount",
						"offset": 0,
						"slot": "2",
						"type": "t_uint256"
					}
				],
				"types": {
					"t_address": {
						"encoding": "inplace",
						"label": "address",
						"numberOfBytes": "20"
					},
					"t_uint256": {
						"encoding": "inplace",
						"label": "uint256",
						"numberOfBytes": "32"
					}
				}
			},
			"userdoc": {
				"kind": "user",
				"methods": {},
				"version": 1
			}
		}
	}
}