{
	"tema/EIP20Token.sol": {
		"EIP20Token": {
			"abi": [
				{
					"inputs": [
						{
							"internalType": "uint256",
							"name": "_initialAmount",
							"type": "uint256"
						},
						{
							"internalType": "string",
							"name": "_tokenName",
							"type": "string"
						},
						{
							"internalType": "uint8",
							"name": "_decimalUnits",
							"type": "uint8"
						},
						{
							"internalType": "string",
							"name": "_tokenSymbol",
							"type": "string"
						},
						{
							"internalType": "uint256",
							"name": "_tokenPrice",
							"type": "uint256"
						}
					],
					"stateMutability": "nonpayable",
					"type": "constructor"
				},
				{
					"anonymous": false,
					"inputs": [
						{
							"indexed": true,
							"internalType": "address",
							"name": "owner",
							"type": "address"
						},
						{
							"indexed": true,
							"internalType": "address",
							"name": "spender",
							"type": "address"
						},
						{
							"indexed": false,
							"internalType": "uint256",
							"name": "value",
							"type": "uint256"
						}
					],
					"name": "Approval",
					"type": "event"
				},
				{
					"anonymous": false,
					"inputs": [
						{
							"indexed": true,
							"internalType": "address",
							"name": "from",
							"type": "address"
						},
						{
							"indexed": true,
							"internalType": "address",
							"name": "to",
							"type": "address"
						},
						{
							"indexed": false,
							"internalType": "uint256",
							"name": "value",
							"type": "uint256"
						}
					],
					"name": "Transfer",
					"type": "event"
				},
				{
					"inputs": [
						{
							"internalType": "address",
							"name": "_owner",
							"type": "address"
						},
						{
							"internalType": "address",
							"name": "_spender",
							"type": "address"
						}
					],
					"name": "allowance",
					"outputs": [
						{
							"internalType": "uint256",
							"name": "remaining",
							"type": "uint256"
						}
					],
					"stateMutability": "view",
					"type": "function"
				},
				{
					"inputs": [
						{
							"internalType": "address",
							"name": "",
							"type": "address"
						},
						{
							"internalType": "address",
							"name": "",
							"type": "address"
						}
					],
					"name": "allowed",
					"outputs": [
						{
							"internalType": "uint256",
							"name": "",
							"type": "uint256"
						}
					],
					"stateMutability": "view",
					"type": "function"
				},
				{
					"inputs": [
						{
							"internalType": "address",
							"name": "_spender",
							"type": "address"
						},
						{
							"internalType": "uint256",
							"name": "_value",
							"type": "uint256"
						}
					],
					"name": "approve",
					"outputs": [
						{
							"internalType": "bool",
							"name": "success",
							"type": "bool"
						}
					],
					"stateMutability": "nonpayable",
					"type": "function"
				},
				{
					"inputs": [
						{
							"internalType": "address",
							"name": "_owner",
							"type": "address"
						}
					],
					"name": "balanceOf",
					"outputs": [
						{
							"internalType": "uint256",
							"name": "balance",
							"type": "uint256"
						}
					],
					"stateMutability": "view",
					"type": "function"
				},
				{
					"inputs": [
						{
							"internalType": "address",
							"name": "",
							"type": "address"
						}
					],
					"name": "balances",
					"outputs": [
						{
							"internalType": "uint256",
							"name": "",
							"type": "uint256"
						}
					],
					"stateMutability": "view",
					"type": "function"
				},
				{
					"inputs": [],
					"name": "decimals",
					"outputs": [
						{
							"internalType": "uint8",
							"name": "",
							"type": "uint8"
						}
					],
					"stateMutability": "view",
					"type": "function"
				},
				{
					"inputs": [],
					"name": "name",
					"outputs": [
						{
							"internalType": "string",
							"name": "",
							"type": "string"
						}
					],
					"stateMutability": "view",
					"type": "function"
				},
				{
					"inputs": [],
					"name": "owner",
					"outputs": [
						{
							"internalType": "address",
							"name": "",
							"type": "address"
						}
					],
					"stateMutability": "view",
					"type": "function"
				},
				{
					"inputs": [
						{
							"internalType": "uint256",
							"name": "amount",
							"type": "uint256"
						}
					],
					"name": "purchaseTokens",
					"outputs": [
						{
							"internalType": "bool",
							"name": "",
							"type": "bool"
						}
					],
					"stateMutability": "payable",
					"type": "function"
				},
				{
					"inputs": [
						{
							"internalType": "uint256",
							"name": "_newPrice",
							"type": "uint256"
						}
					],
					"name": "setTokenPrice",
					"outputs": [],
					"stateMutability": "nonpayable",
					"type": "function"
				},
				{
					"inputs": [],
					"name": "symbol",
					"outputs": [
						{
							"internalType": "string",
							"name": "",
							"type": "string"
						}
					],
					"stateMutability": "view",
					"type": "function"
				},
				{
					"inputs": [],
					"name": "tokenPrice",
					"outputs": [
						{
							"internalType": "uint256",
							"name": "",
							"type": "uint256"
						}
					],
					"stateMutability": "view",
					"type": "function"
				},
				{
					"inputs": [],
					"name": "totalSupply",
					"outputs": [
						{
							"internalType": "uint256",
							"name": "",
							"type": "uint256"
						}
					],
					"stateMutability": "view",
					"type": "function"
				},
				{
					"inputs": [
						{
							"internalType": "address",
							"name": "_to",
							"type": "address"
						},
						{
							"internalType": "uint256",
							"name": "_value",
							"type": "uint256"
						}
					],
					"name": "transfer",
					"outputs": [
						{
							"internalType": "bool",
							"name": "success",
							"type": "bool"
						}
					],
					"stateMutability": "nonpayable",
					"type": "function"
				},
				{
					"inputs": [
						{
							"internalType": "address",
							"name": "_from",
							"type": "address"
						},
						{
							"internalType": "address",
							"name": "_to",
							"type": "address"
						},
						{
							"internalType": "uint256",
							"name": "_value",
							"type": "uint256"
						}
					],
					"name": "transferFrom",
					"outputs": [
						{
							"internalType": "bool",
							"name": "success",
							"type": "bool"
						}
					],
					"stateMutability": "nonpayable",
					"type": "function"
				}
			],
			"devdoc": {
				"kind": "dev",
				"methods": {},
				"version": 1
			},
			"evm": {
				"assembly": "    /* \"tema/EIP20Token.sol\":62:3282  contract EIP20Token {... */\n  mstore(0x40, 0x80)\n    /* \"tema/EIP20Token.sol\":744:1177  constructor(... */\n  callvalue\n  dup1\n  iszero\n  tag_1\n  jumpi\n  0x00\n  dup1\n  revert\ntag_1:\n  pop\n  mload(0x40)\n  sub(codesize, bytecodeSize)\n  dup1\n  bytecodeSize\n  dup4\n  codecopy\n  dup2\n  dup2\n  add\n  0x40\n  mstore\n  dup2\n  add\n  swap1\n  tag_2\n  swap2\n  swap1\n  tag_3\n  jump\t// in\ntag_2:\n    /* \"tema/EIP20Token.sol\":947:957  msg.sender */\n  caller\n    /* \"tema/EIP20Token.sol\":939:944  owner */\n  0x05\n  0x01\n    /* \"tema/EIP20Token.sol\":939:957  owner = msg.sender */\n  0x0100\n  exp\n  dup2\n  sload\n  dup2\n  0xffffffffffffffffffffffffffffffffffffffff\n  mul\n  not\n  and\n  swap1\n  dup4\n  0xffffffffffffffffffffffffffffffffffffffff\n  and\n  mul\n  or\n  swap1\n  sstore\n  pop\n    /* \"tema/EIP20Token.sol\":982:996  _initialAmount */\n  dup5\n    /* \"tema/EIP20Token.sol\":968:979  totalSupply */\n  0x00\n    /* \"tema/EIP20Token.sol\":968:996  totalSupply = _initialAmount */\n  dup2\n  swap1\n  sstore\n  pop\n    /* \"tema/EIP20Token.sol\":1025:1039  _initialAmount */\n  dup5\n    /* \"tema/EIP20Token.sol\":1007:1015  balances */\n  0x01\n    /* \"tema/EIP20Token.sol\":1007:1022  balances[owner] */\n  0x00\n    /* \"tema/EIP20Token.sol\":1016:1021  owner */\n  0x05\n  0x01\n  swap1\n  sload\n  swap1\n  0x0100\n  exp\n  swap1\n  div\n  0xffffffffffffffffffffffffffffffffffffffff\n  and\n    /* \"tema/EIP20Token.sol\":1007:1022  balances[owner] */\n  0xffffffffffffffffffffffffffffffffffffffff\n  and\n  0xffffffffffffffffffffffffffffffffffffffff\n  and\n  dup2\n  mstore\n  0x20\n  add\n  swap1\n  dup2\n  mstore\n  0x20\n  add\n  0x00\n  keccak256\n    /* \"tema/EIP20Token.sol\":1007:1039  balances[owner] = _initialAmount */\n  dup2\n  swap1\n  sstore\n  pop\n    /* \"tema/EIP20Token.sol\":1057:1067  _tokenName */\n  dup4\n    /* \"tema/EIP20Token.sol\":1050:1054  name */\n  0x03\n    /* \"tema/EIP20Token.sol\":1050:1067  name = _tokenName */\n  swap1\n  dup2\n  tag_6\n  swap2\n  swap1\n  tag_7\n  jump\t// in\ntag_6:\n  pop\n    /* \"tema/EIP20Token.sol\":1087:1099  _tokenSymbol */\n  dup2\n    /* \"tema/EIP20Token.sol\":1078:1084  symbol */\n  0x04\n    /* \"tema/EIP20Token.sol\":1078:1099  symbol = _tokenSymbol */\n  swap1\n  dup2\n  tag_8\n  swap2\n  swap1\n  tag_7\n  jump\t// in\ntag_8:\n  pop\n    /* \"tema/EIP20Token.sol\":1121:1134  _decimalUnits */\n  dup3\n    /* \"tema/EIP20Token.sol\":1110:1118  decimals */\n  0x05\n  0x00\n    /* \"tema/EIP20Token.sol\":1110:1134  decimals = _decimalUnits */\n  0x0100\n  exp\n  dup2\n  sload\n  dup2\n  0xff\n  mul\n  not\n  and\n  swap1\n  dup4\n  0xff\n  and\n  mul\n  or\n  swap1\n  sstore\n  pop\n    /* \"tema/EIP20Token.sol\":1158:1169  _tokenPrice */\n  dup1\n    /* \"tema/EIP20Token.sol\":1145:1155  tokenPrice */\n  0x06\n    /* \"tema/EIP20Token.sol\":1145:1169  tokenPrice = _tokenPrice */\n  dup2\n  swap1\n  sstore\n  pop\n    /* \"tema/EIP20Token.sol\":744:1177  constructor(... */\n  pop\n  pop\n  pop\n  pop\n  pop\n    /* \"tema/EIP20Token.sol\":62:3282  contract EIP20Token {... */\n  jump(tag_9)\n    /* \"#utility.yul\":7:82   */\ntag_10:\n    /* \"#utility.yul\":40:46   */\n  0x00\n    /* \"#utility.yul\":73:75   */\n  0x40\n    /* \"#utility.yul\":67:76   */\n  mload\n    /* \"#utility.yul\":57:76   */\n  swap1\n  pop\n    /* \"#utility.yul\":7:82   */\n  swap1\n  jump\t// out\n    /* \"#utility.yul\":88:205   */\ntag_11:\n    /* \"#utility.yul\":197:198   */\n  0x00\n    /* \"#utility.yul\":194:195   */\n  dup1\n    /* \"#utility.yul\":187:199   */\n  revert\n    /* \"#utility.yul\":211:328   */\ntag_12:\n    /* \"#utility.yul\":320:321   */\n  0x00\n    /* \"#utility.yul\":317:318   */\n  dup1\n    /* \"#utility.yul\":310:322   */\n  revert\n    /* \"#utility.yul\":334:411   */\ntag_13:\n    /* \"#utility.yul\":371:378   */\n  0x00\n    /* \"#utility.yul\":400:405   */\n  dup2\n    /* \"#utility.yul\":389:405   */\n  swap1\n  pop\n    /* \"#utility.yul\":334:411   */\n  swap2\n  swap1\n  pop\n  jump\t// out\n    /* \"#utility.yul\":417:539   */\ntag_14:\n    /* \"#utility.yul\":490:514   */\n  tag_53\n    /* \"#utility.yul\":508:513   */\n  dup2\n    /* \"#utility.yul\":490:514   */\n  tag_13\n  jump\t// in\ntag_53:\n    /* \"#utility.yul\":483:488   */\n  dup2\n    /* \"#utility.yul\":480:515   */\n  eq\n    /* \"#utility.yul\":470:533   */\n  tag_54\n  jumpi\n    /* \"#utility.yul\":529:530   */\n  0x00\n    /* \"#utility.yul\":526:527   */\n  dup1\n    /* \"#utility.yul\":519:531   */\n  revert\n    /* \"#utility.yul\":470:533   */\ntag_54:\n    /* \"#utility.yul\":417:539   */\n  pop\n  jump\t// out\n    /* \"#utility.yul\":545:688   */\ntag_15:\n    /* \"#utility.yul\":602:607   */\n  0x00\n    /* \"#utility.yul\":633:639   */\n  dup2\n    /* \"#utility.yul\":627:640   */\n  mload\n    /* \"#utility.yul\":618:640   */\n  swap1\n  pop\n    /* \"#utility.yul\":649:682   */\n  tag_56\n    /* \"#utility.yul\":676:681   */\n  dup2\n    /* \"#utility.yul\":649:682   */\n  tag_14\n  jump\t// in\ntag_56:\n    /* \"#utility.yul\":545:688   */\n  swap3\n  swap2\n  pop\n  pop\n  jump\t// out\n    /* \"#utility.yul\":694:811   */\ntag_16:\n    /* \"#utility.yul\":803:804   */\n  0x00\n    /* \"#utility.yul\":800:801   */\n  dup1\n    /* \"#utility.yul\":793:805   */\n  revert\n    /* \"#utility.yul\":817:934   */\ntag_17:\n    /* \"#utility.yul\":926:927   */\n  0x00\n    /* \"#utility.yul\":923:924   */\n  dup1\n    /* \"#utility.yul\":916:928   */\n  revert\n    /* \"#utility.yul\":940:1042   */\ntag_18:\n    /* \"#utility.yul\":981:987   */\n  0x00\n    /* \"#utility.yul\":1032:1034   */\n  0x1f\n    /* \"#utility.yul\":1028:1035   */\n  not\n    /* \"#utility.yul\":1023:1025   */\n  0x1f\n    /* \"#utility.yul\":1016:1021   */\n  dup4\n    /* \"#utility.yul\":1012:1026   */\n  add\n    /* \"#utility.yul\":1008:1036   */\n  and\n    /* \"#utility.yul\":998:1036   */\n  swap1\n  pop\n    /* \"#utility.yul\":940:1042   */\n  swap2\n  swap1\n  pop\n  jump\t// out\n    /* \"#utility.yul\":1048:1228   */\ntag_19:\n    /* \"#utility.yul\":1096:1173   */\n  0x4e487b7100000000000000000000000000000000000000000000000000000000\n    /* \"#utility.yul\":1093:1094   */\n  0x00\n    /* \"#utility.yul\":1086:1174   */\n  mstore\n    /* \"#utility.yul\":1193:1197   */\n  0x41\n    /* \"#utility.yul\":1190:1191   */\n  0x04\n    /* \"#utility.yul\":1183:1198   */\n  mstore\n    /* \"#utility.yul\":1217:1221   */\n  0x24\n    /* \"#utility.yul\":1214:1215   */\n  0x00\n    /* \"#utility.yul\":1207:1222   */\n  revert\n    /* \"#utility.yul\":1234:1515   */\ntag_20:\n    /* \"#utility.yul\":1317:1344   */\n  tag_62\n    /* \"#utility.yul\":1339:1343   */\n  dup3\n    /* \"#utility.yul\":1317:1344   */\n  tag_18\n  jump\t// in\ntag_62:\n    /* \"#utility.yul\":1309:1315   */\n  dup2\n    /* \"#utility.yul\":1305:1345   */\n  add\n    /* \"#utility.yul\":1447:1453   */\n  dup2\n    /* \"#utility.yul\":1435:1445   */\n  dup2\n    /* \"#utility.yul\":1432:1454   */\n  lt\n    /* \"#utility.yul\":1411:1429   */\n  0xffffffffffffffff\n    /* \"#utility.yul\":1399:1409   */\n  dup3\n    /* \"#utility.yul\":1396:1430   */\n  gt\n    /* \"#utility.yul\":1393:1455   */\n  or\n    /* \"#utility.yul\":1390:1478   */\n  iszero\n  tag_63\n  jumpi\n    /* \"#utility.yul\":1458:1476   */\n  tag_64\n  tag_19\n  jump\t// in\ntag_64:\n    /* \"#utility.yul\":1390:1478   */\ntag_63:\n    /* \"#utility.yul\":1498:1508   */\n  dup1\n    /* \"#utility.yul\":1494:1496   */\n  0x40\n    /* \"#utility.yul\":1487:1509   */\n  mstore\n    /* \"#utility.yul\":1277:1515   */\n  pop\n    /* \"#utility.yul\":1234:1515   */\n  pop\n  pop\n  jump\t// out\n    /* \"#utility.yul\":1521:1650   */\ntag_21:\n    /* \"#utility.yul\":1555:1561   */\n  0x00\n    /* \"#utility.yul\":1582:1602   */\n  tag_66\n  tag_10\n  jump\t// in\ntag_66:\n    /* \"#utility.yul\":1572:1602   */\n  swap1\n  pop\n    /* \"#utility.yul\":1611:1644   */\n  tag_67\n    /* \"#utility.yul\":1639:1643   */\n  dup3\n    /* \"#utility.yul\":1631:1637   */\n  dup3\n    /* \"#utility.yul\":1611:1644   */\n  tag_20\n  jump\t// in\ntag_67:\n    /* \"#utility.yul\":1521:1650   */\n  swap2\n  swap1\n  pop\n  jump\t// out\n    /* \"#utility.yul\":1656:1964   */\ntag_22:\n    /* \"#utility.yul\":1718:1722   */\n  0x00\n    /* \"#utility.yul\":1808:1826   */\n  0xffffffffffffffff\n    /* \"#utility.yul\":1800:1806   */\n  dup3\n    /* \"#utility.yul\":1797:1827   */\n  gt\n    /* \"#utility.yul\":1794:1850   */\n  iszero\n  tag_69\n  jumpi\n    /* \"#utility.yul\":1830:1848   */\n  tag_70\n  tag_19\n  jump\t// in\ntag_70:\n    /* \"#utility.yul\":1794:1850   */\ntag_69:\n    /* \"#utility.yul\":1868:1897   */\n  tag_71\n    /* \"#utility.yul\":1890:1896   */\n  dup3\n    /* \"#utility.yul\":1868:1897   */\n  tag_18\n  jump\t// in\ntag_71:\n    /* \"#utility.yul\":1860:1897   */\n  swap1\n  pop\n    /* \"#utility.yul\":1952:1956   */\n  0x20\n    /* \"#utility.yul\":1946:1950   */\n  dup2\n    /* \"#utility.yul\":1942:1957   */\n  add\n    /* \"#utility.yul\":1934:1957   */\n  swap1\n  pop\n    /* \"#utility.yul\":1656:1964   */\n  swap2\n  swap1\n  pop\n  jump\t// out\n    /* \"#utility.yul\":1970:2109   */\ntag_23:\n    /* \"#utility.yul\":2059:2065   */\n  dup3\n    /* \"#utility.yul\":2054:2057   */\n  dup2\n    /* \"#utility.yul\":2049:2052   */\n  dup4\n    /* \"#utility.yul\":2043:2066   */\n  mcopy\n    /* \"#utility.yul\":2100:2101   */\n  0x00\n    /* \"#utility.yul\":2091:2097   */\n  dup4\n    /* \"#utility.yul\":2086:2089   */\n  dup4\n    /* \"#utility.yul\":2082:2098   */\n  add\n    /* \"#utility.yul\":2075:2102   */\n  mstore\n    /* \"#utility.yul\":1970:2109   */\n  pop\n  pop\n  pop\n  jump\t// out\n    /* \"#utility.yul\":2115:2549   */\ntag_24:\n    /* \"#utility.yul\":2204:2209   */\n  0x00\n    /* \"#utility.yul\":2229:2295   */\n  tag_74\n    /* \"#utility.yul\":2245:2294   */\n  tag_75\n    /* \"#utility.yul\":2287:2293   */\n  dup5\n    /* \"#utility.yul\":2245:2294   */\n  tag_22\n  jump\t// in\ntag_75:\n    /* \"#utility.yul\":2229:2295   */\n  tag_21\n  jump\t// in\ntag_74:\n    /* \"#utility.yul\":2220:2295   */\n  swap1\n  pop\n    /* \"#utility.yul\":2318:2324   */\n  dup3\n    /* \"#utility.yul\":2311:2316   */\n  dup2\n    /* \"#utility.yul\":2304:2325   */\n  mstore\n    /* \"#utility.yul\":2356:2360   */\n  0x20\n    /* \"#utility.yul\":2349:2354   */\n  dup2\n    /* \"#utility.yul\":2345:2361   */\n  add\n    /* \"#utility.yul\":2394:2397   */\n  dup5\n    /* \"#utility.yul\":2385:2391   */\n  dup5\n    /* \"#utility.yul\":2380:2383   */\n  dup5\n    /* \"#utility.yul\":2376:2392   */\n  add\n    /* \"#utility.yul\":2373:2398   */\n  gt\n    /* \"#utility.yul\":2370:2482   */\n  iszero\n  tag_76\n  jumpi\n    /* \"#utility.yul\":2401:2480   */\n  tag_77\n  tag_17\n  jump\t// in\ntag_77:\n    /* \"#utility.yul\":2370:2482   */\ntag_76:\n    /* \"#utility.yul\":2491:2543   */\n  tag_78\n    /* \"#utility.yul\":2536:2542   */\n  dup5\n    /* \"#utility.yul\":2531:2534   */\n  dup3\n    /* \"#utility.yul\":2526:2529   */\n  dup6\n    /* \"#utility.yul\":2491:2543   */\n  tag_23\n  jump\t// in\ntag_78:\n    /* \"#utility.yul\":2210:2549   */\n  pop\n    /* \"#utility.yul\":2115:2549   */\n  swap4\n  swap3\n  pop\n  pop\n  pop\n  jump\t// out\n    /* \"#utility.yul\":2569:2924   */\ntag_25:\n    /* \"#utility.yul\":2636:2641   */\n  0x00\n    /* \"#utility.yul\":2685:2688   */\n  dup3\n    /* \"#utility.yul\":2678:2682   */\n  0x1f\n    /* \"#utility.yul\":2670:2676   */\n  dup4\n    /* \"#utility.yul\":2666:2683   */\n  add\n    /* \"#utility.yul\":2662:2689   */\n  slt\n    /* \"#utility.yul\":2652:2774   */\n  tag_80\n  jumpi\n    /* \"#utility.yul\":2693:2772   */\n  tag_81\n  tag_16\n  jump\t// in\ntag_81:\n    /* \"#utility.yul\":2652:2774   */\ntag_80:\n    /* \"#utility.yul\":2803:2809   */\n  dup2\n    /* \"#utility.yul\":2797:2810   */\n  mload\n    /* \"#utility.yul\":2828:2918   */\n  tag_82\n    /* \"#utility.yul\":2914:2917   */\n  dup5\n    /* \"#utility.yul\":2906:2912   */\n  dup3\n    /* \"#utility.yul\":2899:2903   */\n  0x20\n    /* \"#utility.yul\":2891:2897   */\n  dup7\n    /* \"#utility.yul\":2887:2904   */\n  add\n    /* \"#utility.yul\":2828:2918   */\n  tag_24\n  jump\t// in\ntag_82:\n    /* \"#utility.yul\":2819:2918   */\n  swap2\n  pop\n    /* \"#utility.yul\":2642:2924   */\n  pop\n    /* \"#utility.yul\":2569:2924   */\n  swap3\n  swap2\n  pop\n  pop\n  jump\t// out\n    /* \"#utility.yul\":2930:3016   */\ntag_26:\n    /* \"#utility.yul\":2965:2972   */\n  0x00\n    /* \"#utility.yul\":3005:3009   */\n  0xff\n    /* \"#utility.yul\":2998:3003   */\n  dup3\n    /* \"#utility.yul\":2994:3010   */\n  and\n    /* \"#utility.yul\":2983:3010   */\n  swap1\n  pop\n    /* \"#utility.yul\":2930:3016   */\n  swap2\n  swap1\n  pop\n  jump\t// out\n    /* \"#utility.yul\":3022:3140   */\ntag_27:\n    /* \"#utility.yul\":3093:3115   */\n  tag_85\n    /* \"#utility.yul\":3109:3114   */\n  dup2\n    /* \"#utility.yul\":3093:3115   */\n  tag_26\n  jump\t// in\ntag_85:\n    /* \"#utility.yul\":3086:3091   */\n  dup2\n    /* \"#utility.yul\":3083:3116   */\n  eq\n    /* \"#utility.yul\":3073:3134   */\n  tag_86\n  jumpi\n    /* \"#utility.yul\":3130:3131   */\n  0x00\n    /* \"#utility.yul\":3127:3128   */\n  dup1\n    /* \"#utility.yul\":3120:3132   */\n  revert\n    /* \"#utility.yul\":3073:3134   */\ntag_86:\n    /* \"#utility.yul\":3022:3140   */\n  pop\n  jump\t// out\n    /* \"#utility.yul\":3146:3285   */\ntag_28:\n    /* \"#utility.yul\":3201:3206   */\n  0x00\n    /* \"#utility.yul\":3232:3238   */\n  dup2\n    /* \"#utility.yul\":3226:3239   */\n  mload\n    /* \"#utility.yul\":3217:3239   */\n  swap1\n  pop\n    /* \"#utility.yul\":3248:3279   */\n  tag_88\n    /* \"#utility.yul\":3273:3278   */\n  dup2\n    /* \"#utility.yul\":3248:3279   */\n  tag_27\n  jump\t// in\ntag_88:\n    /* \"#utility.yul\":3146:3285   */\n  swap3\n  swap2\n  pop\n  pop\n  jump\t// out\n    /* \"#utility.yul\":3291:4610   */\ntag_3:\n    /* \"#utility.yul\":3415:3421   */\n  0x00\n    /* \"#utility.yul\":3423:3429   */\n  dup1\n    /* \"#utility.yul\":3431:3437   */\n  0x00\n    /* \"#utility.yul\":3439:3445   */\n  dup1\n    /* \"#utility.yul\":3447:3453   */\n  0x00\n    /* \"#utility.yul\":3496:3499   */\n  0xa0\n    /* \"#utility.yul\":3484:3493   */\n  dup7\n    /* \"#utility.yul\":3475:3482   */\n  dup9\n    /* \"#utility.yul\":3471:3494   */\n  sub\n    /* \"#utility.yul\":3467:3500   */\n  slt\n    /* \"#utility.yul\":3464:3584   */\n  iszero\n  tag_90\n  jumpi\n    /* \"#utility.yul\":3503:3582   */\n  tag_91\n  tag_11\n  jump\t// in\ntag_91:\n    /* \"#utility.yul\":3464:3584   */\ntag_90:\n    /* \"#utility.yul\":3623:3624   */\n  0x00\n    /* \"#utility.yul\":3648:3712   */\n  tag_92\n    /* \"#utility.yul\":3704:3711   */\n  dup9\n    /* \"#utility.yul\":3695:3701   */\n  dup3\n    /* \"#utility.yul\":3684:3693   */\n  dup10\n    /* \"#utility.yul\":3680:3702   */\n  add\n    /* \"#utility.yul\":3648:3712   */\n  tag_15\n  jump\t// in\ntag_92:\n    /* \"#utility.yul\":3638:3712   */\n  swap6\n  pop\n    /* \"#utility.yul\":3594:3722   */\n  pop\n    /* \"#utility.yul\":3782:3784   */\n  0x20\n    /* \"#utility.yul\":3771:3780   */\n  dup7\n    /* \"#utility.yul\":3767:3785   */\n  add\n    /* \"#utility.yul\":3761:3786   */\n  mload\n    /* \"#utility.yul\":3813:3831   */\n  0xffffffffffffffff\n    /* \"#utility.yul\":3805:3811   */\n  dup2\n    /* \"#utility.yul\":3802:3832   */\n  gt\n    /* \"#utility.yul\":3799:3916   */\n  iszero\n  tag_93\n  jumpi\n    /* \"#utility.yul\":3835:3914   */\n  tag_94\n  tag_12\n  jump\t// in\ntag_94:\n    /* \"#utility.yul\":3799:3916   */\ntag_93:\n    /* \"#utility.yul\":3940:4014   */\n  tag_95\n    /* \"#utility.yul\":4006:4013   */\n  dup9\n    /* \"#utility.yul\":3997:4003   */\n  dup3\n    /* \"#utility.yul\":3986:3995   */\n  dup10\n    /* \"#utility.yul\":3982:4004   */\n  add\n    /* \"#utility.yul\":3940:4014   */\n  tag_25\n  jump\t// in\ntag_95:\n    /* \"#utility.yul\":3930:4014   */\n  swap5\n  pop\n    /* \"#utility.yul\":3732:4024   */\n  pop\n    /* \"#utility.yul\":4063:4065   */\n  0x40\n    /* \"#utility.yul\":4089:4151   */\n  tag_96\n    /* \"#utility.yul\":4143:4150   */\n  dup9\n    /* \"#utility.yul\":4134:4140   */\n  dup3\n    /* \"#utility.yul\":4123:4132   */\n  dup10\n    /* \"#utility.yul\":4119:4141   */\n  add\n    /* \"#utility.yul\":4089:4151   */\n  tag_28\n  jump\t// in\ntag_96:\n    /* \"#utility.yul\":4079:4151   */\n  swap4\n  pop\n    /* \"#utility.yul\":4034:4161   */\n  pop\n    /* \"#utility.yul\":4221:4223   */\n  0x60\n    /* \"#utility.yul\":4210:4219   */\n  dup7\n    /* \"#utility.yul\":4206:4224   */\n  add\n    /* \"#utility.yul\":4200:4225   */\n  mload\n    /* \"#utility.yul\":4252:4270   */\n  0xffffffffffffffff\n    /* \"#utility.yul\":4244:4250   */\n  dup2\n    /* \"#utility.yul\":4241:4271   */\n  gt\n    /* \"#utility.yul\":4238:4355   */\n  iszero\n  tag_97\n  jumpi\n    /* \"#utility.yul\":4274:4353   */\n  tag_98\n  tag_12\n  jump\t// in\ntag_98:\n    /* \"#utility.yul\":4238:4355   */\ntag_97:\n    /* \"#utility.yul\":4379:4453   */\n  tag_99\n    /* \"#utility.yul\":4445:4452   */\n  dup9\n    /* \"#utility.yul\":4436:4442   */\n  dup3\n    /* \"#utility.yul\":4425:4434   */\n  dup10\n    /* \"#utility.yul\":4421:4443   */\n  add\n    /* \"#utility.yul\":4379:4453   */\n  tag_25\n  jump\t// in\ntag_99:\n    /* \"#utility.yul\":4369:4453   */\n  swap3\n  pop\n    /* \"#utility.yul\":4171:4463   */\n  pop\n    /* \"#utility.yul\":4502:4505   */\n  0x80\n    /* \"#utility.yul\":4529:4593   */\n  tag_100\n    /* \"#utility.yul\":4585:4592   */\n  dup9\n    /* \"#utility.yul\":4576:4582   */\n  dup3\n    /* \"#utility.yul\":4565:4574   */\n  dup10\n    /* \"#utility.yul\":4561:4583   */\n  add\n    /* \"#utility.yul\":4529:4593   */\n  tag_15\n  jump\t// in\ntag_100:\n    /* \"#utility.yul\":4519:4593   */\n  swap2\n  pop\n    /* \"#utility.yul\":4473:4603   */\n  pop\n    /* \"#utility.yul\":3291:4610   */\n  swap3\n  swap6\n  pop\n  swap3\n  swap6\n  swap1\n  swap4\n  pop\n  jump\t// out\n    /* \"#utility.yul\":4616:4715   */\ntag_29:\n    /* \"#utility.yul\":4668:4674   */\n  0x00\n    /* \"#utility.yul\":4702:4707   */\n  dup2\n    /* \"#utility.yul\":4696:4708   */\n  mload\n    /* \"#utility.yul\":4686:4708   */\n  swap1\n  pop\n    /* \"#utility.yul\":4616:4715   */\n  swap2\n  swap1\n  pop\n  jump\t// out\n    /* \"#utility.yul\":4721:4901   */\ntag_30:\n    /* \"#utility.yul\":4769:4846   */\n  0x4e487b7100000000000000000000000000000000000000000000000000000000\n    /* \"#utility.yul\":4766:4767   */\n  0x00\n    /* \"#utility.yul\":4759:4847   */\n  mstore\n    /* \"#utility.yul\":4866:4870   */\n  0x22\n    /* \"#utility.yul\":4863:4864   */\n  0x04\n    /* \"#utility.yul\":4856:4871   */\n  mstore\n    /* \"#utility.yul\":4890:4894   */\n  0x24\n    /* \"#utility.yul\":4887:4888   */\n  0x00\n    /* \"#utility.yul\":4880:4895   */\n  revert\n    /* \"#utility.yul\":4907:5227   */\ntag_31:\n    /* \"#utility.yul\":4951:4957   */\n  0x00\n    /* \"#utility.yul\":4988:4989   */\n  0x02\n    /* \"#utility.yul\":4982:4986   */\n  dup3\n    /* \"#utility.yul\":4978:4990   */\n  div\n    /* \"#utility.yul\":4968:4990   */\n  swap1\n  pop\n    /* \"#utility.yul\":5035:5036   */\n  0x01\n    /* \"#utility.yul\":5029:5033   */\n  dup3\n    /* \"#utility.yul\":5025:5037   */\n  and\n    /* \"#utility.yul\":5056:5074   */\n  dup1\n    /* \"#utility.yul\":5046:5127   */\n  tag_104\n  jumpi\n    /* \"#utility.yul\":5112:5116   */\n  0x7f\n    /* \"#utility.yul\":5104:5110   */\n  dup3\n    /* \"#utility.yul\":5100:5117   */\n  and\n    /* \"#utility.yul\":5090:5117   */\n  swap2\n  pop\n    /* \"#utility.yul\":5046:5127   */\ntag_104:\n    /* \"#utility.yul\":5174:5176   */\n  0x20\n    /* \"#utility.yul\":5166:5172   */\n  dup3\n    /* \"#utility.yul\":5163:5177   */\n  lt\n    /* \"#utility.yul\":5143:5161   */\n  dup2\n    /* \"#utility.yul\":5140:5178   */\n  sub\n    /* \"#utility.yul\":5137:5221   */\n  tag_105\n  jumpi\n    /* \"#utility.yul\":5193:5211   */\n  tag_106\n  tag_30\n  jump\t// in\ntag_106:\n    /* \"#utility.yul\":5137:5221   */\ntag_105:\n    /* \"#utility.yul\":4958:5227   */\n  pop\n    /* \"#utility.yul\":4907:5227   */\n  swap2\n  swap1\n  pop\n  jump\t// out\n    /* \"#utility.yul\":5233:5374   */\ntag_32:\n    /* \"#utility.yul\":5282:5286   */\n  0x00\n    /* \"#utility.yul\":5305:5308   */\n  dup2\n    /* \"#utility.yul\":5297:5308   */\n  swap1\n  pop\n    /* \"#utility.yul\":5328:5331   */\n  dup2\n    /* \"#utility.yul\":5325:5326   */\n  0x00\n    /* \"#utility.yul\":5318:5332   */\n  mstore\n    /* \"#utility.yul\":5362:5366   */\n  0x20\n    /* \"#utility.yul\":5359:5360   */\n  0x00\n    /* \"#utility.yul\":5349:5367   */\n  keccak256\n    /* \"#utility.yul\":5341:5367   */\n  swap1\n  pop\n    /* \"#utility.yul\":5233:5374   */\n  swap2\n  swap1\n  pop\n  jump\t// out\n    /* \"#utility.yul\":5380:5473   */\ntag_33:\n    /* \"#utility.yul\":5417:5423   */\n  0x00\n    /* \"#utility.yul\":5464:5466   */\n  0x20\n    /* \"#utility.yul\":5459:5461   */\n  0x1f\n    /* \"#utility.yul\":5452:5457   */\n  dup4\n    /* \"#utility.yul\":5448:5462   */\n  add\n    /* \"#utility.yul\":5444:5467   */\n  div\n    /* \"#utility.yul\":5434:5467   */\n  swap1\n  pop\n    /* \"#utility.yul\":5380:5473   */\n  swap2\n  swap1\n  pop\n  jump\t// out\n    /* \"#utility.yul\":5479:5586   */\ntag_34:\n    /* \"#utility.yul\":5523:5531   */\n  0x00\n    /* \"#utility.yul\":5573:5578   */\n  dup3\n    /* \"#utility.yul\":5567:5571   */\n  dup3\n    /* \"#utility.yul\":5563:5579   */\n  shl\n    /* \"#utility.yul\":5542:5579   */\n  swap1\n  pop\n    /* \"#utility.yul\":5479:5586   */\n  swap3\n  swap2\n  pop\n  pop\n  jump\t// out\n    /* \"#utility.yul\":5592:5985   */\ntag_35:\n    /* \"#utility.yul\":5661:5667   */\n  0x00\n    /* \"#utility.yul\":5711:5712   */\n  0x08\n    /* \"#utility.yul\":5699:5709   */\n  dup4\n    /* \"#utility.yul\":5695:5713   */\n  mul\n    /* \"#utility.yul\":5734:5831   */\n  tag_111\n    /* \"#utility.yul\":5764:5830   */\n  0xffffffffffffffffffffffffffffffffffffffffffffffffffffffffffffffff\n    /* \"#utility.yul\":5753:5762   */\n  dup3\n    /* \"#utility.yul\":5734:5831   */\n  tag_34\n  jump\t// in\ntag_111:\n    /* \"#utility.yul\":5852:5891   */\n  tag_112\n    /* \"#utility.yul\":5882:5890   */\n  dup7\n    /* \"#utility.yul\":5871:5880   */\n  dup4\n    /* \"#utility.yul\":5852:5891   */\n  tag_34\n  jump\t// in\ntag_112:\n    /* \"#utility.yul\":5840:5891   */\n  swap6\n  pop\n    /* \"#utility.yul\":5924:5928   */\n  dup1\n    /* \"#utility.yul\":5920:5929   */\n  not\n    /* \"#utility.yul\":5913:5918   */\n  dup5\n    /* \"#utility.yul\":5909:5930   */\n  and\n    /* \"#utility.yul\":5900:5930   */\n  swap4\n  pop\n    /* \"#utility.yul\":5973:5977   */\n  dup1\n    /* \"#utility.yul\":5963:5971   */\n  dup7\n    /* \"#utility.yul\":5959:5978   */\n  and\n    /* \"#utility.yul\":5952:5957   */\n  dup5\n    /* \"#utility.yul\":5949:5979   */\n  or\n    /* \"#utility.yul\":5939:5979   */\n  swap3\n  pop\n    /* \"#utility.yul\":5668:5985   */\n  pop\n  pop\n    /* \"#utility.yul\":5592:5985   */\n  swap4\n  swap3\n  pop\n  pop\n  pop\n  jump\t// out\n    /* \"#utility.yul\":5991:6051   */\ntag_36:\n    /* \"#utility.yul\":6019:6022   */\n  0x00\n    /* \"#utility.yul\":6040:6045   */\n  dup2\n    /* \"#utility.yul\":6033:6045   */\n  swap1\n  pop\n    /* \"#utility.yul\":5991:6051   */\n  swap2\n  swap1\n  pop\n  jump\t// out\n    /* \"#utility.yul\":6057:6199   */\ntag_37:\n    /* \"#utility.yul\":6107:6116   */\n  0x00\n    /* \"#utility.yul\":6140:6193   */\n  tag_115\n    /* \"#utility.yul\":6158:6192   */\n  tag_116\n    /* \"#utility.yul\":6167:6191   */\n  tag_117\n    /* \"#utility.yul\":6185:6190   */\n  dup5\n    /* \"#utility.yul\":6167:6191   */\n  tag_13\n  jump\t// in\ntag_117:\n    /* \"#utility.yul\":6158:6192   */\n  tag_36\n  jump\t// in\ntag_116:\n    /* \"#utility.yul\":6140:6193   */\n  tag_13\n  jump\t// in\ntag_115:\n    /* \"#utility.yul\":6127:6193   */\n  swap1\n  pop\n    /* \"#utility.yul\":6057:6199   */\n  swap2\n  swap1\n  pop\n  jump\t// out\n    /* \"#utility.yul\":6205:6280   */\ntag_38:\n    /* \"#utility.yul\":6248:6251   */\n  0x00\n    /* \"#utility.yul\":6269:6274   */\n  dup2\n    /* \"#utility.yul\":6262:6274   */\n  swap1\n  pop\n    /* \"#utility.yul\":6205:6280   */\n  swap2\n  swap1\n  pop\n  jump\t// out\n    /* \"#utility.yul\":6286:6555   */\ntag_39:\n    /* \"#utility.yul\":6396:6435   */\n  tag_120\n    /* \"#utility.yul\":6427:6434   */\n  dup4\n    /* \"#utility.yul\":6396:6435   */\n  tag_37\n  jump\t// in\ntag_120:\n    /* \"#utility.yul\":6457:6548   */\n  tag_121\n    /* \"#utility.yul\":6506:6547   */\n  tag_122\n    /* \"#utility.yul\":6530:6546   */\n  dup3\n    /* \"#utility.yul\":6506:6547   */\n  tag_38\n  jump\t// in\ntag_122:\n    /* \"#utility.yul\":6498:6504   */\n  dup5\n    /* \"#utility.yul\":6491:6495   */\n  dup5\n    /* \"#utility.yul\":6485:6496   */\n  sload\n    /* \"#utility.yul\":6457:6548   */\n  tag_35\n  jump\t// in\ntag_121:\n    /* \"#utility.yul\":6451:6455   */\n  dup3\n    /* \"#utility.yul\":6444:6549   */\n  sstore\n    /* \"#utility.yul\":6362:6555   */\n  pop\n    /* \"#utility.yul\":6286:6555   */\n  pop\n  pop\n  pop\n  jump\t// out\n    /* \"#utility.yul\":6561:6634   */\ntag_40:\n    /* \"#utility.yul\":6606:6609   */\n  0x00\n    /* \"#utility.yul\":6561:6634   */\n  swap1\n  jump\t// out\n    /* \"#utility.yul\":6640:6829   */\ntag_41:\n    /* \"#utility.yul\":6717:6749   */\n  tag_125\n  tag_40\n  jump\t// in\ntag_125:\n    /* \"#utility.yul\":6758:6823   */\n  tag_126\n    /* \"#utility.yul\":6816:6822   */\n  dup2\n    /* \"#utility.yul\":6808:6814   */\n  dup5\n    /* \"#utility.yul\":6802:6806   */\n  dup5\n    /* \"#utility.yul\":6758:6823   */\n  tag_39\n  jump\t// in\ntag_126:\n    /* \"#utility.yul\":6693:6829   */\n  pop\n    /* \"#utility.yul\":6640:6829   */\n  pop\n  pop\n  jump\t// out\n    /* \"#utility.yul\":6835:7021   */\ntag_42:\n    /* \"#utility.yul\":6895:7015   */\ntag_128:\n    /* \"#utility.yul\":6912:6915   */\n  dup2\n    /* \"#utility.yul\":6905:6910   */\n  dup2\n    /* \"#utility.yul\":6902:6916   */\n  lt\n    /* \"#utility.yul\":6895:7015   */\n  iszero\n  tag_130\n  jumpi\n    /* \"#utility.yul\":6966:7005   */\n  tag_131\n    /* \"#utility.yul\":7003:7004   */\n  0x00\n    /* \"#utility.yul\":6996:7001   */\n  dup3\n    /* \"#utility.yul\":6966:7005   */\n  tag_41\n  jump\t// in\ntag_131:\n    /* \"#utility.yul\":6939:6940   */\n  0x01\n    /* \"#utility.yul\":6932:6937   */\n  dup2\n    /* \"#utility.yul\":6928:6941   */\n  add\n    /* \"#utility.yul\":6919:6941   */\n  swap1\n  pop\n    /* \"#utility.yul\":6895:7015   */\n  jump(tag_128)\ntag_130:\n    /* \"#utility.yul\":6835:7021   */\n  pop\n  pop\n  jump\t// out\n    /* \"#utility.yul\":7027:7570   */\ntag_43:\n    /* \"#utility.yul\":7128:7130   */\n  0x1f\n    /* \"#utility.yul\":7123:7126   */\n  dup3\n    /* \"#utility.yul\":7120:7131   */\n  gt\n    /* \"#utility.yul\":7117:7563   */\n  iszero\n  tag_133\n  jumpi\n    /* \"#utility.yul\":7162:7200   */\n  tag_134\n    /* \"#utility.yul\":7194:7199   */\n  dup2\n    /* \"#utility.yul\":7162:7200   */\n  tag_32\n  jump\t// in\ntag_134:\n    /* \"#utility.yul\":7246:7275   */\n  tag_135\n    /* \"#utility.yul\":7264:7274   */\n  dup5\n    /* \"#utility.yul\":7246:7275   */\n  tag_33\n  jump\t// in\ntag_135:\n    /* \"#utility.yul\":7236:7244   */\n  dup2\n    /* \"#utility.yul\":7232:7276   */\n  add\n    /* \"#utility.yul\":7429:7431   */\n  0x20\n    /* \"#utility.yul\":7417:7427   */\n  dup6\n    /* \"#utility.yul\":7414:7432   */\n  lt\n    /* \"#utility.yul\":7411:7460   */\n  iszero\n  tag_136\n  jumpi\n    /* \"#utility.yul\":7450:7458   */\n  dup2\n    /* \"#utility.yul\":7435:7458   */\n  swap1\n  pop\n    /* \"#utility.yul\":7411:7460   */\ntag_136:\n    /* \"#utility.yul\":7473:7553   */\n  tag_137\n    /* \"#utility.yul\":7529:7551   */\n  tag_138\n    /* \"#utility.yul\":7547:7550   */\n  dup6\n    /* \"#utility.yul\":7529:7551   */\n  tag_33\n  jump\t// in\ntag_138:\n    /* \"#utility.yul\":7519:7527   */\n  dup4\n    /* \"#utility.yul\":7515:7552   */\n  add\n    /* \"#utility.yul\":7502:7513   */\n  dup3\n    /* \"#utility.yul\":7473:7553   */\n  tag_42\n  jump\t// in\ntag_137:\n    /* \"#utility.yul\":7132:7563   */\n  pop\n  pop\n    /* \"#utility.yul\":7117:7563   */\ntag_133:\n    /* \"#utility.yul\":7027:7570   */\n  pop\n  pop\n  pop\n  jump\t// out\n    /* \"#utility.yul\":7576:7693   */\ntag_44:\n    /* \"#utility.yul\":7630:7638   */\n  0x00\n    /* \"#utility.yul\":7680:7685   */\n  dup3\n    /* \"#utility.yul\":7674:7678   */\n  dup3\n    /* \"#utility.yul\":7670:7686   */\n  shr\n    /* \"#utility.yul\":7649:7686   */\n  swap1\n  pop\n    /* \"#utility.yul\":7576:7693   */\n  swap3\n  swap2\n  pop\n  pop\n  jump\t// out\n    /* \"#utility.yul\":7699:7868   */\ntag_45:\n    /* \"#utility.yul\":7743:7749   */\n  0x00\n    /* \"#utility.yul\":7776:7827   */\n  tag_141\n    /* \"#utility.yul\":7824:7825   */\n  0x00\n    /* \"#utility.yul\":7820:7826   */\n  not\n    /* \"#utility.yul\":7812:7817   */\n  dup5\n    /* \"#utility.yul\":7809:7810   */\n  0x08\n    /* \"#utility.yul\":7805:7818   */\n  mul\n    /* \"#utility.yul\":7776:7827   */\n  tag_44\n  jump\t// in\ntag_141:\n    /* \"#utility.yul\":7772:7828   */\n  not\n    /* \"#utility.yul\":7857:7861   */\n  dup1\n    /* \"#utility.yul\":7851:7855   */\n  dup4\n    /* \"#utility.yul\":7847:7862   */\n  and\n    /* \"#utility.yul\":7837:7862   */\n  swap2\n  pop\n    /* \"#utility.yul\":7750:7868   */\n  pop\n    /* \"#utility.yul\":7699:7868   */\n  swap3\n  swap2\n  pop\n  pop\n  jump\t// out\n    /* \"#utility.yul\":7873:8168   */\ntag_46:\n    /* \"#utility.yul\":7949:7953   */\n  0x00\n    /* \"#utility.yul\":8095:8124   */\n  tag_143\n    /* \"#utility.yul\":8120:8123   */\n  dup4\n    /* \"#utility.yul\":8114:8118   */\n  dup4\n    /* \"#utility.yul\":8095:8124   */\n  tag_45\n  jump\t// in\ntag_143:\n    /* \"#utility.yul\":8087:8124   */\n  swap2\n  pop\n    /* \"#utility.yul\":8157:8160   */\n  dup3\n    /* \"#utility.yul\":8154:8155   */\n  0x02\n    /* \"#utility.yul\":8150:8161   */\n  mul\n    /* \"#utility.yul\":8144:8148   */\n  dup3\n    /* \"#utility.yul\":8141:8162   */\n  or\n    /* \"#utility.yul\":8133:8162   */\n  swap1\n  pop\n    /* \"#utility.yul\":7873:8168   */\n  swap3\n  swap2\n  pop\n  pop\n  jump\t// out\n    /* \"#utility.yul\":8173:9568   */\ntag_7:\n    /* \"#utility.yul\":8290:8327   */\n  tag_145\n    /* \"#utility.yul\":8323:8326   */\n  dup3\n    /* \"#utility.yul\":8290:8327   */\n  tag_29\n  jump\t// in\ntag_145:\n    /* \"#utility.yul\":8392:8410   */\n  0xffffffffffffffff\n    /* \"#utility.yul\":8384:8390   */\n  dup2\n    /* \"#utility.yul\":8381:8411   */\n  gt\n    /* \"#utility.yul\":8378:8434   */\n  iszero\n  tag_146\n  jumpi\n    /* \"#utility.yul\":8414:8432   */\n  tag_147\n  tag_19\n  jump\t// in\ntag_147:\n    /* \"#utility.yul\":8378:8434   */\ntag_146:\n    /* \"#utility.yul\":8458:8496   */\n  tag_148\n    /* \"#utility.yul\":8490:8494   */\n  dup3\n    /* \"#utility.yul\":8484:8495   */\n  sload\n    /* \"#utility.yul\":8458:8496   */\n  tag_31\n  jump\t// in\ntag_148:\n    /* \"#utility.yul\":8543:8610   */\n  tag_149\n    /* \"#utility.yul\":8603:8609   */\n  dup3\n    /* \"#utility.yul\":8595:8601   */\n  dup3\n    /* \"#utility.yul\":8589:8593   */\n  dup6\n    /* \"#utility.yul\":8543:8610   */\n  tag_43\n  jump\t// in\ntag_149:\n    /* \"#utility.yul\":8637:8638   */\n  0x00\n    /* \"#utility.yul\":8661:8665   */\n  0x20\n    /* \"#utility.yul\":8648:8665   */\n  swap1\n  pop\n    /* \"#utility.yul\":8693:8695   */\n  0x1f\n    /* \"#utility.yul\":8685:8691   */\n  dup4\n    /* \"#utility.yul\":8682:8696   */\n  gt\n    /* \"#utility.yul\":8710:8711   */\n  0x01\n    /* \"#utility.yul\":8705:9323   */\n  dup2\n  eq\n  tag_151\n  jumpi\n    /* \"#utility.yul\":9367:9368   */\n  0x00\n    /* \"#utility.yul\":9384:9390   */\n  dup5\n    /* \"#utility.yul\":9381:9458   */\n  iszero\n  tag_152\n  jumpi\n    /* \"#utility.yul\":9433:9442   */\n  dup3\n    /* \"#utility.yul\":9428:9431   */\n  dup8\n    /* \"#utility.yul\":9424:9443   */\n  add\n    /* \"#utility.yul\":9418:9444   */\n  mload\n    /* \"#utility.yul\":9409:9444   */\n  swap1\n  pop\n    /* \"#utility.yul\":9381:9458   */\ntag_152:\n    /* \"#utility.yul\":9484:9551   */\n  tag_153\n    /* \"#utility.yul\":9544:9550   */\n  dup6\n    /* \"#utility.yul\":9537:9542   */\n  dup3\n    /* \"#utility.yul\":9484:9551   */\n  tag_46\n  jump\t// in\ntag_153:\n    /* \"#utility.yul\":9478:9482   */\n  dup7\n    /* \"#utility.yul\":9471:9552   */\n  sstore\n    /* \"#utility.yul\":9340:9562   */\n  pop\n    /* \"#utility.yul\":8675:9562   */\n  jump(tag_150)\n    /* \"#utility.yul\":8705:9323   */\ntag_151:\n    /* \"#utility.yul\":8757:8761   */\n  0x1f\n    /* \"#utility.yul\":8753:8762   */\n  not\n    /* \"#utility.yul\":8745:8751   */\n  dup5\n    /* \"#utility.yul\":8741:8763   */\n  and\n    /* \"#utility.yul\":8791:8828   */\n  tag_154\n    /* \"#utility.yul\":8823:8827   */\n  dup7\n    /* \"#utility.yul\":8791:8828   */\n  tag_32\n  jump\t// in\ntag_154:\n    /* \"#utility.yul\":8850:8851   */\n  0x00\n    /* \"#utility.yul\":8864:9072   */\ntag_155:\n    /* \"#utility.yul\":8878:8885   */\n  dup3\n    /* \"#utility.yul\":8875:8876   */\n  dup2\n    /* \"#utility.yul\":8872:8886   */\n  lt\n    /* \"#utility.yul\":8864:9072   */\n  iszero\n  tag_157\n  jumpi\n    /* \"#utility.yul\":8957:8966   */\n  dup5\n    /* \"#utility.yul\":8952:8955   */\n  dup10\n    /* \"#utility.yul\":8948:8967   */\n  add\n    /* \"#utility.yul\":8942:8968   */\n  mload\n    /* \"#utility.yul\":8934:8940   */\n  dup3\n    /* \"#utility.yul\":8927:8969   */\n  sstore\n    /* \"#utility.yul\":9008:9009   */\n  0x01\n    /* \"#utility.yul\":9000:9006   */\n  dup3\n    /* \"#utility.yul\":8996:9010   */\n  add\n    /* \"#utility.yul\":8986:9010   */\n  swap2\n  pop\n    /* \"#utility.yul\":9055:9057   */\n  0x20\n    /* \"#utility.yul\":9044:9053   */\n  dup6\n    /* \"#utility.yul\":9040:9058   */\n  add\n    /* \"#utility.yul\":9027:9058   */\n  swap5\n  pop\n    /* \"#utility.yul\":8901:8905   */\n  0x20\n    /* \"#utility.yul\":8898:8899   */\n  dup2\n    /* \"#utility.yul\":8894:8906   */\n  add\n    /* \"#utility.yul\":8889:8906   */\n  swap1\n  pop\n    /* \"#utility.yul\":8864:9072   */\n  jump(tag_155)\ntag_157:\n    /* \"#utility.yul\":9100:9106   */\n  dup7\n    /* \"#utility.yul\":9091:9098   */\n  dup4\n    /* \"#utility.yul\":9088:9107   */\n  lt\n    /* \"#utility.yul\":9085:9264   */\n  iszero\n  tag_158\n  jumpi\n    /* \"#utility.yul\":9158:9167   */\n  dup5\n    /* \"#utility.yul\":9153:9156   */\n  dup10\n    /* \"#utility.yul\":9149:9168   */\n  add\n    /* \"#utility.yul\":9143:9169   */\n  mload\n    /* \"#utility.yul\":9201:9249   */\n  tag_159\n    /* \"#utility.yul\":9243:9247   */\n  0x1f\n    /* \"#utility.yul\":9235:9241   */\n  dup10\n    /* \"#utility.yul\":9231:9248   */\n  and\n    /* \"#utility.yul\":9220:9229   */\n  dup3\n    /* \"#utility.yul\":9201:9249   */\n  tag_45\n  jump\t// in\ntag_159:\n    /* \"#utility.yul\":9193:9199   */\n  dup4\n    /* \"#utility.yul\":9186:9250   */\n  sstore\n    /* \"#utility.yul\":9108:9264   */\n  pop\n    /* \"#utility.yul\":9085:9264   */\ntag_158:\n    /* \"#utility.yul\":9310:9311   */\n  0x01\n    /* \"#utility.yul\":9306:9307   */\n  0x02\n    /* \"#utility.yul\":9298:9304   */\n  dup9\n    /* \"#utility.yul\":9294:9308   */\n  mul\n    /* \"#utility.yul\":9290:9312   */\n  add\n    /* \"#utility.yul\":9284:9288   */\n  dup9\n    /* \"#utility.yul\":9277:9313   */\n  sstore\n    /* \"#utility.yul\":8712:9323   */\n  pop\n  pop\n  pop\n    /* \"#utility.yul\":8675:9562   */\ntag_150:\n  pop\n    /* \"#utility.yul\":8265:9568   */\n  pop\n  pop\n  pop\n    /* \"#utility.yul\":8173:9568   */\n  pop\n  pop\n  jump\t// out\n    /* \"tema/EIP20Token.sol\":62:3282  contract EIP20Token {... */\ntag_9:\n  dataSize(sub_0)\n  dup1\n  dataOffset(sub_0)\n  0x00\n  codecopy\n  0x00\n  return\nstop\n\nsub_0: assembly {\n        /* \"tema/EIP20Token.sol\":62:3282  contract EIP20Token {... */\n      mstore(0x40, 0x80)\n      jumpi(tag_1, lt(calldatasize, 0x04))\n      shr(0xe0, calldataload(0x00))\n      dup1\n      0x6a61e5fc\n      gt\n      tag_17\n      jumpi\n      dup1\n      0x8da5cb5b\n      gt\n      tag_18\n      jumpi\n      dup1\n      0x8da5cb5b\n      eq\n      tag_13\n      jumpi\n      dup1\n      0x95d89b41\n      eq\n      tag_14\n      jumpi\n      dup1\n      0xa9059cbb\n      eq\n      tag_15\n      jumpi\n      dup1\n      0xdd62ed3e\n      eq\n      tag_16\n      jumpi\n      jump(tag_1)\n    tag_18:\n      dup1\n      0x6a61e5fc\n      eq\n      tag_9\n      jumpi\n      dup1\n      0x70a08231\n      eq\n      tag_10\n      jumpi\n      dup1\n      0x7b97008d\n      eq\n      tag_11\n      jumpi\n      dup1\n      0x7ff9b596\n      eq\n      tag_12\n      jumpi\n      jump(tag_1)\n    tag_17:\n      dup1\n      0x23b872dd\n      gt\n      tag_19\n      jumpi\n      dup1\n      0x23b872dd\n      eq\n      tag_5\n      jumpi\n      dup1\n      0x27e235e3\n      eq\n      tag_6\n      jumpi\n      dup1\n      0x313ce567\n      eq\n      tag_7\n      jumpi\n      dup1\n      0x5c658165\n      eq\n      tag_8\n      jumpi\n      jump(tag_1)\n    tag_19:\n      dup1\n      0x06fdde03\n      eq\n      tag_2\n      jumpi\n      dup1\n      0x095ea7b3\n      eq\n      tag_3\n      jumpi\n      dup1\n      0x18160ddd\n      eq\n      tag_4\n      jumpi\n    tag_1:\n      0x00\n      dup1\n      revert\n        /* \"tema/EIP20Token.sol\":304:322  string public name */\n    tag_2:\n      callvalue\n      dup1\n      iszero\n      tag_20\n      jumpi\n      0x00\n      dup1\n      revert\n    tag_20:\n      pop\n      tag_21\n      tag_22\n      jump\t// in\n    tag_21:\n      mload(0x40)\n      tag_23\n      swap2\n      swap1\n      tag_24\n      jump\t// in\n    tag_23:\n      mload(0x40)\n      dup1\n      swap2\n      sub\n      swap1\n      return\n        /* \"tema/EIP20Token.sol\":2044:2258  function approve(address _spender, uint256 _value) public returns (bool success) {... */\n    tag_3:\n      callvalue\n      dup1\n      iszero\n      tag_25\n      jumpi\n      0x00\n      dup1\n      revert\n    tag_25:\n      pop\n      tag_26\n      0x04\n      dup1\n      calldatasize\n      sub\n      dup2\n      add\n      swap1\n      tag_27\n      swap2\n      swap1\n      tag_28\n      jump\t// in\n    tag_27:\n      tag_29\n      jump\t// in\n    tag_26:\n      mload(0x40)\n      tag_30\n      swap2\n      swap1\n      tag_31\n      jump\t// in\n    tag_30:\n      mload(0x40)\n      dup1\n      swap2\n      sub\n      swap1\n      return\n        /* \"tema/EIP20Token.sol\":89:115  uint256 public totalSupply */\n    tag_4:\n      callvalue\n      dup1\n      iszero\n      tag_32\n      jumpi\n      0x00\n      dup1\n      revert\n    tag_32:\n      pop\n      tag_33\n      tag_34\n      jump\t// in\n    tag_33:\n      mload(0x40)\n      tag_35\n      swap2\n      swap1\n      tag_36\n      jump\t// in\n    tag_35:\n      mload(0x40)\n      dup1\n      swap2\n      sub\n      swap1\n      return\n        /* \"tema/EIP20Token.sol\":1498:2036  function transferFrom(address _from, address _to, uint256 _value) public returns (bool success) {... */\n    tag_5:\n      callvalue\n      dup1\n      iszero\n      tag_37\n      jumpi\n      0x00\n      dup1\n      revert\n    tag_37:\n      pop\n      tag_38\n      0x04\n      dup1\n      calldatasize\n      sub\n      dup2\n      add\n      swap1\n      tag_39\n      swap2\n      swap1\n      tag_40\n      jump\t// in\n    tag_39:\n      tag_41\n      jump\t// in\n    tag_38:\n      mload(0x40)\n      tag_42\n      swap2\n      swap1\n      tag_31\n      jump\t// in\n    tag_42:\n      mload(0x40)\n      dup1\n      swap2\n      sub\n      swap1\n      return\n        /* \"tema/EIP20Token.sol\":180:224  mapping (address => uint256) public balances */\n    tag_6:\n      callvalue\n      dup1\n      iszero\n      tag_43\n      jumpi\n      0x00\n      dup1\n      revert\n    tag_43:\n      pop\n      tag_44\n      0x04\n      dup1\n      calldatasize\n      sub\n      dup2\n      add\n      swap1\n      tag_45\n      swap2\n      swap1\n      tag_46\n      jump\t// in\n    tag_45:\n      tag_47\n      jump\t// in\n    tag_44:\n      mload(0x40)\n      tag_48\n      swap2\n      swap1\n      tag_36\n      jump\t// in\n    tag_48:\n      mload(0x40)\n      dup1\n      swap2\n      sub\n      swap1\n      return\n        /* \"tema/EIP20Token.sol\":356:377  uint8 public decimals */\n    tag_7:\n      callvalue\n      dup1\n      iszero\n      tag_49\n      jumpi\n      0x00\n      dup1\n      revert\n    tag_49:\n      pop\n      tag_50\n      tag_51\n      jump\t// in\n    tag_50:\n      mload(0x40)\n      tag_52\n      swap2\n      swap1\n      tag_53\n      jump\t// in\n    tag_52:\n      mload(0x40)\n      dup1\n      swap2\n      sub\n      swap1\n      return\n        /* \"tema/EIP20Token.sol\":231:295  mapping (address => mapping (address => uint256)) public allowed */\n    tag_8:\n      callvalue\n      dup1\n      iszero\n      tag_54\n      jumpi\n      0x00\n      dup1\n      revert\n    tag_54:\n      pop\n      tag_55\n      0x04\n      dup1\n      calldatasize\n      sub\n      dup2\n      add\n      swap1\n      tag_56\n      swap2\n      swap1\n      tag_57\n      jump\t// in\n    tag_56:\n      tag_58\n      jump\t// in\n    tag_55:\n      mload(0x40)\n      tag_59\n      swap2\n      swap1\n      tag_36\n      jump\t// in\n    tag_59:\n      mload(0x40)\n      dup1\n      swap2\n      sub\n      swap1\n      return\n        /* \"tema/EIP20Token.sol\":3179:3279  function setTokenPrice(uint256 _newPrice) public onlyOwner {... */\n    tag_9:\n      callvalue\n      dup1\n      iszero\n      tag_60\n      jumpi\n      0x00\n      dup1\n      revert\n    tag_60:\n      pop\n      tag_61\n      0x04\n      dup1\n      calldatasize\n      sub\n      dup2\n      add\n      swap1\n      tag_62\n      swap2\n      swap1\n      tag_63\n      jump\t// in\n    tag_62:\n      tag_64\n      jump\t// in\n    tag_61:\n      stop\n        /* \"tema/EIP20Token.sol\":2418:2533  function balanceOf(address _owner) public view returns (uint256 balance) {... */\n    tag_10:\n      callvalue\n      dup1\n      iszero\n      tag_65\n      jumpi\n      0x00\n      dup1\n      revert\n    tag_65:\n      pop\n      tag_66\n      0x04\n      dup1\n      calldatasize\n      sub\n      dup2\n      add\n      swap1\n      tag_67\n      swap2\n      swap1\n      tag_46\n      jump\t// in\n    tag_67:\n      tag_68\n      jump\t// in\n    tag_66:\n      mload(0x40)\n      tag_69\n      swap2\n      swap1\n      tag_36\n      jump\t// in\n    tag_69:\n      mload(0x40)\n      dup1\n      swap2\n      sub\n      swap1\n      return\n        /* \"tema/EIP20Token.sol\":2541:3171  function purchaseTokens(uint256 amount) public payable returns (bool) {... */\n    tag_11:\n      tag_70\n      0x04\n      dup1\n      calldatasize\n      sub\n      dup2\n      add\n      swap1\n      tag_71\n      swap2\n      swap1\n      tag_63\n      jump\t// in\n    tag_71:\n      tag_72\n      jump\t// in\n    tag_70:\n      mload(0x40)\n      tag_73\n      swap2\n      swap1\n      tag_31\n      jump\t// in\n    tag_73:\n      mload(0x40)\n      dup1\n      swap2\n      sub\n      swap1\n      return\n        /* \"tema/EIP20Token.sol\":413:438  uint256 public tokenPrice */\n    tag_12:\n      callvalue\n      dup1\n      iszero\n      tag_74\n      jumpi\n      0x00\n      dup1\n      revert\n    tag_74:\n      pop\n      tag_75\n      tag_76\n      jump\t// in\n    tag_75:\n      mload(0x40)\n      tag_77\n      swap2\n      swap1\n      tag_36\n      jump\t// in\n    tag_77:\n      mload(0x40)\n      dup1\n      swap2\n      sub\n      swap1\n      return\n        /* \"tema/EIP20Token.sol\":386:406  address public owner */\n    tag_13:\n      callvalue\n      dup1\n      iszero\n      tag_78\n      jumpi\n      0x00\n      dup1\n      revert\n    tag_78:\n      pop\n      tag_79\n      tag_80\n      jump\t// in\n    tag_79:\n      mload(0x40)\n      tag_81\n      swap2\n      swap1\n      tag_82\n      jump\t// in\n    tag_81:\n      mload(0x40)\n      dup1\n      swap2\n      sub\n      swap1\n      return\n        /* \"tema/EIP20Token.sol\":329:349  string public symbol */\n    tag_14:\n      callvalue\n      dup1\n      iszero\n      tag_83\n      jumpi\n      0x00\n      dup1\n      revert\n    tag_83:\n      pop\n      tag_84\n      tag_85\n      jump\t// in\n    tag_84:\n      mload(0x40)\n      tag_86\n      swap2\n      swap1\n      tag_24\n      jump\t// in\n    tag_86:\n      mload(0x40)\n      dup1\n      swap2\n      sub\n      swap1\n      return\n        /* \"tema/EIP20Token.sol\":1185:1490  function transfer(address _to, uint256 _value) public returns (bool success) {... */\n    tag_15:\n      callvalue\n      dup1\n      iszero\n      tag_87\n      jumpi\n      0x00\n      dup1\n      revert\n    tag_87:\n      pop\n      tag_88\n      0x04\n      dup1\n      calldatasize\n      sub\n      dup2\n      add\n      swap1\n      tag_89\n      swap2\n      swap1\n      tag_28\n      jump\t// in\n    tag_89:\n      tag_90\n      jump\t// in\n    tag_88:\n      mload(0x40)\n      tag_91\n      swap2\n      swap1\n      tag_31\n      jump\t// in\n    tag_91:\n      mload(0x40)\n      dup1\n      swap2\n      sub\n      swap1\n      return\n        /* \"tema/EIP20Token.sol\":2266:2410  function allowance(address _owner, address _spender) public view returns (uint256 remaining) {... */\n    tag_16:\n      callvalue\n      dup1\n      iszero\n      tag_92\n      jumpi\n      0x00\n      dup1\n      revert\n    tag_92:\n      pop\n      tag_93\n      0x04\n      dup1\n      calldatasize\n      sub\n      dup2\n      add\n      swap1\n      tag_94\n      swap2\n      swap1\n      tag_57\n      jump\t// in\n    tag_94:\n      tag_95\n      jump\t// in\n    tag_93:\n      mload(0x40)\n      tag_96\n      swap2\n      swap1\n      tag_36\n      jump\t// in\n    tag_96:\n      mload(0x40)\n      dup1\n      swap2\n      sub\n      swap1\n      return\n        /* \"tema/EIP20Token.sol\":304:322  string public name */\n    tag_22:\n      0x03\n      dup1\n      sload\n      tag_97\n      swap1\n      tag_98\n      jump\t// in\n    tag_97:\n      dup1\n      0x1f\n      add\n      0x20\n      dup1\n      swap2\n      div\n      mul\n      0x20\n      add\n      mload(0x40)\n      swap1\n      dup2\n      add\n      0x40\n      mstore\n      dup1\n      swap3\n      swap2\n      swap1\n      dup2\n      dup2\n      mstore\n      0x20\n      add\n      dup3\n      dup1\n      sload\n      tag_99\n      swap1\n      tag_98\n      jump\t// in\n    tag_99:\n      dup1\n      iszero\n      tag_100\n      jumpi\n      dup1\n      0x1f\n      lt\n      tag_101\n      jumpi\n      0x0100\n      dup1\n      dup4\n      sload\n      div\n      mul\n      dup4\n      mstore\n      swap2\n      0x20\n      add\n      swap2\n      jump(tag_100)\n    tag_101:\n      dup3\n      add\n      swap2\n      swap1\n      0x00\n      mstore\n      keccak256(0x00, 0x20)\n      swap1\n    tag_102:\n      dup2\n      sload\n      dup2\n      mstore\n      swap1\n      0x01\n      add\n      swap1\n      0x20\n      add\n      dup1\n      dup4\n      gt\n      tag_102\n      jumpi\n      dup3\n      swap1\n      sub\n      0x1f\n      and\n      dup3\n      add\n      swap2\n    tag_100:\n      pop\n      pop\n      pop\n      pop\n      pop\n      dup2\n      jump\t// out\n        /* \"tema/EIP20Token.sol\":2044:2258  function approve(address _spender, uint256 _value) public returns (bool success) {... */\n    tag_29:\n        /* \"tema/EIP20Token.sol\":2111:2123  bool success */\n      0x00\n        /* \"tema/EIP20Token.sol\":2168:2174  _value */\n      dup2\n        /* \"tema/EIP20Token.sol\":2136:2143  allowed */\n      0x02\n        /* \"tema/EIP20Token.sol\":2136:2155  allowed[msg.sender] */\n      0x00\n        /* \"tema/EIP20Token.sol\":2144:2154  msg.sender */\n      caller\n        /* \"tema/EIP20Token.sol\":2136:2155  allowed[msg.sender] */\n      0xffffffffffffffffffffffffffffffffffffffff\n      and\n      0xffffffffffffffffffffffffffffffffffffffff\n      and\n      dup2\n      mstore\n      0x20\n      add\n      swap1\n      dup2\n      mstore\n      0x20\n      add\n      0x00\n      keccak256\n        /* \"tema/EIP20Token.sol\":2136:2165  allowed[msg.sender][_spender] */\n      0x00\n        /* \"tema/EIP20Token.sol\":2156:2164  _spender */\n      dup6\n        /* \"tema/EIP20Token.sol\":2136:2165  allowed[msg.sender][_spender] */\n      0xffffffffffffffffffffffffffffffffffffffff\n      and\n      0xffffffffffffffffffffffffffffffffffffffff\n      and\n      dup2\n      mstore\n      0x20\n      add\n      swap1\n      dup2\n      mstore\n      0x20\n      add\n      0x00\n      keccak256\n        /* \"tema/EIP20Token.sol\":2136:2174  allowed[msg.sender][_spender] = _value */\n      dup2\n      swap1\n      sstore\n      pop\n        /* \"tema/EIP20Token.sol\":2211:2219  _spender */\n      dup3\n        /* \"tema/EIP20Token.sol\":2190:2228  Approval(msg.sender, _spender, _value) */\n      0xffffffffffffffffffffffffffffffffffffffff\n      and\n        /* \"tema/EIP20Token.sol\":2199:2209  msg.sender */\n      caller\n        /* \"tema/EIP20Token.sol\":2190:2228  Approval(msg.sender, _spender, _value) */\n      0xffffffffffffffffffffffffffffffffffffffff\n      and\n      0x8c5be1e5ebec7d5bd14f71427d1e84f3dd0314c0f7b2291e5b200ac8c7c3b925\n        /* \"tema/EIP20Token.sol\":2221:2227  _value */\n      dup5\n        /* \"tema/EIP20Token.sol\":2190:2228  Approval(msg.sender, _spender, _value) */\n      mload(0x40)\n      tag_104\n      swap2\n      swap1\n      tag_36\n      jump\t// in\n    tag_104:\n      mload(0x40)\n      dup1\n      swap2\n      sub\n      swap1\n      log3\n        /* \"tema/EIP20Token.sol\":2246:2250  true */\n      0x01\n        /* \"tema/EIP20Token.sol\":2239:2250  return true */\n      swap1\n      pop\n        /* \"tema/EIP20Token.sol\":2044:2258  function approve(address _spender, uint256 _value) public returns (bool success) {... */\n      swap3\n      swap2\n      pop\n      pop\n      jump\t// out\n        /* \"tema/EIP20Token.sol\":89:115  uint256 public totalSupply */\n    tag_34:\n      sload(0x00)\n      dup2\n      jump\t// out\n        /* \"tema/EIP20Token.sol\":1498:2036  function transferFrom(address _from, address _to, uint256 _value) public returns (bool success) {... */\n    tag_41:\n        /* \"tema/EIP20Token.sol\":1580:1592  bool success */\n      0x00\n        /* \"tema/EIP20Token.sol\":1605:1623  uint256 _allowance */\n      dup1\n        /* \"tema/EIP20Token.sol\":1626:1633  allowed */\n      0x02\n        /* \"tema/EIP20Token.sol\":1626:1640  allowed[_from] */\n      0x00\n        /* \"tema/EIP20Token.sol\":1634:1639  _from */\n      dup7\n        /* \"tema/EIP20Token.sol\":1626:1640  allowed[_from] */\n      0xffffffffffffffffffffffffffffffffffffffff\n      and\n      0xffffffffffffffffffffffffffffffffffffffff\n      and\n      dup2\n      mstore\n      0x20\n      add\n      swap1\n      dup2\n      mstore\n      0x20\n      add\n      0x00\n      keccak256\n        /* \"tema/EIP20Token.sol\":1626:1652  allowed[_from][msg.sender] */\n      0x00\n        /* \"tema/EIP20Token.sol\":1641:1651  msg.sender */\n      caller\n        /* \"tema/EIP20Token.sol\":1626:1652  allowed[_from][msg.sender] */\n      0xffffffffffffffffffffffffffffffffffffffff\n      and\n      0xffffffffffffffffffffffffffffffffffffffff\n      and\n      dup2\n      mstore\n      0x20\n      add\n      swap1\n      dup2\n      mstore\n      0x20\n      add\n      0x00\n      keccak256\n      sload\n        /* \"tema/EIP20Token.sol\":1605:1652  uint256 _allowance = allowed[_from][msg.sender] */\n      swap1\n      pop\n        /* \"tema/EIP20Token.sol\":1690:1696  _value */\n      dup3\n        /* \"tema/EIP20Token.sol\":1671:1679  balances */\n      0x01\n        /* \"tema/EIP20Token.sol\":1671:1686  balances[_from] */\n      0x00\n        /* \"tema/EIP20Token.sol\":1680:1685  _from */\n      dup8\n        /* \"tema/EIP20Token.sol\":1671:1686  balances[_from] */\n      0xffffffffffffffffffffffffffffffffffffffff\n      and\n      0xffffffffffffffffffffffffffffffffffffffff\n      and\n      dup2\n      mstore\n      0x20\n      add\n      swap1\n      dup2\n      mstore\n      0x20\n      add\n      0x00\n      keccak256\n      sload\n        /* \"tema/EIP20Token.sol\":1671:1696  balances[_from] >= _value */\n      lt\n      iszero\n        /* \"tema/EIP20Token.sol\":1663:1721  require(balances[_from] >= _value, \"Insufficient balance\") */\n      tag_106\n      jumpi\n      mload(0x40)\n      0x08c379a000000000000000000000000000000000000000000000000000000000\n      dup2\n      mstore\n      0x04\n      add\n      tag_107\n      swap1\n      tag_108\n      jump\t// in\n    tag_107:\n      mload(0x40)\n      dup1\n      swap2\n      sub\n      swap1\n      revert\n    tag_106:\n        /* \"tema/EIP20Token.sol\":1754:1760  _value */\n      dup3\n        /* \"tema/EIP20Token.sol\":1740:1750  _allowance */\n      dup2\n        /* \"tema/EIP20Token.sol\":1740:1760  _allowance >= _value */\n      lt\n      iszero\n        /* \"tema/EIP20Token.sol\":1732:1783  require(_allowance >= _value, \"Allowance exceeded\") */\n      tag_109\n      jumpi\n      mload(0x40)\n      0x08c379a000000000000000000000000000000000000000000000000000000000\n      dup2\n      mstore\n      0x04\n      add\n      tag_110\n      swap1\n      tag_111\n      jump\t// in\n    tag_110:\n      mload(0x40)\n      dup1\n      swap2\n      sub\n      swap1\n      revert\n    tag_109:\n        /* \"tema/EIP20Token.sol\":1815:1821  _value */\n      dup3\n        /* \"tema/EIP20Token.sol\":1796:1804  balances */\n      0x01\n        /* \"tema/EIP20Token.sol\":1796:1811  balances[_from] */\n      0x00\n        /* \"tema/EIP20Token.sol\":1805:1810  _from */\n      dup8\n        /* \"tema/EIP20Token.sol\":1796:1811  balances[_from] */\n      0xffffffffffffffffffffffffffffffffffffffff\n      and\n      0xffffffffffffffffffffffffffffffffffffffff\n      and\n      dup2\n      mstore\n      0x20\n      add\n      swap1\n      dup2\n      mstore\n      0x20\n      add\n      0x00\n      keccak256\n      0x00\n        /* \"tema/EIP20Token.sol\":1796:1821  balances[_from] -= _value */\n      dup3\n      dup3\n      sload\n      tag_112\n      swap2\n      swap1\n      tag_113\n      jump\t// in\n    tag_112:\n      swap3\n      pop\n      pop\n      dup2\n      swap1\n      sstore\n      pop\n        /* \"tema/EIP20Token.sol\":1849:1855  _value */\n      dup3\n        /* \"tema/EIP20Token.sol\":1832:1840  balances */\n      0x01\n        /* \"tema/EIP20Token.sol\":1832:1845  balances[_to] */\n      0x00\n        /* \"tema/EIP20Token.sol\":1841:1844  _to */\n      dup7\n        /* \"tema/EIP20Token.sol\":1832:1845  balances[_to] */\n      0xffffffffffffffffffffffffffffffffffffffff\n      and\n      0xffffffffffffffffffffffffffffffffffffffff\n      and\n      dup2\n      mstore\n      0x20\n      add\n      swap1\n      dup2\n      mstore\n      0x20\n      add\n      0x00\n      keccak256\n      0x00\n        /* \"tema/EIP20Token.sol\":1832:1855  balances[_to] += _value */\n      dup3\n      dup3\n      sload\n      tag_114\n      swap2\n      swap1\n      tag_115\n      jump\t// in\n    tag_114:\n      swap3\n      pop\n      pop\n      dup2\n      swap1\n      sstore\n      pop\n        /* \"tema/EIP20Token.sol\":161:171  2**256 - 1 */\n      0xffffffffffffffffffffffffffffffffffffffffffffffffffffffffffffffff\n        /* \"tema/EIP20Token.sol\":1872:1882  _allowance */\n      dup2\n        /* \"tema/EIP20Token.sol\":1872:1896  _allowance < MAX_UINT256 */\n      lt\n        /* \"tema/EIP20Token.sol\":1868:1961  if (_allowance < MAX_UINT256) {... */\n      iszero\n      tag_116\n      jumpi\n        /* \"tema/EIP20Token.sol\":1943:1949  _value */\n      dup3\n        /* \"tema/EIP20Token.sol\":1913:1920  allowed */\n      0x02\n        /* \"tema/EIP20Token.sol\":1913:1927  allowed[_from] */\n      0x00\n        /* \"tema/EIP20Token.sol\":1921:1926  _from */\n      dup8\n        /* \"tema/EIP20Token.sol\":1913:1927  allowed[_from] */\n      0xffffffffffffffffffffffffffffffffffffffff\n      and\n      0xffffffffffffffffffffffffffffffffffffffff\n      and\n      dup2\n      mstore\n      0x20\n      add\n      swap1\n      dup2\n      mstore\n      0x20\n      add\n      0x00\n      keccak256\n        /* \"tema/EIP20Token.sol\":1913:1939  allowed[_from][msg.sender] */\n      0x00\n        /* \"tema/EIP20Token.sol\":1928:1938  msg.sender */\n      caller\n        /* \"tema/EIP20Token.sol\":1913:1939  allowed[_from][msg.sender] */\n      0xffffffffffffffffffffffffffffffffffffffff\n      and\n      0xffffffffffffffffffffffffffffffffffffffff\n      and\n      dup2\n      mstore\n      0x20\n      add\n      swap1\n      dup2\n      mstore\n      0x20\n      add\n      0x00\n      keccak256\n      0x00\n        /* \"tema/EIP20Token.sol\":1913:1949  allowed[_from][msg.sender] -= _value */\n      dup3\n      dup3\n      sload\n      tag_117\n      swap2\n      swap1\n      tag_113\n      jump\t// in\n    tag_117:\n      swap3\n      pop\n      pop\n      dup2\n      swap1\n      sstore\n      pop\n        /* \"tema/EIP20Token.sol\":1868:1961  if (_allowance < MAX_UINT256) {... */\n    tag_116:\n        /* \"tema/EIP20Token.sol\":1994:1997  _to */\n      dup4\n        /* \"tema/EIP20Token.sol\":1978:2006  Transfer(_from, _to, _value) */\n      0xffffffffffffffffffffffffffffffffffffffff\n      and\n        /* \"tema/EIP20Token.sol\":1987:1992  _from */\n      dup6\n        /* \"tema/EIP20Token.sol\":1978:2006  Transfer(_from, _to, _value) */\n      0xffffffffffffffffffffffffffffffffffffffff\n      and\n      0xddf252ad1be2c89b69c2b068fc378daa952ba7f163c4a11628f55a4df523b3ef\n        /* \"tema/EIP20Token.sol\":1999:2005  _value */\n      dup6\n        /* \"tema/EIP20Token.sol\":1978:2006  Transfer(_from, _to, _value) */\n      mload(0x40)\n      tag_118\n      swap2\n      swap1\n      tag_36\n      jump\t// in\n    tag_118:\n      mload(0x40)\n      dup1\n      swap2\n      sub\n      swap1\n      log3\n        /* \"tema/EIP20Token.sol\":2024:2028  true */\n      0x01\n        /* \"tema/EIP20Token.sol\":2017:2028  return true */\n      swap2\n      pop\n      pop\n        /* \"tema/EIP20Token.sol\":1498:2036  function transferFrom(address _from, address _to, uint256 _value) public returns (bool success) {... */\n      swap4\n      swap3\n      pop\n      pop\n      pop\n      jump\t// out\n        /* \"tema/EIP20Token.sol\":180:224  mapping (address => uint256) public balances */\n    tag_47:\n      mstore(0x20, 0x01)\n      dup1\n      0x00\n      mstore\n      keccak256(0x00, 0x40)\n      0x00\n      swap2\n      pop\n      swap1\n      pop\n      sload\n      dup2\n      jump\t// out\n        /* \"tema/EIP20Token.sol\":356:377  uint8 public decimals */\n    tag_51:\n      0x05\n      0x00\n      swap1\n      sload\n      swap1\n      0x0100\n      exp\n      swap1\n      div\n      0xff\n      and\n      dup2\n      jump\t// out\n        /* \"tema/EIP20Token.sol\":231:295  mapping (address => mapping (address => uint256)) public allowed */\n    tag_58:\n      mstore(0x20, 0x02)\n      dup2\n      0x00\n      mstore\n      mstore(0x20, keccak256(0x00, 0x40))\n      dup1\n      0x00\n      mstore\n      keccak256(0x00, 0x40)\n      0x00\n      swap2\n      pop\n      swap2\n      pop\n      pop\n      sload\n      dup2\n      jump\t// out\n        /* \"tema/EIP20Token.sol\":3179:3279  function setTokenPrice(uint256 _newPrice) public onlyOwner {... */\n    tag_64:\n        /* \"tema/EIP20Token.sol\":692:697  owner */\n      0x05\n      0x01\n      swap1\n      sload\n      swap1\n      0x0100\n      exp\n      swap1\n      div\n      0xffffffffffffffffffffffffffffffffffffffff\n      and\n        /* \"tema/EIP20Token.sol\":678:697  msg.sender == owner */\n      0xffffffffffffffffffffffffffffffffffffffff\n      and\n        /* \"tema/EIP20Token.sol\":678:688  msg.sender */\n      caller\n        /* \"tema/EIP20Token.sol\":678:697  msg.sender == owner */\n      0xffffffffffffffffffffffffffffffffffffffff\n      and\n      eq\n        /* \"tema/EIP20Token.sol\":670:716  require(msg.sender == owner, \"Not authorized\") */\n      tag_120\n      jumpi\n      mload(0x40)\n      0x08c379a000000000000000000000000000000000000000000000000000000000\n      dup2\n      mstore\n      0x04\n      add\n      tag_121\n      swap1\n      tag_122\n      jump\t// in\n    tag_121:\n      mload(0x40)\n      dup1\n      swap2\n      sub\n      swap1\n      revert\n    tag_120:\n        /* \"tema/EIP20Token.sol\":3262:3271  _newPrice */\n      dup1\n        /* \"tema/EIP20Token.sol\":3249:3259  tokenPrice */\n      0x06\n        /* \"tema/EIP20Token.sol\":3249:3271  tokenPrice = _newPrice */\n      dup2\n      swap1\n      sstore\n      pop\n        /* \"tema/EIP20Token.sol\":3179:3279  function setTokenPrice(uint256 _newPrice) public onlyOwner {... */\n      pop\n      jump\t// out\n        /* \"tema/EIP20Token.sol\":2418:2533  function balanceOf(address _owner) public view returns (uint256 balance) {... */\n    tag_68:\n        /* \"tema/EIP20Token.sol\":2474:2489  uint256 balance */\n      0x00\n        /* \"tema/EIP20Token.sol\":2509:2517  balances */\n      0x01\n        /* \"tema/EIP20Token.sol\":2509:2525  balances[_owner] */\n      0x00\n        /* \"tema/EIP20Token.sol\":2518:2524  _owner */\n      dup4\n        /* \"tema/EIP20Token.sol\":2509:2525  balances[_owner] */\n      0xffffffffffffffffffffffffffffffffffffffff\n      and\n      0xffffffffffffffffffffffffffffffffffffffff\n      and\n      dup2\n      mstore\n      0x20\n      add\n      swap1\n      dup2\n      mstore\n      0x20\n      add\n      0x00\n      keccak256\n      sload\n        /* \"tema/EIP20Token.sol\":2502:2525  return balances[_owner] */\n      swap1\n      pop\n        /* \"tema/EIP20Token.sol\":2418:2533  function balanceOf(address _owner) public view returns (uint256 balance) {... */\n      swap2\n      swap1\n      pop\n      jump\t// out\n        /* \"tema/EIP20Token.sol\":2541:3171  function purchaseTokens(uint256 amount) public payable returns (bool) {... */\n    tag_72:\n        /* \"tema/EIP20Token.sol\":2605:2609  bool */\n      0x00\n        /* \"tema/EIP20Token.sol\":2622:2639  uint256 totalCost */\n      dup1\n        /* \"tema/EIP20Token.sol\":2651:2661  tokenPrice */\n      sload(0x06)\n        /* \"tema/EIP20Token.sol\":2642:2648  amount */\n      dup4\n        /* \"tema/EIP20Token.sol\":2642:2661  amount * tokenPrice */\n      tag_126\n      swap2\n      swap1\n      tag_127\n      jump\t// in\n    tag_126:\n        /* \"tema/EIP20Token.sol\":2622:2661  uint256 totalCost = amount * tokenPrice */\n      swap1\n      pop\n        /* \"tema/EIP20Token.sol\":2728:2737  totalCost */\n      dup1\n        /* \"tema/EIP20Token.sol\":2715:2724  msg.value */\n      callvalue\n        /* \"tema/EIP20Token.sol\":2715:2737  msg.value >= totalCost */\n      lt\n      iszero\n        /* \"tema/EIP20Token.sol\":2707:2765  require(msg.value >= totalCost, \"Insufficient Ether sent\") */\n      tag_128\n      jumpi\n      mload(0x40)\n      0x08c379a000000000000000000000000000000000000000000000000000000000\n      dup2\n      mstore\n      0x04\n      add\n      tag_129\n      swap1\n      tag_130\n      jump\t// in\n    tag_129:\n      mload(0x40)\n      dup1\n      swap2\n      sub\n      swap1\n      revert\n    tag_128:\n        /* \"tema/EIP20Token.sol\":2803:2809  amount */\n      dup3\n        /* \"tema/EIP20Token.sol\":2784:2792  balances */\n      0x01\n        /* \"tema/EIP20Token.sol\":2784:2799  balances[owner] */\n      0x00\n        /* \"tema/EIP20Token.sol\":2793:2798  owner */\n      0x05\n      0x01\n      swap1\n      sload\n      swap1\n      0x0100\n      exp\n      swap1\n      div\n      0xffffffffffffffffffffffffffffffffffffffff\n      and\n        /* \"tema/EIP20Token.sol\":2784:2799  balances[owner] */\n      0xffffffffffffffffffffffffffffffffffffffff\n      and\n      0xffffffffffffffffffffffffffffffffffffffff\n      and\n      dup2\n      mstore\n      0x20\n      add\n      swap1\n      dup2\n      mstore\n      0x20\n      add\n      0x00\n      keccak256\n      sload\n        /* \"tema/EIP20Token.sol\":2784:2809  balances[owner] >= amount */\n      lt\n      iszero\n        /* \"tema/EIP20Token.sol\":2776:2842  require(balances[owner] >= amount, \"Not enough tokens in reserve\") */\n      tag_131\n      jumpi\n      mload(0x40)\n      0x08c379a000000000000000000000000000000000000000000000000000000000\n      dup2\n      mstore\n      0x04\n      add\n      tag_132\n      swap1\n      tag_133\n      jump\t// in\n    tag_132:\n      mload(0x40)\n      dup1\n      swap2\n      sub\n      swap1\n      revert\n    tag_131:\n        /* \"tema/EIP20Token.sol\":2874:2880  amount */\n      dup3\n        /* \"tema/EIP20Token.sol\":2855:2863  balances */\n      0x01\n        /* \"tema/EIP20Token.sol\":2855:2870  balances[owner] */\n      0x00\n        /* \"tema/EIP20Token.sol\":2864:2869  owner */\n      0x05\n      0x01\n      swap1\n      sload\n      swap1\n      0x0100\n      exp\n      swap1\n      div\n      0xffffffffffffffffffffffffffffffffffffffff\n      and\n        /* \"tema/EIP20Token.sol\":2855:2870  balances[owner] */\n      0xffffffffffffffffffffffffffffffffffffffff\n      and\n      0xffffffffffffffffffffffffffffffffffffffff\n      and\n      dup2\n      mstore\n      0x20\n      add\n      swap1\n      dup2\n      mstore\n      0x20\n      add\n      0x00\n      keccak256\n      0x00\n        /* \"tema/EIP20Token.sol\":2855:2880  balances[owner] -= amount */\n      dup3\n      dup3\n      sload\n      tag_134\n      swap2\n      swap1\n      tag_113\n      jump\t// in\n    tag_134:\n      swap3\n      pop\n      pop\n      dup2\n      swap1\n      sstore\n      pop\n        /* \"tema/EIP20Token.sol\":2915:2921  amount */\n      dup3\n        /* \"tema/EIP20Token.sol\":2891:2899  balances */\n      0x01\n        /* \"tema/EIP20Token.sol\":2891:2911  balances[msg.sender] */\n      0x00\n        /* \"tema/EIP20Token.sol\":2900:2910  msg.sender */\n      caller\n        /* \"tema/EIP20Token.sol\":2891:2911  balances[msg.sender] */\n      0xffffffffffffffffffffffffffffffffffffffff\n      and\n      0xffffffffffffffffffffffffffffffffffffffff\n      and\n      dup2\n      mstore\n      0x20\n      add\n      swap1\n      dup2\n      mstore\n      0x20\n      add\n      0x00\n      keccak256\n      0x00\n        /* \"tema/EIP20Token.sol\":2891:2921  balances[msg.sender] += amount */\n      dup3\n      dup3\n      sload\n      tag_135\n      swap2\n      swap1\n      tag_115\n      jump\t// in\n    tag_135:\n      swap3\n      pop\n      pop\n      dup2\n      swap1\n      sstore\n      pop\n        /* \"tema/EIP20Token.sol\":2955:2965  msg.sender */\n      caller\n        /* \"tema/EIP20Token.sol\":2939:2974  Transfer(owner, msg.sender, amount) */\n      0xffffffffffffffffffffffffffffffffffffffff\n      and\n        /* \"tema/EIP20Token.sol\":2948:2953  owner */\n      0x05\n      0x01\n      swap1\n      sload\n      swap1\n      0x0100\n      exp\n      swap1\n      div\n      0xffffffffffffffffffffffffffffffffffffffff\n      and\n        /* \"tema/EIP20Token.sol\":2939:2974  Transfer(owner, msg.sender, amount) */\n      0xffffffffffffffffffffffffffffffffffffffff\n      and\n      0xddf252ad1be2c89b69c2b068fc378daa952ba7f163c4a11628f55a4df523b3ef\n        /* \"tema/EIP20Token.sol\":2967:2973  amount */\n      dup6\n        /* \"tema/EIP20Token.sol\":2939:2974  Transfer(owner, msg.sender, amount) */\n      mload(0x40)\n      tag_136\n      swap2\n      swap1\n      tag_36\n      jump\t// in\n    tag_136:\n      mload(0x40)\n      dup1\n      swap2\n      sub\n      swap1\n      log3\n        /* \"tema/EIP20Token.sol\":3051:3060  totalCost */\n      dup1\n        /* \"tema/EIP20Token.sol\":3039:3048  msg.value */\n      callvalue\n        /* \"tema/EIP20Token.sol\":3039:3060  msg.value > totalCost */\n      gt\n        /* \"tema/EIP20Token.sol\":3035:3140  if (msg.value > totalCost) {... */\n      iszero\n      tag_137\n      jumpi\n        /* \"tema/EIP20Token.sol\":3085:3095  msg.sender */\n      caller\n        /* \"tema/EIP20Token.sol\":3077:3105  payable(msg.sender).transfer */\n      0xffffffffffffffffffffffffffffffffffffffff\n      and\n        /* \"tema/EIP20Token.sol\":3077:3128  payable(msg.sender).transfer(msg.value - totalCost) */\n      0x08fc\n        /* \"tema/EIP20Token.sol\":3118:3127  totalCost */\n      dup3\n        /* \"tema/EIP20Token.sol\":3106:3115  msg.value */\n      callvalue\n        /* \"tema/EIP20Token.sol\":3106:3127  msg.value - totalCost */\n      tag_138\n      swap2\n      swap1\n      tag_113\n      jump\t// in\n    tag_138:\n        /* \"tema/EIP20Token.sol\":3077:3128  payable(msg.sender).transfer(msg.value - totalCost) */\n      swap1\n      dup2\n      iszero\n      mul\n      swap1\n      mload(0x40)\n      0x00\n      mload(0x40)\n      dup1\n      dup4\n      sub\n      dup2\n      dup6\n      dup9\n      dup9\n      call\n      swap4\n      pop\n      pop\n      pop\n      pop\n      iszero\n      dup1\n      iszero\n      tag_140\n      jumpi\n      returndatasize\n      0x00\n      dup1\n      returndatacopy\n      revert(0x00, returndatasize)\n    tag_140:\n      pop\n        /* \"tema/EIP20Token.sol\":3035:3140  if (msg.value > totalCost) {... */\n    tag_137:\n        /* \"tema/EIP20Token.sol\":3159:3163  true */\n      0x01\n        /* \"tema/EIP20Token.sol\":3152:3163  return true */\n      swap2\n      pop\n      pop\n        /* \"tema/EIP20Token.sol\":2541:3171  function purchaseTokens(uint256 amount) public payable returns (bool) {... */\n      swap2\n      swap1\n      pop\n      jump\t// out\n        /* \"tema/EIP20Token.sol\":413:438  uint256 public tokenPrice */\n    tag_76:\n      sload(0x06)\n      dup2\n      jump\t// out\n        /* \"tema/EIP20Token.sol\":386:406  address public owner */\n    tag_80:\n      0x05\n      0x01\n      swap1\n      sload\n      swap1\n      0x0100\n      exp\n      swap1\n      div\n      0xffffffffffffffffffffffffffffffffffffffff\n      and\n      dup2\n      jump\t// out\n        /* \"tema/EIP20Token.sol\":329:349  string public symbol */\n    tag_85:\n      0x04\n      dup1\n      sload\n      tag_141\n      swap1\n      tag_98\n      jump\t// in\n    tag_141:\n      dup1\n      0x1f\n      add\n      0x20\n      dup1\n      swap2\n      div\n      mul\n      0x20\n      add\n      mload(0x40)\n      swap1\n      dup2\n      add\n      0x40\n      mstore\n      dup1\n      swap3\n      swap2\n      swap1\n      dup2\n      dup2\n      mstore\n      0x20\n      add\n      dup3\n      dup1\n      sload\n      tag_142\n      swap1\n      tag_98\n      jump\t// in\n    tag_142:\n      dup1\n      iszero\n      tag_143\n      jumpi\n      dup1\n      0x1f\n      lt\n      tag_144\n      jumpi\n      0x0100\n      dup1\n      dup4\n      sload\n      div\n      mul\n      dup4\n      mstore\n      swap2\n      0x20\n      add\n      swap2\n      jump(tag_143)\n    tag_144:\n      dup3\n      add\n      swap2\n      swap1\n      0x00\n      mstore\n      keccak256(0x00, 0x20)\n      swap1\n    tag_145:\n      dup2\n      sload\n      dup2\n      mstore\n      swap1\n      0x01\n      add\n      swap1\n      0x20\n      add\n      dup1\n      dup4\n      gt\n      tag_145\n      jumpi\n      dup3\n      swap1\n      sub\n      0x1f\n      and\n      dup3\n      add\n      swap2\n    tag_143:\n      pop\n      pop\n      pop\n      pop\n      pop\n      dup2\n      jump\t// out\n        /* \"tema/EIP20Token.sol\":1185:1490  function transfer(address _to, uint256 _value) public returns (bool success) {... */\n    tag_90:\n        /* \"tema/EIP20Token.sol\":1248:1260  bool success */\n      0x00\n        /* \"tema/EIP20Token.sol\":1305:1311  _value */\n      dup2\n        /* \"tema/EIP20Token.sol\":1281:1289  balances */\n      0x01\n        /* \"tema/EIP20Token.sol\":1281:1301  balances[msg.sender] */\n      0x00\n        /* \"tema/EIP20Token.sol\":1290:1300  msg.sender */\n      caller\n        /* \"tema/EIP20Token.sol\":1281:1301  balances[msg.sender] */\n      0xffffffffffffffffffffffffffffffffffffffff\n      and\n      0xffffffffffffffffffffffffffffffffffffffff\n      and\n      dup2\n      mstore\n      0x20\n      add\n      swap1\n      dup2\n      mstore\n      0x20\n      add\n      0x00\n      keccak256\n      sload\n        /* \"tema/EIP20Token.sol\":1281:1311  balances[msg.sender] >= _value */\n      lt\n      iszero\n        /* \"tema/EIP20Token.sol\":1273:1336  require(balances[msg.sender] >= _value, \"Insufficient balance\") */\n      tag_147\n      jumpi\n      mload(0x40)\n      0x08c379a000000000000000000000000000000000000000000000000000000000\n      dup2\n      mstore\n      0x04\n      add\n      tag_148\n      swap1\n      tag_108\n      jump\t// in\n    tag_148:\n      mload(0x40)\n      dup1\n      swap2\n      sub\n      swap1\n      revert\n    tag_147:\n        /* \"tema/EIP20Token.sol\":1371:1377  _value */\n      dup2\n        /* \"tema/EIP20Token.sol\":1347:1355  balances */\n      0x01\n        /* \"tema/EIP20Token.sol\":1347:1367  balances[msg.sender] */\n      0x00\n        /* \"tema/EIP20Token.sol\":1356:1366  msg.sender */\n      caller\n        /* \"tema/EIP20Token.sol\":1347:1367  balances[msg.sender] */\n      0xffffffffffffffffffffffffffffffffffffffff\n      and\n      0xffffffffffffffffffffffffffffffffffffffff\n      and\n      dup2\n      mstore\n      0x20\n      add\n      swap1\n      dup2\n      mstore\n      0x20\n      add\n      0x00\n      keccak256\n      0x00\n        /* \"tema/EIP20Token.sol\":1347:1377  balances[msg.sender] -= _value */\n      dup3\n      dup3\n      sload\n      tag_149\n      swap2\n      swap1\n      tag_113\n      jump\t// in\n    tag_149:\n      swap3\n      pop\n      pop\n      dup2\n      swap1\n      sstore\n      pop\n        /* \"tema/EIP20Token.sol\":1405:1411  _value */\n      dup2\n        /* \"tema/EIP20Token.sol\":1388:1396  balances */\n      0x01\n        /* \"tema/EIP20Token.sol\":1388:1401  balances[_to] */\n      0x00\n        /* \"tema/EIP20Token.sol\":1397:1400  _to */\n      dup6\n        /* \"tema/EIP20Token.sol\":1388:1401  balances[_to] */\n      0xffffffffffffffffffffffffffffffffffffffff\n      and\n      0xffffffffffffffffffffffffffffffffffffffff\n      and\n      dup2\n      mstore\n      0x20\n      add\n      swap1\n      dup2\n      mstore\n      0x20\n      add\n      0x00\n      keccak256\n      0x00\n        /* \"tema/EIP20Token.sol\":1388:1411  balances[_to] += _value */\n      dup3\n      dup3\n      sload\n      tag_150\n      swap2\n      swap1\n      tag_115\n      jump\t// in\n    tag_150:\n      swap3\n      pop\n      pop\n      dup2\n      swap1\n      sstore\n      pop\n        /* \"tema/EIP20Token.sol\":1448:1451  _to */\n      dup3\n        /* \"tema/EIP20Token.sol\":1427:1460  Transfer(msg.sender, _to, _value) */\n      0xffffffffffffffffffffffffffffffffffffffff\n      and\n        /* \"tema/EIP20Token.sol\":1436:1446  msg.sender */\n      caller\n        /* \"tema/EIP20Token.sol\":1427:1460  Transfer(msg.sender, _to, _value) */\n      0xffffffffffffffffffffffffffffffffffffffff\n      and\n      0xddf252ad1be2c89b69c2b068fc378daa952ba7f163c4a11628f55a4df523b3ef\n        /* \"tema/EIP20Token.sol\":1453:1459  _value */\n      dup5\n        /* \"tema/EIP20Token.sol\":1427:1460  Transfer(msg.sender, _to, _value) */\n      mload(0x40)\n      tag_151\n      swap2\n      swap1\n      tag_36\n      jump\t// in\n    tag_151:\n      mload(0x40)\n      dup1\n      swap2\n      sub\n      swap1\n      log3\n        /* \"tema/EIP20Token.sol\":1478:1482  true */\n      0x01\n        /* \"tema/EIP20Token.sol\":1471:1482  return true */\n      swap1\n      pop\n        /* \"tema/EIP20Token.sol\":1185:1490  function transfer(address _to, uint256 _value) public returns (bool success) {... */\n      swap3\n      swap2\n      pop\n      pop\n      jump\t// out\n        /* \"tema/EIP20Token.sol\":2266:2410  function allowance(address _owner, address _spender) public view returns (uint256 remaining) {... */\n    tag_95:\n        /* \"tema/EIP20Token.sol\":2340:2357  uint256 remaining */\n      0x00\n        /* \"tema/EIP20Token.sol\":2377:2384  allowed */\n      0x02\n        /* \"tema/EIP20Token.sol\":2377:2392  allowed[_owner] */\n      0x00\n        /* \"tema/EIP20Token.sol\":2385:2391  _owner */\n      dup5\n        /* \"tema/EIP20Token.sol\":2377:2392  allowed[_owner] */\n      0xffffffffffffffffffffffffffffffffffffffff\n      and\n      0xffffffffffffffffffffffffffffffffffffffff\n      and\n      dup2\n      mstore\n      0x20\n      add\n      swap1\n      dup2\n      mstore\n      0x20\n      add\n      0x00\n      keccak256\n        /* \"tema/EIP20Token.sol\":2377:2402  allowed[_owner][_spender] */\n      0x00\n        /* \"tema/EIP20Token.sol\":2393:2401  _spender */\n      dup4\n        /* \"tema/EIP20Token.sol\":2377:2402  allowed[_owner][_spender] */\n      0xffffffffffffffffffffffffffffffffffffffff\n      and\n      0xffffffffffffffffffffffffffffffffffffffff\n      and\n      dup2\n      mstore\n      0x20\n      add\n      swap1\n      dup2\n      mstore\n      0x20\n      add\n      0x00\n      keccak256\n      sload\n        /* \"tema/EIP20Token.sol\":2370:2402  return allowed[_owner][_spender] */\n      swap1\n      pop\n        /* \"tema/EIP20Token.sol\":2266:2410  function allowance(address _owner, address _spender) public view returns (uint256 remaining) {... */\n      swap3\n      swap2\n      pop\n      pop\n      jump\t// out\n        /* \"#utility.yul\":7:106   */\n    tag_153:\n        /* \"#utility.yul\":59:65   */\n      0x00\n        /* \"#utility.yul\":93:98   */\n      dup2\n        /* \"#utility.yul\":87:99   */\n      mload\n        /* \"#utility.yul\":77:99   */\n      swap1\n      pop\n        /* \"#utility.yul\":7:106   */\n      swap2\n      swap1\n      pop\n      jump\t// out\n        /* \"#utility.yul\":112:281   */\n    tag_154:\n        /* \"#utility.yul\":196:207   */\n      0x00\n        /* \"#utility.yul\":230:236   */\n      dup3\n        /* \"#utility.yul\":225:228   */\n      dup3\n        /* \"#utility.yul\":218:237   */\n      mstore\n        /* \"#utility.yul\":270:274   */\n      0x20\n        /* \"#utility.yul\":265:268   */\n      dup3\n        /* \"#utility.yul\":261:275   */\n      add\n        /* \"#utility.yul\":246:275   */\n      swap1\n      pop\n        /* \"#utility.yul\":112:281   */\n      swap3\n      swap2\n      pop\n      pop\n      jump\t// out\n        /* \"#utility.yul\":287:426   */\n    tag_155:\n        /* \"#utility.yul\":376:382   */\n      dup3\n        /* \"#utility.yul\":371:374   */\n      dup2\n        /* \"#utility.yul\":366:369   */\n      dup4\n        /* \"#utility.yul\":360:383   */\n      mcopy\n        /* \"#utility.yul\":417:418   */\n      0x00\n        /* \"#utility.yul\":408:414   */\n      dup4\n        /* \"#utility.yul\":403:406   */\n      dup4\n        /* \"#utility.yul\":399:415   */\n      add\n        /* \"#utility.yul\":392:419   */\n      mstore\n        /* \"#utility.yul\":287:426   */\n      pop\n      pop\n      pop\n      jump\t// out\n        /* \"#utility.yul\":432:534   */\n    tag_156:\n        /* \"#utility.yul\":473:479   */\n      0x00\n        /* \"#utility.yul\":524:526   */\n      0x1f\n        /* \"#utility.yul\":520:527   */\n      not\n        /* \"#utility.yul\":515:517   */\n      0x1f\n        /* \"#utility.yul\":508:513   */\n      dup4\n        /* \"#utility.yul\":504:518   */\n      add\n        /* \"#utility.yul\":500:528   */\n      and\n        /* \"#utility.yul\":490:528   */\n      swap1\n      pop\n        /* \"#utility.yul\":432:534   */\n      swap2\n      swap1\n      pop\n      jump\t// out\n        /* \"#utility.yul\":540:917   */\n    tag_157:\n        /* \"#utility.yul\":628:631   */\n      0x00\n        /* \"#utility.yul\":656:695   */\n      tag_192\n        /* \"#utility.yul\":689:694   */\n      dup3\n        /* \"#utility.yul\":656:695   */\n      tag_153\n      jump\t// in\n    tag_192:\n        /* \"#utility.yul\":711:782   */\n      tag_193\n        /* \"#utility.yul\":775:781   */\n      dup2\n        /* \"#utility.yul\":770:773   */\n      dup6\n        /* \"#utility.yul\":711:782   */\n      tag_154\n      jump\t// in\n    tag_193:\n        /* \"#utility.yul\":704:782   */\n      swap4\n      pop\n        /* \"#utility.yul\":791:856   */\n      tag_194\n        /* \"#utility.yul\":849:855   */\n      dup2\n        /* \"#utility.yul\":844:847   */\n      dup6\n        /* \"#utility.yul\":837:841   */\n      0x20\n        /* \"#utility.yul\":830:835   */\n      dup7\n        /* \"#utility.yul\":826:842   */\n      add\n        /* \"#utility.yul\":791:856   */\n      tag_155\n      jump\t// in\n    tag_194:\n        /* \"#utility.yul\":881:910   */\n      tag_195\n        /* \"#utility.yul\":903:909   */\n      dup2\n        /* \"#utility.yul\":881:910   */\n      tag_156\n      jump\t// in\n    tag_195:\n        /* \"#utility.yul\":876:879   */\n      dup5\n        /* \"#utility.yul\":872:911   */\n      add\n        /* \"#utility.yul\":865:911   */\n      swap2\n      pop\n        /* \"#utility.yul\":632:917   */\n      pop\n        /* \"#utility.yul\":540:917   */\n      swap3\n      swap2\n      pop\n      pop\n      jump\t// out\n        /* \"#utility.yul\":923:1236   */\n    tag_24:\n        /* \"#utility.yul\":1036:1040   */\n      0x00\n        /* \"#utility.yul\":1074:1076   */\n      0x20\n        /* \"#utility.yul\":1063:1072   */\n      dup3\n        /* \"#utility.yul\":1059:1077   */\n      add\n        /* \"#utility.yul\":1051:1077   */\n      swap1\n      pop\n        /* \"#utility.yul\":1123:1132   */\n      dup2\n        /* \"#utility.yul\":1117:1121   */\n      dup2\n        /* \"#utility.yul\":1113:1133   */\n      sub\n        /* \"#utility.yul\":1109:1110   */\n      0x00\n        /* \"#utility.yul\":1098:1107   */\n      dup4\n        /* \"#utility.yul\":1094:1111   */\n      add\n        /* \"#utility.yul\":1087:1134   */\n      mstore\n        /* \"#utility.yul\":1151:1229   */\n      tag_197\n        /* \"#utility.yul\":1224:1228   */\n      dup2\n        /* \"#utility.yul\":1215:1221   */\n      dup5\n        /* \"#utility.yul\":1151:1229   */\n      tag_157\n      jump\t// in\n    tag_197:\n        /* \"#utility.yul\":1143:1229   */\n      swap1\n      pop\n        /* \"#utility.yul\":923:1236   */\n      swap3\n      swap2\n      pop\n      pop\n      jump\t// out\n        /* \"#utility.yul\":1323:1440   */\n    tag_159:\n        /* \"#utility.yul\":1432:1433   */\n      0x00\n        /* \"#utility.yul\":1429:1430   */\n      dup1\n        /* \"#utility.yul\":1422:1434   */\n      revert\n        /* \"#utility.yul\":1569:1695   */\n    tag_161:\n        /* \"#utility.yul\":1606:1613   */\n      0x00\n        /* \"#utility.yul\":1646:1688   */\n      0xffffffffffffffffffffffffffffffffffffffff\n        /* \"#utility.yul\":1639:1644   */\n      dup3\n        /* \"#utility.yul\":1635:1689   */\n      and\n        /* \"#utility.yul\":1624:1689   */\n      swap1\n      pop\n        /* \"#utility.yul\":1569:1695   */\n      swap2\n      swap1\n      pop\n      jump\t// out\n        /* \"#utility.yul\":1701:1797   */\n    tag_162:\n        /* \"#utility.yul\":1738:1745   */\n      0x00\n        /* \"#utility.yul\":1767:1791   */\n      tag_203\n        /* \"#utility.yul\":1785:1790   */\n      dup3\n        /* \"#utility.yul\":1767:1791   */\n      tag_161\n      jump\t// in\n    tag_203:\n        /* \"#utility.yul\":1756:1791   */\n      swap1\n      pop\n        /* \"#utility.yul\":1701:1797   */\n      swap2\n      swap1\n      pop\n      jump\t// out\n        /* \"#utility.yul\":1803:1925   */\n    tag_163:\n        /* \"#utility.yul\":1876:1900   */\n      tag_205\n        /* \"#utility.yul\":1894:1899   */\n      dup2\n        /* \"#utility.yul\":1876:1900   */\n      tag_162\n      jump\t// in\n    tag_205:\n        /* \"#utility.yul\":1869:1874   */\n      dup2\n        /* \"#utility.yul\":1866:1901   */\n      eq\n        /* \"#utility.yul\":1856:1919   */\n      tag_206\n      jumpi\n        /* \"#utility.yul\":1915:1916   */\n      0x00\n        /* \"#utility.yul\":1912:1913   */\n      dup1\n        /* \"#utility.yul\":1905:1917   */\n      revert\n        /* \"#utility.yul\":1856:1919   */\n    tag_206:\n        /* \"#utility.yul\":1803:1925   */\n      pop\n      jump\t// out\n        /* \"#utility.yul\":1931:2070   */\n    tag_164:\n        /* \"#utility.yul\":1977:1982   */\n      0x00\n        /* \"#utility.yul\":2015:2021   */\n      dup2\n        /* \"#utility.yul\":2002:2022   */\n      calldataload\n        /* \"#utility.yul\":1993:2022   */\n      swap1\n      pop\n        /* \"#utility.yul\":2031:2064   */\n      tag_208\n        /* \"#utility.yul\":2058:2063   */\n      dup2\n        /* \"#utility.yul\":2031:2064   */\n      tag_163\n      jump\t// in\n    tag_208:\n        /* \"#utility.yul\":1931:2070   */\n      swap3\n      swap2\n      pop\n      pop\n      jump\t// out\n        /* \"#utility.yul\":2076:2153   */\n    tag_165:\n        /* \"#utility.yul\":2113:2120   */\n      0x00\n        /* \"#utility.yul\":2142:2147   */\n      dup2\n        /* \"#utility.yul\":2131:2147   */\n      swap1\n      pop\n        /* \"#utility.yul\":2076:2153   */\n      swap2\n      swap1\n      pop\n      jump\t// out\n        /* \"#utility.yul\":2159:2281   */\n    tag_166:\n        /* \"#utility.yul\":2232:2256   */\n      tag_211\n        /* \"#utility.yul\":2250:2255   */\n      dup2\n        /* \"#utility.yul\":2232:2256   */\n      tag_165\n      jump\t// in\n    tag_211:\n        /* \"#utility.yul\":2225:2230   */\n      dup2\n        /* \"#utility.yul\":2222:2257   */\n      eq\n        /* \"#utility.yul\":2212:2275   */\n      tag_212\n      jumpi\n        /* \"#utility.yul\":2271:2272   */\n      0x00\n        /* \"#utility.yul\":2268:2269   */\n      dup1\n        /* \"#utility.yul\":2261:2273   */\n      revert\n        /* \"#utility.yul\":2212:2275   */\n    tag_212:\n        /* \"#utility.yul\":2159:2281   */\n      pop\n      jump\t// out\n        /* \"#utility.yul\":2287:2426   */\n    tag_167:\n        /* \"#utility.yul\":2333:2338   */\n      0x00\n        /* \"#utility.yul\":2371:2377   */\n      dup2\n        /* \"#utility.yul\":2358:2378   */\n      calldataload\n        /* \"#utility.yul\":2349:2378   */\n      swap1\n      pop\n        /* \"#utility.yul\":2387:2420   */\n      tag_214\n        /* \"#utility.yul\":2414:2419   */\n      dup2\n        /* \"#utility.yul\":2387:2420   */\n      tag_166\n      jump\t// in\n    tag_214:\n        /* \"#utility.yul\":2287:2426   */\n      swap3\n      swap2\n      pop\n      pop\n      jump\t// out\n        /* \"#utility.yul\":2432:2906   */\n    tag_28:\n        /* \"#utility.yul\":2500:2506   */\n      0x00\n        /* \"#utility.yul\":2508:2514   */\n      dup1\n        /* \"#utility.yul\":2557:2559   */\n      0x40\n        /* \"#utility.yul\":2545:2554   */\n      dup4\n        /* \"#utility.yul\":2536:2543   */\n      dup6\n        /* \"#utility.yul\":2532:2555   */\n      sub\n        /* \"#utility.yul\":2528:2560   */\n      slt\n        /* \"#utility.yul\":2525:2644   */\n      iszero\n      tag_216\n      jumpi\n        /* \"#utility.yul\":2563:2642   */\n      tag_217\n      tag_159\n      jump\t// in\n    tag_217:\n        /* \"#utility.yul\":2525:2644   */\n    tag_216:\n        /* \"#utility.yul\":2683:2684   */\n      0x00\n        /* \"#utility.yul\":2708:2761   */\n      tag_218\n        /* \"#utility.yul\":2753:2760   */\n      dup6\n        /* \"#utility.yul\":2744:2750   */\n      dup3\n        /* \"#utility.yul\":2733:2742   */\n      dup7\n        /* \"#utility.yul\":2729:2751   */\n      add\n        /* \"#utility.yul\":2708:2761   */\n      tag_164\n      jump\t// in\n    tag_218:\n        /* \"#utility.yul\":2698:2761   */\n      swap3\n      pop\n        /* \"#utility.yul\":2654:2771   */\n      pop\n        /* \"#utility.yul\":2810:2812   */\n      0x20\n        /* \"#utility.yul\":2836:2889   */\n      tag_219\n        /* \"#utility.yul\":2881:2888   */\n      dup6\n        /* \"#utility.yul\":2872:2878   */\n      dup3\n        /* \"#utility.yul\":2861:2870   */\n      dup7\n        /* \"#utility.yul\":2857:2879   */\n      add\n        /* \"#utility.yul\":2836:2889   */\n      tag_167\n      jump\t// in\n    tag_219:\n        /* \"#utility.yul\":2826:2889   */\n      swap2\n      pop\n        /* \"#utility.yul\":2781:2899   */\n      pop\n        /* \"#utility.yul\":2432:2906   */\n      swap3\n      pop\n      swap3\n      swap1\n      pop\n      jump\t// out\n        /* \"#utility.yul\":2912:3002   */\n    tag_168:\n        /* \"#utility.yul\":2946:2953   */\n      0x00\n        /* \"#utility.yul\":2989:2994   */\n      dup2\n        /* \"#utility.yul\":2982:2995   */\n      iszero\n        /* \"#utility.yul\":2975:2996   */\n      iszero\n        /* \"#utility.yul\":2964:2996   */\n      swap1\n      pop\n        /* \"#utility.yul\":2912:3002   */\n      swap2\n      swap1\n      pop\n      jump\t// out\n        /* \"#utility.yul\":3008:3117   */\n    tag_169:\n        /* \"#utility.yul\":3089:3110   */\n      tag_222\n        /* \"#utility.yul\":3104:3109   */\n      dup2\n        /* \"#utility.yul\":3089:3110   */\n      tag_168\n      jump\t// in\n    tag_222:\n        /* \"#utility.yul\":3084:3087   */\n      dup3\n        /* \"#utility.yul\":3077:3111   */\n      mstore\n        /* \"#utility.yul\":3008:3117   */\n      pop\n      pop\n      jump\t// out\n        /* \"#utility.yul\":3123:3333   */\n    tag_31:\n        /* \"#utility.yul\":3210:3214   */\n      0x00\n        /* \"#utility.yul\":3248:3250   */\n      0x20\n        /* \"#utility.yul\":3237:3246   */\n      dup3\n        /* \"#utility.yul\":3233:3251   */\n      add\n        /* \"#utility.yul\":3225:3251   */\n      swap1\n      pop\n        /* \"#utility.yul\":3261:3326   */\n      tag_224\n        /* \"#utility.yul\":3323:3324   */\n      0x00\n        /* \"#utility.yul\":3312:3321   */\n      dup4\n        /* \"#utility.yul\":3308:3325   */\n      add\n        /* \"#utility.yul\":3299:3305   */\n      dup5\n        /* \"#utility.yul\":3261:3326   */\n      tag_169\n      jump\t// in\n    tag_224:\n        /* \"#utility.yul\":3123:3333   */\n      swap3\n      swap2\n      pop\n      pop\n      jump\t// out\n        /* \"#utility.yul\":3339:3457   */\n    tag_170:\n        /* \"#utility.yul\":3426:3450   */\n      tag_226\n        /* \"#utility.yul\":3444:3449   */\n      dup2\n        /* \"#utility.yul\":3426:3450   */\n      tag_165\n      jump\t// in\n    tag_226:\n        /* \"#utility.yul\":3421:3424   */\n      dup3\n        /* \"#utility.yul\":3414:3451   */\n      mstore\n        /* \"#utility.yul\":3339:3457   */\n      pop\n      pop\n      jump\t// out\n        /* \"#utility.yul\":3463:3685   */\n    tag_36:\n        /* \"#utility.yul\":3556:3560   */\n      0x00\n        /* \"#utility.yul\":3594:3596   */\n      0x20\n        /* \"#utility.yul\":3583:3592   */\n      dup3\n        /* \"#utility.yul\":3579:3597   */\n      add\n        /* \"#utility.yul\":3571:3597   */\n      swap1\n      pop\n        /* \"#utility.yul\":3607:3678   */\n      tag_228\n        /* \"#utility.yul\":3675:3676   */\n      0x00\n        /* \"#utility.yul\":3664:3673   */\n      dup4\n        /* \"#utility.yul\":3660:3677   */\n      add\n        /* \"#utility.yul\":3651:3657   */\n      dup5\n        /* \"#utility.yul\":3607:3678   */\n      tag_170\n      jump\t// in\n    tag_228:\n        /* \"#utility.yul\":3463:3685   */\n      swap3\n      swap2\n      pop\n      pop\n      jump\t// out\n        /* \"#utility.yul\":3691:4310   */\n    tag_40:\n        /* \"#utility.yul\":3768:3774   */\n      0x00\n        /* \"#utility.yul\":3776:3782   */\n      dup1\n        /* \"#utility.yul\":3784:3790   */\n      0x00\n        /* \"#utility.yul\":3833:3835   */\n      0x60\n        /* \"#utility.yul\":3821:3830   */\n      dup5\n        /* \"#utility.yul\":3812:3819   */\n      dup7\n        /* \"#utility.yul\":3808:3831   */\n      sub\n        /* \"#utility.yul\":3804:3836   */\n      slt\n        /* \"#utility.yul\":3801:3920   */\n      iszero\n      tag_230\n      jumpi\n        /* \"#utility.yul\":3839:3918   */\n      tag_231\n      tag_159\n      jump\t// in\n    tag_231:\n        /* \"#utility.yul\":3801:3920   */\n    tag_230:\n        /* \"#utility.yul\":3959:3960   */\n      0x00\n        /* \"#utility.yul\":3984:4037   */\n      tag_232\n        /* \"#utility.yul\":4029:4036   */\n      dup7\n        /* \"#utility.yul\":4020:4026   */\n      dup3\n        /* \"#utility.yul\":4009:4018   */\n      dup8\n        /* \"#utility.yul\":4005:4027   */\n      add\n        /* \"#utility.yul\":3984:4037   */\n      tag_164\n      jump\t// in\n    tag_232:\n        /* \"#utility.yul\":3974:4037   */\n      swap4\n      pop\n        /* \"#utility.yul\":3930:4047   */\n      pop\n        /* \"#utility.yul\":4086:4088   */\n      0x20\n        /* \"#utility.yul\":4112:4165   */\n      tag_233\n        /* \"#utility.yul\":4157:4164   */\n      dup7\n        /* \"#utility.yul\":4148:4154   */\n      dup3\n        /* \"#utility.yul\":4137:4146   */\n      dup8\n        /* \"#utility.yul\":4133:4155   */\n      add\n        /* \"#utility.yul\":4112:4165   */\n      tag_164\n      jump\t// in\n    tag_233:\n        /* \"#utility.yul\":4102:4165   */\n      swap3\n      pop\n        /* \"#utility.yul\":4057:4175   */\n      pop\n        /* \"#utility.yul\":4214:4216   */\n      0x40\n        /* \"#utility.yul\":4240:4293   */\n      tag_234\n        /* \"#utility.yul\":4285:4292   */\n      dup7\n        /* \"#utility.yul\":4276:4282   */\n      dup3\n        /* \"#utility.yul\":4265:4274   */\n      dup8\n        /* \"#utility.yul\":4261:4283   */\n      add\n        /* \"#utility.yul\":4240:4293   */\n      tag_167\n      jump\t// in\n    tag_234:\n        /* \"#utility.yul\":4230:4293   */\n      swap2\n      pop\n        /* \"#utility.yul\":4185:4303   */\n      pop\n        /* \"#utility.yul\":3691:4310   */\n      swap3\n      pop\n      swap3\n      pop\n      swap3\n      jump\t// out\n        /* \"#utility.yul\":4316:4645   */\n    tag_46:\n        /* \"#utility.yul\":4375:4381   */\n      0x00\n        /* \"#utility.yul\":4424:4426   */\n      0x20\n        /* \"#utility.yul\":4412:4421   */\n      dup3\n        /* \"#utility.yul\":4403:4410   */\n      dup5\n        /* \"#utility.yul\":4399:4422   */\n      sub\n        /* \"#utility.yul\":4395:4427   */\n      slt\n        /* \"#utility.yul\":4392:4511   */\n      iszero\n      tag_236\n      jumpi\n        /* \"#utility.yul\":4430:4509   */\n      tag_237\n      tag_159\n      jump\t// in\n    tag_237:\n        /* \"#utility.yul\":4392:4511   */\n    tag_236:\n        /* \"#utility.yul\":4550:4551   */\n      0x00\n        /* \"#utility.yul\":4575:4628   */\n      tag_238\n        /* \"#utility.yul\":4620:4627   */\n      dup5\n        /* \"#utility.yul\":4611:4617   */\n      dup3\n        /* \"#utility.yul\":4600:4609   */\n      dup6\n        /* \"#utility.yul\":4596:4618   */\n      add\n        /* \"#utility.yul\":4575:4628   */\n      tag_164\n      jump\t// in\n    tag_238:\n        /* \"#utility.yul\":4565:4628   */\n      swap2\n      pop\n        /* \"#utility.yul\":4521:4638   */\n      pop\n        /* \"#utility.yul\":4316:4645   */\n      swap3\n      swap2\n      pop\n      pop\n      jump\t// out\n        /* \"#utility.yul\":4651:4737   */\n    tag_171:\n        /* \"#utility.yul\":4686:4693   */\n      0x00\n        /* \"#utility.yul\":4726:4730   */\n      0xff\n        /* \"#utility.yul\":4719:4724   */\n      dup3\n        /* \"#utility.yul\":4715:4731   */\n      and\n        /* \"#utility.yul\":4704:4731   */\n      swap1\n      pop\n        /* \"#utility.yul\":4651:4737   */\n      swap2\n      swap1\n      pop\n      jump\t// out\n        /* \"#utility.yul\":4743:4855   */\n    tag_172:\n        /* \"#utility.yul\":4826:4848   */\n      tag_241\n        /* \"#utility.yul\":4842:4847   */\n      dup2\n        /* \"#utility.yul\":4826:4848   */\n      tag_171\n      jump\t// in\n    tag_241:\n        /* \"#utility.yul\":4821:4824   */\n      dup3\n        /* \"#utility.yul\":4814:4849   */\n      mstore\n        /* \"#utility.yul\":4743:4855   */\n      pop\n      pop\n      jump\t// out\n        /* \"#utility.yul\":4861:5075   */\n    tag_53:\n        /* \"#utility.yul\":4950:4954   */\n      0x00\n        /* \"#utility.yul\":4988:4990   */\n      0x20\n        /* \"#utility.yul\":4977:4986   */\n      dup3\n        /* \"#utility.yul\":4973:4991   */\n      add\n        /* \"#utility.yul\":4965:4991   */\n      swap1\n      pop\n        /* \"#utility.yul\":5001:5068   */\n      tag_243\n        /* \"#utility.yul\":5065:5066   */\n      0x00\n        /* \"#utility.yul\":5054:5063   */\n      dup4\n        /* \"#utility.yul\":5050:5067   */\n      add\n        /* \"#utility.yul\":5041:5047   */\n      dup5\n        /* \"#utility.yul\":5001:5068   */\n      tag_172\n      jump\t// in\n    tag_243:\n        /* \"#utility.yul\":4861:5075   */\n      swap3\n      swap2\n      pop\n      pop\n      jump\t// out\n        /* \"#utility.yul\":5081:5555   */\n    tag_57:\n        /* \"#utility.yul\":5149:5155   */\n      0x00\n        /* \"#utility.yul\":5157:5163   */\n      dup1\n        /* \"#utility.yul\":5206:5208   */\n      0x40\n        /* \"#utility.yul\":5194:5203   */\n      dup4\n        /* \"#utility.yul\":5185:5192   */\n      dup6\n        /* \"#utility.yul\":5181:5204   */\n      sub\n        /* \"#utility.yul\":5177:5209   */\n      slt\n        /* \"#utility.yul\":5174:5293   */\n      iszero\n      tag_245\n      jumpi\n        /* \"#utility.yul\":5212:5291   */\n      tag_246\n      tag_159\n      jump\t// in\n    tag_246:\n        /* \"#utility.yul\":5174:5293   */\n    tag_245:\n        /* \"#utility.yul\":5332:5333   */\n      0x00\n        /* \"#utility.yul\":5357:5410   */\n      tag_247\n        /* \"#utility.yul\":5402:5409   */\n      dup6\n        /* \"#utility.yul\":5393:5399   */\n      dup3\n        /* \"#utility.yul\":5382:5391   */\n      dup7\n        /* \"#utility.yul\":5378:5400   */\n      add\n        /* \"#utility.yul\":5357:5410   */\n      tag_164\n      jump\t// in\n    tag_247:\n        /* \"#utility.yul\":5347:5410   */\n      swap3\n      pop\n        /* \"#utility.yul\":5303:5420   */\n      pop\n        /* \"#utility.yul\":5459:5461   */\n      0x20\n        /* \"#utility.yul\":5485:5538   */\n      tag_248\n        /* \"#utility.yul\":5530:5537   */\n      dup6\n        /* \"#utility.yul\":5521:5527   */\n      dup3\n        /* \"#utility.yul\":5510:5519   */\n      dup7\n        /* \"#utility.yul\":5506:5528   */\n      add\n        /* \"#utility.yul\":5485:5538   */\n      tag_164\n      jump\t// in\n    tag_248:\n        /* \"#utility.yul\":5475:5538   */\n      swap2\n      pop\n        /* \"#utility.yul\":5430:5548   */\n      pop\n        /* \"#utility.yul\":5081:5555   */\n      swap3\n      pop\n      swap3\n      swap1\n      pop\n      jump\t// out\n        /* \"#utility.yul\":5561:5890   */\n    tag_63:\n        /* \"#utility.yul\":5620:5626   */\n      0x00\n        /* \"#utility.yul\":5669:5671   */\n      0x20\n        /* \"#utility.yul\":5657:5666   */\n      dup3\n        /* \"#utility.yul\":5648:5655   */\n      dup5\n        /* \"#utility.yul\":5644:5667   */\n      sub\n        /* \"#utility.yul\":5640:5672   */\n      slt\n        /* \"#utility.yul\":5637:5756   */\n      iszero\n      tag_250\n      jumpi\n        /* \"#utility.yul\":5675:5754   */\n      tag_251\n      tag_159\n      jump\t// in\n    tag_251:\n        /* \"#utility.yul\":5637:5756   */\n    tag_250:\n        /* \"#utility.yul\":5795:5796   */\n      0x00\n        /* \"#utility.yul\":5820:5873   */\n      tag_252\n        /* \"#utility.yul\":5865:5872   */\n      dup5\n        /* \"#utility.yul\":5856:5862   */\n      dup3\n        /* \"#utility.yul\":5845:5854   */\n      dup6\n        /* \"#utility.yul\":5841:5863   */\n      add\n        /* \"#utility.yul\":5820:5873   */\n      tag_167\n      jump\t// in\n    tag_252:\n        /* \"#utility.yul\":5810:5873   */\n      swap2\n      pop\n        /* \"#utility.yul\":5766:5883   */\n      pop\n        /* \"#utility.yul\":5561:5890   */\n      swap3\n      swap2\n      pop\n      pop\n      jump\t// out\n        /* \"#utility.yul\":5896:6014   */\n    tag_173:\n        /* \"#utility.yul\":5983:6007   */\n      tag_254\n        /* \"#utility.yul\":6001:6006   */\n      dup2\n        /* \"#utility.yul\":5983:6007   */\n      tag_162\n      jump\t// in\n    tag_254:\n        /* \"#utility.yul\":5978:5981   */\n      dup3\n        /* \"#utility.yul\":5971:6008   */\n      mstore\n        /* \"#utility.yul\":5896:6014   */\n      pop\n      pop\n      jump\t// out\n        /* \"#utility.yul\":6020:6242   */\n    tag_82:\n        /* \"#utility.yul\":6113:6117   */\n      0x00\n        /* \"#utility.yul\":6151:6153   */\n      0x20\n        /* \"#utility.yul\":6140:6149   */\n      dup3\n        /* \"#utility.yul\":6136:6154   */\n      add\n        /* \"#utility.yul\":6128:6154   */\n      swap1\n      pop\n        /* \"#utility.yul\":6164:6235   */\n      tag_256\n        /* \"#utility.yul\":6232:6233   */\n      0x00\n        /* \"#utility.yul\":6221:6230   */\n      dup4\n        /* \"#utility.yul\":6217:6234   */\n      add\n        /* \"#utility.yul\":6208:6214   */\n      dup5\n        /* \"#utility.yul\":6164:6235   */\n      tag_173\n      jump\t// in\n    tag_256:\n        /* \"#utility.yul\":6020:6242   */\n      swap3\n      swap2\n      pop\n      pop\n      jump\t// out\n        /* \"#utility.yul\":6248:6428   */\n    tag_174:\n        /* \"#utility.yul\":6296:6373   */\n      0x4e487b7100000000000000000000000000000000000000000000000000000000\n        /* \"#utility.yul\":6293:6294   */\n      0x00\n        /* \"#utility.yul\":6286:6374   */\n      mstore\n        /* \"#utility.yul\":6393:6397   */\n      0x22\n        /* \"#utility.yul\":6390:6391   */\n      0x04\n        /* \"#utility.yul\":6383:6398   */\n      mstore\n        /* \"#utility.yul\":6417:6421   */\n      0x24\n        /* \"#utility.yul\":6414:6415   */\n      0x00\n        /* \"#utility.yul\":6407:6422   */\n      revert\n        /* \"#utility.yul\":6434:6754   */\n    tag_98:\n        /* \"#utility.yul\":6478:6484   */\n      0x00\n        /* \"#utility.yul\":6515:6516   */\n      0x02\n        /* \"#utility.yul\":6509:6513   */\n      dup3\n        /* \"#utility.yul\":6505:6517   */\n      div\n        /* \"#utility.yul\":6495:6517   */\n      swap1\n      pop\n        /* \"#utility.yul\":6562:6563   */\n      0x01\n        /* \"#utility.yul\":6556:6560   */\n      dup3\n        /* \"#utility.yul\":6552:6564   */\n      and\n        /* \"#utility.yul\":6583:6601   */\n      dup1\n        /* \"#utility.yul\":6573:6654   */\n      tag_259\n      jumpi\n        /* \"#utility.yul\":6639:6643   */\n      0x7f\n        /* \"#utility.yul\":6631:6637   */\n      dup3\n        /* \"#utility.yul\":6627:6644   */\n      and\n        /* \"#utility.yul\":6617:6644   */\n      swap2\n      pop\n        /* \"#utility.yul\":6573:6654   */\n    tag_259:\n        /* \"#utility.yul\":6701:6703   */\n      0x20\n        /* \"#utility.yul\":6693:6699   */\n      dup3\n        /* \"#utility.yul\":6690:6704   */\n      lt\n        /* \"#utility.yul\":6670:6688   */\n      dup2\n        /* \"#utility.yul\":6667:6705   */\n      sub\n        /* \"#utility.yul\":6664:6748   */\n      tag_260\n      jumpi\n        /* \"#utility.yul\":6720:6738   */\n      tag_261\n      tag_174\n      jump\t// in\n    tag_261:\n        /* \"#utility.yul\":6664:6748   */\n    tag_260:\n        /* \"#utility.yul\":6485:6754   */\n      pop\n        /* \"#utility.yul\":6434:6754   */\n      swap2\n      swap1\n      pop\n      jump\t// out\n        /* \"#utility.yul\":6760:6930   */\n    tag_175:\n        /* \"#utility.yul\":6900:6922   */\n      0x496e73756666696369656e742062616c616e6365000000000000000000000000\n        /* \"#utility.yul\":6896:6897   */\n      0x00\n        /* \"#utility.yul\":6888:6894   */\n      dup3\n        /* \"#utility.yul\":6884:6898   */\n      add\n        /* \"#utility.yul\":6877:6923   */\n      mstore\n        /* \"#utility.yul\":6760:6930   */\n      pop\n      jump\t// out\n        /* \"#utility.yul\":6936:7302   */\n    tag_176:\n        /* \"#utility.yul\":7078:7081   */\n      0x00\n        /* \"#utility.yul\":7099:7166   */\n      tag_264\n        /* \"#utility.yul\":7163:7165   */\n      0x14\n        /* \"#utility.yul\":7158:7161   */\n      dup4\n        /* \"#utility.yul\":7099:7166   */\n      tag_154\n      jump\t// in\n    tag_264:\n        /* \"#utility.yul\":7092:7166   */\n      swap2\n      pop\n        /* \"#utility.yul\":7175:7268   */\n      tag_265\n        /* \"#utility.yul\":7264:7267   */\n      dup3\n        /* \"#utility.yul\":7175:7268   */\n      tag_175\n      jump\t// in\n    tag_265:\n        /* \"#utility.yul\":7293:7295   */\n      0x20\n        /* \"#utility.yul\":7288:7291   */\n      dup3\n        /* \"#utility.yul\":7284:7296   */\n      add\n        /* \"#utility.yul\":7277:7296   */\n      swap1\n      pop\n        /* \"#utility.yul\":6936:7302   */\n      swap2\n      swap1\n      pop\n      jump\t// out\n        /* \"#utility.yul\":7308:7727   */\n    tag_108:\n        /* \"#utility.yul\":7474:7478   */\n      0x00\n        /* \"#utility.yul\":7512:7514   */\n      0x20\n        /* \"#utility.yul\":7501:7510   */\n      dup3\n        /* \"#utility.yul\":7497:7515   */\n      add\n        /* \"#utility.yul\":7489:7515   */\n      swap1\n      pop\n        /* \"#utility.yul\":7561:7570   */\n      dup2\n        /* \"#utility.yul\":7555:7559   */\n      dup2\n        /* \"#utility.yul\":7551:7571   */\n      sub\n        /* \"#utility.yul\":7547:7548   */\n      0x00\n        /* \"#utility.yul\":7536:7545   */\n      dup4\n        /* \"#utility.yul\":7532:7549   */\n      add\n        /* \"#utility.yul\":7525:7572   */\n      mstore\n        /* \"#utility.yul\":7589:7720   */\n      tag_267\n        /* \"#utility.yul\":7715:7719   */\n      dup2\n        /* \"#utility.yul\":7589:7720   */\n      tag_176\n      jump\t// in\n    tag_267:\n        /* \"#utility.yul\":7581:7720   */\n      swap1\n      pop\n        /* \"#utility.yul\":7308:7727   */\n      swap2\n      swap1\n      pop\n      jump\t// out\n        /* \"#utility.yul\":7733:7901   */\n    tag_177:\n        /* \"#utility.yul\":7873:7893   */\n      0x416c6c6f77616e63652065786365656465640000000000000000000000000000\n        /* \"#utility.yul\":7869:7870   */\n      0x00\n        /* \"#utility.yul\":7861:7867   */\n      dup3\n        /* \"#utility.yul\":7857:7871   */\n      add\n        /* \"#utility.yul\":7850:7894   */\n      mstore\n        /* \"#utility.yul\":7733:7901   */\n      pop\n      jump\t// out\n        /* \"#utility.yul\":7907:8273   */\n    tag_178:\n        /* \"#utility.yul\":8049:8052   */\n      0x00\n        /* \"#utility.yul\":8070:8137   */\n      tag_270\n        /* \"#utility.yul\":8134:8136   */\n      0x12\n        /* \"#utility.yul\":8129:8132   */\n      dup4\n        /* \"#utility.yul\":8070:8137   */\n      tag_154\n      jump\t// in\n    tag_270:\n        /* \"#utility.yul\":8063:8137   */\n      swap2\n      pop\n        /* \"#utility.yul\":8146:8239   */\n      tag_271\n        /* \"#utility.yul\":8235:8238   */\n      dup3\n        /* \"#utility.yul\":8146:8239   */\n      tag_177\n      jump\t// in\n    tag_271:\n        /* \"#utility.yul\":8264:8266   */\n      0x20\n        /* \"#utility.yul\":8259:8262   */\n      dup3\n        /* \"#utility.yul\":8255:8267   */\n      add\n        /* \"#utility.yul\":8248:8267   */\n      swap1\n      pop\n        /* \"#utility.yul\":7907:8273   */\n      swap2\n      swap1\n      pop\n      jump\t// out\n        /* \"#utility.yul\":8279:8698   */\n    tag_111:\n        /* \"#utility.yul\":8445:8449   */\n      0x00\n        /* \"#utility.yul\":8483:8485   */\n      0x20\n        /* \"#utility.yul\":8472:8481   */\n      dup3\n        /* \"#utility.yul\":8468:8486   */\n      add\n        /* \"#utility.yul\":8460:8486   */\n      swap1\n      pop\n        /* \"#utility.yul\":8532:8541   */\n      dup2\n        /* \"#utility.yul\":8526:8530   */\n      dup2\n        /* \"#utility.yul\":8522:8542   */\n      sub\n        /* \"#utility.yul\":8518:8519   */\n      0x00\n        /* \"#utility.yul\":8507:8516   */\n      dup4\n        /* \"#utility.yul\":8503:8520   */\n      add\n        /* \"#utility.yul\":8496:8543   */\n      mstore\n        /* \"#utility.yul\":8560:8691   */\n      tag_273\n        /* \"#utility.yul\":8686:8690   */\n      dup2\n        /* \"#utility.yul\":8560:8691   */\n      tag_178\n      jump\t// in\n    tag_273:\n        /* \"#utility.yul\":8552:8691   */\n      swap1\n      pop\n        /* \"#utility.yul\":8279:8698   */\n      swap2\n      swap1\n      pop\n      jump\t// out\n        /* \"#utility.yul\":8704:8884   */\n    tag_179:\n        /* \"#utility.yul\":8752:8829   */\n      0x4e487b7100000000000000000000000000000000000000000000000000000000\n        /* \"#utility.yul\":8749:8750   */\n      0x00\n        /* \"#utility.yul\":8742:8830   */\n      mstore\n        /* \"#utility.yul\":8849:8853   */\n      0x11\n        /* \"#utility.yul\":8846:8847   */\n      0x04\n        /* \"#utility.yul\":8839:8854   */\n      mstore\n        /* \"#utility.yul\":8873:8877   */\n      0x24\n        /* \"#utility.yul\":8870:8871   */\n      0x00\n        /* \"#utility.yul\":8863:8878   */\n      revert\n        /* \"#utility.yul\":8890:9084   */\n    tag_113:\n        /* \"#utility.yul\":8930:8934   */\n      0x00\n        /* \"#utility.yul\":8950:8970   */\n      tag_276\n        /* \"#utility.yul\":8968:8969   */\n      dup3\n        /* \"#utility.yul\":8950:8970   */\n      tag_165\n      jump\t// in\n    tag_276:\n        /* \"#utility.yul\":8945:8970   */\n      swap2\n      pop\n        /* \"#utility.yul\":8984:9004   */\n      tag_277\n        /* \"#utility.yul\":9002:9003   */\n      dup4\n        /* \"#utility.yul\":8984:9004   */\n      tag_165\n      jump\t// in\n    tag_277:\n        /* \"#utility.yul\":8979:9004   */\n      swap3\n      pop\n        /* \"#utility.yul\":9028:9029   */\n      dup3\n        /* \"#utility.yul\":9025:9026   */\n      dup3\n        /* \"#utility.yul\":9021:9030   */\n      sub\n        /* \"#utility.yul\":9013:9030   */\n      swap1\n      pop\n        /* \"#utility.yul\":9052:9053   */\n      dup2\n        /* \"#utility.yul\":9046:9050   */\n      dup2\n        /* \"#utility.yul\":9043:9054   */\n      gt\n        /* \"#utility.yul\":9040:9077   */\n      iszero\n      tag_278\n      jumpi\n        /* \"#utility.yul\":9057:9075   */\n      tag_279\n      tag_179\n      jump\t// in\n    tag_279:\n        /* \"#utility.yul\":9040:9077   */\n    tag_278:\n        /* \"#utility.yul\":8890:9084   */\n      swap3\n      swap2\n      pop\n      pop\n      jump\t// out\n        /* \"#utility.yul\":9090:9281   */\n    tag_115:\n        /* \"#utility.yul\":9130:9133   */\n      0x00\n        /* \"#utility.yul\":9149:9169   */\n      tag_281\n        /* \"#utility.yul\":9167:9168   */\n      dup3\n        /* \"#utility.yul\":9149:9169   */\n      tag_165\n      jump\t// in\n    tag_281:\n        /* \"#utility.yul\":9144:9169   */\n      swap2\n      pop\n        /* \"#utility.yul\":9183:9203   */\n      tag_282\n        /* \"#utility.yul\":9201:9202   */\n      dup4\n        /* \"#utility.yul\":9183:9203   */\n      tag_165\n      jump\t// in\n    tag_282:\n        /* \"#utility.yul\":9178:9203   */\n      swap3\n      pop\n        /* \"#utility.yul\":9226:9227   */\n      dup3\n        /* \"#utility.yul\":9223:9224   */\n      dup3\n        /* \"#utility.yul\":9219:9228   */\n      add\n        /* \"#utility.yul\":9212:9228   */\n      swap1\n      pop\n        /* \"#utility.yul\":9247:9250   */\n      dup1\n        /* \"#utility.yul\":9244:9245   */\n      dup3\n        /* \"#utility.yul\":9241:9251   */\n      gt\n        /* \"#utility.yul\":9238:9274   */\n      iszero\n      tag_283\n      jumpi\n        /* \"#utility.yul\":9254:9272   */\n      tag_284\n      tag_179\n      jump\t// in\n    tag_284:\n        /* \"#utility.yul\":9238:9274   */\n    tag_283:\n        /* \"#utility.yul\":9090:9281   */\n      swap3\n      swap2\n      pop\n      pop\n      jump\t// out\n        /* \"#utility.yul\":9287:9451   */\n    tag_180:\n        /* \"#utility.yul\":9427:9443   */\n      0x4e6f7420617574686f72697a6564000000000000000000000000000000000000\n        /* \"#utility.yul\":9423:9424   */\n      0x00\n        /* \"#utility.yul\":9415:9421   */\n      dup3\n        /* \"#utility.yul\":9411:9425   */\n      add\n        /* \"#utility.yul\":9404:9444   */\n      mstore\n        /* \"#utility.yul\":9287:9451   */\n      pop\n      jump\t// out\n        /* \"#utility.yul\":9457:9823   */\n    tag_181:\n        /* \"#utility.yul\":9599:9602   */\n      0x00\n        /* \"#utility.yul\":9620:9687   */\n      tag_287\n        /* \"#utility.yul\":9684:9686   */\n      0x0e\n        /* \"#utility.yul\":9679:9682   */\n      dup4\n        /* \"#utility.yul\":9620:9687   */\n      tag_154\n      jump\t// in\n    tag_287:\n        /* \"#utility.yul\":9613:9687   */\n      swap2\n      pop\n        /* \"#utility.yul\":9696:9789   */\n      tag_288\n        /* \"#utility.yul\":9785:9788   */\n      dup3\n        /* \"#utility.yul\":9696:9789   */\n      tag_180\n      jump\t// in\n    tag_288:\n        /* \"#utility.yul\":9814:9816   */\n      0x20\n        /* \"#utility.yul\":9809:9812   */\n      dup3\n        /* \"#utility.yul\":9805:9817   */\n      add\n        /* \"#utility.yul\":9798:9817   */\n      swap1\n      pop\n        /* \"#utility.yul\":9457:9823   */\n      swap2\n      swap1\n      pop\n      jump\t// out\n        /* \"#utility.yul\":9829:10248   */\n    tag_122:\n        /* \"#utility.yul\":9995:9999   */\n      0x00\n        /* \"#utility.yul\":10033:10035   */\n      0x20\n        /* \"#utility.yul\":10022:10031   */\n      dup3\n        /* \"#utility.yul\":10018:10036   */\n      add\n        /* \"#utility.yul\":10010:10036   */\n      swap1\n      pop\n        /* \"#utility.yul\":10082:10091   */\n      dup2\n        /* \"#utility.yul\":10076:10080   */\n      dup2\n        /* \"#utility.yul\":10072:10092   */\n      sub\n        /* \"#utility.yul\":10068:10069   */\n      0x00\n        /* \"#utility.yul\":10057:10066   */\n      dup4\n        /* \"#utility.yul\":10053:10070   */\n      add\n        /* \"#utility.yul\":10046:10093   */\n      mstore\n        /* \"#utility.yul\":10110:10241   */\n      tag_290\n        /* \"#utility.yul\":10236:10240   */\n      dup2\n        /* \"#utility.yul\":10110:10241   */\n      tag_181\n      jump\t// in\n    tag_290:\n        /* \"#utility.yul\":10102:10241   */\n      swap1\n      pop\n        /* \"#utility.yul\":9829:10248   */\n      swap2\n      swap1\n      pop\n      jump\t// out\n        /* \"#utility.yul\":10254:10664   */\n    tag_127:\n        /* \"#utility.yul\":10294:10301   */\n      0x00\n        /* \"#utility.yul\":10317:10337   */\n      tag_292\n        /* \"#utility.yul\":10335:10336   */\n      dup3\n        /* \"#utility.yul\":10317:10337   */\n      tag_165\n      jump\t// in\n    tag_292:\n        /* \"#utility.yul\":10312:10337   */\n      swap2\n      pop\n        /* \"#utility.yul\":10351:10371   */\n      tag_293\n        /* \"#utility.yul\":10369:10370   */\n      dup4\n        /* \"#utility.yul\":10351:10371   */\n      tag_165\n      jump\t// in\n    tag_293:\n        /* \"#utility.yul\":10346:10371   */\n      swap3\n      pop\n        /* \"#utility.yul\":10406:10407   */\n      dup3\n        /* \"#utility.yul\":10403:10404   */\n      dup3\n        /* \"#utility.yul\":10399:10408   */\n      mul\n        /* \"#utility.yul\":10428:10458   */\n      tag_294\n        /* \"#utility.yul\":10446:10457   */\n      dup2\n        /* \"#utility.yul\":10428:10458   */\n      tag_165\n      jump\t// in\n    tag_294:\n        /* \"#utility.yul\":10417:10458   */\n      swap2\n      pop\n        /* \"#utility.yul\":10607:10608   */\n      dup3\n        /* \"#utility.yul\":10598:10605   */\n      dup3\n        /* \"#utility.yul\":10594:10609   */\n      div\n        /* \"#utility.yul\":10591:10592   */\n      dup5\n        /* \"#utility.yul\":10588:10610   */\n      eq\n        /* \"#utility.yul\":10568:10569   */\n      dup4\n        /* \"#utility.yul\":10561:10570   */\n      iszero\n        /* \"#utility.yul\":10541:10624   */\n      or\n        /* \"#utility.yul\":10518:10657   */\n      tag_295\n      jumpi\n        /* \"#utility.yul\":10637:10655   */\n      tag_296\n      tag_179\n      jump\t// in\n    tag_296:\n        /* \"#utility.yul\":10518:10657   */\n    tag_295:\n        /* \"#utility.yul\":10302:10664   */\n      pop\n        /* \"#utility.yul\":10254:10664   */\n      swap3\n      swap2\n      pop\n      pop\n      jump\t// out\n        /* \"#utility.yul\":10670:10843   */\n    tag_182:\n        /* \"#utility.yul\":10810:10835   */\n      0x496e73756666696369656e742045746865722073656e74000000000000000000\n        /* \"#utility.yul\":10806:10807   */\n      0x00\n        /* \"#utility.yul\":10798:10804   */\n      dup3\n        /* \"#utility.yul\":10794:10808   */\n      add\n        /* \"#utility.yul\":10787:10836   */\n      mstore\n        /* \"#utility.yul\":10670:10843   */\n      pop\n      jump\t// out\n        /* \"#utility.yul\":10849:11215   */\n    tag_183:\n        /* \"#utility.yul\":10991:10994   */\n      0x00\n        /* \"#utility.yul\":11012:11079   */\n      tag_299\n        /* \"#utility.yul\":11076:11078   */\n      0x17\n        /* \"#utility.yul\":11071:11074   */\n      dup4\n        /* \"#utility.yul\":11012:11079   */\n      tag_154\n      jump\t// in\n    tag_299:\n        /* \"#utility.yul\":11005:11079   */\n      swap2\n      pop\n        /* \"#utility.yul\":11088:11181   */\n      tag_300\n        /* \"#utility.yul\":11177:11180   */\n      dup3\n        /* \"#utility.yul\":11088:11181   */\n      tag_182\n      jump\t// in\n    tag_300:\n        /* \"#utility.yul\":11206:11208   */\n      0x20\n        /* \"#utility.yul\":11201:11204   */\n      dup3\n        /* \"#utility.yul\":11197:11209   */\n      add\n        /* \"#utility.yul\":11190:11209   */\n      swap1\n      pop\n        /* \"#utility.yul\":10849:11215   */\n      swap2\n      swap1\n      pop\n      jump\t// out\n        /* \"#utility.yul\":11221:11640   */\n    tag_130:\n        /* \"#utility.yul\":11387:11391   */\n      0x00\n        /* \"#utility.yul\":11425:11427   */\n      0x20\n        /* \"#utility.yul\":11414:11423   */\n      dup3\n        /* \"#utility.yul\":11410:11428   */\n      add\n        /* \"#utility.yul\":11402:11428   */\n      swap1\n      pop\n        /* \"#utility.yul\":11474:11483   */\n      dup2\n        /* \"#utility.yul\":11468:11472   */\n      dup2\n        /* \"#utility.yul\":11464:11484   */\n      sub\n        /* \"#utility.yul\":11460:11461   */\n      0x00\n        /* \"#utility.yul\":11449:11458   */\n      dup4\n        /* \"#utility.yul\":11445:11462   */\n      add\n        /* \"#utility.yul\":11438:11485   */\n      mstore\n        /* \"#utility.yul\":11502:11633   */\n      tag_302\n        /* \"#utility.yul\":11628:11632   */\n      dup2\n        /* \"#utility.yul\":11502:11633   */\n      tag_183\n      jump\t// in\n    tag_302:\n        /* \"#utility.yul\":11494:11633   */\n      swap1\n      pop\n        /* \"#utility.yul\":11221:11640   */\n      swap2\n      swap1\n      pop\n      jump\t// out\n        /* \"#utility.yul\":11646:11824   */\n    tag_184:\n        /* \"#utility.yul\":11786:11816   */\n      0x4e6f7420656e6f75676820746f6b656e7320696e207265736572766500000000\n        /* \"#utility.yul\":11782:11783   */\n      0x00\n        /* \"#utility.yul\":11774:11780   */\n      dup3\n        /* \"#utility.yul\":11770:11784   */\n      add\n        /* \"#utility.yul\":11763:11817   */\n      mstore\n        /* \"#utility.yul\":11646:11824   */\n      pop\n      jump\t// out\n        /* \"#utility.yul\":11830:12196   */\n    tag_185:\n        /* \"#utility.yul\":11972:11975   */\n      0x00\n        /* \"#utility.yul\":11993:12060   */\n      tag_305\n        /* \"#utility.yul\":12057:12059   */\n      0x1c\n        /* \"#utility.yul\":12052:12055   */\n      dup4\n        /* \"#utility.yul\":11993:12060   */\n      tag_154\n      jump\t// in\n    tag_305:\n        /* \"#utility.yul\":11986:12060   */\n      swap2\n      pop\n        /* \"#utility.yul\":12069:12162   */\n      tag_306\n        /* \"#utility.yul\":12158:12161   */\n      dup3\n        /* \"#utility.yul\":12069:12162   */\n      tag_184\n      jump\t// in\n    tag_306:\n        /* \"#utility.yul\":12187:12189   */\n      0x20\n        /* \"#utility.yul\":12182:12185   */\n      dup3\n        /* \"#utility.yul\":12178:12190   */\n      add\n        /* \"#utility.yul\":12171:12190   */\n      swap1\n      pop\n        /* \"#utility.yul\":11830:12196   */\n      swap2\n      swap1\n      pop\n      jump\t// out\n        /* \"#utility.yul\":12202:12621   */\n    tag_133:\n        /* \"#utility.yul\":12368:12372   */\n      0x00\n        /* \"#utility.yul\":12406:12408   */\n      0x20\n        /* \"#utility.yul\":12395:12404   */\n      dup3\n        /* \"#utility.yul\":12391:12409   */\n      add\n        /* \"#utility.yul\":12383:12409   */\n      swap1\n      pop\n        /* \"#utility.yul\":12455:12464   */\n      dup2\n        /* \"#utility.yul\":12449:12453   */\n      dup2\n        /* \"#utility.yul\":12445:12465   */\n      sub\n        /* \"#utility.yul\":12441:12442   */\n      0x00\n        /* \"#utility.yul\":12430:12439   */\n      dup4\n        /* \"#utility.yul\":12426:12443   */\n      add\n        /* \"#utility.yul\":12419:12466   */\n      mstore\n        /* \"#utility.yul\":12483:12614   */\n      tag_308\n        /* \"#utility.yul\":12609:12613   */\n      dup2\n        /* \"#utility.yul\":12483:12614   */\n      tag_185\n      jump\t// in\n    tag_308:\n        /* \"#utility.yul\":12475:12614   */\n      swap1\n      pop\n        /* \"#utility.yul\":12202:12621   */\n      swap2\n      swap1\n      pop\n      jump\t// out\n\n    auxdata: 0xa26469706673582212203791a46db0599a041c421226565b6be264b254fd481479e154c77681286395ec64736f6c634300081a0033\n}\n",
				"bytecode": {
					"linkReferences": {},
					"object": "608060405234801561000f575f80fd5b50604051611be3380380611be3833981810160405281019061003191906102dd565b33600560016101000a81548173ffffffffffffffffffffffffffffffffffffffff021916908373ffffffffffffffffffffffffffffffffffffffff160217905550845f819055508460015f600560019054906101000a900473ffffffffffffffffffffffffffffffffffffffff1673ffffffffffffffffffffffffffffffffffffffff1673ffffffffffffffffffffffffffffffffffffffff1681526020019081526020015f208190555083600390816100eb9190610590565b5081600490816100fb9190610590565b508260055f6101000a81548160ff021916908360ff16021790555080600681905550505050505061065f565b5f604051905090565b5f80fd5b5f80fd5b5f819050919050565b61014a81610138565b8114610154575f80fd5b50565b5f8151905061016581610141565b92915050565b5f80fd5b5f80fd5b5f601f19601f8301169050919050565b7f4e487b71000000000000000000000000000000000000000000000000000000005f52604160045260245ffd5b6101b982610173565b810181811067ffffffffffffffff821117156101d8576101d7610183565b5b80604052505050565b5f6101ea610127565b90506101f682826101b0565b919050565b5f67ffffffffffffffff82111561021557610214610183565b5b61021e82610173565b9050602081019050919050565b8281835e5f83830152505050565b5f61024b610246846101fb565b6101e1565b9050828152602081018484840111156102675761026661016f565b5b61027284828561022b565b509392505050565b5f82601f83011261028e5761028d61016b565b5b815161029e848260208601610239565b91505092915050565b5f60ff82169050919050565b6102bc816102a7565b81146102c6575f80fd5b50565b5f815190506102d7816102b3565b92915050565b5f805f805f60a086880312156102f6576102f5610130565b5b5f61030388828901610157565b955050602086015167ffffffffffffffff81111561032457610323610134565b5b6103308882890161027a565b9450506040610341888289016102c9565b935050606086015167ffffffffffffffff81111561036257610361610134565b5b61036e8882890161027a565b925050608061037f88828901610157565b9150509295509295909350565b5f81519050919050565b7f4e487b71000000000000000000000000000000000000000000000000000000005f52602260045260245ffd5b5f60028204905060018216806103da57607f821691505b6020821081036103ed576103ec610396565b5b50919050565b5f819050815f5260205f209050919050565b5f6020601f8301049050919050565b5f82821b905092915050565b5f6008830261044f7fffffffffffffffffffffffffffffffffffffffffffffffffffffffffffffffff82610414565b6104598683610414565b95508019841693508086168417925050509392505050565b5f819050919050565b5f61049461048f61048a84610138565b610471565b610138565b9050919050565b5f819050919050565b6104ad8361047a565b6104c16104b98261049b565b848454610420565b825550505050565b5f90565b6104d56104c9565b6104e08184846104a4565b505050565b5b81811015610503576104f85f826104cd565b6001810190506104e6565b5050565b601f82111561054857610519816103f3565b61052284610405565b81016020851015610531578190505b61054561053d85610405565b8301826104e5565b50505b505050565b5f82821c905092915050565b5f6105685f198460080261054d565b1980831691505092915050565b5f6105808383610559565b9150826002028217905092915050565b6105998261038c565b67ffffffffffffffff8111156105b2576105b1610183565b5b6105bc82546103c3565b6105c7828285610507565b5f60209050601f8311600181146105f8575f84156105e6578287015190505b6105f08582610575565b865550610657565b601f198416610606866103f3565b5f5b8281101561062d57848901518255600182019150602085019450602081019050610608565b8683101561064a5784890151610646601f891682610559565b8355505b6001600288020188555050505b505050505050565b6115778061066c5f395ff3fe6080604052600436106100e7575f3560e01c80636a61e5fc116100895780638da5cb5b116100585780638da5cb5b1461031757806395d89b4114610341578063a9059cbb1461036b578063dd62ed3e146103a7576100e7565b80636a61e5fc1461025957806370a08231146102815780637b97008d146102bd5780637ff9b596146102ed576100e7565b806323b872dd116100c557806323b872dd1461017b57806327e235e3146101b7578063313ce567146101f35780635c6581651461021d576100e7565b806306fdde03146100eb578063095ea7b31461011557806318160ddd14610151575b5f80fd5b3480156100f6575f80fd5b506100ff6103e3565b60405161010c9190610f7e565b60405180910390f35b348015610120575f80fd5b5061013b6004803603810190610136919061102f565b61046f565b6040516101489190611087565b60405180910390f35b34801561015c575f80fd5b5061016561055c565b60405161017291906110af565b60405180910390f35b348015610186575f80fd5b506101a1600480360381019061019c91906110c8565b610561565b6040516101ae9190611087565b60405180910390f35b3480156101c2575f80fd5b506101dd60048036038101906101d89190611118565b61086f565b6040516101ea91906110af565b60405180910390f35b3480156101fe575f80fd5b50610207610884565b604051610214919061115e565b60405180910390f35b348015610228575f80fd5b50610243600480360381019061023e9190611177565b610896565b60405161025091906110af565b60405180910390f35b348015610264575f80fd5b5061027f600480360381019061027a91906111b5565b6108b6565b005b34801561028c575f80fd5b506102a760048036038101906102a29190611118565b610950565b6040516102b491906110af565b60405180910390f35b6102d760048036038101906102d291906111b5565b610996565b6040516102e49190611087565b60405180910390f35b3480156102f8575f80fd5b50610301610c3e565b60405161030e91906110af565b60405180910390f35b348015610322575f80fd5b5061032b610c44565b60405161033891906111ef565b60405180910390f35b34801561034c575f80fd5b50610355610c6a565b6040516103629190610f7e565b60405180910390f35b348015610376575f80fd5b50610391600480360381019061038c919061102f565b610cf6565b60405161039e9190611087565b60405180910390f35b3480156103b2575f80fd5b506103cd60048036038101906103c89190611177565b610e8c565b6040516103da91906110af565b60405180910390f35b600380546103f090611235565b80601f016020809104026020016040519081016040528092919081815260200182805461041c90611235565b80156104675780601f1061043e57610100808354040283529160200191610467565b820191905f5260205f20905b81548152906001019060200180831161044a57829003601f168201915b505050505081565b5f8160025f3373ffffffffffffffffffffffffffffffffffffffff1673ffffffffffffffffffffffffffffffffffffffff1681526020019081526020015f205f8573ffffffffffffffffffffffffffffffffffffffff1673ffffffffffffffffffffffffffffffffffffffff1681526020019081526020015f20819055508273ffffffffffffffffffffffffffffffffffffffff163373ffffffffffffffffffffffffffffffffffffffff167f8c5be1e5ebec7d5bd14f71427d1e84f3dd0314c0f7b2291e5b200ac8c7c3b9258460405161054a91906110af565b60405180910390a36001905092915050565b5f5481565b5f8060025f8673ffffffffffffffffffffffffffffffffffffffff1673ffffffffffffffffffffffffffffffffffffffff1681526020019081526020015f205f3373ffffffffffffffffffffffffffffffffffffffff1673ffffffffffffffffffffffffffffffffffffffff1681526020019081526020015f205490508260015f8773ffffffffffffffffffffffffffffffffffffffff1673ffffffffffffffffffffffffffffffffffffffff1681526020019081526020015f2054101561065e576040517f08c379a0000000000000000000000000000000000000000000000000000000008152600401610655906112af565b60405180910390fd5b828110156106a1576040517f08c379a000000000000000000000000000000000000000000000000000000000815260040161069890611317565b60405180910390fd5b8260015f8773ffffffffffffffffffffffffffffffffffffffff1673ffffffffffffffffffffffffffffffffffffffff1681526020019081526020015f205f8282546106ed9190611362565b925050819055508260015f8673ffffffffffffffffffffffffffffffffffffffff1673ffffffffffffffffffffffffffffffffffffffff1681526020019081526020015f205f8282546107409190611395565b925050819055507fffffffffffffffffffffffffffffffffffffffffffffffffffffffffffffffff8110156107fe578260025f8773ffffffffffffffffffffffffffffffffffffffff1673ffffffffffffffffffffffffffffffffffffffff1681526020019081526020015f205f3373ffffffffffffffffffffffffffffffffffffffff1673ffffffffffffffffffffffffffffffffffffffff1681526020019081526020015f205f8282546107f69190611362565b925050819055505b8373ffffffffffffffffffffffffffffffffffffffff168573ffffffffffffffffffffffffffffffffffffffff167fddf252ad1be2c89b69c2b068fc378daa952ba7f163c4a11628f55a4df523b3ef8560405161085b91906110af565b60405180910390a360019150509392505050565b6001602052805f5260405f205f915090505481565b60055f9054906101000a900460ff1681565b6002602052815f5260405f20602052805f5260405f205f91509150505481565b600560019054906101000a900473ffffffffffffffffffffffffffffffffffffffff1673ffffffffffffffffffffffffffffffffffffffff163373ffffffffffffffffffffffffffffffffffffffff1614610946576040517f08c379a000000000000000000000000000000000000000000000000000000000815260040161093d90611412565b60405180910390fd5b8060068190555050565b5f60015f8373ffffffffffffffffffffffffffffffffffffffff1673ffffffffffffffffffffffffffffffffffffffff1681526020019081526020015f20549050919050565b5f80600654836109a69190611430565b9050803410156109eb576040517f08c379a00000000000000000000000000000000000000000000000000000000081526004016109e2906114bb565b60405180910390fd5b8260015f600560019054906101000a900473ffffffffffffffffffffffffffffffffffffffff1673ffffffffffffffffffffffffffffffffffffffff1673ffffffffffffffffffffffffffffffffffffffff1681526020019081526020015f20541015610a8d576040517f08c379a0000000000000000000000000000000000000000000000000000000008152600401610a8490611523565b60405180910390fd5b8260015f600560019054906101000a900473ffffffffffffffffffffffffffffffffffffffff1673ffffffffffffffffffffffffffffffffffffffff1673ffffffffffffffffffffffffffffffffffffffff1681526020019081526020015f205f828254610afb9190611362565b925050819055508260015f3373ffffffffffffffffffffffffffffffffffffffff1673ffffffffffffffffffffffffffffffffffffffff1681526020019081526020015f205f828254610b4e9190611395565b925050819055503373ffffffffffffffffffffffffffffffffffffffff16600560019054906101000a900473ffffffffffffffffffffffffffffffffffffffff1673ffffffffffffffffffffffffffffffffffffffff167fddf252ad1be2c89b69c2b068fc378daa952ba7f163c4a11628f55a4df523b3ef85604051610bd491906110af565b60405180910390a380341115610c34573373ffffffffffffffffffffffffffffffffffffffff166108fc8234610c0a9190611362565b90811502906040515f60405180830381858888f19350505050158015610c32573d5f803e3d5ffd5b505b6001915050919050565b60065481565b600560019054906101000a900473ffffffffffffffffffffffffffffffffffffffff1681565b60048054610c7790611235565b80601f0160208091040260200160405190810160405280929190818152602001828054610ca390611235565b8015610cee5780601f10610cc557610100808354040283529160200191610cee565b820191905f5260205f20905b815481529060010190602001808311610cd157829003601f168201915b505050505081565b5f8160015f3373ffffffffffffffffffffffffffffffffffffffff1673ffffffffffffffffffffffffffffffffffffffff1681526020019081526020015f20541015610d77576040517f08c379a0000000000000000000000000000000000000000000000000000000008152600401610d6e906112af565b60405180910390fd5b8160015f3373ffffffffffffffffffffffffffffffffffffffff1673ffffffffffffffffffffffffffffffffffffffff1681526020019081526020015f205f828254610dc39190611362565b925050819055508160015f8573ffffffffffffffffffffffffffffffffffffffff1673ffffffffffffffffffffffffffffffffffffffff1681526020019081526020015f205f828254610e169190611395565b925050819055508273ffffffffffffffffffffffffffffffffffffffff163373ffffffffffffffffffffffffffffffffffffffff167fddf252ad1be2c89b69c2b068fc378daa952ba7f163c4a11628f55a4df523b3ef84604051610e7a91906110af565b60405180910390a36001905092915050565b5f60025f8473ffffffffffffffffffffffffffffffffffffffff1673ffffffffffffffffffffffffffffffffffffffff1681526020019081526020015f205f8373ffffffffffffffffffffffffffffffffffffffff1673ffffffffffffffffffffffffffffffffffffffff1681526020019081526020015f2054905092915050565b5f81519050919050565b5f82825260208201905092915050565b8281835e5f83830152505050565b5f601f19601f8301169050919050565b5f610f5082610f0e565b610f5a8185610f18565b9350610f6a818560208601610f28565b610f7381610f36565b840191505092915050565b5f6020820190508181035f830152610f968184610f46565b905092915050565b5f80fd5b5f73ffffffffffffffffffffffffffffffffffffffff82169050919050565b5f610fcb82610fa2565b9050919050565b610fdb81610fc1565b8114610fe5575f80fd5b50565b5f81359050610ff681610fd2565b92915050565b5f819050919050565b61100e81610ffc565b8114611018575f80fd5b50565b5f8135905061102981611005565b92915050565b5f806040838503121561104557611044610f9e565b5b5f61105285828601610fe8565b92505060206110638582860161101b565b9150509250929050565b5f8115159050919050565b6110818161106d565b82525050565b5f60208201905061109a5f830184611078565b92915050565b6110a981610ffc565b82525050565b5f6020820190506110c25f8301846110a0565b92915050565b5f805f606084860312156110df576110de610f9e565b5b5f6110ec86828701610fe8565b93505060206110fd86828701610fe8565b925050604061110e8682870161101b565b9150509250925092565b5f6020828403121561112d5761112c610f9e565b5b5f61113a84828501610fe8565b91505092915050565b5f60ff82169050919050565b61115881611143565b82525050565b5f6020820190506111715f83018461114f565b92915050565b5f806040838503121561118d5761118c610f9e565b5b5f61119a85828601610fe8565b92505060206111ab85828601610fe8565b9150509250929050565b5f602082840312156111ca576111c9610f9e565b5b5f6111d78482850161101b565b91505092915050565b6111e981610fc1565b82525050565b5f6020820190506112025f8301846111e0565b92915050565b7f4e487b71000000000000000000000000000000000000000000000000000000005f52602260045260245ffd5b5f600282049050600182168061124c57607f821691505b60208210810361125f5761125e611208565b5b50919050565b7f496e73756666696369656e742062616c616e63650000000000000000000000005f82015250565b5f611299601483610f18565b91506112a482611265565b602082019050919050565b5f6020820190508181035f8301526112c68161128d565b9050919050565b7f416c6c6f77616e636520657863656564656400000000000000000000000000005f82015250565b5f611301601283610f18565b915061130c826112cd565b602082019050919050565b5f6020820190508181035f83015261132e816112f5565b9050919050565b7f4e487b71000000000000000000000000000000000000000000000000000000005f52601160045260245ffd5b5f61136c82610ffc565b915061137783610ffc565b925082820390508181111561138f5761138e611335565b5b92915050565b5f61139f82610ffc565b91506113aa83610ffc565b92508282019050808211156113c2576113c1611335565b5b92915050565b7f4e6f7420617574686f72697a65640000000000000000000000000000000000005f82015250565b5f6113fc600e83610f18565b9150611407826113c8565b602082019050919050565b5f6020820190508181035f830152611429816113f0565b9050919050565b5f61143a82610ffc565b915061144583610ffc565b925082820261145381610ffc565b9150828204841483151761146a57611469611335565b5b5092915050565b7f496e73756666696369656e742045746865722073656e740000000000000000005f82015250565b5f6114a5601783610f18565b91506114b082611471565b602082019050919050565b5f6020820190508181035f8301526114d281611499565b9050919050565b7f4e6f7420656e6f75676820746f6b656e7320696e2072657365727665000000005f82015250565b5f61150d601c83610f18565b9150611518826114d9565b602082019050919050565b5f6020820190508181035f83015261153a81611501565b905091905056fea26469706673582212203791a46db0599a041c421226565b6be264b254fd481479e154c77681286395ec64736f6c634300081a0033",
					"opcodes": "PUSH1 0x80 PUSH1 0x40 MSTORE CALLVALUE DUP1 ISZERO PUSH2 0xF JUMPI PUSH0 DUP1 REVERT JUMPDEST POP PUSH1 0x40 MLOAD PUSH2 0x1BE3 CODESIZE SUB DUP1 PUSH2 0x1BE3 DUP4 CODECOPY DUP2 DUP2 ADD PUSH1 0x40 MSTORE DUP2 ADD SWAP1 PUSH2 0x31 SWAP2 SWAP1 PUSH2 0x2DD JUMP JUMPDEST CALLER PUSH1 0x5 PUSH1 0x1 PUSH2 0x100 EXP DUP2 SLOAD DUP2 PUSH20 0xFFFFFFFFFFFFFFFFFFFFFFFFFFFFFFFFFFFFFFFF MUL NOT AND SWAP1 DUP4 PUSH20 0xFFFFFFFFFFFFFFFFFFFFFFFFFFFFFFFFFFFFFFFF AND MUL OR SWAP1 SSTORE POP DUP5 PUSH0 DUP2 SWAP1 SSTORE POP DUP5 PUSH1 0x1 PUSH0 PUSH1 0x5 PUSH1 0x1 SWAP1 SLOAD SWAP1 PUSH2 0x100 EXP SWAP1 DIV PUSH20 0xFFFFFFFFFFFFFFFFFFFFFFFFFFFFFFFFFFFFFFFF AND PUSH20 0xFFFFFFFFFFFFFFFFFFFFFFFFFFFFFFFFFFFFFFFF AND PUSH20 0xFFFFFFFFFFFFFFFFFFFFFFFFFFFFFFFFFFFFFFFF AND DUP2 MSTORE PUSH1 0x20 ADD SWAP1 DUP2 MSTORE PUSH1 0x20 ADD PUSH0 KECCAK256 DUP2 SWAP1 SSTORE POP DUP4 PUSH1 0x3 SWAP1 DUP2 PUSH2 0xEB SWAP2 SWAP1 PUSH2 0x590 JUMP JUMPDEST POP DUP2 PUSH1 0x4 SWAP1 DUP2 PUSH2 0xFB SWAP2 SWAP1 PUSH2 0x590 JUMP JUMPDEST POP DUP3 PUSH1 0x5 PUSH0 PUSH2 0x100 EXP DUP2 SLOAD DUP2 PUSH1 0xFF MUL NOT AND SWAP1 DUP4 PUSH1 0xFF AND MUL OR SWAP1 SSTORE POP DUP1 PUSH1 0x6 DUP2 SWAP1 SSTORE POP POP POP POP POP POP PUSH2 0x65F JUMP JUMPDEST PUSH0 PUSH1 0x40 MLOAD SWAP1 POP SWAP1 JUMP JUMPDEST PUSH0 DUP1 REVERT JUMPDEST PUSH0 DUP1 REVERT JUMPDEST PUSH0 DUP2 SWAP1 POP SWAP2 SWAP1 POP JUMP JUMPDEST PUSH2 0x14A DUP2 PUSH2 0x138 JUMP JUMPDEST DUP2 EQ PUSH2 0x154 JUMPI PUSH0 DUP1 REVERT JUMPDEST POP JUMP JUMPDEST PUSH0 DUP2 MLOAD SWAP1 POP PUSH2 0x165 DUP2 PUSH2 0x141 JUMP JUMPDEST SWAP3 SWAP2 POP POP JUMP JUMPDEST PUSH0 DUP1 REVERT JUMPDEST PUSH0 DUP1 REVERT JUMPDEST PUSH0 PUSH1 0x1F NOT PUSH1 0x1F DUP4 ADD AND SWAP1 POP SWAP2 SWAP1 POP JUMP JUMPDEST PUSH32 0x4E487B7100000000000000000000000000000000000000000000000000000000 PUSH0 MSTORE PUSH1 0x41 PUSH1 0x4 MSTORE PUSH1 0x24 PUSH0 REVERT JUMPDEST PUSH2 0x1B9 DUP3 PUSH2 0x173 JUMP JUMPDEST DUP2 ADD DUP2 DUP2 LT PUSH8 0xFFFFFFFFFFFFFFFF DUP3 GT OR ISZERO PUSH2 0x1D8 JUMPI PUSH2 0x1D7 PUSH2 0x183 JUMP JUMPDEST JUMPDEST DUP1 PUSH1 0x40 MSTORE POP POP POP JUMP JUMPDEST PUSH0 PUSH2 0x1EA PUSH2 0x127 JUMP JUMPDEST SWAP1 POP PUSH2 0x1F6 DUP3 DUP3 PUSH2 0x1B0 JUMP JUMPDEST SWAP2 SWAP1 POP JUMP JUMPDEST PUSH0 PUSH8 0xFFFFFFFFFFFFFFFF DUP3 GT ISZERO PUSH2 0x215 JUMPI PUSH2 0x214 PUSH2 0x183 JUMP JUMPDEST JUMPDEST PUSH2 0x21E DUP3 PUSH2 0x173 JUMP JUMPDEST SWAP1 POP PUSH1 0x20 DUP2 ADD SWAP1 POP SWAP2 SWAP1 POP JUMP JUMPDEST DUP3 DUP2 DUP4 MCOPY PUSH0 DUP4 DUP4 ADD MSTORE POP POP POP JUMP JUMPDEST PUSH0 PUSH2 0x24B PUSH2 0x246 DUP5 PUSH2 0x1FB JUMP JUMPDEST PUSH2 0x1E1 JUMP JUMPDEST SWAP1 POP DUP3 DUP2 MSTORE PUSH1 0x20 DUP2 ADD DUP5 DUP5 DUP5 ADD GT ISZERO PUSH2 0x267 JUMPI PUSH2 0x266 PUSH2 0x16F JUMP JUMPDEST JUMPDEST PUSH2 0x272 DUP5 DUP3 DUP6 PUSH2 0x22B JUMP JUMPDEST POP SWAP4 SWAP3 POP POP POP JUMP JUMPDEST PUSH0 DUP3 PUSH1 0x1F DUP4 ADD SLT PUSH2 0x28E JUMPI PUSH2 0x28D PUSH2 0x16B JUMP JUMPDEST JUMPDEST DUP2 MLOAD PUSH2 0x29E DUP5 DUP3 PUSH1 0x20 DUP7 ADD PUSH2 0x239 JUMP JUMPDEST SWAP2 POP POP SWAP3 SWAP2 POP POP JUMP JUMPDEST PUSH0 PUSH1 0xFF DUP3 AND SWAP1 POP SWAP2 SWAP1 POP JUMP JUMPDEST PUSH2 0x2BC DUP2 PUSH2 0x2A7 JUMP JUMPDEST DUP2 EQ PUSH2 0x2C6 JUMPI PUSH0 DUP1 REVERT JUMPDEST POP JUMP JUMPDEST PUSH0 DUP2 MLOAD SWAP1 POP PUSH2 0x2D7 DUP2 PUSH2 0x2B3 JUMP JUMPDEST SWAP3 SWAP2 POP POP JUMP JUMPDEST PUSH0 DUP1 PUSH0 DUP1 PUSH0 PUSH1 0xA0 DUP7 DUP9 SUB SLT ISZERO PUSH2 0x2F6 JUMPI PUSH2 0x2F5 PUSH2 0x130 JUMP JUMPDEST JUMPDEST PUSH0 PUSH2 0x303 DUP9 DUP3 DUP10 ADD PUSH2 0x157 JUMP JUMPDEST SWAP6 POP POP PUSH1 0x20 DUP7 ADD MLOAD PUSH8 0xFFFFFFFFFFFFFFFF DUP2 GT ISZERO PUSH2 0x324 JUMPI PUSH2 0x323 PUSH2 0x134 JUMP JUMPDEST JUMPDEST PUSH2 0x330 DUP9 DUP3 DUP10 ADD PUSH2 0x27A JUMP JUMPDEST SWAP5 POP POP PUSH1 0x40 PUSH2 0x341 DUP9 DUP3 DUP10 ADD PUSH2 0x2C9 JUMP JUMPDEST SWAP4 POP POP PUSH1 0x60 DUP7 ADD MLOAD PUSH8 0xFFFFFFFFFFFFFFFF DUP2 GT ISZERO PUSH2 0x362 JUMPI PUSH2 0x361 PUSH2 0x134 JUMP JUMPDEST JUMPDEST PUSH2 0x36E DUP9 DUP3 DUP10 ADD PUSH2 0x27A JUMP JUMPDEST SWAP3 POP POP PUSH1 0x80 PUSH2 0x37F DUP9 DUP3 DUP10 ADD PUSH2 0x157 JUMP JUMPDEST SWAP2 POP POP SWAP3 SWAP6 POP SWAP3 SWAP6 SWAP1 SWAP4 POP JUMP JUMPDEST PUSH0 DUP2 MLOAD SWAP1 POP SWAP2 SWAP1 POP JUMP JUMPDEST PUSH32 0x4E487B7100000000000000000000000000000000000000000000000000000000 PUSH0 MSTORE PUSH1 0x22 PUSH1 0x4 MSTORE PUSH1 0x24 PUSH0 REVERT JUMPDEST PUSH0 PUSH1 0x2 DUP3 DIV SWAP1 POP PUSH1 0x1 DUP3 AND DUP1 PUSH2 0x3DA JUMPI PUSH1 0x7F DUP3 AND SWAP2 POP JUMPDEST PUSH1 0x20 DUP3 LT DUP2 SUB PUSH2 0x3ED JUMPI PUSH2 0x3EC PUSH2 0x396 JUMP JUMPDEST JUMPDEST POP SWAP2 SWAP1 POP JUMP JUMPDEST PUSH0 DUP2 SWAP1 POP DUP2 PUSH0 MSTORE PUSH1 0x20 PUSH0 KECCAK256 SWAP1 POP SWAP2 SWAP1 POP JUMP JUMPDEST PUSH0 PUSH1 0x20 PUSH1 0x1F DUP4 ADD DIV SWAP1 POP SWAP2 SWAP1 POP JUMP JUMPDEST PUSH0 DUP3 DUP3 SHL SWAP1 POP SWAP3 SWAP2 POP POP JUMP JUMPDEST PUSH0 PUSH1 0x8 DUP4 MUL PUSH2 0x44F PUSH32 0xFFFFFFFFFFFFFFFFFFFFFFFFFFFFFFFFFFFFFFFFFFFFFFFFFFFFFFFFFFFFFFFF DUP3 PUSH2 0x414 JUMP JUMPDEST PUSH2 0x459 DUP7 DUP4 PUSH2 0x414 JUMP JUMPDEST SWAP6 POP DUP1 NOT DUP5 AND SWAP4 POP DUP1 DUP7 AND DUP5 OR SWAP3 POP POP POP SWAP4 SWAP3 POP POP POP JUMP JUMPDEST PUSH0 DUP2 SWAP1 POP SWAP2 SWAP1 POP JUMP JUMPDEST PUSH0 PUSH2 0x494 PUSH2 0x48F PUSH2 0x48A DUP5 PUSH2 0x138 JUMP JUMPDEST PUSH2 0x471 JUMP JUMPDEST PUSH2 0x138 JUMP JUMPDEST SWAP1 POP SWAP2 SWAP1 POP JUMP JUMPDEST PUSH0 DUP2 SWAP1 POP SWAP2 SWAP1 POP JUMP JUMPDEST PUSH2 0x4AD DUP4 PUSH2 0x47A JUMP JUMPDEST PUSH2 0x4C1 PUSH2 0x4B9 DUP3 PUSH2 0x49B JUMP JUMPDEST DUP5 DUP5 SLOAD PUSH2 0x420 JUMP JUMPDEST DUP3 SSTORE POP POP POP POP JUMP JUMPDEST PUSH0 SWAP1 JUMP JUMPDEST PUSH2 0x4D5 PUSH2 0x4C9 JUMP JUMPDEST PUSH2 0x4E0 DUP2 DUP5 DUP5 PUSH2 0x4A4 JUMP JUMPDEST POP POP POP JUMP JUMPDEST JUMPDEST DUP2 DUP2 LT ISZERO PUSH2 0x503 JUMPI PUSH2 0x4F8 PUSH0 DUP3 PUSH2 0x4CD JUMP JUMPDEST PUSH1 0x1 DUP2 ADD SWAP1 POP PUSH2 0x4E6 JUMP JUMPDEST POP POP JUMP JUMPDEST PUSH1 0x1F DUP3 GT ISZERO PUSH2 0x548 JUMPI PUSH2 0x519 DUP2 PUSH2 0x3F3 JUMP JUMPDEST PUSH2 0x522 DUP5 PUSH2 0x405 JUMP JUMPDEST DUP2 ADD PUSH1 0x20 DUP6 LT ISZERO PUSH2 0x531 JUMPI DUP2 SWAP1 POP JUMPDEST PUSH2 0x545 PUSH2 0x53D DUP6 PUSH2 0x405 JUMP JUMPDEST DUP4 ADD DUP3 PUSH2 0x4E5 JUMP JUMPDEST POP POP JUMPDEST POP POP POP JUMP JUMPDEST PUSH0 DUP3 DUP3 SHR SWAP1 POP SWAP3 SWAP2 POP POP JUMP JUMPDEST PUSH0 PUSH2 0x568 PUSH0 NOT DUP5 PUSH1 0x8 MUL PUSH2 0x54D JUMP JUMPDEST NOT DUP1 DUP4 AND SWAP2 POP POP SWAP3 SWAP2 POP POP JUMP JUMPDEST PUSH0 PUSH2 0x580 DUP4 DUP4 PUSH2 0x559 JUMP JUMPDEST SWAP2 POP DUP3 PUSH1 0x2 MUL DUP3 OR SWAP1 POP SWAP3 SWAP2 POP POP JUMP JUMPDEST PUSH2 0x599 DUP3 PUSH2 0x38C JUMP JUMPDEST PUSH8 0xFFFFFFFFFFFFFFFF DUP2 GT ISZERO PUSH2 0x5B2 JUMPI PUSH2 0x5B1 PUSH2 0x183 JUMP JUMPDEST JUMPDEST PUSH2 0x5BC DUP3 SLOAD PUSH2 0x3C3 JUMP JUMPDEST PUSH2 0x5C7 DUP3 DUP3 DUP6 PUSH2 0x507 JUMP JUMPDEST PUSH0 PUSH1 0x20 SWAP1 POP PUSH1 0x1F DUP4 GT PUSH1 0x1 DUP2 EQ PUSH2 0x5F8 JUMPI PUSH0 DUP5 ISZERO PUSH2 0x5E6 JUMPI DUP3 DUP8 ADD MLOAD SWAP1 POP JUMPDEST PUSH2 0x5F0 DUP6 DUP3 PUSH2 0x575 JUMP JUMPDEST DUP7 SSTORE POP PUSH2 0x657 JUMP JUMPDEST PUSH1 0x1F NOT DUP5 AND PUSH2 0x606 DUP7 PUSH2 0x3F3 JUMP JUMPDEST PUSH0 JUMPDEST DUP3 DUP2 LT ISZERO PUSH2 0x62D JUMPI DUP5 DUP10 ADD MLOAD DUP3 SSTORE PUSH1 0x1 DUP3 ADD SWAP2 POP PUSH1 0x20 DUP6 ADD SWAP5 POP PUSH1 0x20 DUP2 ADD SWAP1 POP PUSH2 0x608 JUMP JUMPDEST DUP7 DUP4 LT ISZERO PUSH2 0x64A JUMPI DUP5 DUP10 ADD MLOAD PUSH2 0x646 PUSH1 0x1F DUP10 AND DUP3 PUSH2 0x559 JUMP JUMPDEST DUP4 SSTORE POP JUMPDEST PUSH1 0x1 PUSH1 0x2 DUP9 MUL ADD DUP9 SSTORE POP POP POP JUMPDEST POP POP POP POP POP POP JUMP JUMPDEST PUSH2 0x1577 DUP1 PUSH2 0x66C PUSH0 CODECOPY PUSH0 RETURN INVALID PUSH1 0x80 PUSH1 0x40 MSTORE PUSH1 0x4 CALLDATASIZE LT PUSH2 0xE7 JUMPI PUSH0 CALLDATALOAD PUSH1 0xE0 SHR DUP1 PUSH4 0x6A61E5FC GT PUSH2 0x89 JUMPI DUP1 PUSH4 0x8DA5CB5B GT PUSH2 0x58 JUMPI DUP1 PUSH4 0x8DA5CB5B EQ PUSH2 0x317 JUMPI DUP1 PUSH4 0x95D89B41 EQ PUSH2 0x341 JUMPI DUP1 PUSH4 0xA9059CBB EQ PUSH2 0x36B JUMPI DUP1 PUSH4 0xDD62ED3E EQ PUSH2 0x3A7 JUMPI PUSH2 0xE7 JUMP JUMPDEST DUP1 PUSH4 0x6A61E5FC EQ PUSH2 0x259 JUMPI DUP1 PUSH4 0x70A08231 EQ PUSH2 0x281 JUMPI DUP1 PUSH4 0x7B97008D EQ PUSH2 0x2BD JUMPI DUP1 PUSH4 0x7FF9B596 EQ PUSH2 0x2ED JUMPI PUSH2 0xE7 JUMP JUMPDEST DUP1 PUSH4 0x23B872DD GT PUSH2 0xC5 JUMPI DUP1 PUSH4 0x23B872DD EQ PUSH2 0x17B JUMPI DUP1 PUSH4 0x27E235E3 EQ PUSH2 0x1B7 JUMPI DUP1 PUSH4 0x313CE567 EQ PUSH2 0x1F3 JUMPI DUP1 PUSH4 0x5C658165 EQ PUSH2 0x21D JUMPI PUSH2 0xE7 JUMP JUMPDEST DUP1 PUSH4 0x6FDDE03 EQ PUSH2 0xEB JUMPI DUP1 PUSH4 0x95EA7B3 EQ PUSH2 0x115 JUMPI DUP1 PUSH4 0x18160DDD EQ PUSH2 0x151 JUMPI JUMPDEST PUSH0 DUP1 REVERT JUMPDEST CALLVALUE DUP1 ISZERO PUSH2 0xF6 JUMPI PUSH0 DUP1 REVERT JUMPDEST POP PUSH2 0xFF PUSH2 0x3E3 JUMP JUMPDEST PUSH1 0x40 MLOAD PUSH2 0x10C SWAP2 SWAP1 PUSH2 0xF7E JUMP JUMPDEST PUSH1 0x40 MLOAD DUP1 SWAP2 SUB SWAP1 RETURN JUMPDEST CALLVALUE DUP1 ISZERO PUSH2 0x120 JUMPI PUSH0 DUP1 REVERT JUMPDEST POP PUSH2 0x13B PUSH1 0x4 DUP1 CALLDATASIZE SUB DUP2 ADD SWAP1 PUSH2 0x136 SWAP2 SWAP1 PUSH2 0x102F JUMP JUMPDEST PUSH2 0x46F JUMP JUMPDEST PUSH1 0x40 MLOAD PUSH2 0x148 SWAP2 SWAP1 PUSH2 0x1087 JUMP JUMPDEST PUSH1 0x40 MLOAD DUP1 SWAP2 SUB SWAP1 RETURN JUMPDEST CALLVALUE DUP1 ISZERO PUSH2 0x15C JUMPI PUSH0 DUP1 REVERT JUMPDEST POP PUSH2 0x165 PUSH2 0x55C JUMP JUMPDEST PUSH1 0x40 MLOAD PUSH2 0x172 SWAP2 SWAP1 PUSH2 0x10AF JUMP JUMPDEST PUSH1 0x40 MLOAD DUP1 SWAP2 SUB SWAP1 RETURN JUMPDEST CALLVALUE DUP1 ISZERO PUSH2 0x186 JUMPI PUSH0 DUP1 REVERT JUMPDEST POP PUSH2 0x1A1 PUSH1 0x4 DUP1 CALLDATASIZE SUB DUP2 ADD SWAP1 PUSH2 0x19C SWAP2 SWAP1 PUSH2 0x10C8 JUMP JUMPDEST PUSH2 0x561 JUMP JUMPDEST PUSH1 0x40 MLOAD PUSH2 0x1AE SWAP2 SWAP1 PUSH2 0x1087 JUMP JUMPDEST PUSH1 0x40 MLOAD DUP1 SWAP2 SUB SWAP1 RETURN JUMPDEST CALLVALUE DUP1 ISZERO PUSH2 0x1C2 JUMPI PUSH0 DUP1 REVERT JUMPDEST POP PUSH2 0x1DD PUSH1 0x4 DUP1 CALLDATASIZE SUB DUP2 ADD SWAP1 PUSH2 0x1D8 SWAP2 SWAP1 PUSH2 0x1118 JUMP JUMPDEST PUSH2 0x86F JUMP JUMPDEST PUSH1 0x40 MLOAD PUSH2 0x1EA SWAP2 SWAP1 PUSH2 0x10AF JUMP JUMPDEST PUSH1 0x40 MLOAD DUP1 SWAP2 SUB SWAP1 RETURN JUMPDEST CALLVALUE DUP1 ISZERO PUSH2 0x1FE JUMPI PUSH0 DUP1 REVERT JUMPDEST POP PUSH2 0x207 PUSH2 0x884 JUMP JUMPDEST PUSH1 0x40 MLOAD PUSH2 0x214 SWAP2 SWAP1 PUSH2 0x115E JUMP JUMPDEST PUSH1 0x40 MLOAD DUP1 SWAP2 SUB SWAP1 RETURN JUMPDEST CALLVALUE DUP1 ISZERO PUSH2 0x228 JUMPI PUSH0 DUP1 REVERT JUMPDEST POP PUSH2 0x243 PUSH1 0x4 DUP1 CALLDATASIZE SUB DUP2 ADD SWAP1 PUSH2 0x23E SWAP2 SWAP1 PUSH2 0x1177 JUMP JUMPDEST PUSH2 0x896 JUMP JUMPDEST PUSH1 0x40 MLOAD PUSH2 0x250 SWAP2 SWAP1 PUSH2 0x10AF JUMP JUMPDEST PUSH1 0x40 MLOAD DUP1 SWAP2 SUB SWAP1 RETURN JUMPDEST CALLVALUE DUP1 ISZERO PUSH2 0x264 JUMPI PUSH0 DUP1 REVERT JUMPDEST POP PUSH2 0x27F PUSH1 0x4 DUP1 CALLDATASIZE SUB DUP2 ADD SWAP1 PUSH2 0x27A SWAP2 SWAP1 PUSH2 0x11B5 JUMP JUMPDEST PUSH2 0x8B6 JUMP JUMPDEST STOP JUMPDEST CALLVALUE DUP1 ISZERO PUSH2 0x28C JUMPI PUSH0 DUP1 REVERT JUMPDEST POP PUSH2 0x2A7 PUSH1 0x4 DUP1 CALLDATASIZE SUB DUP2 ADD SWAP1 PUSH2 0x2A2 SWAP2 SWAP1 PUSH2 0x1118 JUMP JUMPDEST PUSH2 0x950 JUMP JUMPDEST PUSH1 0x40 MLOAD PUSH2 0x2B4 SWAP2 SWAP1 PUSH2 0x10AF JUMP JUMPDEST PUSH1 0x40 MLOAD DUP1 SWAP2 SUB SWAP1 RETURN JUMPDEST PUSH2 0x2D7 PUSH1 0x4 DUP1 CALLDATASIZE SUB DUP2 ADD SWAP1 PUSH2 0x2D2 SWAP2 SWAP1 PUSH2 0x11B5 JUMP JUMPDEST PUSH2 0x996 JUMP JUMPDEST PUSH1 0x40 MLOAD PUSH2 0x2E4 SWAP2 SWAP1 PUSH2 0x1087 JUMP JUMPDEST PUSH1 0x40 MLOAD DUP1 SWAP2 SUB SWAP1 RETURN JUMPDEST CALLVALUE DUP1 ISZERO PUSH2 0x2F8 JUMPI PUSH0 DUP1 REVERT JUMPDEST POP PUSH2 0x301 PUSH2 0xC3E JUMP JUMPDEST PUSH1 0x40 MLOAD PUSH2 0x30E SWAP2 SWAP1 PUSH2 0x10AF JUMP JUMPDEST PUSH1 0x40 MLOAD DUP1 SWAP2 SUB SWAP1 RETURN JUMPDEST CALLVALUE DUP1 ISZERO PUSH2 0x322 JUMPI PUSH0 DUP1 REVERT JUMPDEST POP PUSH2 0x32B PUSH2 0xC44 JUMP JUMPDEST PUSH1 0x40 MLOAD PUSH2 0x338 SWAP2 SWAP1 PUSH2 0x11EF JUMP JUMPDEST PUSH1 0x40 MLOAD DUP1 SWAP2 SUB SWAP1 RETURN JUMPDEST CALLVALUE DUP1 ISZERO PUSH2 0x34C JUMPI PUSH0 DUP1 REVERT JUMPDEST POP PUSH2 0x355 PUSH2 0xC6A JUMP JUMPDEST PUSH1 0x40 MLOAD PUSH2 0x362 SWAP2 SWAP1 PUSH2 0xF7E JUMP JUMPDEST PUSH1 0x40 MLOAD DUP1 SWAP2 SUB SWAP1 RETURN JUMPDEST CALLVALUE DUP1 ISZERO PUSH2 0x376 JUMPI PUSH0 DUP1 REVERT JUMPDEST POP PUSH2 0x391 PUSH1 0x4 DUP1 CALLDATASIZE SUB DUP2 ADD SWAP1 PUSH2 0x38C SWAP2 SWAP1 PUSH2 0x102F JUMP JUMPDEST PUSH2 0xCF6 JUMP JUMPDEST PUSH1 0x40 MLOAD PUSH2 0x39E SWAP2 SWAP1 PUSH2 0x1087 JUMP JUMPDEST PUSH1 0x40 MLOAD DUP1 SWAP2 SUB SWAP1 RETURN JUMPDEST CALLVALUE DUP1 ISZERO PUSH2 0x3B2 JUMPI PUSH0 DUP1 REVERT JUMPDEST POP PUSH2 0x3CD PUSH1 0x4 DUP1 CALLDATASIZE SUB DUP2 ADD SWAP1 PUSH2 0x3C8 SWAP2 SWAP1 PUSH2 0x1177 JUMP JUMPDEST PUSH2 0xE8C JUMP JUMPDEST PUSH1 0x40 MLOAD PUSH2 0x3DA SWAP2 SWAP1 PUSH2 0x10AF JUMP JUMPDEST PUSH1 0x40 MLOAD DUP1 SWAP2 SUB SWAP1 RETURN JUMPDEST PUSH1 0x3 DUP1 SLOAD PUSH2 0x3F0 SWAP1 PUSH2 0x1235 JUMP JUMPDEST DUP1 PUSH1 0x1F ADD PUSH1 0x20 DUP1 SWAP2 DIV MUL PUSH1 0x20 ADD PUSH1 0x40 MLOAD SWAP1 DUP2 ADD PUSH1 0x40 MSTORE DUP1 SWAP3 SWAP2 SWAP1 DUP2 DUP2 MSTORE PUSH1 0x20 ADD DUP3 DUP1 SLOAD PUSH2 0x41C SWAP1 PUSH2 0x1235 JUMP JUMPDEST DUP1 ISZERO PUSH2 0x467 JUMPI DUP1 PUSH1 0x1F LT PUSH2 0x43E JUMPI PUSH2 0x100 DUP1 DUP4 SLOAD DIV MUL DUP4 MSTORE SWAP2 PUSH1 0x20 ADD SWAP2 PUSH2 0x467 JUMP JUMPDEST DUP3 ADD SWAP2 SWAP1 PUSH0 MSTORE PUSH1 0x20 PUSH0 KECCAK256 SWAP1 JUMPDEST DUP2 SLOAD DUP2 MSTORE SWAP1 PUSH1 0x1 ADD SWAP1 PUSH1 0x20 ADD DUP1 DUP4 GT PUSH2 0x44A JUMPI DUP3 SWAP1 SUB PUSH1 0x1F AND DUP3 ADD SWAP2 JUMPDEST POP POP POP POP POP DUP2 JUMP JUMPDEST PUSH0 DUP2 PUSH1 0x2 PUSH0 CALLER PUSH20 0xFFFFFFFFFFFFFFFFFFFFFFFFFFFFFFFFFFFFFFFF AND PUSH20 0xFFFFFFFFFFFFFFFFFFFFFFFFFFFFFFFFFFFFFFFF AND DUP2 MSTORE PUSH1 0x20 ADD SWAP1 DUP2 MSTORE PUSH1 0x20 ADD PUSH0 KECCAK256 PUSH0 DUP6 PUSH20 0xFFFFFFFFFFFFFFFFFFFFFFFFFFFFFFFFFFFFFFFF AND PUSH20 0xFFFFFFFFFFFFFFFFFFFFFFFFFFFFFFFFFFFFFFFF AND DUP2 MSTORE PUSH1 0x20 ADD SWAP1 DUP2 MSTORE PUSH1 0x20 ADD PUSH0 KECCAK256 DUP2 SWAP1 SSTORE POP DUP3 PUSH20 0xFFFFFFFFFFFFFFFFFFFFFFFFFFFFFFFFFFFFFFFF AND CALLER PUSH20 0xFFFFFFFFFFFFFFFFFFFFFFFFFFFFFFFFFFFFFFFF AND PUSH32 0x8C5BE1E5EBEC7D5BD14F71427D1E84F3DD0314C0F7B2291E5B200AC8C7C3B925 DUP5 PUSH1 0x40 MLOAD PUSH2 0x54A SWAP2 SWAP1 PUSH2 0x10AF JUMP JUMPDEST PUSH1 0x40 MLOAD DUP1 SWAP2 SUB SWAP1 LOG3 PUSH1 0x1 SWAP1 POP SWAP3 SWAP2 POP POP JUMP JUMPDEST PUSH0 SLOAD DUP2 JUMP JUMPDEST PUSH0 DUP1 PUSH1 0x2 PUSH0 DUP7 PUSH20 0xFFFFFFFFFFFFFFFFFFFFFFFFFFFFFFFFFFFFFFFF AND PUSH20 0xFFFFFFFFFFFFFFFFFFFFFFFFFFFFFFFFFFFFFFFF AND DUP2 MSTORE PUSH1 0x20 ADD SWAP1 DUP2 MSTORE PUSH1 0x20 ADD PUSH0 KECCAK256 PUSH0 CALLER PUSH20 0xFFFFFFFFFFFFFFFFFFFFFFFFFFFFFFFFFFFFFFFF AND PUSH20 0xFFFFFFFFFFFFFFFFFFFFFFFFFFFFFFFFFFFFFFFF AND DUP2 MSTORE PUSH1 0x20 ADD SWAP1 DUP2 MSTORE PUSH1 0x20 ADD PUSH0 KECCAK256 SLOAD SWAP1 POP DUP3 PUSH1 0x1 PUSH0 DUP8 PUSH20 0xFFFFFFFFFFFFFFFFFFFFFFFFFFFFFFFFFFFFFFFF AND PUSH20 0xFFFFFFFFFFFFFFFFFFFFFFFFFFFFFFFFFFFFFFFF AND DUP2 MSTORE PUSH1 0x20 ADD SWAP1 DUP2 MSTORE PUSH1 0x20 ADD PUSH0 KECCAK256 SLOAD LT ISZERO PUSH2 0x65E JUMPI PUSH1 0x40 MLOAD PUSH32 0x8C379A000000000000000000000000000000000000000000000000000000000 DUP2 MSTORE PUSH1 0x4 ADD PUSH2 0x655 SWAP1 PUSH2 0x12AF JUMP JUMPDEST PUSH1 0x40 MLOAD DUP1 SWAP2 SUB SWAP1 REVERT JUMPDEST DUP3 DUP2 LT ISZERO PUSH2 0x6A1 JUMPI PUSH1 0x40 MLOAD PUSH32 0x8C379A000000000000000000000000000000000000000000000000000000000 DUP2 MSTORE PUSH1 0x4 ADD PUSH2 0x698 SWAP1 PUSH2 0x1317 JUMP JUMPDEST PUSH1 0x40 MLOAD DUP1 SWAP2 SUB SWAP1 REVERT JUMPDEST DUP3 PUSH1 0x1 PUSH0 DUP8 PUSH20 0xFFFFFFFFFFFFFFFFFFFFFFFFFFFFFFFFFFFFFFFF AND PUSH20 0xFFFFFFFFFFFFFFFFFFFFFFFFFFFFFFFFFFFFFFFF AND DUP2 MSTORE PUSH1 0x20 ADD SWAP1 DUP2 MSTORE PUSH1 0x20 ADD PUSH0 KECCAK256 PUSH0 DUP3 DUP3 SLOAD PUSH2 0x6ED SWAP2 SWAP1 PUSH2 0x1362 JUMP JUMPDEST SWAP3 POP POP DUP2 SWAP1 SSTORE POP DUP3 PUSH1 0x1 PUSH0 DUP7 PUSH20 0xFFFFFFFFFFFFFFFFFFFFFFFFFFFFFFFFFFFFFFFF AND PUSH20 0xFFFFFFFFFFFFFFFFFFFFFFFFFFFFFFFFFFFFFFFF AND DUP2 MSTORE PUSH1 0x20 ADD SWAP1 DUP2 MSTORE PUSH1 0x20 ADD PUSH0 KECCAK256 PUSH0 DUP3 DUP3 SLOAD PUSH2 0x740 SWAP2 SWAP1 PUSH2 0x1395 JUMP JUMPDEST SWAP3 POP POP DUP2 SWAP1 SSTORE POP PUSH32 0xFFFFFFFFFFFFFFFFFFFFFFFFFFFFFFFFFFFFFFFFFFFFFFFFFFFFFFFFFFFFFFFF DUP2 LT ISZERO PUSH2 0x7FE JUMPI DUP3 PUSH1 0x2 PUSH0 DUP8 PUSH20 0xFFFFFFFFFFFFFFFFFFFFFFFFFFFFFFFFFFFFFFFF AND PUSH20 0xFFFFFFFFFFFFFFFFFFFFFFFFFFFFFFFFFFFFFFFF AND DUP2 MSTORE PUSH1 0x20 ADD SWAP1 DUP2 MSTORE PUSH1 0x20 ADD PUSH0 KECCAK256 PUSH0 CALLER PUSH20 0xFFFFFFFFFFFFFFFFFFFFFFFFFFFFFFFFFFFFFFFF AND PUSH20 0xFFFFFFFFFFFFFFFFFFFFFFFFFFFFFFFFFFFFFFFF AND DUP2 MSTORE PUSH1 0x20 ADD SWAP1 DUP2 MSTORE PUSH1 0x20 ADD PUSH0 KECCAK256 PUSH0 DUP3 DUP3 SLOAD PUSH2 0x7F6 SWAP2 SWAP1 PUSH2 0x1362 JUMP JUMPDEST SWAP3 POP POP DUP2 SWAP1 SSTORE POP JUMPDEST DUP4 PUSH20 0xFFFFFFFFFFFFFFFFFFFFFFFFFFFFFFFFFFFFFFFF AND DUP6 PUSH20 0xFFFFFFFFFFFFFFFFFFFFFFFFFFFFFFFFFFFFFFFF AND PUSH32 0xDDF252AD1BE2C89B69C2B068FC378DAA952BA7F163C4A11628F55A4DF523B3EF DUP6 PUSH1 0x40 MLOAD PUSH2 0x85B SWAP2 SWAP1 PUSH2 0x10AF JUMP JUMPDEST PUSH1 0x40 MLOAD DUP1 SWAP2 SUB SWAP1 LOG3 PUSH1 0x1 SWAP2 POP POP SWAP4 SWAP3 POP POP POP JUMP JUMPDEST PUSH1 0x1 PUSH1 0x20 MSTORE DUP1 PUSH0 MSTORE PUSH1 0x40 PUSH0 KECCAK256 PUSH0 SWAP2 POP SWAP1 POP SLOAD DUP2 JUMP JUMPDEST PUSH1 0x5 PUSH0 SWAP1 SLOAD SWAP1 PUSH2 0x100 EXP SWAP1 DIV PUSH1 0xFF AND DUP2 JUMP JUMPDEST PUSH1 0x2 PUSH1 0x20 MSTORE DUP2 PUSH0 MSTORE PUSH1 0x40 PUSH0 KECCAK256 PUSH1 0x20 MSTORE DUP1 PUSH0 MSTORE PUSH1 0x40 PUSH0 KECCAK256 PUSH0 SWAP2 POP SWAP2 POP POP SLOAD DUP2 JUMP JUMPDEST PUSH1 0x5 PUSH1 0x1 SWAP1 SLOAD SWAP1 PUSH2 0x100 EXP SWAP1 DIV PUSH20 0xFFFFFFFFFFFFFFFFFFFFFFFFFFFFFFFFFFFFFFFF AND PUSH20 0xFFFFFFFFFFFFFFFFFFFFFFFFFFFFFFFFFFFFFFFF AND CALLER PUSH20 0xFFFFFFFFFFFFFFFFFFFFFFFFFFFFFFFFFFFFFFFF AND EQ PUSH2 0x946 JUMPI PUSH1 0x40 MLOAD PUSH32 0x8C379A000000000000000000000000000000000000000000000000000000000 DUP2 MSTORE PUSH1 0x4 ADD PUSH2 0x93D SWAP1 PUSH2 0x1412 JUMP JUMPDEST PUSH1 0x40 MLOAD DUP1 SWAP2 SUB SWAP1 REVERT JUMPDEST DUP1 PUSH1 0x6 DUP2 SWAP1 SSTORE POP POP JUMP JUMPDEST PUSH0 PUSH1 0x1 PUSH0 DUP4 PUSH20 0xFFFFFFFFFFFFFFFFFFFFFFFFFFFFFFFFFFFFFFFF AND PUSH20 0xFFFFFFFFFFFFFFFFFFFFFFFFFFFFFFFFFFFFFFFF AND DUP2 MSTORE PUSH1 0x20 ADD SWAP1 DUP2 MSTORE PUSH1 0x20 ADD PUSH0 KECCAK256 SLOAD SWAP1 POP SWAP2 SWAP1 POP JUMP JUMPDEST PUSH0 DUP1 PUSH1 0x6 SLOAD DUP4 PUSH2 0x9A6 SWAP2 SWAP1 PUSH2 0x1430 JUMP JUMPDEST SWAP1 POP DUP1 CALLVALUE LT ISZERO PUSH2 0x9EB JUMPI PUSH1 0x40 MLOAD PUSH32 0x8C379A000000000000000000000000000000000000000000000000000000000 DUP2 MSTORE PUSH1 0x4 ADD PUSH2 0x9E2 SWAP1 PUSH2 0x14BB JUMP JUMPDEST PUSH1 0x40 MLOAD DUP1 SWAP2 SUB SWAP1 REVERT JUMPDEST DUP3 PUSH1 0x1 PUSH0 PUSH1 0x5 PUSH1 0x1 SWAP1 SLOAD SWAP1 PUSH2 0x100 EXP SWAP1 DIV PUSH20 0xFFFFFFFFFFFFFFFFFFFFFFFFFFFFFFFFFFFFFFFF AND PUSH20 0xFFFFFFFFFFFFFFFFFFFFFFFFFFFFFFFFFFFFFFFF AND PUSH20 0xFFFFFFFFFFFFFFFFFFFFFFFFFFFFFFFFFFFFFFFF AND DUP2 MSTORE PUSH1 0x20 ADD SWAP1 DUP2 MSTORE PUSH1 0x20 ADD PUSH0 KECCAK256 SLOAD LT ISZERO PUSH2 0xA8D JUMPI PUSH1 0x40 MLOAD PUSH32 0x8C379A000000000000000000000000000000000000000000000000000000000 DUP2 MSTORE PUSH1 0x4 ADD PUSH2 0xA84 SWAP1 PUSH2 0x1523 JUMP JUMPDEST PUSH1 0x40 MLOAD DUP1 SWAP2 SUB SWAP1 REVERT JUMPDEST DUP3 PUSH1 0x1 PUSH0 PUSH1 0x5 PUSH1 0x1 SWAP1 SLOAD SWAP1 PUSH2 0x100 EXP SWAP1 DIV PUSH20 0xFFFFFFFFFFFFFFFFFFFFFFFFFFFFFFFFFFFFFFFF AND PUSH20 0xFFFFFFFFFFFFFFFFFFFFFFFFFFFFFFFFFFFFFFFF AND PUSH20 0xFFFFFFFFFFFFFFFFFFFFFFFFFFFFFFFFFFFFFFFF AND DUP2 MSTORE PUSH1 0x20 ADD SWAP1 DUP2 MSTORE PUSH1 0x20 ADD PUSH0 KECCAK256 PUSH0 DUP3 DUP3 SLOAD PUSH2 0xAFB SWAP2 SWAP1 PUSH2 0x1362 JUMP JUMPDEST SWAP3 POP POP DUP2 SWAP1 SSTORE POP DUP3 PUSH1 0x1 PUSH0 CALLER PUSH20 0xFFFFFFFFFFFFFFFFFFFFFFFFFFFFFFFFFFFFFFFF AND PUSH20 0xFFFFFFFFFFFFFFFFFFFFFFFFFFFFFFFFFFFFFFFF AND DUP2 MSTORE PUSH1 0x20 ADD SWAP1 DUP2 MSTORE PUSH1 0x20 ADD PUSH0 KECCAK256 PUSH0 DUP3 DUP3 SLOAD PUSH2 0xB4E SWAP2 SWAP1 PUSH2 0x1395 JUMP JUMPDEST SWAP3 POP POP DUP2 SWAP1 SSTORE POP CALLER PUSH20 0xFFFFFFFFFFFFFFFFFFFFFFFFFFFFFFFFFFFFFFFF AND PUSH1 0x5 PUSH1 0x1 SWAP1 SLOAD SWAP1 PUSH2 0x100 EXP SWAP1 DIV PUSH20 0xFFFFFFFFFFFFFFFFFFFFFFFFFFFFFFFFFFFFFFFF AND PUSH20 0xFFFFFFFFFFFFFFFFFFFFFFFFFFFFFFFFFFFFFFFF AND PUSH32 0xDDF252AD1BE2C89B69C2B068FC378DAA952BA7F163C4A11628F55A4DF523B3EF DUP6 PUSH1 0x40 MLOAD PUSH2 0xBD4 SWAP2 SWAP1 PUSH2 0x10AF JUMP JUMPDEST PUSH1 0x40 MLOAD DUP1 SWAP2 SUB SWAP1 LOG3 DUP1 CALLVALUE GT ISZERO PUSH2 0xC34 JUMPI CALLER PUSH20 0xFFFFFFFFFFFFFFFFFFFFFFFFFFFFFFFFFFFFFFFF AND PUSH2 0x8FC DUP3 CALLVALUE PUSH2 0xC0A SWAP2 SWAP1 PUSH2 0x1362 JUMP JUMPDEST SWAP1 DUP2 ISZERO MUL SWAP1 PUSH1 0x40 MLOAD PUSH0 PUSH1 0x40 MLOAD DUP1 DUP4 SUB DUP2 DUP6 DUP9 DUP9 CALL SWAP4 POP POP POP POP ISZERO DUP1 ISZERO PUSH2 0xC32 JUMPI RETURNDATASIZE PUSH0 DUP1 RETURNDATACOPY RETURNDATASIZE PUSH0 REVERT JUMPDEST POP JUMPDEST PUSH1 0x1 SWAP2 POP POP SWAP2 SWAP1 POP JUMP JUMPDEST PUSH1 0x6 SLOAD DUP2 JUMP JUMPDEST PUSH1 0x5 PUSH1 0x1 SWAP1 SLOAD SWAP1 PUSH2 0x100 EXP SWAP1 DIV PUSH20 0xFFFFFFFFFFFFFFFFFFFFFFFFFFFFFFFFFFFFFFFF AND DUP2 JUMP JUMPDEST PUSH1 0x4 DUP1 SLOAD PUSH2 0xC77 SWAP1 PUSH2 0x1235 JUMP JUMPDEST DUP1 PUSH1 0x1F ADD PUSH1 0x20 DUP1 SWAP2 DIV MUL PUSH1 0x20 ADD PUSH1 0x40 MLOAD SWAP1 DUP2 ADD PUSH1 0x40 MSTORE DUP1 SWAP3 SWAP2 SWAP1 DUP2 DUP2 MSTORE PUSH1 0x20 ADD DUP3 DUP1 SLOAD PUSH2 0xCA3 SWAP1 PUSH2 0x1235 JUMP JUMPDEST DUP1 ISZERO PUSH2 0xCEE JUMPI DUP1 PUSH1 0x1F LT PUSH2 0xCC5 JUMPI PUSH2 0x100 DUP1 DUP4 SLOAD DIV MUL DUP4 MSTORE SWAP2 PUSH1 0x20 ADD SWAP2 PUSH2 0xCEE JUMP JUMPDEST DUP3 ADD SWAP2 SWAP1 PUSH0 MSTORE PUSH1 0x20 PUSH0 KECCAK256 SWAP1 JUMPDEST DUP2 SLOAD DUP2 MSTORE SWAP1 PUSH1 0x1 ADD SWAP1 PUSH1 0x20 ADD DUP1 DUP4 GT PUSH2 0xCD1 JUMPI DUP3 SWAP1 SUB PUSH1 0x1F AND DUP3 ADD SWAP2 JUMPDEST POP POP POP POP POP DUP2 JUMP JUMPDEST PUSH0 DUP2 PUSH1 0x1 PUSH0 CALLER PUSH20 0xFFFFFFFFFFFFFFFFFFFFFFFFFFFFFFFFFFFFFFFF AND PUSH20 0xFFFFFFFFFFFFFFFFFFFFFFFFFFFFFFFFFFFFFFFF AND DUP2 MSTORE PUSH1 0x20 ADD SWAP1 DUP2 MSTORE PUSH1 0x20 ADD PUSH0 KECCAK256 SLOAD LT ISZERO PUSH2 0xD77 JUMPI PUSH1 0x40 MLOAD PUSH32 0x8C379A000000000000000000000000000000000000000000000000000000000 DUP2 MSTORE PUSH1 0x4 ADD PUSH2 0xD6E SWAP1 PUSH2 0x12AF JUMP JUMPDEST PUSH1 0x40 MLOAD DUP1 SWAP2 SUB SWAP1 REVERT JUMPDEST DUP2 PUSH1 0x1 PUSH0 CALLER PUSH20 0xFFFFFFFFFFFFFFFFFFFFFFFFFFFFFFFFFFFFFFFF AND PUSH20 0xFFFFFFFFFFFFFFFFFFFFFFFFFFFFFFFFFFFFFFFF AND DUP2 MSTORE PUSH1 0x20 ADD SWAP1 DUP2 MSTORE PUSH1 0x20 ADD PUSH0 KECCAK256 PUSH0 DUP3 DUP3 SLOAD PUSH2 0xDC3 SWAP2 SWAP1 PUSH2 0x1362 JUMP JUMPDEST SWAP3 POP POP DUP2 SWAP1 SSTORE POP DUP2 PUSH1 0x1 PUSH0 DUP6 PUSH20 0xFFFFFFFFFFFFFFFFFFFFFFFFFFFFFFFFFFFFFFFF AND PUSH20 0xFFFFFFFFFFFFFFFFFFFFFFFFFFFFFFFFFFFFFFFF AND DUP2 MSTORE PUSH1 0x20 ADD SWAP1 DUP2 MSTORE PUSH1 0x20 ADD PUSH0 KECCAK256 PUSH0 DUP3 DUP3 SLOAD PUSH2 0xE16 SWAP2 SWAP1 PUSH2 0x1395 JUMP JUMPDEST SWAP3 POP POP DUP2 SWAP1 SSTORE POP DUP3 PUSH20 0xFFFFFFFFFFFFFFFFFFFFFFFFFFFFFFFFFFFFFFFF AND CALLER PUSH20 0xFFFFFFFFFFFFFFFFFFFFFFFFFFFFFFFFFFFFFFFF AND PUSH32 0xDDF252AD1BE2C89B69C2B068FC378DAA952BA7F163C4A11628F55A4DF523B3EF DUP5 PUSH1 0x40 MLOAD PUSH2 0xE7A SWAP2 SWAP1 PUSH2 0x10AF JUMP JUMPDEST PUSH1 0x40 MLOAD DUP1 SWAP2 SUB SWAP1 LOG3 PUSH1 0x1 SWAP1 POP SWAP3 SWAP2 POP POP JUMP JUMPDEST PUSH0 PUSH1 0x2 PUSH0 DUP5 PUSH20 0xFFFFFFFFFFFFFFFFFFFFFFFFFFFFFFFFFFFFFFFF AND PUSH20 0xFFFFFFFFFFFFFFFFFFFFFFFFFFFFFFFFFFFFFFFF AND DUP2 MSTORE PUSH1 0x20 ADD SWAP1 DUP2 MSTORE PUSH1 0x20 ADD PUSH0 KECCAK256 PUSH0 DUP4 PUSH20 0xFFFFFFFFFFFFFFFFFFFFFFFFFFFFFFFFFFFFFFFF AND PUSH20 0xFFFFFFFFFFFFFFFFFFFFFFFFFFFFFFFFFFFFFFFF AND DUP2 MSTORE PUSH1 0x20 ADD SWAP1 DUP2 MSTORE PUSH1 0x20 ADD PUSH0 KECCAK256 SLOAD SWAP1 POP SWAP3 SWAP2 POP POP JUMP JUMPDEST PUSH0 DUP2 MLOAD SWAP1 POP SWAP2 SWAP1 POP JUMP JUMPDEST PUSH0 DUP3 DUP3 MSTORE PUSH1 0x20 DUP3 ADD SWAP1 POP SWAP3 SWAP2 POP POP JUMP JUMPDEST DUP3 DUP2 DUP4 MCOPY PUSH0 DUP4 DUP4 ADD MSTORE POP POP POP JUMP JUMPDEST PUSH0 PUSH1 0x1F NOT PUSH1 0x1F DUP4 ADD AND SWAP1 POP SWAP2 SWAP1 POP JUMP JUMPDEST PUSH0 PUSH2 0xF50 DUP3 PUSH2 0xF0E JUMP JUMPDEST PUSH2 0xF5A DUP2 DUP6 PUSH2 0xF18 JUMP JUMPDEST SWAP4 POP PUSH2 0xF6A DUP2 DUP6 PUSH1 0x20 DUP7 ADD PUSH2 0xF28 JUMP JUMPDEST PUSH2 0xF73 DUP2 PUSH2 0xF36 JUMP JUMPDEST DUP5 ADD SWAP2 POP POP SWAP3 SWAP2 POP POP JUMP JUMPDEST PUSH0 PUSH1 0x20 DUP3 ADD SWAP1 POP DUP2 DUP2 SUB PUSH0 DUP4 ADD MSTORE PUSH2 0xF96 DUP2 DUP5 PUSH2 0xF46 JUMP JUMPDEST SWAP1 POP SWAP3 SWAP2 POP POP JUMP JUMPDEST PUSH0 DUP1 REVERT JUMPDEST PUSH0 PUSH20 0xFFFFFFFFFFFFFFFFFFFFFFFFFFFFFFFFFFFFFFFF DUP3 AND SWAP1 POP SWAP2 SWAP1 POP JUMP JUMPDEST PUSH0 PUSH2 0xFCB DUP3 PUSH2 0xFA2 JUMP JUMPDEST SWAP1 POP SWAP2 SWAP1 POP JUMP JUMPDEST PUSH2 0xFDB DUP2 PUSH2 0xFC1 JUMP JUMPDEST DUP2 EQ PUSH2 0xFE5 JUMPI PUSH0 DUP1 REVERT JUMPDEST POP JUMP JUMPDEST PUSH0 DUP2 CALLDATALOAD SWAP1 POP PUSH2 0xFF6 DUP2 PUSH2 0xFD2 JUMP JUMPDEST SWAP3 SWAP2 POP POP JUMP JUMPDEST PUSH0 DUP2 SWAP1 POP SWAP2 SWAP1 POP JUMP JUMPDEST PUSH2 0x100E DUP2 PUSH2 0xFFC JUMP JUMPDEST DUP2 EQ PUSH2 0x1018 JUMPI PUSH0 DUP1 REVERT JUMPDEST POP JUMP JUMPDEST PUSH0 DUP2 CALLDATALOAD SWAP1 POP PUSH2 0x1029 DUP2 PUSH2 0x1005 JUMP JUMPDEST SWAP3 SWAP2 POP POP JUMP JUMPDEST PUSH0 DUP1 PUSH1 0x40 DUP4 DUP6 SUB SLT ISZERO PUSH2 0x1045 JUMPI PUSH2 0x1044 PUSH2 0xF9E JUMP JUMPDEST JUMPDEST PUSH0 PUSH2 0x1052 DUP6 DUP3 DUP7 ADD PUSH2 0xFE8 JUMP JUMPDEST SWAP3 POP POP PUSH1 0x20 PUSH2 0x1063 DUP6 DUP3 DUP7 ADD PUSH2 0x101B JUMP JUMPDEST SWAP2 POP POP SWAP3 POP SWAP3 SWAP1 POP JUMP JUMPDEST PUSH0 DUP2 ISZERO ISZERO SWAP1 POP SWAP2 SWAP1 POP JUMP JUMPDEST PUSH2 0x1081 DUP2 PUSH2 0x106D JUMP JUMPDEST DUP3 MSTORE POP POP JUMP JUMPDEST PUSH0 PUSH1 0x20 DUP3 ADD SWAP1 POP PUSH2 0x109A PUSH0 DUP4 ADD DUP5 PUSH2 0x1078 JUMP JUMPDEST SWAP3 SWAP2 POP POP JUMP JUMPDEST PUSH2 0x10A9 DUP2 PUSH2 0xFFC JUMP JUMPDEST DUP3 MSTORE POP POP JUMP JUMPDEST PUSH0 PUSH1 0x20 DUP3 ADD SWAP1 POP PUSH2 0x10C2 PUSH0 DUP4 ADD DUP5 PUSH2 0x10A0 JUMP JUMPDEST SWAP3 SWAP2 POP POP JUMP JUMPDEST PUSH0 DUP1 PUSH0 PUSH1 0x60 DUP5 DUP7 SUB SLT ISZERO PUSH2 0x10DF JUMPI PUSH2 0x10DE PUSH2 0xF9E JUMP JUMPDEST JUMPDEST PUSH0 PUSH2 0x10EC DUP7 DUP3 DUP8 ADD PUSH2 0xFE8 JUMP JUMPDEST SWAP4 POP POP PUSH1 0x20 PUSH2 0x10FD DUP7 DUP3 DUP8 ADD PUSH2 0xFE8 JUMP JUMPDEST SWAP3 POP POP PUSH1 0x40 PUSH2 0x110E DUP7 DUP3 DUP8 ADD PUSH2 0x101B JUMP JUMPDEST SWAP2 POP POP SWAP3 POP SWAP3 POP SWAP3 JUMP JUMPDEST PUSH0 PUSH1 0x20 DUP3 DUP5 SUB SLT ISZERO PUSH2 0x112D JUMPI PUSH2 0x112C PUSH2 0xF9E JUMP JUMPDEST JUMPDEST PUSH0 PUSH2 0x113A DUP5 DUP3 DUP6 ADD PUSH2 0xFE8 JUMP JUMPDEST SWAP2 POP POP SWAP3 SWAP2 POP POP JUMP JUMPDEST PUSH0 PUSH1 0xFF DUP3 AND SWAP1 POP SWAP2 SWAP1 POP JUMP JUMPDEST PUSH2 0x1158 DUP2 PUSH2 0x1143 JUMP JUMPDEST DUP3 MSTORE POP POP JUMP JUMPDEST PUSH0 PUSH1 0x20 DUP3 ADD SWAP1 POP PUSH2 0x1171 PUSH0 DUP4 ADD DUP5 PUSH2 0x114F JUMP JUMPDEST SWAP3 SWAP2 POP POP JUMP JUMPDEST PUSH0 DUP1 PUSH1 0x40 DUP4 DUP6 SUB SLT ISZERO PUSH2 0x118D JUMPI PUSH2 0x118C PUSH2 0xF9E JUMP JUMPDEST JUMPDEST PUSH0 PUSH2 0x119A DUP6 DUP3 DUP7 ADD PUSH2 0xFE8 JUMP JUMPDEST SWAP3 POP POP PUSH1 0x20 PUSH2 0x11AB DUP6 DUP3 DUP7 ADD PUSH2 0xFE8 JUMP JUMPDEST SWAP2 POP POP SWAP3 POP SWAP3 SWAP1 POP JUMP JUMPDEST PUSH0 PUSH1 0x20 DUP3 DUP5 SUB SLT ISZERO PUSH2 0x11CA JUMPI PUSH2 0x11C9 PUSH2 0xF9E JUMP JUMPDEST JUMPDEST PUSH0 PUSH2 0x11D7 DUP5 DUP3 DUP6 ADD PUSH2 0x101B JUMP JUMPDEST SWAP2 POP POP SWAP3 SWAP2 POP POP JUMP JUMPDEST PUSH2 0x11E9 DUP2 PUSH2 0xFC1 JUMP JUMPDEST DUP3 MSTORE POP POP JUMP JUMPDEST PUSH0 PUSH1 0x20 DUP3 ADD SWAP1 POP PUSH2 0x1202 PUSH0 DUP4 ADD DUP5 PUSH2 0x11E0 JUMP JUMPDEST SWAP3 SWAP2 POP POP JUMP JUMPDEST PUSH32 0x4E487B7100000000000000000000000000000000000000000000000000000000 PUSH0 MSTORE PUSH1 0x22 PUSH1 0x4 MSTORE PUSH1 0x24 PUSH0 REVERT JUMPDEST PUSH0 PUSH1 0x2 DUP3 DIV SWAP1 POP PUSH1 0x1 DUP3 AND DUP1 PUSH2 0x124C JUMPI PUSH1 0x7F DUP3 AND SWAP2 POP JUMPDEST PUSH1 0x20 DUP3 LT DUP2 SUB PUSH2 0x125F JUMPI PUSH2 0x125E PUSH2 0x1208 JUMP JUMPDEST JUMPDEST POP SWAP2 SWAP1 POP JUMP JUMPDEST PUSH32 0x496E73756666696369656E742062616C616E6365000000000000000000000000 PUSH0 DUP3 ADD MSTORE POP JUMP JUMPDEST PUSH0 PUSH2 0x1299 PUSH1 0x14 DUP4 PUSH2 0xF18 JUMP JUMPDEST SWAP2 POP PUSH2 0x12A4 DUP3 PUSH2 0x1265 JUMP JUMPDEST PUSH1 0x20 DUP3 ADD SWAP1 POP SWAP2 SWAP1 POP JUMP JUMPDEST PUSH0 PUSH1 0x20 DUP3 ADD SWAP1 POP DUP2 DUP2 SUB PUSH0 DUP4 ADD MSTORE PUSH2 0x12C6 DUP2 PUSH2 0x128D JUMP JUMPDEST SWAP1 POP SWAP2 SWAP1 POP JUMP JUMPDEST PUSH32 0x416C6C6F77616E63652065786365656465640000000000000000000000000000 PUSH0 DUP3 ADD MSTORE POP JUMP JUMPDEST PUSH0 PUSH2 0x1301 PUSH1 0x12 DUP4 PUSH2 0xF18 JUMP JUMPDEST SWAP2 POP PUSH2 0x130C DUP3 PUSH2 0x12CD JUMP JUMPDEST PUSH1 0x20 DUP3 ADD SWAP1 POP SWAP2 SWAP1 POP JUMP JUMPDEST PUSH0 PUSH1 0x20 DUP3 ADD SWAP1 POP DUP2 DUP2 SUB PUSH0 DUP4 ADD MSTORE PUSH2 0x132E DUP2 PUSH2 0x12F5 JUMP JUMPDEST SWAP1 POP SWAP2 SWAP1 POP JUMP JUMPDEST PUSH32 0x4E487B7100000000000000000000000000000000000000000000000000000000 PUSH0 MSTORE PUSH1 0x11 PUSH1 0x4 MSTORE PUSH1 0x24 PUSH0 REVERT JUMPDEST PUSH0 PUSH2 0x136C DUP3 PUSH2 0xFFC JUMP JUMPDEST SWAP2 POP PUSH2 0x1377 DUP4 PUSH2 0xFFC JUMP JUMPDEST SWAP3 POP DUP3 DUP3 SUB SWAP1 POP DUP2 DUP2 GT ISZERO PUSH2 0x138F JUMPI PUSH2 0x138E PUSH2 0x1335 JUMP JUMPDEST JUMPDEST SWAP3 SWAP2 POP POP JUMP JUMPDEST PUSH0 PUSH2 0x139F DUP3 PUSH2 0xFFC JUMP JUMPDEST SWAP2 POP PUSH2 0x13AA DUP4 PUSH2 0xFFC JUMP JUMPDEST SWAP3 POP DUP3 DUP3 ADD SWAP1 POP DUP1 DUP3 GT ISZERO PUSH2 0x13C2 JUMPI PUSH2 0x13C1 PUSH2 0x1335 JUMP JUMPDEST JUMPDEST SWAP3 SWAP2 POP POP JUMP JUMPDEST PUSH32 0x4E6F7420617574686F72697A6564000000000000000000000000000000000000 PUSH0 DUP3 ADD MSTORE POP JUMP JUMPDEST PUSH0 PUSH2 0x13FC PUSH1 0xE DUP4 PUSH2 0xF18 JUMP JUMPDEST SWAP2 POP PUSH2 0x1407 DUP3 PUSH2 0x13C8 JUMP JUMPDEST PUSH1 0x20 DUP3 ADD SWAP1 POP SWAP2 SWAP1 POP JUMP JUMPDEST PUSH0 PUSH1 0x20 DUP3 ADD SWAP1 POP DUP2 DUP2 SUB PUSH0 DUP4 ADD MSTORE PUSH2 0x1429 DUP2 PUSH2 0x13F0 JUMP JUMPDEST SWAP1 POP SWAP2 SWAP1 POP JUMP JUMPDEST PUSH0 PUSH2 0x143A DUP3 PUSH2 0xFFC JUMP JUMPDEST SWAP2 POP PUSH2 0x1445 DUP4 PUSH2 0xFFC JUMP JUMPDEST SWAP3 POP DUP3 DUP3 MUL PUSH2 0x1453 DUP2 PUSH2 0xFFC JUMP JUMPDEST SWAP2 POP DUP3 DUP3 DIV DUP5 EQ DUP4 ISZERO OR PUSH2 0x146A JUMPI PUSH2 0x1469 PUSH2 0x1335 JUMP JUMPDEST JUMPDEST POP SWAP3 SWAP2 POP POP JUMP JUMPDEST PUSH32 0x496E73756666696369656E742045746865722073656E74000000000000000000 PUSH0 DUP3 ADD MSTORE POP JUMP JUMPDEST PUSH0 PUSH2 0x14A5 PUSH1 0x17 DUP4 PUSH2 0xF18 JUMP JUMPDEST SWAP2 POP PUSH2 0x14B0 DUP3 PUSH2 0x1471 JUMP JUMPDEST PUSH1 0x20 DUP3 ADD SWAP1 POP SWAP2 SWAP1 POP JUMP JUMPDEST PUSH0 PUSH1 0x20 DUP3 ADD SWAP1 POP DUP2 DUP2 SUB PUSH0 DUP4 ADD MSTORE PUSH2 0x14D2 DUP2 PUSH2 0x1499 JUMP JUMPDEST SWAP1 POP SWAP2 SWAP1 POP JUMP JUMPDEST PUSH32 0x4E6F7420656E6F75676820746F6B656E7320696E207265736572766500000000 PUSH0 DUP3 ADD MSTORE POP JUMP JUMPDEST PUSH0 PUSH2 0x150D PUSH1 0x1C DUP4 PUSH2 0xF18 JUMP JUMPDEST SWAP2 POP PUSH2 0x1518 DUP3 PUSH2 0x14D9 JUMP JUMPDEST PUSH1 0x20 DUP3 ADD SWAP1 POP SWAP2 SWAP1 POP JUMP JUMPDEST PUSH0 PUSH1 0x20 DUP3 ADD SWAP1 POP DUP2 DUP2 SUB PUSH0 DUP4 ADD MSTORE PUSH2 0x153A DUP2 PUSH2 0x1501 JUMP JUMPDEST SWAP1 POP SWAP2 SWAP1 POP JUMP INVALID LOG2 PUSH5 0x6970667358 0x22 SLT KECCAK256 CALLDATACOPY SWAP2 LOG4 PUSH14 0xB0599A041C421226565B6BE264B2 SLOAD REVERT BASEFEE EQ PUSH26 0xE154C77681286395EC64736F6C634300081A0033000000000000 "
				},
				"gasEstimates": {
					"creation": {
						"codeDepositCost": "1099000",
						"executionCost": "infinite",
						"totalCost": "infinite"
					},
					"external": {
						"allowance(address,address)": "infinite",
						"allowed(address,address)": "infinite",
						"approve(address,uint256)": "infinite",
						"balanceOf(address)": "2874",
						"balances(address)": "2847",
						"decimals()": "2533",
						"name()": "infinite",
						"owner()": "2581",
						"purchaseTokens(uint256)": "infinite",
						"setTokenPrice(uint256)": "24758",
						"symbol()": "infinite",
						"tokenPrice()": "2514",
						"totalSupply()": "2492",
						"transfer(address,uint256)": "infinite",
						"transferFrom(address,address,uint256)": "infinite"
					}
				},
				"methodIdentifiers": {
					"allowance(address,address)": "dd62ed3e",
					"allowed(address,address)": "5c658165",
					"approve(address,uint256)": "095ea7b3",
					"balanceOf(address)": "70a08231",
					"balances(address)": "27e235e3",
					"decimals()": "313ce567",
					"name()": "06fdde03",
					"owner()": "8da5cb5b",
					"purchaseTokens(uint256)": "7b97008d",
					"setTokenPrice(uint256)": "6a61e5fc",
					"symbol()": "95d89b41",
					"tokenPrice()": "7ff9b596",
					"totalSupply()": "18160ddd",
					"transfer(address,uint256)": "a9059cbb",
					"transferFrom(address,address,uint256)": "23b872dd"
				}
			},
			"storageLayout": {
				"storage": [
					{
						"astId": 3,
						"contract": "tema/EIP20Token.sol:EIP20Token",
						"label": "totalSupply",
						"offset": 0,
						"slot": "0",
						"type": "t_uint256"
					},
					{
						"astId": 14,
						"contract": "tema/EIP20Token.sol:EIP20Token",
						"label": "balances",
						"offset": 0,
						"slot": "1",
						"type": "t_mapping(t_address,t_uint256)"
					},
					{
						"astId": 20,
						"contract": "tema/EIP20Token.sol:EIP20Token",
						"label": "allowed",
						"offset": 0,
						"slot": "2",
						"type": "t_mapping(t_address,t_mapping(t_address,t_uint256))"
					},
					{
						"astId": 22,
						"contract": "tema/EIP20Token.sol:EIP20Token",
						"label": "name",
						"offset": 0,
						"slot": "3",
						"type": "t_string_storage"
					},
					{
						"astId": 24,
						"contract": "tema/EIP20Token.sol:EIP20Token",
						"label": "symbol",
						"offset": 0,
						"slot": "4",
						"type": "t_string_storage"
					},
					{
						"astId": 26,
						"contract": "tema/EIP20Token.sol:EIP20Token",
						"label": "decimals",
						"offset": 0,
						"slot": "5",
						"type": "t_uint8"
					},
					{
						"astId": 28,
						"contract": "tema/EIP20Token.sol:EIP20Token",
						"label": "owner",
						"offset": 1,
						"slot": "5",
						"type": "t_address"
					},
					{
						"astId": 30,
						"contract": "tema/EIP20Token.sol:EIP20Token",
						"label": "tokenPrice",
						"offset": 0,
						"slot": "6",
						"type": "t_uint256"
					}
				],
				"types": {
					"t_address": {
						"encoding": "inplace",
						"label": "address",
						"numberOfBytes": "20"
					},
					"t_mapping(t_address,t_mapping(t_address,t_uint256))": {
						"encoding": "mapping",
						"key": "t_address",
						"label": "mapping(address => mapping(address => uint256))",
						"numberOfBytes": "32",
						"value": "t_mapping(t_address,t_uint256)"
					},
					"t_mapping(t_address,t_uint256)": {
						"encoding": "mapping",
						"key": "t_address",
						"label": "mapping(address => uint256)",
						"numberOfBytes": "32",
						"value": "t_uint256"
					},
					"t_string_storage": {
						"encoding": "bytes",
						"label": "string",
						"numberOfBytes": "32"
					},
					"t_uint256": {
						"encoding": "inplace",
						"label": "uint256",
						"numberOfBytes": "32"
					},
					"t_uint8": {
						"encoding": "inplace",
						"label": "uint8",
						"numberOfBytes": "1"
					}
				}
			},
			"userdoc": {
				"kind": "user",
				"methods": {},
				"version": 1
			}
		}
	}
}