{
	"data": {
		"bytecode": {
			"linkReferences": {},
			"object": "608060405234801561000f575f80fd5b50604051610eda380380610eda83398181016040528101906100319190610114565b805f806101000a81548173ffffffffffffffffffffffffffffffffffffffff021916908373ffffffffffffffffffffffffffffffffffffffff1602179055503360015f6101000a81548173ffffffffffffffffffffffffffffffffffffffff021916908373ffffffffffffffffffffffffffffffffffffffff1602179055505061013f565b5f80fd5b5f73ffffffffffffffffffffffffffffffffffffffff82169050919050565b5f6100e3826100ba565b9050919050565b6100f3816100d9565b81146100fd575f80fd5b50565b5f8151905061010e816100ea565b92915050565b5f60208284031215610129576101286100b6565b5b5f61013684828501610100565b91505092915050565b610d8e8061014c5f395ff3fe608060405234801561000f575f80fd5b5060043610610055575f3560e01c806324600fc3146100595780638da5cb5b1461006357806396074e70146100815780639d76ea581461009d578063efeb5e58146100bb575b5f80fd5b6100616100ed565b005b61006b6104be565b604051610078919061080d565b60405180910390f35b61009b60048036038101906100969190610887565b6104e3565b005b6100a561074b565b6040516100b2919061080d565b60405180910390f35b6100d560048036038101906100d091906108c5565b61076e565b6040516100e493929190610919565b60405180910390f35b5f805f9054906101000a900473ffffffffffffffffffffffffffffffffffffffff1673ffffffffffffffffffffffffffffffffffffffff166370a08231306040518263ffffffff1660e01b8152600401610147919061080d565b602060405180830381865afa158015610162573d5f803e3d5ffd5b505050506040513d601f19601f820116820180604052508101906101869190610962565b90505f81116101ca576040517f08c379a00000000000000000000000000000000000000000000000000000000081526004016101c1906109e7565b60405180910390fd5b5f5b600280549050811015610480573373ffffffffffffffffffffffffffffffffffffffff166002828154811061020457610203610a05565b5b905f5260205f2090600302015f015f9054906101000a900473ffffffffffffffffffffffffffffffffffffffff1673ffffffffffffffffffffffffffffffffffffffff1614801561028257506002818154811061026457610263610a05565b5b905f5260205f2090600302016002015f9054906101000a900460ff16155b15610473575f60646002838154811061029e5761029d610a05565b5b905f5260205f20906003020160010154846102b99190610a5f565b6102c39190610acd565b90505f8054906101000a900473ffffffffffffffffffffffffffffffffffffffff1673ffffffffffffffffffffffffffffffffffffffff1663a9059cbb6002848154811061031457610313610a05565b5b905f5260205f2090600302015f015f9054906101000a900473ffffffffffffffffffffffffffffffffffffffff16836040518363ffffffff1660e01b8152600401610360929190610afd565b6020604051808303815f875af115801561037c573d5f803e3d5ffd5b505050506040513d601f19601f820116820180604052508101906103a09190610b4e565b506001600283815481106103b7576103b6610a05565b5b905f5260205f2090600302016002015f6101000a81548160ff021916908315150217905550600282815481106103f0576103ef610a05565b5b905f5260205f2090600302015f015f9054906101000a900473ffffffffffffffffffffffffffffffffffffffff1673ffffffffffffffffffffffffffffffffffffffff167feaff4b37086828766ad3268786972c0cd24259d4c87a80f9d3963a3c3d999b0d826040516104639190610b79565b60405180910390a25050506104bc565b80806001019150506101cc565b506040517f08c379a00000000000000000000000000000000000000000000000000000000081526004016104b390610c02565b60405180910390fd5b565b60015f9054906101000a900473ffffffffffffffffffffffffffffffffffffffff1681565b60015f9054906101000a900473ffffffffffffffffffffffffffffffffffffffff1673ffffffffffffffffffffffffffffffffffffffff163373ffffffffffffffffffffffffffffffffffffffff1614610572576040517f08c379a000000000000000000000000000000000000000000000000000000000815260040161056990610c6a565b60405180910390fd5b5f73ffffffffffffffffffffffffffffffffffffffff168273ffffffffffffffffffffffffffffffffffffffff16036105e0576040517f08c379a00000000000000000000000000000000000000000000000000000000081526004016105d790610cd2565b60405180910390fd5b5f811180156105f0575060648111155b61062f576040517f08c379a000000000000000000000000000000000000000000000000000000000815260040161062690610d3a565b60405180910390fd5b600260405180606001604052808473ffffffffffffffffffffffffffffffffffffffff1681526020018381526020015f1515815250908060018154018082558091505060019003905f5260205f2090600302015f909190919091505f820151815f015f6101000a81548173ffffffffffffffffffffffffffffffffffffffff021916908373ffffffffffffffffffffffffffffffffffffffff160217905550602082015181600101556040820151816002015f6101000a81548160ff02191690831515021790555050508173ffffffffffffffffffffffffffffffffffffffff167fe6b83177f11971ba30369bb38b914ffba97d5969a3c857b286fa8fdbb150b3ba8260405161073f9190610b79565b60405180910390a25050565b5f8054906101000a900473ffffffffffffffffffffffffffffffffffffffff1681565b6002818154811061077d575f80fd5b905f5260205f2090600302015f91509050805f015f9054906101000a900473ffffffffffffffffffffffffffffffffffffffff1690806001015490806002015f9054906101000a900460ff16905083565b5f73ffffffffffffffffffffffffffffffffffffffff82169050919050565b5f6107f7826107ce565b9050919050565b610807816107ed565b82525050565b5f6020820190506108205f8301846107fe565b92915050565b5f80fd5b610833816107ed565b811461083d575f80fd5b50565b5f8135905061084e8161082a565b92915050565b5f819050919050565b61086681610854565b8114610870575f80fd5b50565b5f813590506108818161085d565b92915050565b5f806040838503121561089d5761089c610826565b5b5f6108aa85828601610840565b92505060206108bb85828601610873565b9150509250929050565b5f602082840312156108da576108d9610826565b5b5f6108e784828501610873565b91505092915050565b6108f981610854565b82525050565b5f8115159050919050565b610913816108ff565b82525050565b5f60608201905061092c5f8301866107fe565b61093960208301856108f0565b610946604083018461090a565b949350505050565b5f8151905061095c8161085d565b92915050565b5f6020828403121561097757610976610826565b5b5f6109848482850161094e565b91505092915050565b5f82825260208201905092915050565b7f4e6f2066756e647320617661696c61626c6500000000000000000000000000005f82015250565b5f6109d160128361098d565b91506109dc8261099d565b602082019050919050565b5f6020820190508181035f8301526109fe816109c5565b9050919050565b7f4e487b71000000000000000000000000000000000000000000000000000000005f52603260045260245ffd5b7f4e487b71000000000000000000000000000000000000000000000000000000005f52601160045260245ffd5b5f610a6982610854565b9150610a7483610854565b9250828202610a8281610854565b91508282048414831517610a9957610a98610a32565b5b5092915050565b7f4e487b71000000000000000000000000000000000000000000000000000000005f52601260045260245ffd5b5f610ad782610854565b9150610ae283610854565b925082610af257610af1610aa0565b5b828204905092915050565b5f604082019050610b105f8301856107fe565b610b1d60208301846108f0565b9392505050565b610b2d816108ff565b8114610b37575f80fd5b50565b5f81519050610b4881610b24565b92915050565b5f60208284031215610b6357610b62610826565b5b5f610b7084828501610b3a565b91505092915050565b5f602082019050610b8c5f8301846108f0565b92915050565b7f596f7520617265206e6f7420612062656e6566696369617279206f72206861765f8201527f6520616c72656164792077697468647261776e00000000000000000000000000602082015250565b5f610bec60338361098d565b9150610bf782610b92565b604082019050919050565b5f6020820190508181035f830152610c1981610be0565b9050919050565b7f4e6f7420746865206f776e6572000000000000000000000000000000000000005f82015250565b5f610c54600d8361098d565b9150610c5f82610c20565b602082019050919050565b5f6020820190508181035f830152610c8181610c48565b9050919050565b7f496e76616c6964206164647265737300000000000000000000000000000000005f82015250565b5f610cbc600f8361098d565b9150610cc782610c88565b602082019050919050565b5f6020820190508181035f830152610ce981610cb0565b9050919050565b7f496e76616c69642070657263656e7461676500000000000000000000000000005f82015250565b5f610d2460128361098d565b9150610d2f82610cf0565b602082019050919050565b5f6020820190508181035f830152610d5181610d18565b905091905056fea2646970667358221220933a036858472c4bf4f05424b472c2717e0f2af64688415c2afd9d6a478ee93b64736f6c634300081a0033",
			"opcodes": "PUSH1 0x80 PUSH1 0x40 MSTORE CALLVALUE DUP1 ISZERO PUSH2 0xF JUMPI PUSH0 DUP1 REVERT JUMPDEST POP PUSH1 0x40 MLOAD PUSH2 0xEDA CODESIZE SUB DUP1 PUSH2 0xEDA DUP4 CODECOPY DUP2 DUP2 ADD PUSH1 0x40 MSTORE DUP2 ADD SWAP1 PUSH2 0x31 SWAP2 SWAP1 PUSH2 0x114 JUMP JUMPDEST DUP1 PUSH0 DUP1 PUSH2 0x100 EXP DUP2 SLOAD DUP2 PUSH20 0xFFFFFFFFFFFFFFFFFFFFFFFFFFFFFFFFFFFFFFFF MUL NOT AND SWAP1 DUP4 PUSH20 0xFFFFFFFFFFFFFFFFFFFFFFFFFFFFFFFFFFFFFFFF AND MUL OR SWAP1 SSTORE POP CALLER PUSH1 0x1 PUSH0 PUSH2 0x100 EXP DUP2 SLOAD DUP2 PUSH20 0xFFFFFFFFFFFFFFFFFFFFFFFFFFFFFFFFFFFFFFFF MUL NOT AND SWAP1 DUP4 PUSH20 0xFFFFFFFFFFFFFFFFFFFFFFFFFFFFFFFFFFFFFFFF AND MUL OR SWAP1 SSTORE POP POP PUSH2 0x13F JUMP JUMPDEST PUSH0 DUP1 REVERT JUMPDEST PUSH0 PUSH20 0xFFFFFFFFFFFFFFFFFFFFFFFFFFFFFFFFFFFFFFFF DUP3 AND SWAP1 POP SWAP2 SWAP1 POP JUMP JUMPDEST PUSH0 PUSH2 0xE3 DUP3 PUSH2 0xBA JUMP JUMPDEST SWAP1 POP SWAP2 SWAP1 POP JUMP JUMPDEST PUSH2 0xF3 DUP2 PUSH2 0xD9 JUMP JUMPDEST DUP2 EQ PUSH2 0xFD JUMPI PUSH0 DUP1 REVERT JUMPDEST POP JUMP JUMPDEST PUSH0 DUP2 MLOAD SWAP1 POP PUSH2 0x10E DUP2 PUSH2 0xEA JUMP JUMPDEST SWAP3 SWAP2 POP POP JUMP JUMPDEST PUSH0 PUSH1 0x20 DUP3 DUP5 SUB SLT ISZERO PUSH2 0x129 JUMPI PUSH2 0x128 PUSH2 0xB6 JUMP JUMPDEST JUMPDEST PUSH0 PUSH2 0x136 DUP5 DUP3 DUP6 ADD PUSH2 0x100 JUMP JUMPDEST SWAP2 POP POP SWAP3 SWAP2 POP POP JUMP JUMPDEST PUSH2 0xD8E DUP1 PUSH2 0x14C PUSH0 CODECOPY PUSH0 RETURN INVALID PUSH1 0x80 PUSH1 0x40 MSTORE CALLVALUE DUP1 ISZERO PUSH2 0xF JUMPI PUSH0 DUP1 REVERT JUMPDEST POP PUSH1 0x4 CALLDATASIZE LT PUSH2 0x55 JUMPI PUSH0 CALLDATALOAD PUSH1 0xE0 SHR DUP1 PUSH4 0x24600FC3 EQ PUSH2 0x59 JUMPI DUP1 PUSH4 0x8DA5CB5B EQ PUSH2 0x63 JUMPI DUP1 PUSH4 0x96074E70 EQ PUSH2 0x81 JUMPI DUP1 PUSH4 0x9D76EA58 EQ PUSH2 0x9D JUMPI DUP1 PUSH4 0xEFEB5E58 EQ PUSH2 0xBB JUMPI JUMPDEST PUSH0 DUP1 REVERT JUMPDEST PUSH2 0x61 PUSH2 0xED JUMP JUMPDEST STOP JUMPDEST PUSH2 0x6B PUSH2 0x4BE JUMP JUMPDEST PUSH1 0x40 MLOAD PUSH2 0x78 SWAP2 SWAP1 PUSH2 0x80D JUMP JUMPDEST PUSH1 0x40 MLOAD DUP1 SWAP2 SUB SWAP1 RETURN JUMPDEST PUSH2 0x9B PUSH1 0x4 DUP1 CALLDATASIZE SUB DUP2 ADD SWAP1 PUSH2 0x96 SWAP2 SWAP1 PUSH2 0x887 JUMP JUMPDEST PUSH2 0x4E3 JUMP JUMPDEST STOP JUMPDEST PUSH2 0xA5 PUSH2 0x74B JUMP JUMPDEST PUSH1 0x40 MLOAD PUSH2 0xB2 SWAP2 SWAP1 PUSH2 0x80D JUMP JUMPDEST PUSH1 0x40 MLOAD DUP1 SWAP2 SUB SWAP1 RETURN JUMPDEST PUSH2 0xD5 PUSH1 0x4 DUP1 CALLDATASIZE SUB DUP2 ADD SWAP1 PUSH2 0xD0 SWAP2 SWAP1 PUSH2 0x8C5 JUMP JUMPDEST PUSH2 0x76E JUMP JUMPDEST PUSH1 0x40 MLOAD PUSH2 0xE4 SWAP4 SWAP3 SWAP2 SWAP1 PUSH2 0x919 JUMP JUMPDEST PUSH1 0x40 MLOAD DUP1 SWAP2 SUB SWAP1 RETURN JUMPDEST PUSH0 DUP1 PUSH0 SWAP1 SLOAD SWAP1 PUSH2 0x100 EXP SWAP1 DIV PUSH20 0xFFFFFFFFFFFFFFFFFFFFFFFFFFFFFFFFFFFFFFFF AND PUSH20 0xFFFFFFFFFFFFFFFFFFFFFFFFFFFFFFFFFFFFFFFF AND PUSH4 0x70A08231 ADDRESS PUSH1 0x40 MLOAD DUP3 PUSH4 0xFFFFFFFF AND PUSH1 0xE0 SHL DUP2 MSTORE PUSH1 0x4 ADD PUSH2 0x147 SWAP2 SWAP1 PUSH2 0x80D JUMP JUMPDEST PUSH1 0x20 PUSH1 0x40 MLOAD DUP1 DUP4 SUB DUP2 DUP7 GAS STATICCALL ISZERO DUP1 ISZERO PUSH2 0x162 JUMPI RETURNDATASIZE PUSH0 DUP1 RETURNDATACOPY RETURNDATASIZE PUSH0 REVERT JUMPDEST POP POP POP POP PUSH1 0x40 MLOAD RETURNDATASIZE PUSH1 0x1F NOT PUSH1 0x1F DUP3 ADD AND DUP3 ADD DUP1 PUSH1 0x40 MSTORE POP DUP2 ADD SWAP1 PUSH2 0x186 SWAP2 SWAP1 PUSH2 0x962 JUMP JUMPDEST SWAP1 POP PUSH0 DUP2 GT PUSH2 0x1CA JUMPI PUSH1 0x40 MLOAD PUSH32 0x8C379A000000000000000000000000000000000000000000000000000000000 DUP2 MSTORE PUSH1 0x4 ADD PUSH2 0x1C1 SWAP1 PUSH2 0x9E7 JUMP JUMPDEST PUSH1 0x40 MLOAD DUP1 SWAP2 SUB SWAP1 REVERT JUMPDEST PUSH0 JUMPDEST PUSH1 0x2 DUP1 SLOAD SWAP1 POP DUP2 LT ISZERO PUSH2 0x480 JUMPI CALLER PUSH20 0xFFFFFFFFFFFFFFFFFFFFFFFFFFFFFFFFFFFFFFFF AND PUSH1 0x2 DUP3 DUP2 SLOAD DUP2 LT PUSH2 0x204 JUMPI PUSH2 0x203 PUSH2 0xA05 JUMP JUMPDEST JUMPDEST SWAP1 PUSH0 MSTORE PUSH1 0x20 PUSH0 KECCAK256 SWAP1 PUSH1 0x3 MUL ADD PUSH0 ADD PUSH0 SWAP1 SLOAD SWAP1 PUSH2 0x100 EXP SWAP1 DIV PUSH20 0xFFFFFFFFFFFFFFFFFFFFFFFFFFFFFFFFFFFFFFFF AND PUSH20 0xFFFFFFFFFFFFFFFFFFFFFFFFFFFFFFFFFFFFFFFF AND EQ DUP1 ISZERO PUSH2 0x282 JUMPI POP PUSH1 0x2 DUP2 DUP2 SLOAD DUP2 LT PUSH2 0x264 JUMPI PUSH2 0x263 PUSH2 0xA05 JUMP JUMPDEST JUMPDEST SWAP1 PUSH0 MSTORE PUSH1 0x20 PUSH0 KECCAK256 SWAP1 PUSH1 0x3 MUL ADD PUSH1 0x2 ADD PUSH0 SWAP1 SLOAD SWAP1 PUSH2 0x100 EXP SWAP1 DIV PUSH1 0xFF AND ISZERO JUMPDEST ISZERO PUSH2 0x473 JUMPI PUSH0 PUSH1 0x64 PUSH1 0x2 DUP4 DUP2 SLOAD DUP2 LT PUSH2 0x29E JUMPI PUSH2 0x29D PUSH2 0xA05 JUMP JUMPDEST JUMPDEST SWAP1 PUSH0 MSTORE PUSH1 0x20 PUSH0 KECCAK256 SWAP1 PUSH1 0x3 MUL ADD PUSH1 0x1 ADD SLOAD DUP5 PUSH2 0x2B9 SWAP2 SWAP1 PUSH2 0xA5F JUMP JUMPDEST PUSH2 0x2C3 SWAP2 SWAP1 PUSH2 0xACD JUMP JUMPDEST SWAP1 POP PUSH0 DUP1 SLOAD SWAP1 PUSH2 0x100 EXP SWAP1 DIV PUSH20 0xFFFFFFFFFFFFFFFFFFFFFFFFFFFFFFFFFFFFFFFF AND PUSH20 0xFFFFFFFFFFFFFFFFFFFFFFFFFFFFFFFFFFFFFFFF AND PUSH4 0xA9059CBB PUSH1 0x2 DUP5 DUP2 SLOAD DUP2 LT PUSH2 0x314 JUMPI PUSH2 0x313 PUSH2 0xA05 JUMP JUMPDEST JUMPDEST SWAP1 PUSH0 MSTORE PUSH1 0x20 PUSH0 KECCAK256 SWAP1 PUSH1 0x3 MUL ADD PUSH0 ADD PUSH0 SWAP1 SLOAD SWAP1 PUSH2 0x100 EXP SWAP1 DIV PUSH20 0xFFFFFFFFFFFFFFFFFFFFFFFFFFFFFFFFFFFFFFFF AND DUP4 PUSH1 0x40 MLOAD DUP4 PUSH4 0xFFFFFFFF AND PUSH1 0xE0 SHL DUP2 MSTORE PUSH1 0x4 ADD PUSH2 0x360 SWAP3 SWAP2 SWAP1 PUSH2 0xAFD JUMP JUMPDEST PUSH1 0x20 PUSH1 0x40 MLOAD DUP1 DUP4 SUB DUP2 PUSH0 DUP8 GAS CALL ISZERO DUP1 ISZERO PUSH2 0x37C JUMPI RETURNDATASIZE PUSH0 DUP1 RETURNDATACOPY RETURNDATASIZE PUSH0 REVERT JUMPDEST POP POP POP POP PUSH1 0x40 MLOAD RETURNDATASIZE PUSH1 0x1F NOT PUSH1 0x1F DUP3 ADD AND DUP3 ADD DUP1 PUSH1 0x40 MSTORE POP DUP2 ADD SWAP1 PUSH2 0x3A0 SWAP2 SWAP1 PUSH2 0xB4E JUMP JUMPDEST POP PUSH1 0x1 PUSH1 0x2 DUP4 DUP2 SLOAD DUP2 LT PUSH2 0x3B7 JUMPI PUSH2 0x3B6 PUSH2 0xA05 JUMP JUMPDEST JUMPDEST SWAP1 PUSH0 MSTORE PUSH1 0x20 PUSH0 KECCAK256 SWAP1 PUSH1 0x3 MUL ADD PUSH1 0x2 ADD PUSH0 PUSH2 0x100 EXP DUP2 SLOAD DUP2 PUSH1 0xFF MUL NOT AND SWAP1 DUP4 ISZERO ISZERO MUL OR SWAP1 SSTORE POP PUSH1 0x2 DUP3 DUP2 SLOAD DUP2 LT PUSH2 0x3F0 JUMPI PUSH2 0x3EF PUSH2 0xA05 JUMP JUMPDEST JUMPDEST SWAP1 PUSH0 MSTORE PUSH1 0x20 PUSH0 KECCAK256 SWAP1 PUSH1 0x3 MUL ADD PUSH0 ADD PUSH0 SWAP1 SLOAD SWAP1 PUSH2 0x100 EXP SWAP1 DIV PUSH20 0xFFFFFFFFFFFFFFFFFFFFFFFFFFFFFFFFFFFFFFFF AND PUSH20 0xFFFFFFFFFFFFFFFFFFFFFFFFFFFFFFFFFFFFFFFF AND PUSH32 0xEAFF4B37086828766AD3268786972C0CD24259D4C87A80F9D3963A3C3D999B0D DUP3 PUSH1 0x40 MLOAD PUSH2 0x463 SWAP2 SWAP1 PUSH2 0xB79 JUMP JUMPDEST PUSH1 0x40 MLOAD DUP1 SWAP2 SUB SWAP1 LOG2 POP POP POP PUSH2 0x4BC JUMP JUMPDEST DUP1 DUP1 PUSH1 0x1 ADD SWAP2 POP POP PUSH2 0x1CC JUMP JUMPDEST POP PUSH1 0x40 MLOAD PUSH32 0x8C379A000000000000000000000000000000000000000000000000000000000 DUP2 MSTORE PUSH1 0x4 ADD PUSH2 0x4B3 SWAP1 PUSH2 0xC02 JUMP JUMPDEST PUSH1 0x40 MLOAD DUP1 SWAP2 SUB SWAP1 REVERT JUMPDEST JUMP JUMPDEST PUSH1 0x1 PUSH0 SWAP1 SLOAD SWAP1 PUSH2 0x100 EXP SWAP1 DIV PUSH20 0xFFFFFFFFFFFFFFFFFFFFFFFFFFFFFFFFFFFFFFFF AND DUP2 JUMP JUMPDEST PUSH1 0x1 PUSH0 SWAP1 SLOAD SWAP1 PUSH2 0x100 EXP SWAP1 DIV PUSH20 0xFFFFFFFFFFFFFFFFFFFFFFFFFFFFFFFFFFFFFFFF AND PUSH20 0xFFFFFFFFFFFFFFFFFFFFFFFFFFFFFFFFFFFFFFFF AND CALLER PUSH20 0xFFFFFFFFFFFFFFFFFFFFFFFFFFFFFFFFFFFFFFFF AND EQ PUSH2 0x572 JUMPI PUSH1 0x40 MLOAD PUSH32 0x8C379A000000000000000000000000000000000000000000000000000000000 DUP2 MSTORE PUSH1 0x4 ADD PUSH2 0x569 SWAP1 PUSH2 0xC6A JUMP JUMPDEST PUSH1 0x40 MLOAD DUP1 SWAP2 SUB SWAP1 REVERT JUMPDEST PUSH0 PUSH20 0xFFFFFFFFFFFFFFFFFFFFFFFFFFFFFFFFFFFFFFFF AND DUP3 PUSH20 0xFFFFFFFFFFFFFFFFFFFFFFFFFFFFFFFFFFFFFFFF AND SUB PUSH2 0x5E0 JUMPI PUSH1 0x40 MLOAD PUSH32 0x8C379A000000000000000000000000000000000000000000000000000000000 DUP2 MSTORE PUSH1 0x4 ADD PUSH2 0x5D7 SWAP1 PUSH2 0xCD2 JUMP JUMPDEST PUSH1 0x40 MLOAD DUP1 SWAP2 SUB SWAP1 REVERT JUMPDEST PUSH0 DUP2 GT DUP1 ISZERO PUSH2 0x5F0 JUMPI POP PUSH1 0x64 DUP2 GT ISZERO JUMPDEST PUSH2 0x62F JUMPI PUSH1 0x40 MLOAD PUSH32 0x8C379A000000000000000000000000000000000000000000000000000000000 DUP2 MSTORE PUSH1 0x4 ADD PUSH2 0x626 SWAP1 PUSH2 0xD3A JUMP JUMPDEST PUSH1 0x40 MLOAD DUP1 SWAP2 SUB SWAP1 REVERT JUMPDEST PUSH1 0x2 PUSH1 0x40 MLOAD DUP1 PUSH1 0x60 ADD PUSH1 0x40 MSTORE DUP1 DUP5 PUSH20 0xFFFFFFFFFFFFFFFFFFFFFFFFFFFFFFFFFFFFFFFF AND DUP2 MSTORE PUSH1 0x20 ADD DUP4 DUP2 MSTORE PUSH1 0x20 ADD PUSH0 ISZERO ISZERO DUP2 MSTORE POP SWAP1 DUP1 PUSH1 0x1 DUP2 SLOAD ADD DUP1 DUP3 SSTORE DUP1 SWAP2 POP POP PUSH1 0x1 SWAP1 SUB SWAP1 PUSH0 MSTORE PUSH1 0x20 PUSH0 KECCAK256 SWAP1 PUSH1 0x3 MUL ADD PUSH0 SWAP1 SWAP2 SWAP1 SWAP2 SWAP1 SWAP2 POP PUSH0 DUP3 ADD MLOAD DUP2 PUSH0 ADD PUSH0 PUSH2 0x100 EXP DUP2 SLOAD DUP2 PUSH20 0xFFFFFFFFFFFFFFFFFFFFFFFFFFFFFFFFFFFFFFFF MUL NOT AND SWAP1 DUP4 PUSH20 0xFFFFFFFFFFFFFFFFFFFFFFFFFFFFFFFFFFFFFFFF AND MUL OR SWAP1 SSTORE POP PUSH1 0x20 DUP3 ADD MLOAD DUP2 PUSH1 0x1 ADD SSTORE PUSH1 0x40 DUP3 ADD MLOAD DUP2 PUSH1 0x2 ADD PUSH0 PUSH2 0x100 EXP DUP2 SLOAD DUP2 PUSH1 0xFF MUL NOT AND SWAP1 DUP4 ISZERO ISZERO MUL OR SWAP1 SSTORE POP POP POP DUP2 PUSH20 0xFFFFFFFFFFFFFFFFFFFFFFFFFFFFFFFFFFFFFFFF AND PUSH32 0xE6B83177F11971BA30369BB38B914FFBA97D5969A3C857B286FA8FDBB150B3BA DUP3 PUSH1 0x40 MLOAD PUSH2 0x73F SWAP2 SWAP1 PUSH2 0xB79 JUMP JUMPDEST PUSH1 0x40 MLOAD DUP1 SWAP2 SUB SWAP1 LOG2 POP POP JUMP JUMPDEST PUSH0 DUP1 SLOAD SWAP1 PUSH2 0x100 EXP SWAP1 DIV PUSH20 0xFFFFFFFFFFFFFFFFFFFFFFFFFFFFFFFFFFFFFFFF AND DUP2 JUMP JUMPDEST PUSH1 0x2 DUP2 DUP2 SLOAD DUP2 LT PUSH2 0x77D JUMPI PUSH0 DUP1 REVERT JUMPDEST SWAP1 PUSH0 MSTORE PUSH1 0x20 PUSH0 KECCAK256 SWAP1 PUSH1 0x3 MUL ADD PUSH0 SWAP2 POP SWAP1 POP DUP1 PUSH0 ADD PUSH0 SWAP1 SLOAD SWAP1 PUSH2 0x100 EXP SWAP1 DIV PUSH20 0xFFFFFFFFFFFFFFFFFFFFFFFFFFFFFFFFFFFFFFFF AND SWAP1 DUP1 PUSH1 0x1 ADD SLOAD SWAP1 DUP1 PUSH1 0x2 ADD PUSH0 SWAP1 SLOAD SWAP1 PUSH2 0x100 EXP SWAP1 DIV PUSH1 0xFF AND SWAP1 POP DUP4 JUMP JUMPDEST PUSH0 PUSH20 0xFFFFFFFFFFFFFFFFFFFFFFFFFFFFFFFFFFFFFFFF DUP3 AND SWAP1 POP SWAP2 SWAP1 POP JUMP JUMPDEST PUSH0 PUSH2 0x7F7 DUP3 PUSH2 0x7CE JUMP JUMPDEST SWAP1 POP SWAP2 SWAP1 POP JUMP JUMPDEST PUSH2 0x807 DUP2 PUSH2 0x7ED JUMP JUMPDEST DUP3 MSTORE POP POP JUMP JUMPDEST PUSH0 PUSH1 0x20 DUP3 ADD SWAP1 POP PUSH2 0x820 PUSH0 DUP4 ADD DUP5 PUSH2 0x7FE JUMP JUMPDEST SWAP3 SWAP2 POP POP JUMP JUMPDEST PUSH0 DUP1 REVERT JUMPDEST PUSH2 0x833 DUP2 PUSH2 0x7ED JUMP JUMPDEST DUP2 EQ PUSH2 0x83D JUMPI PUSH0 DUP1 REVERT JUMPDEST POP JUMP JUMPDEST PUSH0 DUP2 CALLDATALOAD SWAP1 POP PUSH2 0x84E DUP2 PUSH2 0x82A JUMP JUMPDEST SWAP3 SWAP2 POP POP JUMP JUMPDEST PUSH0 DUP2 SWAP1 POP SWAP2 SWAP1 POP JUMP JUMPDEST PUSH2 0x866 DUP2 PUSH2 0x854 JUMP JUMPDEST DUP2 EQ PUSH2 0x870 JUMPI PUSH0 DUP1 REVERT JUMPDEST POP JUMP JUMPDEST PUSH0 DUP2 CALLDATALOAD SWAP1 POP PUSH2 0x881 DUP2 PUSH2 0x85D JUMP JUMPDEST SWAP3 SWAP2 POP POP JUMP JUMPDEST PUSH0 DUP1 PUSH1 0x40 DUP4 DUP6 SUB SLT ISZERO PUSH2 0x89D JUMPI PUSH2 0x89C PUSH2 0x826 JUMP JUMPDEST JUMPDEST PUSH0 PUSH2 0x8AA DUP6 DUP3 DUP7 ADD PUSH2 0x840 JUMP JUMPDEST SWAP3 POP POP PUSH1 0x20 PUSH2 0x8BB DUP6 DUP3 DUP7 ADD PUSH2 0x873 JUMP JUMPDEST SWAP2 POP POP SWAP3 POP SWAP3 SWAP1 POP JUMP JUMPDEST PUSH0 PUSH1 0x20 DUP3 DUP5 SUB SLT ISZERO PUSH2 0x8DA JUMPI PUSH2 0x8D9 PUSH2 0x826 JUMP JUMPDEST JUMPDEST PUSH0 PUSH2 0x8E7 DUP5 DUP3 DUP6 ADD PUSH2 0x873 JUMP JUMPDEST SWAP2 POP POP SWAP3 SWAP2 POP POP JUMP JUMPDEST PUSH2 0x8F9 DUP2 PUSH2 0x854 JUMP JUMPDEST DUP3 MSTORE POP POP JUMP JUMPDEST PUSH0 DUP2 ISZERO ISZERO SWAP1 POP SWAP2 SWAP1 POP JUMP JUMPDEST PUSH2 0x913 DUP2 PUSH2 0x8FF JUMP JUMPDEST DUP3 MSTORE POP POP JUMP JUMPDEST PUSH0 PUSH1 0x60 DUP3 ADD SWAP1 POP PUSH2 0x92C PUSH0 DUP4 ADD DUP7 PUSH2 0x7FE JUMP JUMPDEST PUSH2 0x939 PUSH1 0x20 DUP4 ADD DUP6 PUSH2 0x8F0 JUMP JUMPDEST PUSH2 0x946 PUSH1 0x40 DUP4 ADD DUP5 PUSH2 0x90A JUMP JUMPDEST SWAP5 SWAP4 POP POP POP POP JUMP JUMPDEST PUSH0 DUP2 MLOAD SWAP1 POP PUSH2 0x95C DUP2 PUSH2 0x85D JUMP JUMPDEST SWAP3 SWAP2 POP POP JUMP JUMPDEST PUSH0 PUSH1 0x20 DUP3 DUP5 SUB SLT ISZERO PUSH2 0x977 JUMPI PUSH2 0x976 PUSH2 0x826 JUMP JUMPDEST JUMPDEST PUSH0 PUSH2 0x984 DUP5 DUP3 DUP6 ADD PUSH2 0x94E JUMP JUMPDEST SWAP2 POP POP SWAP3 SWAP2 POP POP JUMP JUMPDEST PUSH0 DUP3 DUP3 MSTORE PUSH1 0x20 DUP3 ADD SWAP1 POP SWAP3 SWAP2 POP POP JUMP JUMPDEST PUSH32 0x4E6F2066756E647320617661696C61626C650000000000000000000000000000 PUSH0 DUP3 ADD MSTORE POP JUMP JUMPDEST PUSH0 PUSH2 0x9D1 PUSH1 0x12 DUP4 PUSH2 0x98D JUMP JUMPDEST SWAP2 POP PUSH2 0x9DC DUP3 PUSH2 0x99D JUMP JUMPDEST PUSH1 0x20 DUP3 ADD SWAP1 POP SWAP2 SWAP1 POP JUMP JUMPDEST PUSH0 PUSH1 0x20 DUP3 ADD SWAP1 POP DUP2 DUP2 SUB PUSH0 DUP4 ADD MSTORE PUSH2 0x9FE DUP2 PUSH2 0x9C5 JUMP JUMPDEST SWAP1 POP SWAP2 SWAP1 POP JUMP JUMPDEST PUSH32 0x4E487B7100000000000000000000000000000000000000000000000000000000 PUSH0 MSTORE PUSH1 0x32 PUSH1 0x4 MSTORE PUSH1 0x24 PUSH0 REVERT JUMPDEST PUSH32 0x4E487B7100000000000000000000000000000000000000000000000000000000 PUSH0 MSTORE PUSH1 0x11 PUSH1 0x4 MSTORE PUSH1 0x24 PUSH0 REVERT JUMPDEST PUSH0 PUSH2 0xA69 DUP3 PUSH2 0x854 JUMP JUMPDEST SWAP2 POP PUSH2 0xA74 DUP4 PUSH2 0x854 JUMP JUMPDEST SWAP3 POP DUP3 DUP3 MUL PUSH2 0xA82 DUP2 PUSH2 0x854 JUMP JUMPDEST SWAP2 POP DUP3 DUP3 DIV DUP5 EQ DUP4 ISZERO OR PUSH2 0xA99 JUMPI PUSH2 0xA98 PUSH2 0xA32 JUMP JUMPDEST JUMPDEST POP SWAP3 SWAP2 POP POP JUMP JUMPDEST PUSH32 0x4E487B7100000000000000000000000000000000000000000000000000000000 PUSH0 MSTORE PUSH1 0x12 PUSH1 0x4 MSTORE PUSH1 0x24 PUSH0 REVERT JUMPDEST PUSH0 PUSH2 0xAD7 DUP3 PUSH2 0x854 JUMP JUMPDEST SWAP2 POP PUSH2 0xAE2 DUP4 PUSH2 0x854 JUMP JUMPDEST SWAP3 POP DUP3 PUSH2 0xAF2 JUMPI PUSH2 0xAF1 PUSH2 0xAA0 JUMP JUMPDEST JUMPDEST DUP3 DUP3 DIV SWAP1 POP SWAP3 SWAP2 POP POP JUMP JUMPDEST PUSH0 PUSH1 0x40 DUP3 ADD SWAP1 POP PUSH2 0xB10 PUSH0 DUP4 ADD DUP6 PUSH2 0x7FE JUMP JUMPDEST PUSH2 0xB1D PUSH1 0x20 DUP4 ADD DUP5 PUSH2 0x8F0 JUMP JUMPDEST SWAP4 SWAP3 POP POP POP JUMP JUMPDEST PUSH2 0xB2D DUP2 PUSH2 0x8FF JUMP JUMPDEST DUP2 EQ PUSH2 0xB37 JUMPI PUSH0 DUP1 REVERT JUMPDEST POP JUMP JUMPDEST PUSH0 DUP2 MLOAD SWAP1 POP PUSH2 0xB48 DUP2 PUSH2 0xB24 JUMP JUMPDEST SWAP3 SWAP2 POP POP JUMP JUMPDEST PUSH0 PUSH1 0x20 DUP3 DUP5 SUB SLT ISZERO PUSH2 0xB63 JUMPI PUSH2 0xB62 PUSH2 0x826 JUMP JUMPDEST JUMPDEST PUSH0 PUSH2 0xB70 DUP5 DUP3 DUP6 ADD PUSH2 0xB3A JUMP JUMPDEST SWAP2 POP POP SWAP3 SWAP2 POP POP JUMP JUMPDEST PUSH0 PUSH1 0x20 DUP3 ADD SWAP1 POP PUSH2 0xB8C PUSH0 DUP4 ADD DUP5 PUSH2 0x8F0 JUMP JUMPDEST SWAP3 SWAP2 POP POP JUMP JUMPDEST PUSH32 0x596F7520617265206E6F7420612062656E6566696369617279206F7220686176 PUSH0 DUP3 ADD MSTORE PUSH32 0x6520616C72656164792077697468647261776E00000000000000000000000000 PUSH1 0x20 DUP3 ADD MSTORE POP JUMP JUMPDEST PUSH0 PUSH2 0xBEC PUSH1 0x33 DUP4 PUSH2 0x98D JUMP JUMPDEST SWAP2 POP PUSH2 0xBF7 DUP3 PUSH2 0xB92 JUMP JUMPDEST PUSH1 0x40 DUP3 ADD SWAP1 POP SWAP2 SWAP1 POP JUMP JUMPDEST PUSH0 PUSH1 0x20 DUP3 ADD SWAP1 POP DUP2 DUP2 SUB PUSH0 DUP4 ADD MSTORE PUSH2 0xC19 DUP2 PUSH2 0xBE0 JUMP JUMPDEST SWAP1 POP SWAP2 SWAP1 POP JUMP JUMPDEST PUSH32 0x4E6F7420746865206F776E657200000000000000000000000000000000000000 PUSH0 DUP3 ADD MSTORE POP JUMP JUMPDEST PUSH0 PUSH2 0xC54 PUSH1 0xD DUP4 PUSH2 0x98D JUMP JUMPDEST SWAP2 POP PUSH2 0xC5F DUP3 PUSH2 0xC20 JUMP JUMPDEST PUSH1 0x20 DUP3 ADD SWAP1 POP SWAP2 SWAP1 POP JUMP JUMPDEST PUSH0 PUSH1 0x20 DUP3 ADD SWAP1 POP DUP2 DUP2 SUB PUSH0 DUP4 ADD MSTORE PUSH2 0xC81 DUP2 PUSH2 0xC48 JUMP JUMPDEST SWAP1 POP SWAP2 SWAP1 POP JUMP JUMPDEST PUSH32 0x496E76616C696420616464726573730000000000000000000000000000000000 PUSH0 DUP3 ADD MSTORE POP JUMP JUMPDEST PUSH0 PUSH2 0xCBC PUSH1 0xF DUP4 PUSH2 0x98D JUMP JUMPDEST SWAP2 POP PUSH2 0xCC7 DUP3 PUSH2 0xC88 JUMP JUMPDEST PUSH1 0x20 DUP3 ADD SWAP1 POP SWAP2 SWAP1 POP JUMP JUMPDEST PUSH0 PUSH1 0x20 DUP3 ADD SWAP1 POP DUP2 DUP2 SUB PUSH0 DUP4 ADD MSTORE PUSH2 0xCE9 DUP2 PUSH2 0xCB0 JUMP JUMPDEST SWAP1 POP SWAP2 SWAP1 POP JUMP JUMPDEST PUSH32 0x496E76616C69642070657263656E746167650000000000000000000000000000 PUSH0 DUP3 ADD MSTORE POP JUMP JUMPDEST PUSH0 PUSH2 0xD24 PUSH1 0x12 DUP4 PUSH2 0x98D JUMP JUMPDEST SWAP2 POP PUSH2 0xD2F DUP3 PUSH2 0xCF0 JUMP JUMPDEST PUSH1 0x20 DUP3 ADD SWAP1 POP SWAP2 SWAP1 POP JUMP JUMPDEST PUSH0 PUSH1 0x20 DUP3 ADD SWAP1 POP DUP2 DUP2 SUB PUSH0 DUP4 ADD MSTORE PUSH2 0xD51 DUP2 PUSH2 0xD18 JUMP JUMPDEST SWAP1 POP SWAP2 SWAP1 POP JUMP INVALID LOG2 PUSH5 0x6970667358 0x22 SLT KECCAK256 SWAP4 GASPRICE SUB PUSH9 0x58472C4BF4F05424B4 PUSH19 0xC2717E0F2AF64688415C2AFD9D6A478EE93B64 PUSH20 0x6F6C634300081A00330000000000000000000000 "
		},
		"gasEstimates": {
			"creation": {
				"codeDepositCost": "694000",
				"executionCost": "infinite",
				"totalCost": "infinite"
			},
			"external": {
				"addBeneficiary(address,uint256)": "infinite",
				"beneficiaries(uint256)": "infinite",
				"owner()": "2508",
				"tokenAddress()": "2549",
				"withdrawFunds()": "infinite"
			}
		},
		"methodIdentifiers": {
			"addBeneficiary(address,uint256)": "96074e70",
			"beneficiaries(uint256)": "efeb5e58",
			"owner()": "8da5cb5b",
			"tokenAddress()": "9d76ea58",
			"withdrawFunds()": "24600fc3"
		}
	},
	"abi": [
		{
			"inputs": [
				{
					"internalType": "address",
					"name": "_tokenAddress",
					"type": "address"
				}
			],
			"stateMutability": "nonpayable",
			"type": "constructor"
		},
		{
			"anonymous": false,
			"inputs": [
				{
					"indexed": true,
					"internalType": "address",
					"name": "wallet",
					"type": "address"
				},
				{
					"indexed": false,
					"internalType": "uint256",
					"name": "percentage",
					"type": "uint256"
				}
			],
			"name": "BeneficiaryAdded",
			"type": "event"
		},
		{
			"anonymous": false,
			"inputs": [
				{
					"indexed": true,
					"internalType": "address",
					"name": "wallet",
					"type": "address"
				},
				{
					"indexed": false,
					"internalType": "uint256",
					"name": "amount",
					"type": "uint256"
				}
			],
			"name": "FundsWithdrawn",
			"type": "event"
		},
		{
			"inputs": [
				{
					"internalType": "address",
					"name": "_wallet",
					"type": "address"
				},
				{
					"internalType": "uint256",
					"name": "_percentage",
					"type": "uint256"
				}
			],
			"name": "addBeneficiary",
			"outputs": [],
			"stateMutability": "nonpayable",
			"type": "function"
		},
		{
			"inputs": [
				{
					"internalType": "uint256",
					"name": "",
					"type": "uint256"
				}
			],
			"name": "beneficiaries",
			"outputs": [
				{
					"internalType": "address",
					"name": "wallet",
					"type": "address"
				},
				{
					"internalType": "uint256",
					"name": "percentage",
					"type": "uint256"
				},
				{
					"internalType": "bool",
					"name": "hasWithdrawn",
					"type": "bool"
				}
			],
			"stateMutability": "view",
			"type": "function"
		},
		{
			"inputs": [],
			"name": "owner",
			"outputs": [
				{
					"internalType": "address",
					"name": "",
					"type": "address"
				}
			],
			"stateMutability": "view",
			"type": "function"
		},
		{
			"inputs": [],
			"name": "tokenAddress",
			"outputs": [
				{
					"internalType": "address",
					"name": "",
					"type": "address"
				}
			],
			"stateMutability": "view",
			"type": "function"
		},
		{
			"inputs": [],
			"name": "withdrawFunds",
			"outputs": [],
			"stateMutability": "nonpayable",
			"type": "function"
		}
	]
}